:020000041102E7
:1000000003B40148019001BDADAE000003B4014846
:10001000019001BD456B010003B40148019001BD91
:100020000189000003B40148019001BDC53F0000F3
:1000300003B40148019001BDE94C010003B401483B
:10004000019001BDC95C010003B40148019001BDEC
:10005000CD4C010003B40148019001BD154D0100D4
:1000600003B40148019001BD1D4B010003B40148D8
:10007000019001BD090E000003B40148019001BDCB
:10008000F54E010003B40148019001BD434D01004C
:1000900003B40148019001BD6189000003B4014827
:1000A000019001BD4551010003B40148019001BD1B
:1000B0002526000003B40148019001BD8B520100C8
:1000C00003B40148019001BDB352010003B40148DB
:1000D000019001BD0D52010003B40148019001BD22
:1000E000C94A010003B40148019001BD3D4B010024
:1000F00003B40148019001BD014C010003B4014863
:10010000019001BDF94C010003B40148019001BD0B
:10011000691F000003B40148019001BD5D17000094
:1001200003B40148019001BD5952010003B40148D4
:10013000019001BD5125000003B40148019001BDAB
:10014000594F010003B40148019001BD8D12000018
:1001500003B40148019001BD4D1F000003B40148E4
:10016000019001BD5522000003B40148019001BD7A
:10017000DD52010003B40148019001BD1D4D010095
:1001800003B40148019001BD810E000003B4014891
:10019000019001BD9128FF1F03B40148019001BDEA
:1001A0005549FF1F03B40148019001BDB12BFF1F4A
:1001B00003B40148019001BD3554000003B4014867
:1001C000019001BD017F000003B40148019001BD11
:1001D000E117000003B40148019001BD7918000047
:1001E00003B40148019001BDD949010003B401489D
:1001F000019001BDE928000003B40148019001BD50
:100200005549010003B40148019001BDC926000011
:1002100003B40148019001BD350E000003B401484C
:10022000019001BD6B3AFF1F03B40148019001BD6D
:10023000054AFF1F03B40148019001BD35190000B4
:1002400003B40148019001BDBD18000003B401488A
:10025000019001BDC521000003B40148019001BD1A
:10026000291C000003B40148019001BD851F000056
:1002700003B40148019001BDA946010003B401483F
:10028000019001BD1147010003B40148019001BD77
:100290009D48FF1F03B40148019001BD292EFF1F97
:1002A00003B40148019001BD6D2EFF1F03B4014846
:1002B000019001BD1D2BFF1F03B40148019001BD3A
:1002C0000F28FF1F03B40148019001BDE927FF1F5C
:1002D00003B40148019001BDE548000003B40148A2
:1002E000019001BD2951010003B40148019001BDF5
:1002F000D91B000003B40148019001BDA928FF1FCC
:1003000003B40148019001BDD128FF1F03B4014887
:10031000019001BD51470100F8B5D349D14A0020F1
:1003200004464A608300401CD450FF28FADD486828
:10033000CE4A014680318A606E22C262CC4A12786F
:10034000002A01D07F22C2620A220265C94A1378BC
:100350008363C94BC36115781023022D08D015782B
:10036000012D05D01578032D02D01578042D00D16C
:100370000362C24D45611925AD0185613725CD6008
:1003800036272826C7630825466405644F60322750
:100390000F603B27CF634127CF6439274031E0C14D
:1003A00032274F6002274F6142270831E0C11E27E4
:1003B0004F60CE608D6005264E6142260E615A2642
:1003C00060390E614D613C258D61AF25ED00056002
:1003D000AB4D05631578022D09D01578012D08D095
:1003E0001578032D07D01578042D06D007E01525C4
:1003F00004E0436003E00E2500E00C254560FF2586
:100400002D358560C560FF25F53505619D4D8564F9
:100410007D25ED009C4ECD67C66445629B4D85628F
:100420007325C565062545658565C51D0826F9350D
:1004300002272E6047664B27FF0087660927C7669D
:10044000934F07674667BE108467C667914F8E4E0D
:100450003E601678022E09D01678012E0AD0167842
:10046000032E0BD01278042A0CD00EE01A22CA6197
:10047000212205E01422CA61182201E01322CB6177
:100480000A6202E00E220B62CA617E4A8A627D2203
:10049000D2008A6764224A620522CA6202220A6383
:1004A000C8228C634A63382169607B4929647B498F
:1004B000A9614B21C900E9617349FF3064392962A0
:1004C0007D2109016962EC661E212C67A9667049CD
:1004D000A965E96589102966696469677049A96732
:1004E0007049714A8130E967026082604160FF2192
:1004F000F531C16001616E486C495A4A81606D49AD
:10050000803A11616A496C4A80318A626B4ACA62D8
:100510006B4A82616B4AC2626B4A02636B4A6448EF
:100520004038C2636A4ACA616A49816360496A485D
:10053000403188616A49694888605D48694A803805
:100540004260694A4263694A0A626949816058495E
:100550006848C039C860FFF753FD0120FFF756FD1A
:10056000F8BDF3B50746644881B0C169634A1140DC
:10057000FF310931C161002613E000252C4611200E
:10058000FFF74AFD5C48406A8007800F61008840A1
:100590002843641CE4B20546102CF0D301C7761C36
:1005A000F6B202988642E8D3FEBD10B52E4C6078B4
:1005B00000280AD104215248FFF7D3FF50480421F4
:1005C0001030FFF7CEFF0120607010BDF0B50024A1
:1005D0008BB00D460646102902D901200BB0F0BDA4
:1005E000FFF7E3FF464900200A5C401C1419C0B223
:1005F0001028F9D3002C03D0102D03D90B20EDE7E0
:100600000E20EBE73F483E4C0023006802A910345F
:10061000E25CC75C7A40CA545B1CDBB2102BF7D398
:1006200006AA3748FFF7FEFC102D00D910252A46F0
:1006300006A93046FFF7FCFCFFF700FD21684018D3
:100640002060FFF7FBFC616840186060FFF7F6FC74
:10065000A1684018A060FFF7F1FCE1684018E06075
:100660000020BBE70004FF1FC06FFF1FE89AFF1FB9
:10067000A86AFF1F4A0AFF1F3A07000080C3C9018A
:100680009A02000050C30000280A00006A18000007
:10069000204E0000F009FF1F00400011681000000C
:1006A000DC05000040420F0010270000415AFF1FE8
:1006B0000001FF1F1135FF1F655EFF1F3D61FF1F1A
:1006C0007931FF1F0D33FF1F9531FF1FE53FFF1FDE
:1006D000A967FF1FCD65FF1F6928FF1FC938FF1FCE
:1006E0000002FF1FB956FF1F9558FF1FD957FF1F64
:1006F0007556FF1FF938FF1F40F0004000FEFEFF57
:100700007095FF1FE46FFF1F0A7802708A784270AD
:100710004A88120A82700979C170042070470A78E9
:1007200002700988090A41700220704710B5002242
:100730000EE093005B189C7804705C88521C240ABD
:1007400044701C7984709B88D2B21B0AC370001D50
:100750000B789342EDD81806800D10BDF8B50D4604
:1007600006464978012031700024761C16E069782D
:10077000012917D01221614349198A7832704A88B9
:10078000871C120A7270B61C10223046091DFFF732
:100790004FFC1037B8B21036641CE4B22978A1427D
:1007A000E5D8F8BDA10049198A7832704A88871CBB
:1007B000120A7270B61C02223046091DFFF738FC7F
:1007C000BF1CB8B2B61CE7E710B50C46097801703B
:1007D0002188090A41706288211D801CFFF728FCCE
:1007E0006088801C80B210BD10B50C46097801707D
:1007F0002188090A4170A17881706188090AC17055
:10080000A288A11D001DFFF713FCA088001D80B267
:1008100010BD10B50C460A88891CFFF709FC20881A
:1008200010BD10B50B788A7802705343DCB22246B3
:10083000401C091DFFF7FCFB601C10BD10B50B78B8
:100840008A7802705343DCB22246401C091DFFF730
:10085000EFFB601C10BD10B50C460A88891CFFF721
:10086000E7FB208810BD10B50C460A88891CFFF7ED
:10087000DFFB208810BD7FB515460446022901D054
:10088000102903D1022B04D0102B02D0002004B079
:1008900070BD994202D10A46294607E010296946EF
:1008A00007D000F00DF8102269462846FFF7CCFB70
:1008B000EDE7104600F004F8102269462046F5E7FF
:1008C00070B50C4605000CD0002C0AD01022064949
:1008D0002046FFF7ADFB287820736878607301200D
:1008E00070BD002070BD0000348C021110B50B46A5
:1008F0000122024902F0B4FE10BD000009070211F6
:1009000070B5064608880C46172812D30B460322FA
:100910000949304602F0A4FE050008D107492088A5
:100920000988884200D20146304600F0ABF92846DB
:1009300070BD022070BD00001F070211F26FFF1F83
:1009400010B500231922194602F08AFE10BD0000DE
:1009500010B50A78002A05D00B460722024902F09A
:100960007FFE10BD022010BD2D07021110B54A7880
:10097000012A01D0022A08D10A78002A05D00B46A4
:100980000522034902F06CFE10BD022010BD0000DC
:100990005D07021101494000085A7047F06FFF1FC0
:1009A00010B50B461D22024902F05AFE10BD000090
:1009B000C907021110B50B461B22024902F050FE76
:1009C00010BD0000C90702110149172008807047B7
:1009D000F06FFF1F0098022B01D0042070471178A0
:1009E0005278120289180180002070470098012B6C
:1009F00001D004207047117801700020704770B555
:100A0000049C1E461546062B1BD3697828780902DC
:100A100040182080E978A8780902401860800222F6
:100A20002271291D601DFFF703FBB61FB2B22281A0
:100A3000F02A06D82046A91D0A30FFF7F9FA00204F
:100A400070BD042070BD0098042B01D004207047B5
:100A5000537811781B02C91801809178D27812025C
:100A60008918418000207047F8B584890D460646F4
:100A7000002C26D0B2681778380620D50C2C20D947
:100A80000C3CA4B21019009001217088234602F09A
:100A90007FFD002811D0022028707806C00F6870F2
:100AA000B806800EA870641E2004000CA88001D037
:100AB000B068401CA8600020F8BD0120ECE70020D1
:100AC000EAE70120F8BD10B502981146042B14D3B3
:100AD0004C780A78240212190280CC788A78240291
:100AE000121942801B1F9AB28280F22A05D8801DFB
:100AF000091DFFF79DFA002010BD042010BD0098CD
:100B0000042B01D004207047537811781B02C918B8
:100B100001809178D27812028918418000207047B4
:100B200010B502981146062B03D0142B03D00420D5
:100B300010BD022200E0102202714B780A781B02DD
:100B4000D2180280CB788A781B02D21842800279B0
:100B5000401D091DFFF76CFA002010BD30B5039C45
:100B6000D80718D1D805010E022914D30B48808864
:100B7000814210D8F6200155002008E055781378FE
:100B80002D025B194500401C6353C0B2921C884281
:100B9000F4D3002030BD042030BD0000EA6FFF1FF9
:100BA0000098022B01D0042070471178527812026D
:100BB000891801800020704770B5144602460498D9
:100BC000022B18D3667825783602AD1905800546C4
:100BD000E0352A766976002A0BD0E8219B1E9AB26E
:100BE00042808A4207D8A11C001DFFF721FA00208D
:100BF00070BDF421F2E7042070BD000010B50B4673
:100C00001722024902F02CFD10BD0000E907021175
:100C100010B50B460D22024902F022FD10BD000066
:100C20001308021110B50A78002A05D00B461122CC
:100C3000024902F015FD10BD022010BD230802116B
:100C400010B50A78002A05D00B460922024902F0A5
:100C500007FD10BD022010BD3D08021110B50B4666
:100C60000F22024902F0FCFC10BD000057080211DF
:100C700010B50B460B22024902F0F2FC10BD000039
:100C800067080211044A1288914203D8024A4000C0
:100C9000921D115270470000EA6FFF1F10B500232C
:100CA0001322194602F0DCFC10BD000010B5054906
:100CB000054801F09BF90348044A0521083001F07A
:100CC00015FB10BD786CFF1FFFFF0000D88B0211D1
:100CD000034610B50020104A002B08D0012B08D085
:100CE0001032022B08D0032B09D0022010BD12783D
:100CF00000E052780A7010BD52890A8010BD064B80
:100D00009B1C1C780C715B784B71538D0B80528F40
:100D10004A8001228A7110BD706CFF1F10B5054911
:100D20005F200A785F2A03D90870034806F0EAFAC0
:100D3000002010BD706CFF1FDD36021101494860B4
:100D400070470000706CFF1F10B50249087003F077
:100D500085F910BDFC6AFF1FFFB599B000261F463C
:100D6000079607AA089600F0CFF9054603F076F833
:100D70000A2D7AD22C460620444320462030C0B2A9
:100D80006A460E2106F016FB002802D168468089CB
:100D9000C6B21B980990082F14D000201790082F76
:100DA00012D020462130C0B218901C220021684683
:100DB000FFF750F96A461C21189806F0FBFA002844
:100DC00005D010E00120E9E720462230EBE7684635
:100DD000807EC01F092806D8F107C90F6A46179BF5
:100DE000099800F0D9FD1422002110A8FFF732F96C
:100DF00020462430C0B210AA102106F0DBFA0028E9
:100E000012D11022FF2110A8FFF72AF900280BD1D8
:100E10002534E0B214AA042106F0CCFAF107C90F78
:100E200010AA1B9800F0FCFF7035E8B20BAA102145
:100E300006F0C0FA002811D10BA803F000F9002435
:100E40000BADA00040190188002903D082781B98BF
:100E500001F0A8FA641CE4B2042CF2D3B00704D564
:100E6000094801781B9801F08BFA042F08D1064934
:100E70001B98491C085C022802D11B9803F026F934
:100E800000201DB0F0BD0000FC6AFF1F70B50024FB
:100E9000054600290BD108491046FFF7E7F8084638
:100EA000294600F0A3FE040003D00121284600F0EB
:100EB000DDFF204670BD000040420F0070B50C46BB
:100EC000080428D515480078FFF7D6F805001ED08D
:100ED0000178B02908D0B1290ED0D02914D100F062
:100EE0001FF8002810D112E001791E290CD1688862
:100EF000002100F065F907E00179002904D1028999
:100F0000C188688800F048FA2846FFF7BBF801203E
:100F1000C003604070BD002070BD0000FC6AFF1F70
:100F20007FB582786E4C921FE1691300FFF7B0F82D
:100F30000AB2D6D6681B06D6D65F7AD605460029F1
:100F400008D00E68002E05D06B7B2A7B6989E81CCF
:100F5000B047C3E06989A06900F048FE0028F8D0D6
:100F60006889012190E00546407800282DD1A879B4
:100F7000C0072AD0A8885A49800020310858002884
:100F800023D10E2200216846FFF764F86969002921
:100F900003D006226846103107E0A88806F052F90F
:100FA00000283ED0C11D06226846FFF741F8694679
:100FB0008889A9794907C90F084369468881294664
:100FC000684602F003FE002809D0E069002828D016
:100FD0004368002B25D06A78A888012151E0A888B1
:100FE0002A46694603F044F9002004B070BD002988
:100FF00074D04B68002B71D042788088022140E089
:101000000446C0780022211D00F07EF80A2865D22F
:101010000621484325302246C0B20C32042106F096
:10102000D4F95BE00546607A0028A88801D0A17A4F
:101030002AE02B49491C095C002924D006F002F95A
:101040000646A87AC0070DD0002E47D0B0790028F8
:1010500008D0A989890505D46A46F11D00F054F825
:10106000002814D02A46B179A888083202F06CFE14
:10107000E069002832D04368002B2FD00022A888D6
:10108000114698472AE0052100F0F0FE26E0A888E6
:101090000321F9E700F08AFD00281FD1E07B00253D
:1010A000012805D00F4E0024305D012809D00CE046
:1010B00002F018FFE5730A2200210A48FEF7CAFF72
:1010C00007E0204602F01AFF3555641CE4B20A2CF2
:1010D000EAD3502006F06CF902F0C0FF012084E74B
:1010E000FC6AFF1F9C90FF1F10B5064CE061217841
:1010F000FF2905D0262000F083FE207801F0F0F8CB
:1011000010BD0000FC6AFF1FF0B50A2485B016462A
:101110000F46002807D0012805D00A25022810D044
:10112000032847D11FE0084602F048FF04460A287A
:1011300040D2002E3ED0062239463046FEF778FFD8
:1011400038E01E4F002400910E206043C019062293
:10115000801D0099FEF778FF002823D1641CE4B2BB
:101160000A2CF1D31CE000242046062148432330FA
:10117000C0B26A46102106F01DF900280CD11022D9
:10118000FF216846FEF76CFF002805D13946684606
:1011900000F0EAFD002805D0641CE4B20A2CE3D379
:1011A0002C4607E00A2C05D2002E03D031462046FB
:1011B00002F02AFF204605B0F0BD00001090FF1F8E
:1011C00070B50E4617491525884212D100243246C3
:1011D0000221204602F05AFE002800D00025641C9F
:1011E000E4B20A2CF3D3002E1AD00F4806F08AF886
:1011F00016E006F027F8040011D0A0790022E11DC6
:10120000FFF782FF0A2804D23246022102F03EFE96
:101210000025002E04D0204602F04EFF00E01425E9
:10122000284670BDFFFF0000B9400211FEB515460B
:1012300001229202821A00240127544E1300FEF765
:1012400027FF110A151A21282F373E434B767E853A
:101250008D9B9B569B00012970D1297802297FD84C
:101260004A480122401CFEF7F5FE8DE0022977D1A5
:101270002888708288E0012972D1287801286FD8E7
:10128000B07081E001296BD12878042868D8F0700B
:101290007AE0012964D12878012861D8307173E09F
:1012A00010295DD1102229463948FEF7C1FE6BE0B6
:1012B000012955D12878012852D8707164E001299C
:1012C0004ED12878F0725FE0042949D1314928686D
:1012D000884245D8B06157E0002941D100F066FC52
:1012E000002801D0F7734FE002F0FCFD19E0072958
:1012F00036D10622691C6846FEF7D0FE2878002207
:101300006946FFF701FF05460A280ED200F04EFCA1
:10131000002803D01E489C30475535E0284602F08F
:10132000EDFD502006F044F823E002242CE00129D2
:1013300016D12878012813D8707225E010E0012911
:101340000ED1287809280BD8B0721DE0012907D1E9
:101350002878C11F092903D8307315E0012901D06D
:10136000182411E0B07B2978B17300280CD1012931
:101370000AD102F073FE07E02728D6D20229D4D181
:10138000298800F03DFD04462046FEBDFC6AFF1F93
:101390000090FF1F3F420F00F8B50F461349152577
:1013A000164688420DD1002432463946204602F0C6
:1013B000AFFE002800D00025641CE4B20A2CF3D351
:1013C00012E005F03FFF00280DD08379C11D0022F7
:1013D0001846FFF799FE0A2806D23246394602F02F
:1013E00097FE002500E014252846F8BDFFFF000009
:1013F00070B50C460146032000020A1A0025344845
:101400001300FEF745FE1D1012151C1F2326282C65
:10141000303234383A3C3E40424446484A4E5052BC
:101420005A5456585A00C07911E01022294902E056
:101430002849102210312046FEF7FAFD45E0C06A27
:10144000206042E0224906223C31F4E70078207017
:101450003BE0808936E01E4942784231EBE71D4986
:1014600082781F39E7E7007AF1E7407AEFE7184919
:1014700006223031DFE7807AE9E7C07AE7E7C08902
:1014800020E0808A1EE0C0781CE0C08A1AE0008B51
:1014900018E0408B16E0808B14E00D4906223631AF
:1014A000C9E7C08B0EE0008C0CE0408C0AE080792C
:1014B000CDE7008A06E0408A04E0272904D20846E6
:1014C00000F0F8FA208000E00225284670BD0000F8
:1014D000A86BFF1FDB90FF1F70B50E4C00256071DD
:1014E000A571691EE18100F039FC0420E071102231
:1014F00000210948FEF7AEFD0748102200211030F8
:10150000FEF7A8FDE562257265720720A072E572FC
:1015100070BD0000A86BFF1FDB90FF1FFEB53B4DA9
:101520000C4608040CD56879FEF7A6FD050004D02A
:1015300003F0DEFB2846FEF7A5FD0120C00360E0B6
:10154000600403D5012080034840FEBD2F48E10719
:101550000126807900292AD02978002920D0052861
:1015600021D0297A68460170697A4170274906229C
:101570003031801CFEF75CFDA97A68460172E97A79
:1015800041726946687900F0B1FA002808D0072056
:10159000A871696A002903D00968002900D088472A
:1015A00020467040FEBD032069460870E4E7A107AD
:1015B0000DD5052809D1E889FEF776FDAA8A002A0B
:1015C00003D002216879FEF775FD022019E060075B
:1015D00004D5002003F0CCFB042012E0200712D534
:1015E0002879012802D002280AD107E00096AB8BA7
:1015F0006A8B298BE88A00F00BF801E000F05AF9B9
:1016000008206040FEBD0020FEBD0000A86BFF1F4B
:10161000F8B5134C069EA579052D01D01420F8BD10
:10162000104F851FBD4219D2062917D3BD1DA942EF
:1016300014D2FF27F537BA4210D20A2B0ED3AB4291
:101640000CD2E08221836283A383304603F090FBB7
:1016500004216079FEF734FD0020F8BD1820F8BDA4
:10166000A86BFF1F7A0C0000F7B50D468049009863
:10167000164642187F4F00247879B9791300FEF797
:1016800007FD190E141BE92040455970777E888F9D
:10169000E996A2A9B4BFC8E9E9E9E9D3E900102DA8
:1016A00076D11022314674486FE0102D70D1724807
:1016B00010223146103068E0042D69D13068F8629C
:1016C000CEE0012D64D13B7832783A70002B0AD0FD
:1016D000002A07D1022903D0062901D0042901D10B
:1016E00000F0BEF9BCE0002A0AD0012905D0032988
:1016F00003D0052901D0042902D10121FEF7E6FC1F
:10170000AEE0022D44D13088B881A9E01F2D3FD82A
:1017100058481F2200214230FEF79CFC55482A46BB
:1017200031464230FEF784FC524B7D7042332A46EC
:10173000012112E01F2D7CD84F481F2200211F38A5
:10174000FEF788FC4C482A4631461F38FEF770FCED
:10175000494B2A461F3BBD700021787900F0D6FB2B
:1017600083E0012D65D13078042862D8387277E0A3
:10177000012D5ED1307803285BD8787270E0062D99
:1017800057D13C48062231463030FEF751FC67E025
:101790004FE0012D4DD1307807284AD8B8725FE06C
:1017A000012D46D13078032843D8F87258E0022D35
:1017B0003FD13288BA82002A52D0052950D1022165
:1017C000FEF778FC4CE0012D33D13078012830D879
:1017D000F87045E03088022D2BD1062829D3192135
:1017E000C901884225D8F8823AE03088022D20D1FC
:1017F00006281ED31921C90188421AD838832FE040
:101800003088022D15D1FF21F531884211D278831D
:1018100026E03088022D0CD10A280AD31921C901EB
:10182000884206D8B8831BE03178012D01D1012907
:1018300001D0182414E00821FEF74EFC002801D046
:1018400016240DE0002003F093FA04217879FEF7C6
:1018500037FC05E00098272801D2022D02D002248F
:101860002046FEBD318800F0CBFA0446F8E70000C0
:10187000FFFCFFFFA86BFF1FDB90FF1F1CB50B4C8D
:10188000A179002901D011201CBD002800D0606280
:10189000064907482C31034601910090103B002275
:1018A000E179607900F0BCF800201CBDA86BFF1F37
:1018B000EB90FF1F10B506488179052901D0122051
:1018C00010BDC1891322407900F0E0FA10BD00007C
:1018D000A86BFF1FF8B504462C480F460078022875
:1018E00005D0012803D0082803D1002F01D01220F1
:1018F000F8BD002C07D02088254D810069580029AB
:1019000003D01120F8BD0220F8BD05F09BFC0600B5
:1019100036D02C20FEF7E6FB21888900685000288D
:1019200030D02C220021FEF795FB20881C2281005C
:10193000695848802088211D80002858001DFEF726
:1019400077FB21880220890069580870228890005E
:101950002B5870791B1D002816D000200D490978DE
:1019600001F0C2FD0546002F03D03946304606F08F
:1019700053F8002D02D0208802F0F4FC2846F8BD70
:101980001420F8BD1320F8BD0120E7E7F76FFF1F13
:101990006070FF1F8570FF1FFFB5204D81B0287854
:1019A0001E461746022823D0012821D0002F22D01E
:1019B000019805F047FC04001FD0606A002801D0A0
:1019C000FEF796FB1C213846FEF798FB606201008B
:1019D00015D02878000714D5002E12D0887E0090EC
:1019E0000B4612330A8A019806F0E0FA014609E034
:1019F000122005B0F0BD0220FBE71420F9E7132008
:101A0000F7E700212079042210432071029A002A6E
:101A100002D00222104320710846EAE7F76FFF1F49
:101A2000F8B51D460224069F079E0B00FEF730FB0B
:101A30000D1508151508151515151515150815009A
:101A400000F0B8F8040008D132463946284600F0C4
:101A50008FF900F0EFF801F037FD2046F8BD0000E7
:101A600070B5104C2168002904D00978814203D058
:101A7000032070BD122070BD0B4D02212878FEF7A7
:101A80001FFB0A480026468004212878FEF718FB31
:101A9000074806802168032048700020FEF734FBC9
:101AA00070BD00005470FF1F8570FF1F6870FF1F1E
:101AB000FA6FFF1F272803D202494000085A7047D7
:101AC000014870470270FF1FFFFF000010B5064C71
:101AD000607005F0E7FB6078FEF71CFB052160787D
:101AE00001F084FB10BD00008470FF1F70B5284E0C
:101AF000054630680C46002801D0112070BD2548ED
:101B000001780520014216D023488068002805D0BE
:101B10000078002802D0C80706D101E0102070BD6F
:101B200000F044F8002808D02078032805D00228C7
:101B300003D0002801D0122070BD0C20FEF7D2FA8D
:101B40003060002820D00570002141700A22214613
:101B5000801CFEF76DFA03F0EFF9040002D002F0EA
:101B6000F5FB12E00D48007803280ED11D20FFF789
:101B7000A1FF0B490028088007D00B48094A04211F
:101B80000078FEF7CDFA00E01324204670BD000077
:101B90005470FF1FF76FFF1F6870FF1FF86FFF1F64
:101BA000FA6FFF1F60EA00008570FF1F10B505F097
:101BB00097FB10BD70B50C4605461C220021094854
:101BC000FEF748FA084805704470FEF7AFFA054979
:101BD000002803D000200870122070BD01220A7076
:101BE00070BD0000A095FF1FF66FFF1F7FB5044674
:101BF0000D46084605F026FB002805D00C48844217
:101C000004D9022004B070BD1220FBE7102200218D
:101C10006846FEF71FFA68460470210A4170210CDD
:101C20008170210EC170294601F0C0FBEAE7000077
:101C30003F420F0070B50F4C0025A068002802D06D
:101C4000FEF756FAA560E068002802D0FEF750FAC9
:101C5000E560094805210078084206D005481030A3
:101C600002F046FF01F088FF70BD002002F040FF47
:101C7000002070BD6870FF1FF76FFF1FFEB5344D69
:101C80000C46080419D56878FEF7F6F90121C90356
:101C90004C40064600280ED002F04AFE002807D12C
:101CA0002878FF2804D03146FEF746FA002802D0F3
:101CB0003046FEF7E7F92046FEBDE0070127002881
:101CC0000AD0A868002804D04168002901D000206B
:101CD000884720467840FEBDA00709D568680028DF
:101CE00004D04168002901D00120884702202AE061
:101CF00060072AD5174E308800281FD0401E0004E8
:101D0000000C30801ED102F093FB002809D012484D
:101D100007706868002804D04168002901D00120BC
:101D2000884702F05FFB694601F0BEFA684602F0A0
:101D3000E9FD1D20FFF7BEFE308003E00421687836
:101D4000FEF7BEF904206040FEBD0020FEBD00008D
:101D50008470FF1FFA6FFF1FF96FFF1F01490870A2
:101D6000704700008470FF1F10B501F087FB10BDA5
:101D700070B50E4C0B46261D07C6054610220021E5
:101D80001846FEF76DF9012803D11021A06805F06F
:101D9000AFFC102200212846FEF762F9012803D18A
:101DA0001021606805F0A4FC70BD0000A095FF1F25
:101DB00038B505460F480C460078400701D412207C
:101DC00038BD284605F03EFA002811D00A48A9007F
:101DD0004058002801D0817D00E02146684606F089
:101DE0003BF9064B6A460221284606F09BF838BDAF
:101DF000142038BDF76FFF1F6070FF1F658502114B
:101E0000272807D2044A914204D0044A40001152C4
:101E10000020704702207047FFFF00000270FF1F84
:101E200070B50E46104915460978022916D00129C9
:101E300014D0002D14D005F005FA040012D0002EA5
:101E400003D0207902210843207110222946A018CE
:101E5000FEF7EEF828692062002070BD122070BDE8
:101E6000022070BD142070BDF76FFF1F38B50C46FF
:101E7000054605F0E7F9002806D068460470694673
:101E8000284606F03DF838BD142038BDF8B50D469B
:101E900017461D4906461B4A1224C868954208D1B8
:101EA00000282DD00268002A2AD0294630469047C3
:101EB00023E0144A521C954213D1002807D002682F
:101EC000002A04D0294630469047040005D0394600
:101ED000304601F093FC040012D10B4806704770A5
:101EE0000EE0284605F0AEF9002809D00078B0428F
:101EF00005D139462846FEF725F9044600E00324BB
:101F00002046F8BDFEFF00005870FF1FF8B50E46D2
:101F1000014619481546007805221F46104028D072
:101F2000304326D01548012E1BD0C468002C20D089
:101F30001F2D18D8002D01D0002F14D001701F22A2
:101F40000021601CFEF786F82A463946601CFEF721
:101F50006FF828462570002E07D0611CFEF7F8F8B0
:101F6000F8BD8468E2E70220F8BD611CFEF7F6F8D0
:101F7000F8BD1220F8BD0000F76FFF1F6870FF1F4B
:101F8000014610B50020C90704D0034A04210348C4
:101F900000F0ACF910BD0000C08B02112C6CFF1FCB
:101FA00070B50F4D0F4CA87029461831204600F02F
:101FB0001DF8002128460B461030CA008452121822
:101FC000491C09065360090EF7D0012003F094FE66
:101FD000A87800F071FB044805F0AAF970BD000074
:101FE0000C6CFF1FFFFF00003155021170B50A4C49
:101FF0000025A04209D1002082008C525218401CBA
:10200000C0B295700228F7D370BD03F060FA0028C3
:10201000FAD00480857070BDFFFF0000F8B50E4651
:102020000746069900240798002902D00B24204671
:10203000F8BD022B01D00D24F9E711785278120275
:1020400089188DB22946814301D08024EFE73846B4
:10205000F16800F03DF9A842E9D02A463846F16817
:1020600000F0CCF90400E2D171892A46384600F02C
:102070006BF9DCE770B50C46080412D50A48807885
:10208000FDF7FAFF050008D02878B02802D12846CD
:1020900003F03AFB2846FDF7F5FF0120C00360403E
:1020A00070BD002070BD00000C6CFF1FFFB587B035
:1020B000087A0025109E1C460F46C0060DD50998CB
:1020C00003F0FEF9030006D00A2239460798984724
:1020D000050035D101E00E2532E0387802281DD107
:1020E000786829220178407812020002081880B22C
:1020F000811A90427ED009DC7249401A23D001280F
:1021000021D0022851D0032808D125E0012972D01E
:10211000022971D003296DD004296ED0099803F0EB
:10212000F7F90028D7D00568002DD4D0129911985E
:10213000019100903346224639460798A847054644
:1021400028460BB0F0BD1198002873D1F8680178CB
:1021500031800278416897E0119800286AD1012007
:102160003080F8680021007820707889401C80B2A7
:1021700000F072F900280FD0318802788918891C84
:102180003180817A61704189090AA17002784168C1
:10219000E01CFDF74DFFD3E730880422001D30809E
:1021A0000021601CFDF756FFCAE71198002872D184
:1021B000F86804A9008800900420308000982070FE
:1021C0000098000A6070009800F046F9070028D0D7
:1021D000F86805906846028A03AB3B49384600F030
:1021E00093F900280FD13B78022138487A68FEF72E
:1021F00042FB03E027E031E01DE049E0002802D186
:10220000401E694688810598007802280CD10598FF
:1022100002224168201DFDF70BFF3088801C3080B2
:1022200002E069460098888168468089A070000AAB
:10223000E07085E72FE0119800282CD1F968079805
:1022400000F046F804E01198002824D1F8680088CE
:10225000022131802070000A607071E7F868FDF794
:1022600083FF1199C0B2814210D8814201D100226E
:1022700006E0129A8918814202D31199401AC2B21B
:102280003280F96811980918204682E7072557E738
:102290001198002801D00B2552E70721F8683180FA
:1022A00001782170417861708178A1704188090AB4
:1022B000E1700179217181796171C088000AA07192
:1022C0003EE7000000280000FFFF0000AA8C02117A
:1022D00010B503F0FCF8002800D0807810BD000095
:1022E00001490870704700000C6CFF1F7CB5144654
:1022F000050019D068460195018000F0E3F903005C
:102300001DD1002C1BD06D89002D0DD00C20FDF7A8
:10231000E9FE00280AD0002303608580094A846012
:102320009168002904D006E0022308E0132306E0A8
:10233000906004E011460A68002AFBD10860184644
:102340007CBD00000C6CFF1FF8B50C4C07462078D4
:1023500015460E46FF280FD00A20FDF70BFF01009F
:102360000AD0B12008700020487008714F80CE80DC
:102370000D812078FDF7E0FEF8BD00000C6CFF1F1A
:1023800070B50C4605460649FFF7A2FF800704D545
:102390002146284600F0EAF970BD012070BD00001A
:1023A000246CFF1F1CB56B461A71120A5A71002269
:1023B0000092022301AA00F001F81CBDFFB583B012
:1023C00008461F4601A90C9E00F046F8050012D0F1
:1023D0006846808803F09CF800280AD04468002CE6
:1023E00007D000963B462946059A0398A04707B0B8
:1023F000F0BD0E20FBE70120F9E7000070B51446A0
:102400000E46054603F063F8002806D1314605481C
:1024100003F05DF8002803D005808470002070BDB3
:10242000112070BDFFFF000010B50178B0290BD15D
:102430004178002908D10179122906D01B2903D13E
:102440004088012100F05CFE10BDFF210231095CD3
:102450000129F5D010BD0000F0B58C4610494B683D
:1024600019E09F687C89A04214D39E88311981426B
:1024700010D900220CE011017D186989814205D133
:102480006046002800D004802846F0BD521C92B25D
:102490009642F0D81B68002BE3D10020F0BD00006D
:1024A0009070FF1FFFB5174881B00A9F446824E071
:1024B00000251EE0A068290146187089019988420C
:1024C00015D30299884212D80498002807D0317891
:1024D0007068049B039AFEF7CEF9002807D0002FFE
:1024E00002D0A06840893880304605B0F0BD6D1C30
:1024F000ADB2A088A842DDD82468002CD8D1002035
:10250000F3E700009070FF1FFEB5174600256A46EE
:102510009580044640891D4A1E46904208D001AA73
:102520000092401C237880B26268FFF7BBFF05462B
:102530002378022116486268FEF79DF9002807D12A
:102540002378022113486268FEF795F9002801D02C
:1025500060890EE0237802210F486268FEF78BF94C
:1025600000280DD0002D03D068468088B84203D0E3
:10257000384603F0D5FC04E06889401E80B200E0D4
:102580006089002E00D030802846FEBDFFFF00008D
:10259000A88C0211AA8C0211AE8C0211FFB581B079
:1025A0000F461E4614466946019802F0D7FD050005
:1025B00018D1002C06D001221021019804F01CFE35
:1025C00005000FD139460198FEF7EAF9050009D157
:1025D000009CFF2E06D021461E22A31C034803F0B8
:1025E000ABFCE670284605B0F0BD0000255E021188
:1025F00010B505490870042100F0F8FD00F006F858
:10260000FEF7E2F910BD0000A070FF1F70B50E4C80
:1026100000200C4B651CFF228100C91800280ED039
:102620000D80401CCA70C0B28A700228F4D30748DB
:1026300002F038FF064804F07BFE002070BD0C80DD
:10264000EFE700009870FF1FFEFF0000515E0211CF
:10265000A55D0211F8B50D4614460646694602F01E
:102660007DFD17280CD0002C06D001221021304609
:1026700004F0C2FD002803D129463046FEF79AF93E
:10268000F8BD000070B50C46080411D50948007863
:10269000FDF7F2FC050007D00178A02901D102F076
:1026A000A5FE2846FDF7EEFC0120C003604070BD8A
:1026B000002070BDA070FF1F014908707047000026
:1026C0009070FF1F70B50546008800281DD068680F
:1026D0000221037842682248FEF7CDF8002808D18D
:1026E00068680221037842681E48FEF7C4F8002893
:1026F0000BD01D4C6088002805D0012229881204C7
:10270000101A814203D9012070BD022070BD0C2037
:10271000FDF7E8FC060001D000200AE0132070BDA0
:1027200002016B6861880A329952491C401C618021
:1027300080B229888142F3D80020306008222946DF
:10274000301DFDF775FC6068002802D1666004E06A
:10275000084601680029FBD10660002070BD00001A
:10276000A88C0211AA8C02119070FF1F70B5BEB028
:102770000D460646002402230E4A0F49012000940C
:10278000FFF790FE002812D040896A46108004208E
:102790005080012010715471FF209071D0712B4630
:1027A000002269463046FFF7F9FE3EB070BD0120B9
:1027B000FBE70000C68C0211FFFF000006494968D4
:1027C00006E08A685289824201D188887047096888
:1027D0000029F6D1002070479070FF1F10B5142219
:1027E000114201D0012202E04A0604D50022102144
:1027F00004F002FD10BDC80701D0002010BD02206A
:1028000010BD10B514468A0604D50122102104F02B
:10281000F3FC10BD882211420ED008220A4010217C
:1028200004F0EAFC00280BD0E034617E0029F0D0EF
:10283000217E0129EDD103E0880701D4032010BDDA
:10284000002010BD014610B50020C90704D0034A7E
:1028500007210348FFF74AFD10BD0000AC8B0211B1
:10286000346BFF1F70B50D46164600241D4903004A
:10287000FDF70EFC08051234341934222934152DC5
:1028800023D8162200211848FDF7E4FB2A463146DA
:102890001548FDF7CDFB22E0022D16D11149108815
:1028A000103908801BE0082D0FD10E480822314650
:1028B0000838FDF765FC12E0012D06D1CA69094907
:1028C0003078283107E0012D01D0182407E0CA6BC9
:1028D00004493078483103F0F0FB00E00224204640
:1028E00070BD0000346BFF1FA690FF1F38B50F4C62
:1028F0006946E0710120087001466A460C48FEF7FF
:1029000095FC0025ED432846FFF79CFF2846FFF77E
:1029100037FBFDF73BFCFEF7C9F90020FEF70EFA86
:102920000121E079FDF7D2FB38BD00007C6DFF1F6F
:102930000D0400007CB5444D0C46080409D5E87927
:10294000FDF79AFB002801D0FDF79CFB0120C00396
:1029500076E0E0070126002809D03B481C30FEF74E
:102960008DFF3A48FEF7C0FB204670407CBD3648DC
:102970006107007808D5052804D1A878002801D07F
:1029800003F0A2FF04205BE0A1070AD5052806D1C9
:10299000FEF7C4F92E4A0221E879FDF78BFB0220ED
:1029A0004EE0210721D569780820264646400029B7
:1029B00017D06879A97988420FD00B21401CFDF708
:1029C00055FB69710B20414322480B1805D09A78BA
:1029D00059781878DB1C03F033FF6879A9798842AD
:1029E00001D130467CBD20467CBDE10611D569464B
:1029F0000E700E7105280AD1312001AA01210001B3
:102A0000FEF732FE6A4601211348FEF72DFE102024
:102A100016E0124DA0060FD50020FDF7BBFFC0B297
:102A2000B92807D09E2805D04D2803D00020E87390
:102A3000202005E0EE73FBE7600603D52E734020EF
:102A400060407CBD00207CBD7C6DFF1FE48B0211CB
:102A5000983A0000DC94FF1F19030000D46EFF1F9A
:102A6000FFB583B00020009048680E46017840789A
:102A70001D4600020818524A5149514B0C9F84B21E
:102A80002B391B3B901E002F04D0844225D00B20F5
:102A900007B0F0BD944207D08C4205D09C4203D0D1
:102AA00047491A398C4216D1708903F0AFFE0028CD
:102AB0000ED0059900950191424A417952690079F9
:102AC000156801232246A8470090002874D075E0BD
:102AD0000020288070E084424CD13B480088874227
:102AE00002D30720009069E0364C7D22520110216C
:102AF000E079FDF7DFFA7D22D2002021E079FDF7B1
:102B0000D9FA0020FDF746FFC0B2B92806D09E28AA
:102B100004D04D2802D0002F07D00AE0002F08D1A2
:102B20002A490120C873002002E028490020C87308
:102B3000608125480D990088C01B884200DD084649
:102B400082B22A80F068C1190598FDF771FA2888C9
:102B50006189401880B21C496081098888422BD164
:102B60001A48C07B002827D164222021E079FDF794
:102B7000A1FA21E01248C01E844204D1042028801A
:102B80000246F16815E0124902208C420ED00C4931
:102B9000491C8C4206D101202880F06801780598F4
:102BA000017009E00A49491E8C4205D12880F1686C
:102BB00002220598FDF73CFA03F086FE009867E7CD
:102BC0004D2A00007C6DFF1FA06DFF1FD46EFF1FFC
:102BD00008290000014A5161906170477C6DFF1F18
:102BE000014A1161107270477C6DFF1F70B5074C70
:102BF0002578052D08D16578002D05D06579A47953
:102C0000A54201D103F01CFE70BD00007C6DFF1FCA
:102C1000FFB583B00C9B002415460F468446002B5D
:102C200002D00B2007B0F0BD786801784078000230
:102C3000081886B23F48864203D03E481B38864279
:102C400012D1788903F0E2FD00286DD006A9019524
:102C50000091394A4179526900791468002332465B
:102C6000A047040060D061E03348324A41696846B9
:102C7000521E008B96420AD1012844D128780028A0
:102C800001D0012846D100284CD001204AE02B4A2F
:102C9000964232D1012100930191C3B22A463946AE
:102CA0006046FFF7BBF9040040D169782878090233
:102CB0004018214982B208697B89097A18E047885F
:102CC0009F4212D100280CD006A901950091012A3B
:102CD00011D00323184A41795269007915683246A8
:102CE000A8471749012008741EE0491EC9B20830E0
:102CF0000029E4D1F5E70223ECE70E4A521C964284
:102D000012D1012801D00D2410E02878002803D02A
:102D1000012801D0802409E0FA6810702878002882
:102D200006D003204968884703F0CEFD204679E7A6
:102D30000220F7E74D2A00007C6DFF1F02290000EA
:102D4000D46EFF1F10B51B4C19492046FFF74EF9F2
:102D5000174920460831FFF749F91548164A11214D
:102D60001030FFF7C3FA044614490320FDF7B0FF03
:102D70000F481249C01E02780A730D4A4078487302
:102D8000D032508D0881508F488101208873D53A08
:102D900013780B7552784A75054A9032538D0B8221
:102DA000528F4A8288750320FFF71AFF204610BD14
:102DB000B06DFF1FFFFF0000288C02115695FF1F0A
:102DC00070B50C4C049816190B4A0124002E0FD034
:102DD00000251B2E03D1022903D0032903D01D8017
:102DE00004E0117800E0917801701C80002070BD33
:102DF0005178F9E7CED5FFFFA86DFF1FF0B55D4E06
:102E00008BB0707006211F20FEF7FAFF0024684681
:102E10000473048207210175012505761821818339
:102E20003021018404218184FF21913101850146F3
:102E30000094022250480194FDF7AEF9042200A943
:102E400010030231FDF7A8F930460622694610301A
:102E5000FDF7EEF803AA01214848FEF705FC4748B4
:102E600004AA0221401CFEF7FFFBC32005AA012192
:102E70008000FEF7F9FB414832462B321921801CB5
:102E8000FEF7F2FB324661200C321F21C000FEF734
:102E9000EBFB312006AA01210001FEF7E5FB3748D4
:102EA00007AA02210C30FEF7DFFB344808AA0221F2
:102EB0000D30FEF7D9FB314809AA02210E30FEF78A
:102EC000D3FBC5200AAA02218000FEF7CDFBC12159
:102ED000684601720327477202AA02210120FFF708
:102EE000C1FC3246443215210020FFF7BBFC684686
:102EF0000094057104730774057581206A460421E6
:102F0000C000FEF793F9012101AA8802FEF78EF9AD
:102F10001A4803AA0121FD30FEF788F9174804AAD0
:102F20000121FE30FEF782F905AA01211448FEF7BF
:102F30007DF9A02421460620FEF762FF21460720E6
:102F4000FEF75EFF21460820FEF75AFF21460920C2
:102F5000FEF756FFFFF7F6FE31465C31301DFFF7F6
:102F600039FEFDF71FF901217078FDF7AFF80BB0BE
:102F7000F0BD0000106DFF1F0440000005030000BD
:102F800006040000F8B50C46080424D51D4D6878E9
:102F9000FDF772F806001BD03078B02815D0B228A3
:102FA00013D1A878401CC1B2A970F278B37810028E
:102FB000184340BAC82803D9012901D1FEF77AFC89
:102FC000A878C82801D9C820A8703046FDF75AF85B
:102FD0000120C00312E0E0070AD001256846057011
:102FE0006A4629460848FEF73FFB20466840F8BD80
:102FF000A00705D50020FDF7DBF802206040F8BDF2
:103000000020F8BD106DFF1F0503000070B50A4BCE
:103010000020084A1C460546083C81005A52CE183A
:10302000B57062520919401CC0B28D700228F4D3E9
:1030300070BD0000FFFF0000B86DFF1F30B50F4DE1
:1030400000205519039C0E4A13D01B2D04D10229D0
:1030500003D0032908D00A2030BD012B02D12178EA
:10306000117030BD0D2030BD012BFBD12178917046
:1030700030BD012BF6D12178517030BDCED5FFFF88
:10308000A86DFF1F0B7803700B8802221B0A437088
:103090000B88801C012B02D0022B07D011E08A780C
:1030A00002704988090A417004220AE08A78027095
:1030B0004A88120A42700A7982708988090AC170A6
:1030C000062210467047000008B5044B00931346D3
:1030D0000A46012103F0E0FF08BD0000853002111F
:1030E0001CB50323019200930A46024B122104F0FF
:1030F00003F81CBDB969021110B5FDF75FF810BDEA
:1031000013B504480078012803D101AA6946FDF7E8
:103110005BF81CBDAC70FF1F70B50F490F4A0870FB
:1031200000210B468C00491CC9B213530429F9D362
:103130000A4C00211034FF260A460A256A43151955
:103140006B80491CA354C9B26E720329F4D3FDF7F6
:1031500041F803F075FF70BDAD70FF1FBC95FF1FF8
:10316000082A01D0012070474B780A781B02D21838
:103170000280CB788A781B02D21842804B790A7978
:103180001B02D21882808A79C97909025118C1803C
:103190000020704770B50C46080411D50948007826
:1031A000FCF76AFF050007D00178902901D103F0F0
:1031B000A9FE2846FCF766FF0120C003604070BDF1
:1031C000002070BDAD70FF1F70B500280AD1064CFD
:1031D00000252580A581A580A068002802D0FCF7E5
:1031E000FFFFA56070BD00003896FF1F072907D0BC
:1031F000052905D0042903D0062901D002207047F3
:10320000044A8B009A181346403B1986203A907462
:1032100000207047BC95FF1F70B506001BD10E4CF7
:103220000025214640310D744D740D76606D0028E7
:1032300002D0FCF7D5FF65655C20002546433419B4
:10324000E80020184068002801D0FCF7C9FF6D1C79
:10325000EDB20A2DF4D370BD4896FF1F70B50A88F1
:103260000C460546072A07D0052A05D0042A03D0B4
:10327000062A01D0022070BD012104F087F8002841
:1032800004D02146284603F0ADFB70BD142070BD6C
:1032900010B5001D80B2FCF7A9FF002803D0032160
:1032A000C943FCF7A9FF10BD38B50C46050014D082
:1032B000002C12D00321684604F01AFA6946887877
:1032C00040218006800E08436946887022462846C1
:1032D00004F082FF050002D006E0022038BD032280
:1032E0006946E01CFCF7A4FE284638BDF7B58EB051
:1032F0000E9815460E4600282DD0002D2BD0301DDF
:10330000C0B20190FCF7EEFE040039D001F076F86F
:1033100007463246201D0E99FCF7C0FEF8B2089011
:10332000E0703804000E0B90A0703802000E0A9076
:1033300060703F0E277001F05BF80146102202A872
:10334000FCF7ACFE06AB214602A8019A04F09AFEF7
:10335000060003D010E0022011B0F0BD08982870DC
:103360000B9868700A98A870EF70082206A9281DAB
:10337000FCF794FE01F048F82046FCF7B9FE00E0A7
:1033800013263046E8E7000010B5064C2070FCF725
:1033900039FF06212078FFF729FF034803F0C8FF13
:1033A00010BD0000BC70FF1F45770211F8B50E4636
:1033B0001F4C0146B50060590027002807D0242281
:1033C000125C022A05D0032A03D0042A01D012205D
:1033D000F8BDC288B24201D00220F8BD10220C30E4
:1033E000FCF726FE60591021353004F081F961594F
:1033F00030460B460A46253335320C3104F00EFFB9
:10340000605902210278002A427807D0032A0BD1A2
:103410004170304604F036F9074605E0042A02D030
:10342000032A03D000E041703846F8BD0521EFE7DC
:10343000C870FF1F70B50C46080419D50D480078F8
:10344000FCF71AFE05000FD004F09CFA002808D102
:1034500009480078FF2804D02946FCF76DFE0028B3
:1034600002D02846FCF70EFE0120C003604070BD6C
:10347000002070BDBC70FF1F8470FF1F7CB50C4620
:1034800005001DD0002C1BD00322E11C6846FCF770
:10349000CFFD6946887840218006800E0843694642
:1034A000887001AA284604F097FE002807D103225D
:1034B000214601A8FCF7C8FD012803D001207CBDEE
:1034C00002207CBD00207CBD10B505480078400777
:1034D00001D5044800E0002004F008FB002010BDE6
:1034E000F76FFF1FB070FF1FFFB581B00020274CA2
:1034F0009500009060591E461746002802D0112002
:1035000005B0F0BD002E0BD02120FEF7D3FA317E9E
:10351000884205D82220FEF7CDFA317E884201D2BA
:103520000220EDE77820FCF7DDFD605100282AD06D
:1035300078220021FCF78EFD615900204870625905
:10354000019911706259029991706259FF21D170ED
:103550006159CF8061598E6061590862615920318B
:1035600008710198002803D0384604F0A1F80090B3
:103570006159012048700098002802D0384604F0B4
:1035800053F80098BCE71320BAE70000C870FF1F8B
:10359000FFB58DB00F98169C0E46002815D0002C54
:1035A00013D00D9803F04EFE050011D061782078FD
:1035B00009024018A178E278090412068918471810
:1035C000286AB84206D3401C04D0022011B0F0BDD6
:1035D0001420FBE7002E04D02879800701D40120B5
:1035E000F4E70822002106A8FCF734FD1098001D1E
:1035F000C0B20190FCF776FD060017D0301D109A7E
:103600000F99FCF74BFD042221463046FCF746FD9E
:103610001022A91802A8FCF741FD06AB314602A80A
:10362000019A04F02FFD050002D013E01320CDE72E
:10363000082206A908A8FCF731FD0822211D08A8C8
:10364000FCF702FD012801D0012503E039460D9861
:1036500001F0CCFC3046FCF74BFD2846B6E70000F5
:10366000FFB583B00F4603981B4940001646085A21
:10367000FFF70EFE04002AD00125601C2670002FE3
:1036800003D00699B847401C85B2300610D51021EA
:10369000039803F07BFE002801D0192613E062197D
:1036A000E9B22046FFF722FE06000CD10C35ADB280
:1036B0000421684601800194058169460398FFF75B
:1036C000CDFD060004D02046FCF78AFD00E013265D
:1036D000304607B0F0BD0000F06FFF1F10B5044684
:1036E0000079BEB0C00716D060880C49FEF7F0FD27
:1036F000C00710D0094800220830418D684601807B
:1037000001214180054808380178684601716088C8
:103710006946FEF79FFF3EB010BD0000786CFF1FAA
:1037200070B5049800241546002801D00B2070BD08
:10373000486802784078000210180E4A80B2904221
:103740000AD10D495F200A785F2A00D9087001204C
:103750001880087828700BE0084A904207D10220B0
:1037600018800246C9682846FCF762FC00E00A247B
:10377000204670BD192A0000706CFF1F0829000048
:103780007CB515464A68069C167852781202B21823
:10379000104E92B2F24209D101220192DBB20094A2
:1037A0002A46FEF73BFC040003D000E00A24204632
:1037B0007CBD6978287809024018074980B24968B9
:1037C0000029F4D0002802D001208847EFE702202A
:1037D000FBE70000FED6FFFF706CFF1F01680A05C3
:1037E00008D11031044A016052781203914201D38A
:1037F000891A016070470000C86AFF1F10B50C46A7
:1038000003F034FD002804D040882146FCF79AFCE0
:1038100010BD122010BD0000F0B5504E504C9BB0B2
:103820007168216071782171FF21A171102100253B
:1038300061712F460922FF21E01DFCF70BFC4E228F
:10384000002106A8FCF706FC32E020682903401896
:10385000102202A900F040F902982168884218D18C
:103860006846007B2179884213D16846407B6179A4
:1038700088420ED168467178807B491E884225DADD
:10388000A84201D1022700E0032706A94855A071EC
:103890000CE00298401C19D16846007BFF2815D126
:1038A0006846407BFF2811D106A948556D1CEDB232
:1038B0002179A942C9D8042F08D0A0790125FF2871
:1038C00007D0012F05D0002006AA24E020201BB03D
:1038D000F0BD00270DE0A7712168380308181022F9
:1038E0001F4900F00FF9002801D01F20EFE77F1CCF
:1038F000FFB22079401EB842EDDC00202074207910
:10390000401E607410206082357025E0135C002B2F
:1039100003D0401CC0B28142F8D881421CD9401E5D
:103920000818FCF775FC6174002035700246694682
:10393000009000F017F8002802D0212802D004E0FF
:10394000009901E0012109036182C0B2212803D05E
:10395000002801D02A20BAE70020B8E7C86AFF1F74
:10396000C48FFF1FF7B501248AB000200E462746FA
:1039700005909CE056480179407CC019FCF776FB25
:10398000C8B2FF2C03D3FF3CA4B2FF2C33D20A9A57
:10399000002A01D14E4A11740003029005980125B6
:1039A000002803D000200590601C06E0012C05D9FA
:1039B0002819811EFF2917DA401E85B202982901B5
:1039C000081807904248042201680798081804A9BB
:1039D00000F082F80A9800280ED0012829D0022889
:1039E0003CD006200DB0F0BDFF200230401B201A55
:1039F00084B20120059058E004988103890F04D017
:103A0000022902D003294CD10EE00103890F0129BC
:103A100001D0012445E0000D0C21FCF727FB002913
:103A200000D0012144183CE007980005000D3060EB
:103A300047E0049881038A0F04D0022A05D0032AA4
:103A40002FD142E0890F0229DFD1328881B292B2B0
:103A50009142DAD10C990798086032E0049881030A
:103A6000890F04D00229D0D003291AD129E00103FB
:103A7000890F012903D0306801240C300BE0000DC0
:103A80000C21FCF7F3FA002900D0012144180C2086
:103A900031686043081830600C980C990068401C2D
:103AA00008606D1CADB2FF2D80D97F1CFFB20948A4
:103AB0004078874200D25DE70A98002803D00128A9
:103AC00003D000208EE721208CE725208AE7000024
:103AD000C48FFF1FC86AFF1F10B5094C6368984266
:103AE0000BD364782403E318834206D9002904D059
:103AF000002A02D0FCF750FB10BD222010BD0000B0
:103B0000C86AFF1F70B515460E460446FCF786FBD3
:103B1000800601D0292070BD09494868844206D337
:103B2000497809030818A04201D9A00701D0222032
:103B300070BD2A4631462046FCF776FB70BD00007A
:103B4000C86AFF1F0022002913D0002811D00128C5
:103B500006D04A799206920E4A71032805D007E0F2
:103B60004879C0221043487102E0402002434A7164
:103B7000012210467047000070B5124800250078F9
:103B8000052108421BD02020FCF7ACFA0E4C00287F
:103B9000A06013D020220021FCF75CFA2020FCF763
:103BA000A1FAE060002804D020220021FCF752FA9C
:103BB00005E0A068FCF79CFA0020A06013252846C9
:103BC00070BD0000F76FFF1F6870FF1FF3B5888896
:103BD0000D4681005A485A4C40585A4F203C85B0F7
:103BE000002823D1059800287ED0002D7CD000F03D
:103BF000E5F920740A281CD300260E207043C01952
:103C00000622FF21FCF72CFA002804D1761CF6B21C
:103C10000A2EF2D30A2626740A2E07D1607B0A21C7
:103C20000646FCF723FA2174761C6673207C0A286A
:103C300061D2A888424E8000305800285ED0826849
:103C40000027002A0BD0207C062148432130C0B237
:103C50001C2103F0BAFBA888800030588760A88830
:103C6000800030580269002A0BD0207C062148438E
:103C70002230C0B21C2103F0A8FBA8888000305875
:103C80000761A888800030584269002A0BD0207C48
:103C9000062148432330C0B2102103F096FBA888C8
:103CA000800030584761A88880003058C268002AD8
:103CB00018D0207C062148432430C0B2102103F0E4
:103CC00084FBA888062180003058C268207C10320E
:103CD00048432530C0B2042103F077FBA888800058
:103CE0003058C760A07B00E005E0002801D000F05C
:103CF000A5FA00F0E7FA012007B0F0BD207C06210C
:103D000048432030C0B20E21059A03F05EFB10221A
:103D1000FF216846FCF79EF9207C6A467030C0B2ED
:103D2000102103F052FB207C0E2148430A46C019A3
:103D30000599FCF77DF9A888800035500020DBE765
:103D40001C6BFF1F1090FF1FF0B589B017460E4681
:103D50000446202200216846FCF77CF9684604806E
:103D6000394C0225E178017122794271217B01777A
:103D700006984108E07A4900C307DB0F1943069112
:103D800081070029069901DA294300E0A943069139
:103D900001072E4B069901D5194300E0994306917E
:103DA000C1062B4B069901D5194300E099430691B2
:103DB0008106284B069901D5194300E099430691E5
:103DC000400704210028069801DA084300E08843F0
:103DD0000690002A05D001A810221F490230FCF7E6
:103DE00027F96179002904D0002E02D006982843D3
:103DF00006906846807D002900D00121084369466D
:103E00008875A178002900D0042108436946887587
:103E1000A179002900D00821084369468875E17915
:103E2000002900D01021084369468875217A0029AD
:103E300000D0202108436946887539466846FDF759
:103E400049FD09B0F0BD0000FC6AFF1F0001000041
:103E500000020000000400000090FF1F70B5002564
:103E6000094E2C460E20604380190622FF21FCF7E4
:103E7000F7F8002801D16D1CEDB2641CE4B20A2CE5
:103E8000F0D3284670BD00001090FF1F7FB50C4690
:103E900006214843064615462036F0B26A460E21F2
:103EA00003F088FA002806D10622FF216846FCF7B5
:103EB000D7F8002802D0002004B070BD6846818980
:103EC000002DC8B202D02043C0B200E0A04381421E
:103ED00006D069468881F0B26A460E2103F075FA71
:103EE0000120E9E710B50024204600F007F8641C23
:103EF000E4B20A2C01D20028F6D010BD70B50546F8
:103F0000044606204443264690B02036F0B207AA65
:103F10000E2103F04FFA002806D10622FF2107A840
:103F2000FCF79EF8002802D0002010B070BD0E22D1
:103F3000FF2107A8FCF78EF81C22FF216846FCF73A
:103F400089F81022FF210BA8FCF784F8F0B207AA29
:103F50000E2103F03AFA064620462130C0B26A46E6
:103F60001C2103F032FA064320462230C0B26A46D2
:103F70001C2103F02AFA064320462330C0B26A46C9
:103F8000102103F022FA064320462430C0B26A46CC
:103F9000102103F01AFA06432534E0B26A460421E0
:103FA00003F013FA014631430C467035E8B20BAA10
:103FB000102103F00AFA2043B7E7000070B50A4D5C
:103FC000064600240E206043401906223146FCF7C5
:103FD0003BF8002801D0204670BD641CE4B20A2CD6
:103FE000F0D30A2070BD00001090FF1F0022930044
:103FF000CB5A834202D1900040187047521CD2B273
:10400000042AF4D3002070477FB50C460A280CD24E
:10401000002C0AD0062148432030C0B26A460E2147
:1040200003F0C8F9050003D007E0022004B070BD1A
:10403000062269462046FBF7FBFF2846F6E70021EB
:104040008A00835A491CDB43835212189378C9B201
:10405000DB4393700429F3D37047000070B5144E0E
:1040600000240E2060438219204606214843203058
:104070001546C0B20E2103F09DF900280BD028464A
:104080000622FF21FBF7E6FFA81D0622FF21FBF712
:10409000E1FF0020A881641CE4B20A2CE1D30548AA
:1040A000807B002801D000F0C9F800F00BF970BD4A
:1040B0001090FF1FFC6AFF1F10B503494088097864
:1040C000FEF75EF910BD0000FC6AFF1F10B50F4936
:1040D0004A79002A01D0012300E000238A78002ACF
:1040E00000D004221A438B79002B00D008231343FD
:1040F000CA79002A00D01022097A1A43002900D078
:1041000020211143FDF754FE10BD0000FC6AFF1F83
:1041100070B50E4604460621484388B01546203047
:10412000C0B204AA0E2103F045F9002843D10622AB
:10413000FF2104A8FBF794FF00283CD17034E0B2C3
:104140006A46102103F036F9002831D16846FFF79E
:1041500076FF002E06D069463046FFF747FF00285D
:104160000DD015E0102200216846FBF779FF0028EA
:104170001ED1102200216846FBF76CFF10E0002DD5
:1041800019D069460020FFF731FF002813D00680C0
:104190008178A9420CD08570002D01D100210180C9
:1041A0006846FFF74CFFE0B26A46102103F00DF9B4
:1041B000012008B070BD0020FBE7000070B51C4C6A
:1041C0000646606A1B4D86B0002809D1204614308F
:1041D00000900223184A29460120FEF763F920E0E7
:1041E00004A80222002100900292019103ABA28A4E
:1041F0003046616AFDF75AFF00280CD16846017B02
:10420000407B000208180204120C04D0606A418945
:104210003046FDF7C1F80023A28A2946606AFEF7FE
:1042200073F960620028DBD1012006B070BD000088
:10423000FC6AFF1FFFFF0000B48C021170B5FBF792
:10424000F9FF0A4E00240E2060438019054606221D
:10425000FF21FBF705FF002802D12946FBF7F0FFFD
:10426000641CE4B20A2CEED370BD00001090FF1F56
:1042700070B50B46044611461846FFF7A7FC002808
:104280001DD00F4DA40028598088FFF797FF002804
:1042900015D02E46203EF069002807D04368002B39
:1042A00004D02859002280880121984728590028E5
:1042B00003D0FBF7E7FE002028510A20307470BDC0
:1042C0001C6BFF1F08B5FFF7C9FD012801D90220AB
:1042D00000E00A20694608706A4601210520FEF7C1
:1042E000C1FA08BD002909D0012807D149798909F7
:1042F0008901C02902D0402901D002207047032043
:104300007047FFB500200E4608701AE01C5C401C88
:10431000C5B2002C17D02819904214D85F5D6D1CCF
:10432000EDB2384600F08BFE002806D0641EE0B2E5
:10433000307000998F4202D1581904B0F0BD401975
:10434000C0B29042E2D30020F7E7000010B5044C61
:104350002068002803D0FBF7CBFE0020206010BDB2
:104360005470FF1F70B50E4D84002859002815D0D9
:10437000006A002801D0FBF7BBFE2859406A0028DC
:1043800001D0FBF7B5FE2859806A002801D0FBF761
:10439000AFFE2859FBF7ACFE0020285170BD00008D
:1043A0006070FF1F10B5044C6068002803D0FBF755
:1043B0009FFE0020606010BD5870FF1F0100044880
:1043C00005D104498978002901D00248801D704731
:1043D000B095FF1FF66FFF1F0148807870470000FF
:1043E000F66FFF1F0148406870470000A095FF1F4F
:1043F0000148806870470000A095FF1F0148C06811
:1044000000687047A095FF1F10B50748C068016895
:10441000491C016005480078FF2803D00121890369
:10442000FBF754FE10BD0000A095FF1FF66FFF1FA5
:1044300002484068002800D0012070475070FF1FDC
:10444000FFB581B00F460D9E0A9D039802F0FAFE5B
:10445000040042D0019800283FD120791021084360
:1044600020710499490702D50221084301E0FD218A
:10447000084020710B99284608430C9908433043A3
:10448000207902D00421084301E0FB21084020717B
:10449000002E06D03069102220623146A018FBF7AA
:1044A000C7FD002D01D0002F05D00B98002814D097
:1044B000012F08D011E0606A002801D0FBF718FE38
:1044C0001C21284606E0606A002801D0FBF710FE98
:1044D0001C210B98FBF712FE60620398224C8700A8
:1044E000E05900283ED0002D0FD0006A002806D1E8
:1044F0001C20FBF7F7FDE1590028086205D0E059C0
:104500001C22006A2946FBF793FD0C98002810D066
:10451000E059406A002806D11620FBF7E3FDE15977
:104520000028486205D0E0591622406A0C99FBF732
:104530007FFD002E10D0E059806A002806D114209B
:10454000FBF7D0FDE1590028886205D0E05914221C
:10455000806A3146FBF76CFD0B9B049A0399019826
:1045600002F062FF05B0F0BD6070FF1FF3B581B0CF
:10457000019802F067FE050029D00E20FBF7FAFD36
:10458000040024D02620FDF795FA060000D12E78ED
:10459000D0202070002767700B20A0700622E91D34
:1045A000E01CFBF745FD019860810298C1070120DE
:1045B000002901D0207300E027730299890701D5F3
:1045C000607300E06773F0B22146FBF7B5FDFEBDF6
:1045D00010B581881F4B0124CA1A994237D011DCCB
:1045E0001D4BCA1A994219D007DC1C4A8A1810D0F0
:1045F000022A1ED0032A29D11BE0472A27D0482AA5
:1046000024D124E01300FBF743FD062122222222BD
:1046100022218068007800F0D3FC08E0806882786E
:1046200041781202891889B2007800F029FD044609
:104630000DE0094A921E914201D1012200E00022C0
:1046400080680178104600F003FD00E00024204659
:1046500010BD0000532000000A200000FADFFFFF19
:1046600070B51A4D1A4A0146002628781268194C6E
:1046700001290CD0002A09D017490978490705D526
:104680000221FBF71DFD6680FFF760FE70BD6188AB
:10469000002903D0114B1B78002B05D0002AF5D040
:1046A0001078FDF7DDF970BD3C2902D33C396180FB
:1046B00070BD0221FBF704FD62887D20C0004243EB
:1046C00002212878FBF7F6FC668070BD8570FF1F1D
:1046D0005470FF1F6870FF1FF76FFF1FF96FFF1FF8
:1046E00008B5418900910389C2888188C07800F0AB
:1046F000B3FB08BDF0B504468088A121890048437A
:10470000304987B009684018FF30FF300230A17986
:104710004167002C54D02C4D6868002823D00678BF
:104720002A480068002804D04168002901D00020F0
:1047300088472146E07908310591FFF7D3FDE07104
:104740000246277D638A218AE089019002A88AC0F7
:10475000A0880090E0783146059B02F0DBFEE0780F
:10476000002802D00DE01A48D9E7E079E2896B46CB
:10477000059907C3A379A1880122304602F010FDF4
:10478000E0706868002811D0FFF70CFE2878002838
:104790000CD06978FFF732F8002807D0E078A288BB
:1047A0000346297802F0E3FE00202870A088172134
:1047B000FCF768FAA088FEF707FDA088FEF72CFD3D
:1047C00007B0F0BD3409FF1F5870FF1F8870FF1F2E
:1047D000F66FFF1F70B504460026808802F032FD98
:1047E000002803D00678A08802F0B4FD144D287884
:1047F000002808D0864206D16978FEF7FFFF00281E
:1048000009D000202870002E05D0A379A288A078B6
:10481000314602F0ACFEA088094A810008325158A6
:10482000002901D0FFF79EFDA0881721FCF72AFA86
:10483000A088FEF7C9FCA088FEF7EEFC70BD000062
:104840005870FF1F70B58288294D0124531B2949D8
:10485000AA4242D019DC284D531BAA4218D00BDCC7
:10486000264BD21826D0254B1033D2181ED0032A3F
:1048700017D0042A39D10BE0012B09D0022B07D025
:10488000032B21D0042B30D11AE0433B072B2CD82B
:10489000496800292AD00968002927D0884704469A
:1048A00024E08068007800F0ADF81FE0806800F038
:1048B00001F9F4E78068411C007800F0D9F8EEE7D0
:1048C00083681B78002B11D0896800290ED00B68F3
:1048D00008E0014610469847E1E7094909680029C0
:1048E00004D04B68002BF4D100E00024204670BDBA
:1048F0000E2000008470FF1F08200000F7EFFFFF6C
:104900006470FF1F10B5094CA17800290CD0014636
:104910000622A01DFBF78CFBA11DA078FFF712F962
:10492000A01DFBF793FC10BD002010BDF66FFF1F0C
:104930001CB52F49037801240A68912B02D0A22BC1
:104940002ED13EE04178052909D00E2904D00F2947
:1049500008D03E2924D115E0FFF774FF10E0FFF7DF
:1049600039FF3AE001468088224B0124C31801D068
:10497000062B15D1002A30D05268002A2DD090473E
:1049800004462AE081780124032917D004DC012998
:1049900011D0022904D105E015291ED016291CD0FA
:1049A00000241AE014498968002916D049680029B2
:1049B00013D0884711E0FFF79DFE0EE0FFF790FE51
:1049C0000BE00E490978042909D0002A05D0526865
:1049D000002A02D001460A48904720461CBD00210B
:1049E0006A46118001794088FEF76EFBF5E700000A
:1049F0006470FF1FF3DFFFFF8470FF1FF76FFF1F5F
:104A0000FFFF0000F8B5164F0646BD1F2878FF28A7
:104A100014D00A20FBF7AEFB04000FD0D02020708A
:104A200066700820A070A878E07006223946201D24
:104A3000FBF7FEFA21462878FBF77EFBE878012891
:104A40000DD108480068002803D08068002800D0F5
:104A500080470648044A04210078FBF761FBF8BD53
:104A6000FC6FFF1F8870FF1F60EA00008570FF1F4A
:104A700070B500240546002805D1002903D0062280
:104A80000B48FBF7D5FA0A4810380178012907D1FD
:104A90000124002D06D000210170284600F0B8F94D
:104AA000204670BD02210170FBF7D6FBF8E700003D
:104AB000B095FF1F10B50024002813D002780B49D1
:104AC000002A03D14288CA8202790A760A78022A29
:104AD00008D102780124002A06D000220A7000784A
:104AE00000F096F9204610BD0322F7E7A095FF1FBE
:104AF00001494860704700008470FF1FF8B57A4C88
:104B000087780146002507266079A2793B00FBF7EC
:104B1000BFFA0805361A37375F9ACD36487800282D
:104B20005CD1714806223C30C91CFBF781FA012098
:104B3000A0716D4B0146423362786079FDF7E6F96A
:104B400000284BD1A8E00F464978002946D1F978D2
:104B5000002906D0654BA2780021FDF7D7F97870BF
:104B60000AE0022A0BD00121FBF7B6FA002803D194
:104B700001216079FBF7AAFA787800282ED1F8BDD8
:104B8000497800292AD1032F09D0A289002A0CD004
:104B9000217800290AD00121FBF78CFA06E0052ACA
:104BA00001D0022012E0062010E02570A07906282E
:104BB00002D0042802D008E0052007E00120207080
:104BC00001466079FBF782FA66E00320A07163E09A
:104BD00048780F46002803D0312832D0A6715BE018
:104BE00041480622391D3630FBF722FA7889E081E8
:104BF000B8892082F88960820520A071A28A002AE3
:104C000003D002216079FBF755FAB889E083F8896F
:104C10002084388A6084E07801280AD11F20FCF7BC
:104C200049FF7D21C9004843024604216079FBF712
:104C300041FA7A89F8780423391DFCF78DF825703C
:104C40002AE02570C1E728480E46062200213630AA
:104C5000FBF700FAE5832584658404216079FBF77E
:104C60002FFA08216079FBF72BFAB079082808D0D1
:104C70000320A0712078002805D06079FCF7F0FEB1
:104C800007E00420F5E70120207001466079FBF77A
:104C90001DFA0020C043E081606A002800D16EE761
:104CA00001680029FBD0A0798847F8BD0D4608218E
:104CB000FBF706FA687829460028F6D1E888E083F1
:104CC000288920844889608404216079FBF704FAEC
:104CD0000028EAD1A06A0028E7D00368628C218C02
:104CE000E08B9847F8BD0000A86BFF1FBC90FF1F2A
:104CF00010B501781C4C912906D0A2291BD0D029CF
:104D000001D1FFF7FBFE10BD41780E29FBD1818850
:104D1000164A9142F7D1816803200856A1790529E6
:104D2000F1D17F28EFD0616A0029ECD049680029D1
:104D3000E9D0884710BD41791329FBD100890128AA
:104D400002D12079022808D00520FCF7B3FE0246E4
:104D500008216079FBF7AEF910BD08216079FBF7F7
:104D6000AFF9FCF7A7FD10BDA86BFF1F05140000ED
:104D70007CB5154C0546E08BE18A88420AD3218B2D
:104D8000884207D8208C618B884203D1608CA18B2C
:104D9000884217D00520FCF78DFE0646E18A68465A
:104DA0000180218B4180618B8180A18BC1806279E0
:104DB0006946E089FEF794F9257132460821607949
:104DC000FBF778F97CBD0000A86BFF1FF8B507461C
:104DD0000E46084602F036FA040018D02620FCF7EA
:104DE00069FE050000D125780620FBF7C3F9040011
:104DF0000DD006220021FBF72DF9D020207067701E
:104E00000E20A070A680E8B22146FBF795F9F8BD08
:104E100070B50F4D06462878FF2818D00E20FBF7F6
:104E2000A9F9040013D0D020207066700020A07073
:104E300006220849E01CFBF7FBF806481038C18A37
:104E40006181007E207321462878FBF775F970BDDB
:104E5000F66FFF1FB095FF1FFFB581B01E461746C6
:104E60000D460C20FBF786F9040013D0284602F00B
:104E7000E9F9002810D00078D021217001996170E3
:104E80000721A170A580E78026810A9961812146CA
:104E9000FBF752F905B0F0BD0048ECE7F66FFF1FD5
:104EA00070B50D4D044628680E46002812D0062025
:104EB000FBF760F9010009D0D02008704C70032086
:104EC00088708E8028680078FBF736F9002C01D0B6
:104ED000FFF73CFA70BD00005470FF1FFFB581B0B2
:104EE0001F460E46084602F0ADF9050022D01020FC
:104EF000FBF740F904001DD010220021FBF7AAF8AF
:104F00002620FCF7D7FD002800D12878D021217079
:104F1000019961700F21A170A680039921726772B7
:104F20000A99A1720B99E1720C99E160C0B2214615
:104F3000FBF702F905B0F0BDF0B51F4D85B028684C
:104F4000002837D08778FCF731FE002805D00A20EA
:104F5000FCF7B0FD04900B200EE001F0FBFC0028F4
:104F600005D00620FCF7A6FD0490072004E00820E9
:104F7000FCF7A0FD04900920FCF79CFD04460F48B7
:104F80000078002814D001262968C878091DFEF78A
:104F9000D9FD29686D46CA7A8B7A091D0BC5039223
:104FA00033463A4621460498FBF75CF905B0F0BD5C
:104FB0000026E9E70120F9E75470FF1FF86FFF1F93
:104FC00010B50949096800290CD0002805D1012035
:104FD0004870FBF799F8002802D00021FFF760FF26
:104FE000012010BD002010BD5470FF1FF8B50C4605
:104FF00002F028F9020021D026201462FCF75AFDA5
:1050000005062D0E00D115789679D01D0090102040
:10501000176AFBF7AFF8040010D0D02020700020F2
:1050200060700920A070E6700622201D0099FAF732
:10503000FFFF21462846E760FBF77EF8F8BD411EDA
:10504000152903D9FF2801D000207047012070479F
:1050500070B50A4E054630780C46FF280DD0042066
:10506000FBF788F8010008D0D02008704C700220AF
:105070008870CD703078FBF75FF870BD6870FF1FE7
:10508000F3B5284D81B0286800284AD04078264ED4
:10509000012803D03078002831D041E001F05AFCDB
:1050A000224F002813D00120FCF704FD04464128BC
:1050B00008D91F4A02213878FBF732F81D483C3CDA
:1050C00044800EE07D20C0002246424303E00020E1
:1050D000FCF7F0FC0246002A03D002213878FAF7E8
:1050E000E9FF2968022048703078002802D00020AB
:1050F000307015E002990198FFF7D2FE10E003200E
:10510000019CFBF737F8010008D0D02008704C70E4
:105110000420887028680078FBF70EF8FFF716F96E
:105120000120FEBD5470FF1FF96FFF1F8570FF1F28
:1051300060EA00006870FF1F074A00218B00D35A05
:10514000834202D1880080187047491CC9B20229E5
:10515000F4D30020704700009870FF1F10B50C4674
:10516000FFF7EAFF00280DD0002C00D020608078E7
:10517000FE2803D0FF2803D0162010BD172010BD35
:10518000002010BD022010BDFFB581B0FF201E46DB
:10519000174605300A9DFAF7EDFF04001BD0B0203A
:1051A00020706770029860802671002D06D020461E
:1051B000FC2229460830FAF73BFF05E02046FC2296
:1051C00000210830FAF746FF21460198FAF7B4FFAC
:1051D000002005B0F0BD1320FBE7000005481722B2
:1051E00002800988172901D204207047018000201D
:1051F00070470000F26FFF1F0020704708B50A4695
:105200000888498888420BD8002809D000230093D9
:105210001379521DFDF746F9002803D0002008BD80
:10522000012008BD0A2008BDF3B50D46088849884D
:10523000002687B0814215D3002813D00027694685
:105240000F710097002369881A46FDF72BF90400B7
:105250004FD068460079002807D06946497901296E
:1052600025D008E0012009B0F0BD217802291BD02B
:1052700002216A4651711222504301AA61898018A5
:105280004180684600791223584380181022001D7F
:105290006168FAF7CDFE68460079401C0106090EE8
:1052A000684601711FD11AE001216A4651712178C7
:1052B00002291ED1820001A86189121851806A4614
:1052C00012796168920010180222001DFAF7B0FEF0
:1052D0006A461079401CC0B21071052803D261895A
:1052E0000A48814200D101266089401C80B2002E0C
:1052F000A7D068460079002805D001A90798FBF7D8
:1053000035FB0020AFE70A20ADE70000FFFF0000FB
:1053100038B50C4608884988884215D8002813D02B
:105320002379621D02210B48FBF7A5FA00280DD056
:1053300000200090237961882088621DFDF7B2F873
:10534000002805D0002038BD012038BD102038BD10
:105350000A2038BDA88C021108B50A460888498879
:1053600088420BD8002809D0002300931379521DDE
:10537000FDF798F8002803D0002008BD012008BDE3
:105380000A2008BDF8B500250F4606460C46E03752
:1053900017E06800205A0021FDF75EF8002809D0C8
:1053A000017A3046FDF71AFA002808D06900615AE0
:1053B0002180F8BD6800205A20800120F8BD6D1CB6
:1053C000EDB2B87DA842E4D80020F8BD10B504467F
:1053D00008880021FDF740F8002804D0017A204613
:1053E000FDF7FCF910BD012010BD000030B585B0FF
:1053F00005466946FBF738FB040026D168468078ED
:10540000C1071E4809D08268002A04D0688869460E
:105410009047044619E0062417E04268002A05D0A8
:10542000688869469047040001D10EE0062468466A
:105430004078002809D16846817801730021C18134
:105440000474688803A9FBF751FAA868002801D002
:10545000FAF7C6FE002C05D168468078122807D0DE
:105460001B2803D068880121FDF74AFE05B030BD36
:10547000684640780128F5D1F8E70000A070FF1FCA
:1054800070B505460C4608880021FCF7E5FF0028AA
:1054900005D0017A22462846FDF7B3F970BD0120F8
:1054A00070BD00000149486070470000A070FF1FF8
:1054B00010B50446801C00F046FDFF20E07010BDD2
:1054C00010B500F025F8002800D0806810BD00223B
:1054D0009300CB5A834202D1900040187047521C6F
:1054E000D2B2022AF4D3002070470000074A0021FC
:1054F000CB00D35A834202D1C80080187047491CA0
:105500000906090EF4D00020704700001C6CFF1F34
:105510000649896805E08A88824201D18868704717
:1055200009680029F7D10020704700000C6CFF1FAC
:10553000F8B50746012906D0022924D1012101F03E
:1055400025FF00281FD13846FFF7D0FF050015D0F2
:1055500000240D4E0CE0F8206968604308180188AB
:10556000002908D0F8220021FAF774FD641CE4B287
:1055700070788442EFD30020C04328800249384627
:105580001831FCF733FDF8BD0C6CFF1FF3B5064670
:1055900083B008300190002000907088FFF7A6FFCC
:1055A00007002FD0002523E0F820796868430C1805
:1055B0002188002920D00198007801280FD1608827
:1055C0000090A3887088A21DFCF7F8FE00900028C8
:1055D00005D0019900200870049821880180F822E4
:1055E00000212046FAF736FD00206D1C2080EDB228
:1055F000074840788542D7D30020C04338800098C0
:10560000002802D17088FBF79BF9009805B0F0BD27
:105610000C6CFF1FF3B50546374C064685B00835C0
:10562000F62200212046FAF715FD03A800902B79F9
:10563000698828886A1DFCF735FF074645E07088B1
:105640002E4A4100515C2E4BC91FC9B20093002263
:1056500002910192284B69468A89F63B3946FCF74C
:1056600025FD002812D126482989001F82889142F1
:105670000CD121492846F6390A30FAF7E5FC002812
:1056800004D0217878898900091948806846828980
:10569000698804AB3846FCF737FF0746207881005D
:1056A00009194A88002A10D0002F05D06A46128AAC
:1056B000401C20708A800AE002060021920DC94336
:1056C0001219401C2070918006E0002F04D00D4874
:1056D000217800888142B2D32078002806D07088D3
:1056E0002146FBF735F9002007B0F0BD0698298860
:1056F00001800A20F8E70000EA92FF1FF06FFF1F09
:10570000106CFF1FEC6FFF1FF0B585B00446002042
:105710006946888120790E2869D00FDC082823D0BB
:1057200004DC022813D0062818D118E025460835D5
:10573000484F0A281DD00C2810D138E010285BD023
:1057400012285ED0162861D0182877D163E043482C
:105750004149008808806088FBF7D2F86EE003A911
:105760002046FFF757FF5AE003A9204600F076F9DC
:1057700055E0288804A9FCF76FFE010015D0608869
:10578000354E4200BA5C0023521ED2B201930292FF
:1057900000966A46B31C128AFCF788FC00281DD1CB
:1057A00060883146FBF764FA48E0012016E028885B
:1057B00004A9FCF751FE0100F7D060886B88420015
:1057C000BA5C254E521ED2B20193029200966A46EE
:1057D000B31C128AFCF76AFC002803D029886A46A9
:1057E00091811CE060883146FBF712FA26E003A99C
:1057F000204600F0D3F912E003A9204600F082F819
:105800000DE003A9204600F039FA08E003A920467C
:1058100000F028F803E003A92046FFF7B7FE0028B0
:105820000CD06178142909D00B4922790A706A4694
:1058300092894A8008716088FBF758F82046FCF787
:10584000F3FD0748C168002901D02046884705B00C
:10585000F0BD0000F06FFF1FEA92FF1FEA6FFF1F0D
:105860000C6CFF1FF8B504460F4605460834008946
:105870006946FCF7F1FD06003AD0307A80060ED575
:1058800068460088FFF71CFE030006D068881222D5
:1058900031469847060002D02BE00E2629E06E889C
:1058A0003046FFF723FE010005D11448FFF71EFE26
:1058B00001000ED00E80124A0020527807E0F82630
:1058C0004B6846439B5B002B05D0401CC0B2904206
:1058D000F5D309260DE04968F822504308182146FF
:1058E000FAF7A6FB002668882146FBF787F902E055
:1058F0000126208838803046F8BD0000FFFF0000F8
:105900000C6CFF1FF3B58BB000200B9E0746039075
:1059100004A800903246337B718930894C4C0D329B
:105920000836FCF7BFFD054678E00B98297A4088D9
:10593000FCF754FF070003D00C98698901806FE0E1
:105940000B9844494088444B4200895C0093891F6E
:10595000C9B20022029101923D4B69460A8AF63B88
:105960002946FCF7A3FB0700E6D10398002833D0B3
:1059700039486188001F8088021D914253D10399E4
:1059800009180B98408842003248805A801F814293
:1059900049DC0399A87A6118087103986989401C49
:1059A00080B22218090A401C117180B20390684627
:1059B000028A718807AB2846FCF7A6FD050011D0C6
:1059C00003986946898B2018017103986946401C29
:1059D000898B80B2090A0CE01F48001F8088001DD7
:1059E0006080D6E70398FF21201801710398401CBE
:1059F00080B222181171401C80B217490390091F10
:105A00008A8813492018F639001DFAF711FB12494C
:105A10000398091F8988401880B20390002D84D113
:105A2000039800280CD061880398FAF71FFB2070B8
:105A30000B9821464088FBF7F5F800200DB0F0BD2B
:105A4000002F00D10A270C98318801803846F5E7ED
:105A5000EA92FF1FF06FFF1F106CFF1FF3B50746A0
:105A6000044608378BB049480490388800252E46F4
:105A700005906AE007A800903B7979887A1D05981F
:105A8000FCF710FD0890002852D040890590089836
:105A9000017A6088FCF7A2FE06005DD160883C496F
:105AA0004200895C3B4B091FC9B20093002202915E
:105AB0000192364B69468A8BF63B0899FCF7F6FA59
:105AC000060049D1002D36D0049841883148001F86
:105AD0008088801C814241D12E4B1B1F9888291839
