:020000041102E7
:1000000003B40148019001BDADAE000003B4014846
:10001000019001BD456B010003B40148019001BD91
:100020000189000003B40148019001BDC53F0000F3
:1000300003B40148019001BDE94C010003B401483B
:10004000019001BDC95C010003B40148019001BDEC
:10005000CD4C010003B40148019001BD618900004D
:1000600003B40148019001BD154D010003B40148DE
:10007000019001BD1D4B010003B40148019001BD79
:10008000090E000003B40148019001BDF54E0100C6
:1000900003B40148019001BD434D010003B4014880
:1000A000019001BD4551010003B40148019001BD1B
:1000B0002526000003B40148019001BD8B520100C8
:1000C00003B40148019001BDB352010003B40148DB
:1000D000019001BD0D52010003B40148019001BD22
:1000E000C94A010003B40148019001BD3D4B010024
:1000F00003B40148019001BD014C010003B4014863
:10010000019001BDF94C010003B40148019001BD0B
:10011000691F000003B40148019001BD5D17000094
:1001200003B40148019001BD5952010003B40148D4
:10013000019001BD5125000003B40148019001BDAB
:10014000594F010003B40148019001BD8D12000018
:1001500003B40148019001BD4D1F000003B40148E4
:10016000019001BD5522000003B40148019001BD7A
:10017000DD52010003B40148019001BD1D4D010095
:1001800003B40148019001BD810E000003B4014891
:10019000019001BD594EFF1F03B40148019001BDFC
:1001A0001DBC000003B40148019001BD6DBC0000FE
:1001B00003B40148019001BD3554000003B4014867
:1001C000019001BD017F000003B40148019001BD11
:1001D000E117000003B40148019001BD7918000047
:1001E00003B40148019001BDD949010003B401489D
:1001F000019001BDE928000003B40148019001BD50
:100200005549010003B40148019001BDC926000011
:1002100003B40148019001BD7D5BFF1F03B4014899
:10022000019001BD195BFF1F03B40148019001BD9E
:10023000350E000003B40148019001BD333DFF1F9E
:1002400003B40148019001BD094FFF1F03B40148E9
:10025000019001BD3519000003B40148019001BDB2
:10026000BD18000003B40148019001BDC521000084
:1002700003B40148019001BD291C000003B40148EA
:10028000019001BD851F000003B40148019001BD2C
:10029000A946010003B40148019001BD11470100C6
:1002A00003B40148019001BDA14DFF1F03B40148F3
:1002B000019001BDE95AFF1F03B40148019001BD3F
:1002C000E92FFF1F03B40148019001BDED2AFF1F74
:1002D00003B40148019001BD6B27FF1F03B401481F
:1002E000019001BD4527FF1F03B40148019001BDE6
:1002F000B13E000003B40148019001BD9D3CFF1FC9
:1003000003B40148019001BDDD3CFF1F03B4014867
:10031000019001BDC90E000003B40148019001BD68
:10032000055E000003B40148019001BDE5480000EE
:1003300003B40148019001BD2951010003B40148F3
:10034000019001BDD91B000003B40148019001BD1B
:10035000ED27FF1F03B40148019001BD1528FF1FC1
:1003600003B40148019001BD51470100F8B5D349DC
:10037000D14A002004464A608300401CD450FF2824
:10038000FADD4868CE4A014680318A606E22C26238
:10039000CC4A1278002A01D07F22C2620A2202656A
:1003A000C94A13788363C94BC36115781023022DA2
:1003B00008D01578012D05D01578032D02D01578B9
:1003C000042D00D10362C24D45611925AD0185613F
:1003D0003725CD6036272826C7630825466405647F
:1003E0004F6032270F603B27CF634127CF64392707
:1003F0004031E0C132274F6002274F614227083168
:10040000E0C11E274F60CE608D6005264E614226FA
:100410000E615A2660390E614D613C258D61AF2514
:10042000ED000560AB4D05631578022D09D01578F8
:10043000012D08D01578032D07D01578042D06D08E
:1004400007E0152504E0436003E00E2500E00C25DD
:100450004560FF252D358560C560FF25F5350561B3
:100460009D4D85647D25ED009C4ECD67C66445623B
:100470009B4D85627325C565062545658565C51D4A
:100480000826F93502272E6047664B27FF0087664E
:100490000927C766934F07674667BE108467C6671C
:1004A000914F8E4E3E601678022E09D01678012E9E
:1004B0000AD01678032E0BD01278042A0CD00EE046
:1004C0001A22CA61212205E01422CA61182201E021
:1004D0001322CB610A6202E00E220B62CA617E4ADD
:1004E0008A627D22D2008A6764224A620522CA6239
:1004F00002220A63C8228C634A63382169607B49FF
:1005000029647B49A9614B21C900E9617349FF3026
:10051000643929627D2109016962EC661E212C671C
:10052000A9667049A965E9658910296669646967E2
:100530007049A9677049714A8130E9670260826039
:100540004160FF21F531C16001616E486C495A4A32
:1005500081606D49803A11616A496C4A80318A62D2
:100560006B4ACA626B4A82616B4AC2626B4A02631F
:100570006B4A64484038C2636A4ACA616A49816307
:1005800060496A48403188616A49694888605D48C5
:10059000694A80384260694A4263694A0A62694925
:1005A000816058496848C039C860FFF729FD0120BB
:1005B000FFF72CFDF8BDF3B50746644881B0C1696B
:1005C000634A1140FF310931C161002613E0002563
:1005D0002C461120FFF720FD5C48406A8007800F01
:1005E000610088402843641CE4B20546102CF0D317
:1005F00001C7761CF6B202988642E8D3FEBD10B55C
:100600002E4C607800280AD104215248FFF7D3FF0E
:10061000504804211030FFF7CEFF0120607010BD5C
:10062000F0B500248BB00D460646102902D90120F2
:100630000BB0F0BDFFF7E3FF464900200A5C401C09
:100640001419C0B21028F9D3002C03D0102D03D9EF
:100650000B20EDE70E20EBE73F483E4C00230068FF
:1006600002A91034E25CC75C7A40CA545B1CDBB25E
:10067000102BF7D306AA3748FFF7D4FC102D00D96A
:1006800010252A4606A93046FFF7D2FCFFF7D6FC14
:10069000216840182060FFF7D1FC61684018606055
:1006A000FFF7CCFCA1684018A060FFF7C7FCE16829
:1006B0004018E0600020BBE70004FF1F1479FF1F13
:1006C000189CFF1F8C73FF1F4A0AFF1F3A07000088
:1006D00080C3C9019A02000050C30000280A00002C
:1006E0006A180000204E0000F009FF1F00400011B2
:1006F00068100000DC05000040420F0010270000D9
:100700001D60FF1F0001FF1FB137FF1F8164FF1F26
:100710005967FF1F1934FF1FAD35FF1F3534FF1F09
:100720008544FF1FCD70FF1FF16EFF1FC527FF1F00
:10073000693BFF1F0002FF1F955CFF1F715EFF1FDB
:10074000B55DFF1F515CFF1F993BFF1F40F000404C
:1007500000FEFEFF9C96FF1F3879FF1F0A7802708B
:100760008A7842704A88120A82700979C17004201E
:1007700070470A7802700988090A417002207047A0
:1007800010B500220EE093005B189C7804705C8822
:10079000521C240A44701C7984709B88D2B21B0AB4
:1007A000C370001D0B789342EDD81806800D10BD64
:1007B000F8B50D4606464978012031700024761CB4
:1007C00016E06978012917D01221614349198A7806
:1007D00032704A88871C120A7270B61C102230468A
:1007E000091DFFF725FC1037B8B21036641CE4B2BF
:1007F0002978A142E5D8F8BDA10049198A7832705C
:100800004A88871C120A7270B61C02223046091DE3
:10081000FFF70EFCBF1CB8B2B61CE7E710B50C46DC
:10082000097801702188090A41706288211D801CA5
:10083000FFF7FEFB6088801C80B210BD10B50C462F
:10084000097801702188090A4170A1788170618856
:10085000090AC170A288A11D001DFFF7E9FBA0884D
:10086000001D80B210BD10B50C460A88891CFFF728
:10087000DFFB208810BD10B50B788A7802705343D7
:10088000DCB22246401C091DFFF7D2FB601C10BDE4
:1008900010B50B788A7802705343DCB22246401CB4
:1008A000091DFFF7C5FB601C10BD10B50C460A887A
:1008B000891CFFF7BDFB208810BD10B50C460A88C7
:1008C000891CFFF7B5FB208810BD7FB5154604468F
:1008D000022901D0102903D1022B04D0102B02D001
:1008E000002004B070BD994202D10A46294607E0B3
:1008F0001029694607D000F00DF8102269462846F5
:10090000FFF7A2FBEDE7104600F004F8102269465D
:100910002046F5E770B50C4605000CD0002C0AD037
:10092000102206492046FFF783FB28782073687859
:100930006073012070BD002070BD0000F09A0211AC
:1009400010B50B460122024902F0C2FF10BD0000A3
:100950005D07021170B5064608880C46172812D3A9
:100960000B4603220949304602F0B2FF050008D1C8
:10097000074920880988884200D20146304600F0A5
:10098000C1F9284670BD022070BD00007307021136
:100990004679FF1F10B500231922194602F098FF6F
:1009A00010BD000010B50A78002A05D00B460722BA
:1009B000024902F08DFF10BD022010BD8107021117
:1009C00010B54A78012A01D0022A08D10A78002AF3
:1009D00005D00B460522034902F07AFF10BD022024
:1009E00010BD0000B107021101494000085A7047CC
:1009F0004479FF1F10B50B461D22024902F068FF23
:100A000010BD00001D08021110B50B461B22024943
:100A100002F05EFF10BD00001D0802110149172001
:100A2000088070474479FF1F0098022B01D00420F2
:100A3000704711785278120289180180002070479F
:100A40000098012B01D0042070471178017000201C
:100A5000704770B5049C1E461546062B1BD369785B
:100A60002878090240182080E978A87809024018FF
:100A7000608002222271291D601DFFF7D9FAB61F7E
:100A8000B2B22281F02A06D82046A91D0A30FFF70B
:100A9000CFFA002070BD042070BD0098042B01D057
:100AA00004207047537811781B02C918018091788F
:100AB000D27812028918418000207047F8B58489E5
:100AC0000D460646002C26D0B2681778380620D589
:100AD0000C2C20D90C3CA4B2101900900121708874
:100AE000234602F087FE002811D0022028707806E5
:100AF000C00F6870B806800EA870641E2004000C39
:100B0000A88001D0B068401CA8600020F8BD01207A
:100B1000ECE70020EAE70120F8BD10B50298114685
:100B2000042B14D34C780A78240212190280CC7852
:100B30008A782402121942801B1F9AB28280F22AFC
:100B400005D8801D091DFFF773FA002010BD042091
:100B500010BD0098042B01D0042070475378117801
:100B60001B02C91801809178D2781202891841803D
:100B70000020704710B502981146062B03D0142BA5
:100B800003D0042010BD022200E0102202714B7835
:100B90000A781B02D2180280CB788A781B02D218FE
:100BA00042800279401D091DFFF742FA002010BD66
:100BB00030B5039CD80718D1D805010E022914D3EB
:100BC0000B488088814210D8F6200155002008E0AB
:100BD000557813782D025B194500401C6353C0B251
:100BE000921C8842F4D3002030BD042030BD0000A8
:100BF0003E79FF1F0098022B01D004207047117826
:100C000052781202891801800020704770B514468E
:100C100002460498022B18D3667825783602AD195F
:100C200005800546E0352A766976002A0BD0E82152
:100C30009B1E9AB242808A4207D8A11C001DFFF772
:100C4000F7F9002070BDF421F2E7042070BD000028
:100C500010B50B461722024902F03AFE10BD000003
:100C60003D08021110B50B460D22024902F030FE7C
:100C700010BD00006708021110B50A78002A05D0DF
:100C80000B461122024902F023FE10BD022010BDC6
:100C90007708021110B50A78002A05D00B46092200
:100CA000024902F015FE10BD022010BD910802118C
:100CB00010B50B460F22024902F00AFE10BD0000DB
:100CC000AB08021110B50B460B22024902F000FEE0
:100CD00010BD0000BB080211F72800D9F720084A10
:100CE00001461080401EC3179B0F18188003000C8C
:100CF0005080491EC80F4018C003000C90807047F8
:100D00003E79FF1F044A1288914203D8024A4000EC
:100D1000921D1152704700003E79FF1F10B500234D
:100D20001322194602F0D4FD10BD000010B505498C
:100D3000054801F049FA0348044A0521083001F04A
:100D4000C3FB10BDD875FF1FFFFF0000849A02117E
:100D5000034610B50020104A002B08D0012B08D004
:100D60001032022B08D0032B09D0022010BD1278BC
:100D700000E052780A7010BD52890A8010BD064BFF
:100D80009B1C1C780C715B784B71538D0B80528FC0
:100D90004A8001228A7110BDD075FF1F10B5054928
:100DA0005F200A785F2A03D90870034806F028FDFF
:100DB000002010BDD075FF1F4D3902110149486058
:100DC00070470000D075FF1F70B50C46014601202A
:100DD00080020A1A00251C481300FFF73BF90F3266
:100DE000090B0D1012181A1C2A1F212325272A006F
:100DF000408A23E0807800E0C078207021E000790C
:100E0000FBE7102211492046FFF712F919E040795B
:100E1000F3E7C07AF1E78069206012E0407AECE7FE
:100E2000807AEAE7007BE8E7807BE6E703F066F993
:100E3000E3E7272904D2084600F02AFF208000E0DB
:100E40000225284670BD0000E873FF1FBC90FF1FFD
:100E500010B50249087003F051FA10BDE873FF1F86
:100E6000FFB599B00C460026054601461F46079679
:100E700053A0089602F0FAFD0621204606F088FEEF
:100E800007AA2146284600F007FA0546014654A065
:100E900002F0ECFD062107A806F07AFE03F02EF919
:100EA000014657A002F0E2FD0A2D7AD22C46062018
:100EB000444320462030C0B26A460E2106F034FF7B
:100EC000002802D168468089C6B21B980990082F75
:100ED00014D000201790082F12D020462130C0B225
:100EE00018901C2200216846FFF7BAF86A461C21B8
:100EF000189806F019FF002805D010E00120E9E756
:100F000020462230EBE76846807EC01F092806D8BD
:100F1000F107C90F6A46179B099800F005FE1422D5
:100F2000002110A8FFF79CF820462430C0B210AA78
:100F3000102106F0F9FE002812D11022FF2110A87E
:100F4000FFF794F800280BD12534E0B214AA04214D
:100F500006F0EAFEF107C90F10AA1B9801F04EF83F
:100F60007035E8B20BAA102106F0DEFE002811D180
:100F70000BA803F0B4F900240BADA00040190188C0
:100F8000002903D082781B9801F0FAFA641CE4B2BD
:100F9000042CF2D3B00704D51F4801781B9801F048
:100FA000DDFA042F08D11C491B98491C085C022853
:100FB00002D11B9803F0DAF900201DB0F0BD00004B
:100FC0004C696E6B4573742D2D6164647254797035
:100FD000653D25642C70446576416464723A0A006C
:100FE0004C696E6B4573742D2D6964783D25642CB6
:100FF0007075626C6963416464723A0A00000000B3
:10100000626F6E6420746F74616F6C206E756D62B8
:1010100065723D25640A0000E873FF1F70B5002467
:10102000054600290BD108491046FFF725F8084668
:10103000294600F0C9FE040003D00121284601F032
:1010400003F8204670BD000040420F0070B50C460A
:10105000080428D515480078FFF714F805001ED0BD
:101060000178B02908D0B1290ED0D02914D100F0D0
:101070001FF8002810D112E001791E290CD16888D0
:10108000002100F065F907E00179002904D1028907
:10109000C188688800F048FA2846FEF7F9FF012069
:1010A000C003604070BD002070BD0000E873FF1FEA
:1010B0007FB582786E4C921FE1691300FEF7CAFF7C
:1010C0000AB2D6D6681B06D6D65F7AD60546002960
:1010D00008D00E68002E05D06B7B2A7B6989E81C3E
:1010E000B047C3E06989A06900F06EFE0028F8D01F
:1010F0006889012190E00546407800282DD1A87923
:10110000C0072AD0A8885A498000203108580028F2
:1011100023D10E2200216846FEF7A2FF696900294B
:1011200003D006226846103107E0A88806F008FBC5
:1011300000283ED0C11D06226846FEF779FF6946A9
:101140008889A9794907C90F0843694688812946D2
:10115000684602F08BFE002809D0E069002828D0FC
:101160004368002B25D06A78A888012151E0A8881F
:101170002A46694603F0CCF9002004B070BD00296E
:1011800074D04B68002B71D042788088022140E0F7
:101190000446C0780022211D00F07EF80A2865D29E
:1011A0000621484325302246C0B20C32042106F005
:1011B000C6FD5BE00546607A0028A88801D0A17AC8
:1011C0002AE02B49491C095C002924D006F0B8FA12
:1011D0000646A87AC0070DD0002E47D0B079002867
:1011E00008D0A989890505D46A46F11D00F054F894
:1011F000002814D02A46B179A888083202F0F4FEFB
:10120000E069002832D04368002B2FD00022A88844
:10121000114698472AE0052100F016FF26E0A8882D
:101220000321F9E700F0B0FD00281FD1E07B002585
:10123000012805D00F4E0024305D012809D00CE0B4
:1012400002F0A0FFE5730A2200210A48FEF708FF1A
:1012500007E0204602F0A2FF3555641CE4B20A2CD8
:10126000EAD3502006F05EFD03F048F8012084E741
:10127000E873FF1F5891FF1F10B5064CE0612178FD
:10128000FF2905D0262000F0A9FE207801F016F9EC
:1012900010BD0000E873FF1FF0B50A2485B01646A4
:1012A0000F46002807D0012805D00A25022810D0B3
:1012B000032847D11FE0084602F0D0FF04460A2861
:1012C00040D2002E3ED0062239463046FEF7B0FE10
:1012D00038E01E4F002400910E206043C019062202
:1012E000801D0099FEF7B0FE002823D1641CE4B2F3
:1012F0000A2CF1D31CE00024204606214843233069
:10130000C0B26A46102106F00FFD00280CD1102251
:10131000FF216846FEF7AAFE002805D13946684637
:1013200000F010FE002805D0641CE4B20A2CE3D3C0
:101330002C4607E00A2C05D2002E03D03146204669
:1013400002F0B2FF204605B0F0BD0000CC90FF1FB8
:1013500070B50E4617491525884212D10024324631
:101360000221204602F0E2FE002800D00025641C85
:10137000E4B20A2CF3D3002E1AD00F4806F040FA3C
:1013800016E006F0DDF9040011D0A0790022E11D7D
:10139000FFF782FF0A2804D23246022102F0C6FE7D
:1013A0000025002E04D0204602F0D6FF00E01425D0
:1013B000284670BDFFFF000059430211FEB51546D7
:1013C00001229202821A00240127544E1300FEF7D4
:1013D00041FE110A151A21282F373E434B767E8590
:1013E0008D9B9B569B00012970D1297802297FD8BB
:1013F0004A480122401CFEF733FE8DE0022977D1D6
:101400002888708288E0012972D1287801286FD855
:10141000B07081E001296BD12878042868D8F07079
:101420007AE0012964D12878012861D8307173E00D
:1014300010295DD1102229463948FEF7F9FD6BE0ED
:10144000012955D12878012852D8707164E001290A
:101450004ED12878F0725FE0042949D131492868DB
:10146000884245D8B06157E0002941D100F08CFC9A
:10147000002801D0F7734FE002F084FE19E007293D
:1014800036D10622691C6846FEF708FE287800223D
:101490006946FFF701FF05460A280ED200F074FCEA
:1014A000002803D01E489C30475535E0284602F0FE
:1014B00075FE502006F036FC23E002242CE00129C2
:1014C00016D12878012813D8707225E010E0012980
:1014D0000ED1287809280BD8B0721DE0012907D158
:1014E0002878C11F092903D8307315E0012901D0DC
:1014F000182411E0B07B2978B17300280CD10129A0
:101500000AD102F0FBFE07E02728D6D20229D4D167
:10151000298800F063FD04462046FEBDE873FF1FE6
:10152000BC90FF1F3F420F00F8B50F461349152529
:10153000164688420DD1002432463946204602F034
:1015400037FF002800D00025641CE4B20A2CF3D336
:1015500012E006F0F5F800280DD08379C11D0022B5
:101560001846FFF799FE0A2806D23246394602F09D
:101570001FFF002500E014252846F8BDFFFF0000EE
:1015800070B50C460146032000020A1A00253448B3
:101590001300FEF75FFD1D1012151C1F2326282CBB
:1015A000303234383A3C3E40424446484A4E50522B
:1015B0005A5456585A00C07911E01022294902E0C5
:1015C0002849102210312046FEF732FD45E0C06A5E
:1015D000206042E0224906223C31F4E70078207086
:1015E0003BE0808936E01E4942784231EBE71D49F5
:1015F00082781F39E7E7007AF1E7407AEFE7184988
:1016000006223031DFE7807AE9E7C07AE7E7C08970
:1016100020E0808A1EE0C0781CE0C08A1AE0008BBF
:1016200018E0408B16E0808B14E00D49062236311D
:10163000C9E7C08B0EE0008C0CE0408C0AE080799A
:10164000CDE7008A06E0408A04E0272904D2084654
:1016500000F01EFB208000E00225284670BD00003F
:101660009474FF1F9791FF1F70B50E4C0025607199
:10167000A571691EE18100F05FFC0420E071102279
:1016800000210948FEF7ECFC074810220021103029
:10169000FEF7E6FCE562257265720720A072E5722E
:1016A00070BD00009474FF1F9791FF1FFEB53B4D66
:1016B0000C4608040CD56879FEF7E4FC050004D05C
:1016C00003F066FC2846FEF7E3FC0120C00360E05F
:1016D000600403D5012080034840FEBD2F48E10788
:1016E0000126807900292AD02978002920D00528D0
:1016F00021D0297A68460170697A4170274906220B
:101700003031801CFEF794FCA97A68460172E97AB0
:1017100041726946687900F0D7FA002808D007209E
:10172000A871696A002903D00968002900D0884798
:1017300020467040FEBD032069460870E4E7A1071B
:101740000DD5052809D1E889FEF7AEFCAA8A002A42
:1017500003D002216879FEF7ADFC022019E0600792
:1017600004D5002003F06CFC042012E0200712D501
:101770002879012802D002280AD107E00096AB8B15
:101780006A8B298BE88A00F00BF801E000F05AF927
:1017900008206040FEBD0020FEBD00009474FF1FC5
:1017A000F8B5134C069EA579052D01D01420F8BD7F
:1017B000104F851FBD4219D2062917D3BD1DA9425E
:1017C00014D2FF27F537BA4210D20A2B0ED3AB4200
:1017D0000CD2E08221836283A383304603F030FC85
:1017E00004216079FEF76CFC0020F8BD1820F8BDDC
:1017F0009474FF1F7A0C0000F7B50D4680490098DD
:10180000164642187F4F00247879B9791300FEF705
:1018100021FC190E141BE92040455970777E888FF2
:10182000E996A2A9B4BFC8E9E9E9E9D3E900102D16
:1018300076D11022314674486FE0102D70D1724875
:1018400010223146103068E0042D69D13068F8620A
:10185000CEE0012D64D13B7832783A70002B0AD06B
:10186000002A07D1022903D0062901D0042901D179
:1018700000F0E4F9BCE0002A0AD0012905D00329D0
:1018800003D0052901D0042902D10121FEF71EFC55
:10189000AEE0022D44D13088B881A9E01F2D3FD899
:1018A00058481F2200214230FEF7DAFB55482A46ED
:1018B00031464230FEF7BCFB524B7D7042332A4624
:1018C000012112E01F2D7CD84F481F2200211F3814
:1018D000FEF7C6FB4C482A4631461F38FEF7A8FBE8
:1018E000494B2A461F3BBD700021787900F0FCFB74
:1018F00083E0012D65D13078042862D8387277E012
:10190000012D5ED1307803285BD8787270E0062D07
:1019100057D13C48062231463030FEF789FB67E05C
:101920004FE0012D4DD1307807284AD8B8725FE0DA
:10193000012D46D13078032843D8F87258E0022DA3
:101940003FD13288BA82002A52D0052950D10221D3
:10195000FEF7B0FB4CE0012D33D13078012830D8B0
:10196000F87045E03088022D2BD1062829D31921A3
:10197000C901884225D8F8823AE03088022D20D16A
:1019800006281ED31921C90188421AD838832FE0AE
:101990003088022D15D1FF21F531884211D278838C
:1019A00026E03088022D0CD10A280AD31921C9015A
:1019B000884206D8B8831BE03178012D01D1012976
:1019C00001D0182414E00821FEF786FB002801D07E
:1019D00016240DE0002003F033FB04217879FEF794
:1019E0006FFB05E00098272801D2022D02D00224C7
:1019F0002046FEBD318800F0F1FA0446F8E7000009
:101A0000FFFCFFFF9474FF1F9791FF1F1CB50B4C49
:101A1000A179002901D011201CBD002800D06062EE
:101A2000064907482C31034601910090103B0022E3
:101A3000E179607900F0BCF800201CBD9474FF1FB0
:101A4000A791FF1F10B506488179052901D0122002
:101A500010BDC1891322407900F006FB10BD0000C3
:101A60009474FF1FF8B504462C480F4600780228EE
:101A700005D0012803D0082803D1002F01D012205F
:101A8000F8BD002C07D02088254D81006958002919
:101A900003D01120F8BD0220F8BD05F051FE06006C
:101AA00036D02C20FEF71EFB2188890068500028C4
:101AB00030D02C220021FEF7D3FA20881C2281008E
:101AC000695848802088211D80002858001DFEF795
:101AD000AFFA218802208900695808702288900096
:101AE0002B5870791B1D002816D000200D4909784D
:101AF00001F02CFE0546002F03D03946304606F093
:101B0000B5FE002D02D0208802F07CFD2846F8BDED
:101B10001420F8BD1320F8BD0120E7E74B79FF1F23
:101B2000B479FF1FD979FF1FFFB5204D81B0287808
:101B30001E461746022823D0012821D0002F22D08C
:101B4000019805F0FDFD04001FD0606A002801D057
:101B5000FEF7CEFA1C213846FEF7D0FA606201008B
:101B600015D02878000714D5002E12D0887E00905A
:101B70000B4612330A8A019807F042F9014609E040
:101B8000122005B0F0BD0220FBE71420F9E7132076
:101B9000F7E700212079042210432071029A002ADD
:101BA00002D00222104320710846EAE74B79FF1F5A
:101BB000FFB581B01E460D4602240B9F0B00FEF7B9
:101BC00049FA0D1A0B1A1A0B1A1A1A1A1A1A1A08A3
:101BD0001A000AA001F04AFF2946019800F0D8F83F
:101BE000040008D13A4630460A9900F0AFF900F0F7
:101BF0000FF901F09BFD204605B0F0BD4741505F55
:101C0000446576696365496E69743A204741505F5F
:101C100050524F46494C455F43454E5452414C202B
:101C20007C204741505F50524F46494C455F5045DC
:101C3000524950484552414C200A000070B5104CA2
:101C40002168002904D00978814203D0032070BDA7
:101C5000122070BD0B4D02212878FEF731FA0A4898
:101C60000026468004212878FEF72AFA07480680D5
:101C70002168032048700020FEF746FA70BD00007E
:101C8000A879FF1FD979FF1FBC79FF1F4E79FF1F6D
:101C9000272803D202494000085A7047014870477C
:101CA0005679FF1FFFFF000010B5064C607005F06D
:101CB00077FD6078FEF72EFA0521607801F0C8FB09
:101CC00010BD0000D879FF1F70B5284E054630685A
:101CD0000C46002801D0112070BD25480178052050
:101CE000014216D023488068002805D000780028DB
:101CF00002D0C80706D101E0102070BD00F044F802
:101D0000002808D02078032805D0022803D0002816
:101D100001D0122070BD0C20FEF7E4F930600028DD
:101D200020D00570002141700A222146801CFEF758
:101D30007FF903F069FA040002D002F057FC12E0C8
:101D40000D48007803280ED11D20FFF7A1FF0B4995
:101D50000028088007D00B48094A04210078FEF7C4
:101D6000DFF900E01324204670BD0000A879FF1FB2
:101D70004B79FF1FBC79FF1F4C79FF1F4E79FF1F66
:101D800060EA0000D979FF1F10B505F027FD10BDEE
:101D900070B50C4605461C2200210948FEF760F983
:101DA000084805704470FEF7C1F90549002803D0C2
:101DB00000200870122070BD01220A7070BD000062
:101DC000CC96FF1F4A79FF1F7FB504460D46084693
:101DD00005F0B6FC002805D00C48844204D9022046
:101DE00004B070BD1220FBE7102200216846FEF708
:101DF00037F968460470210A4170210C8170210E68
:101E0000C170294601F004FCEAE700003F420F00E0
:101E100070B50F4C0025A068002802D0FEF768F9C5
:101E2000A560E068002802D0FEF762F9E560094885
:101E300005210078084206D00548103002F0A8FFBE
:101E400001F0EAFF70BD002002F0A2FF002070BD8B
:101E5000BC79FF1F4B79FF1FFEB5344D0C460804BB
:101E600019D56878FEF70EF90121C9034C400646E2
:101E700000280ED002F0ACFE002807D12878FF28F9
:101E800004D03146FEF758F9002802D03046FEF75C
:101E9000FFF82046FEBDE007012700280AD0A86809
:101EA000002804D04168002901D00020884720463E
:101EB0007840FEBDA00709D56868002804D04168B5
:101EC000002901D00120884702202AE060072AD596
:101ED000174E308800281FD0401E0004000C3080B0
:101EE0001ED102F0F5FB002809D01248077068687F
:101EF000002804D04168002901D00120884702F061
:101F0000C1FB694601F002FB684602F04BFE1D2052
:101F1000FFF7BEFE308003E004216878FEF7D0F8BA
:101F200004206040FEBD0020FEBD0000D879FF1FE8
:101F30004E79FF1F4D79FF1F01490870704700005F
:101F4000D879FF1F10B501F0CBFB10BD70B50E4C5A
:101F50000B46261D07C60546102200211846FEF72F
:101F600085F8012803D11021A06806F0EBFA1022B1
:101F700000212846FEF77AF8012803D11021606875
:101F800006F0E0FA70BD0000CC96FF1F38B505469C
:101F90000F480C460078400701D4122038BD28466F
:101FA00005F0CEFB002811D00A48A90040580028AF
:101FB00001D0817D00E02146684606F077FF064BA0
:101FC0006A460221284606F0D7FE38BD142038BDE7
:101FD0004B79FF1FB479FF1FB9930211272807D24D
:101FE000044A914204D0044A400011520020704734
:101FF00002207047FFFF00005679FF1F70B50E46A4
:10200000104915460978022916D0012914D0002D4F
:1020100014D005F095FB040012D0002E03D02079D7
:1020200002210843207110222946A018FEF700F86B
:1020300028692062002070BD122070BD022070BD92
:10204000142070BD4B79FF1F38B50C46054605F0CE
:1020500077FB002806D0684604706946284606F0DB
:1020600079FE38BD142038BDF8B50D4617461D4918
:1020700006461B4A1224C868954208D100282DD074
:102080000268002A2AD029463046904723E0144AA5
:10209000521C954213D1002807D00268002A04D0B0
:1020A000294630469047040005D03946304601F0B5
:1020B000F5FC040012D10B48067047700EE028466C
:1020C00005F03EFB002809D00078B04205D1394622
:1020D0002846FEF737F8044600E003242046F8BD02
:1020E000FEFF0000AC79FF1FF8B50E460146194807
:1020F0001546007805221F46104028D0304326D0D0
:102100001548012E1BD0C468002C20D01F2D18D8D4
:10211000002D01D0002F14D001701F220021601C5F
:10212000FDF79EFF2A463946601CFDF781FF2846D1
:102130002570002E07D0611CFEF70AF8F8BD8468F0
:10214000E2E70220F8BD611CFEF708F8F8BD122096
:10215000F8BD00004B79FF1FBC79FF1F014610B589
:102160000020C90704D0034A0421034800F0ACF959
:1021700010BD0000249A02111875FF1F70B50F4D95
:102180000F4CA87029461831204600F01DF8002198
:1021900028460B461030CA0084521218491C090602
:1021A0005360090EF7D0012003F00EFFA87800F06D
:1021B00071FB044805F03AFB70BD0000F874FF1F86
:1021C000FFFF00000158021170B50A4C0025A04223
:1021D00009D1002082008C525218401CC0B2957068
:1021E0000228F7D370BD03F0DAFA0028FAD0048091
:1021F000857070BDFFFF0000F8B50E4607460699D2
:1022000000240798002902D00B242046F8BD022B99
:1022100001D00D24F9E711785278120289188DB295
:102220002946814301D08024EFE73846F16800F069
:102230003DF9A842E9D02A463846F16800F0CCF9C9
:102240000400E2D171892A46384600F06BF9DCE7D8
:1022500070B50C46080412D50A488078FDF712FFC5
:10226000050008D02878B02802D1284603F0B4FB36
:102270002846FDF70DFF0120C003604070BD00201F
:1022800070BD0000F874FF1FFFB587B0087A002505
:10229000109E1C460F46C0060DD5099803F078FA2B
:1022A000030006D00A22394607989847050035D121
:1022B00001E00E2532E0387802281DD17868292205
:1022C0000178407812020002081880B2811A904208
:1022D0007ED009DC7249401A23D0012821D002287F
:1022E00051D0032808D125E0012972D0022971D0EC
:1022F00003296DD004296ED0099803F071FA0028E3
:10230000D7D00568002DD4D0129911980191009072
:102310003346224639460798A847054628460BB05B
:10232000F0BD1198002873D1F868017831800278E7
:10233000416897E0119800286AD101203080F86840
:102340000021007820707889401C80B200F072F97A
:1023500000280FD0318802788918891C3180817A51
:1023600061704189090AA17002784168E01CFDF79B
:102370005FFED3E730880422001D30800021601CFE
:10238000FDF76EFECAE71198002872D1F86804A91B
:102390000088009004203080009820700098000A87
:1023A0006070009800F046F9070028D0F8680590A2
:1023B0006846028A03AB3B49384600F093F900288F
:1023C0000FD13B78022138487A68FEF77EFA03E0A5
:1023D00027E031E01DE049E0002802D1401E6946B7
:1023E00088810598007802280CD10598022241685E
:1023F000201DFDF71DFE3088801C308002E06946FC
:102400000098888168468089A070000AE07085E79E
:102410002FE0119800282CD1F968079800F046F8B1
:1024200004E01198002824D1F86800880221318046
:102430002070000A607071E7F868FDF795FE119949
:10244000C0B2814210D8814201D1002206E0129A26
:102450008918814202D31199401AC2B23280F968B8
:1024600011980918204682E7072557E71198002898
:1024700001D00B2552E70721F868318001782170DF
:10248000417861708178A1704188090AE170017911
:10249000217181796171C088000AA0713EE7000056
:1024A00000280000FFFF0000669B021110B503F03A
:1024B00076F9002800D0807810BD0000014908702E
:1024C00070470000F874FF1F7CB51446050019D052
:1024D00068460195018000F0E3F903001DD1002C4E
:1024E0001BD06D89002D0DD00C20FDF7FBFD0028C1
:1024F0000AD0002303608580094A8460916800291E
:1025000004D006E0022308E0132306E0906004E014
:1025100011460A68002AFBD1086018467CBD0000FD
:10252000F874FF1FF8B50C4C0746207815460E4688
:10253000FF280FD00A20FDF71DFE01000AD0B120B0
:1025400008700020487008714F80CE800D8120787F
:10255000FDF7F2FDF8BD0000F874FF1F70B50C46E2
:1025600005460649FFF7A2FF800704D52146284605
:1025700000F0EAF970BD012070BD00001075FF1F6A
:102580001CB56B461A71120A5A710022009202237E
:1025900001AA00F001F81CBDFFB583B008461F4634
:1025A00001A90C9E00F046F8050012D0684680880C
:1025B00003F016F900280AD04468002C07D00096D2
:1025C0003B462946059A0398A04707B0F0BD0E2068
:1025D000FBE70120F9E7000070B514460E460546FA
:1025E00003F0DDF8002806D13146054803F0D7F89E
:1025F000002803D005808470002070BD112070BDBC
:10260000FFFF000010B50178B0290BD141780029F7
:1026100008D10179122906D01B2903D14088012154
:1026200000F0A0FE10BDFF210231095C0129F5D0A8
:1026300010BD0000F0B58C4610494B6819E09F684A
:102640007C89A04214D39E883119814210D900227E
:102650000CE011017D186989814205D1604600288E
:1026600000D004802846F0BD521C92B29642F0D8A9
:102670001B68002BE3D10020F0BD0000E479FF1FB0
:10268000FFB5174881B00A9F446824E000251EE08A
:10269000A0682901461870890199884215D30299CA
:1026A000884212D80498002807D031787068049BBB
:1026B000039AFEF70AF9002807D0002F02D0A0687D
:1026C00040893880304605B0F0BD6D1CADB2A088A1
:1026D000A842DDD82468002CD8D10020F3E7000000
:1026E000E479FF1FFEB5174600256A46958004462B
:1026F00040891D4A1E46904208D001AA0092401C03
:10270000237880B26268FFF7BBFF05462378022179
:1027100016486268FEF7D9F8002807D1237802210D
:1027200013486268FEF7D1F8002801D060890EE0F6
:10273000237802210F486268FEF7C7F800280DD001
:10274000002D03D068468088B84203D0384603F095
:102750004FFD04E06889401E80B200E06089002ED1
:1027600000D030802846FEBDFFFF0000649B0211B0
:10277000669B02116A9B0211FFB581B00F461E468F
:1027800014466946019802F051FE050018D1002C4C
:1027900006D001221021019804F0ACFF05000FD1F2
:1027A00039460198FEF726F9050009D1009CFF2E55
:1027B00006D021461E22A31C034803F025FDE67027
:1027C000284605B0F0BD0000F560021110B50549BE
:1027D0000870042100F03CFE00F006F8FEF71EF938
:1027E00010BD0000F479FF1F70B50E4C00200C4B9B
:1027F000651CFF228100C91800280ED00D80401CE6
:10280000CA70C0B28A700228F4D3074802F0B2FF3F
:10281000064805F00BF8002070BD0C80EFE70000C3
:10282000EC79FF1FFEFF00002161021175600211AB
:10283000F8B50D4614460646694602F0F7FD17281E
:102840000CD0002C06D001221021304604F052FF9B
:10285000002803D129463046FEF7D6F8F8BD00001F
:1028600070B50C46080411D509480078FDF70AFC3C
:10287000050007D00178A02901D102F01FFF2846EA
:10288000FDF706FC0120C003604070BD002070BD54
:10289000F479FF1F0149087070470000E479FF1FB9
:1028A00070B50546008800281DD0686802210378AD
:1028B00042682248FEF709F8002808D1686802211A
:1028C000037842681E48FEF700F800280BD01D4C24
:1028D0006088002805D0012229881204101A81423C
:1028E00003D9012070BD022070BD0C20FDF7FAFB5A
:1028F000060001D000200AE0132070BD02016B68C1
:1029000061880A329952491C401C618080B2298832
:102910008142F3D80020306008222946301DFDF79F
:1029200087FB6068002802D1666004E00846016801
:102930000029FBD10660002070BD0000649B0211DD
:10294000669B0211E479FF1F70B5BEB00D460646C6
:10295000002402230E4A0F4901200094FFF790FE45
:10296000002812D040896A4610800420508001203F
:1029700010715471FF209071D0712B46002269466E
:102980003046FFF7F9FE3EB070BD0120FBE70000C6
:10299000829B0211FFFF00000649496806E08A6831
:1029A0005289824201D18888704709680029F6D18E
:1029B00000207047E479FF1F10B51422114201D0A6
:1029C000012202E04A0604D50022102104F092FE02
:1029D00010BDC80701D0002010BD022010BD10B5E9
:1029E00014468A0604D50122102104F083FE10BD8E
:1029F000882211420ED008220A40102104F07AFEEB
:102A000000280BD0E034617E0029F0D0217E01291E
:102A1000EDD103E0880701D4032010BD002010BDD4
:102A2000014610B50020C90704D0034A0721034816
:102A3000FFF74AFD10BD0000109A02112074FF1F1D
:102A400070B50D46164600241D490300FDF702FB34
:102A500008051234341934222934152D23D81622AE
:102A600000211848FDF7FCFA2A4631461548FDF7C3
:102A7000DFFA22E0022D16D11149108810390880A2
:102A80001BE0082D0FD10E48082231460838FDF70B
:102A900077FB12E0012D06D1CA6909493078283147
:102AA00007E0012D01D0182407E0CA6B04493078F3
:102AB000483103F06AFC00E00224204670BD0000AB
:102AC0002074FF1F6291FF1F38B50E4C6946E071FC
:102AD0000120087001466A460B48FEF76FFC00258E
:102AE000ED432846FFF79CFF2846FFF737FBFEF72C
:102AF0001DF90020FEF762F90121E079FDF7E6FA01
:102B000038BD0000A876FF1F0D040000FEB5524D31
:102B10000C46080409D5E879FDF7B4FA002801D07D
:102B2000FDF7B6FA0120C00391E0E0070126002876
:102B30000CD049481830FEF769FF4848FEF79CFB67
:102B400047A000F093FF20467040FEBD4248610759
:102B500000780DD5052809D1A878002803D004F005
:102B6000F9F844A000E049A000F080FF04206EE0E6
:102B7000A1070AD5052806D1FEF710F94C4A022113
:102B8000E879FDF797FA022061E0210724D56978FA
:102B900008202646464000291AD046A000F066FFCD
:102BA0006879A97988420FD00B21401CFDF764FA9F
:102BB00069710B20414344480B1805D09A78597825
:102BC0001878DB1C04F06AF86879A979884201D189
:102BD0003046FEBD2046FEBDE10614D569460E70A6
:102BE0000E7105280DD1312001AA01210001FEF747
:102BF00003FE6A4601213548FEF7FEFD34A000F0D1
:102C000035FF102023E0A0060CD5684606702F483B
:102C10006A4601211438FEF7EFFD36A000F026FFCA
:102C2000202014E0384F60060AD538A000F01EFFBF
:102C30003E7401223A496889FFF7CEFC402006E045
:102C4000200606D53E7537A000F010FF80206040BA
:102C5000FEBD0020FEBD0000A876FF1F909A021165
:102C600073746172742044657669636520455654B7
:102C70000A0D000068696444657653746172744992
:102C8000646C6554696D6572200A0D00686964445E
:102C90006576537461727449646C6554696D6572CC
:102CA00020646973636F6E6E656374200A0D0000A3
:102CB000983A000053656E6420486964205265703C
:102CC0006F72740A0D0000000A96FF1F19030000BE
:102CD0006465766963652075706461746120636FF3
:102CE0006E6E656374656420706172616D656E748B
:102CF0000000000041445620656E61626C652075DD
:102D00007064617465210A002078FF1F636F6E6E26
:102D100020656E61626C65206E6F746966790A0069
:102D2000E476FF1F4B455920656E61626C65206E2D
:102D30006F746966790A0000FFB548680E4601782D
:102D400040781D460002081883B084B2374B0C98B7
:102D500000270D9A35492B3B002805D0881E844258
:102D600027D00B2007B0F0BD8C4208D09C4206D083
:102D70002E481B38844202D0401C844215D17089F1
:102D800003F072FF00280DD0059900950191284AA3
:102D9000417912690079156801232246A847070086
:102DA0003FD040E0002028803BE02048801E844245
:102DB00015D120480C9B01888B4201D3072732E0B4
:102DC000C91A914200DD11468BB22B8001881AA0EE
:102DD00000F04CFEF1680C982A8809181EE0134890
:102DE000C01E844204D1042028800246F16815E008
:102DF0001A4902208C420ED00C49491C8C4206D143
:102E000001202880F06801780598017009E01349D5
:102E1000491E8C4205D12880F16802220598FDF7F1
:102E200007F903F097FF38469CE700004D2A0000A1
:102E3000A876FF1FC876FF1F4849445F4D41505F89
:102E40004C454E3D25642C6D61783D25642C2A70DF
:102E50004C656E3D25640A0D000000000829000045
:102E6000014A116150617047A876FF1F014AD16085
:102E700010727047A876FF1FF8B507460D480E463A
:102E800001781C461546052912D14178002909D040
:102E900041798079814205D13146384603F0FEFE02
:102EA000002805D023462A463146384603F076FDF1
:102EB000F8BD0000A876FF1FFFB583B00C9B00246F
:102EC00015460F468446002B02D00B2007B0F0BDFC
:102ED0007868017840780002081886B23E48864239
:102EE00003D03D481B38864212D1788903F0BCFEDE
:102EF00000286AD006A901950091384A41791269E3
:102F00000079146800233246A04704005DD05EE0DB
:102F10003248314A01696846521E008B96420AD1F6
:102F2000012841D12878002801D0012843D1002868
:102F300049D0012047E02A4A96422FD1012100932F
:102F40000191C3B22A4639466046FFF755F904009D
:102F50003DD16978287809024018204982B2C868B2
:102F60007B89097A15E047889F420FD100282CD031
:102F700006A901950091012A0ED00323174A417931
:102F80001269007915683246A8471EE0491EC9B289
:102F900008300029E7D118E00223EFE70E4A521C5F
:102FA000964212D1012801D00D2410E02878002883
:102FB00003D0012801D0802409E0FA681070287835
:102FC000002806D003204968884703F0C3FE204646
:102FD0007CE70220F7E700004D2A0000A876FF1FDB
:102FE0000229000010B51E4C1C492046FFF7ECF8E2
:102FF0001A4920460831FFF7E7F81848194A132103
:103000001030FFF761FA044614481030C1690220FD
:10301000FDF79EFE14490320FDF79AFE0F48124962
:10302000C01E02780A734078104A4873508908819C
:10303000508B48810120FF3A8873163A13780B753C
:1030400052784A75094A403A53890B82528B4A8218
:1030500088750320FFF70AFF204610BDDC76FF1FAE
:10306000FFFF0000E49A02118496FF1FEC77FF1F18
:1030700070B50C4C049816190B4A0124002E0FD081
:1030800000251B2E03D1022903D0032903D01D8064
:1030900004E0117800E0917801701C80002070BD80
:1030A0005178F9E7CED5FFFFD476FF1F70B55F4D9D
:1030B0008AB0687006211F20FEF790FF0024684642
:1030C0000473048204752021018330218183FF2150
:1030D0000484913181840222E91C5548FDF756F899
:1030E0000422691D1003FDF751F8E91C0846062269
:1030F0001530FCF79DFF03AA01214E48FEF77CFB2B
:103100004C4804AA0221401CFEF776FB49482A4697
:1031100033321921801CFEF76FFB2A4661201432DE
:103120001F21C000FEF768FB312005AA0121000124
:10313000FEF762FB3F4806AA02210C30FEF75CFB5B
:103140003C4807AA02210D30FEF756FB394808AA71
:1031500002210E30FEF750FBC52009AA0221800093
:10316000FEF74AFBC021684601720326467202AA96
:1031700002210120FFF764FC2A464C321521002071
:10318000FFF75EFC0121684607940173047406751D
:103190000176812007AA0421C000FEF70FF9012162
:1031A00003AA8802FEF70AF9224804AA0121FD3089
:1031B000FEF704F91F4805AA0121FE30FEF7FEF8CC
:1031C00006AA01211C48FEF7F9F8A0242146062092
:1031D000FEF704FF21460720FEF700FF21460820E6
:1031E000FEF7FCFE21460920FEF7F8FEFFF7FAFE87
:1031F0002946643108465838FFF732FE1720FDF79C
:103200006BFD0020FCF7C8FF0020FCF7CBFF0BA1F3
:1032100003C9019100906946082004F013FE0121C2
:103220006878FCF753FF0AB070BD00003476FF1FCA
:103230000440000005030000060400004C454E5AFF
:10324000455A505138B50C4608040DD512484078FF
:10325000FCF718FF050004D003F0C2FD2846FCF778
:1032600017FF0120C00313E0E0070AD001256846DC
:1032700005706A4629460948FEF7BEFA20466840AE
:1032800038BD600406D50020FCF792FF01208003C2
:10329000604038BD002038BD3476FF1F05030000B4
:1032A00030B50F4D00205519039C0E4A13D01B2D2D
:1032B00004D1022903D0032908D00A2030BD012BF4
:1032C00002D12178117030BD0D2030BD012BFBD112
:1032D0002178917030BD012BF6D12178517030BD2D
:1032E000CED5FFFFD476FF1F0B7803700B88022228
:1032F0001B0A43700B88801C012B02D0022B07D0C5
:1033000011E08A7802704988090A417004220AE0B3
:103310008A7802704A88120A42700A798270898813
:10332000090AC170062210467047000008B5044B18
:10333000009313460A46012104F02CF908BD000051
:10334000E93202111CB50323019200930A46024B95
:10335000122104F04FF91CBDB56E021110B5FCF737
:103360002DFF10BD13B504480078012803D101AA30
:103370006946FCF729FF1CBD007AFF1F70B50F4995
:103380000F4A087000210B468C00491CC9B2135328
:103390000429F9D30A4C00211034FF260A460A25D5
:1033A0006A4315196B80491CA354C9B26E72032974
:1033B000F4D3FCF70FFF04F0C1F870BD017AFF1FD2
:1033C000E896FF1F082A01D0012070474B780A7841
:1033D0001B02D2180280CB788A781B02D218428056
:1033E0004B790A791B02D21882808A79C97909023D
:1033F0005118C1800020704770B50C46080411D5E3
:1034000009480078FCF73EFE050007D001789029B6
:1034100001D103F0F5FF2846FCF73AFE0120C00376
:10342000604070BD002070BD017AFF1F70B500289C
:103430000AD1064C00252580A581A580A06800281A
:1034400002D0FCF7CDFEA56070BD00006497FF1FA1
:10345000072907D0052905D0042903D0062901D062
:1034600002207047044A8B009A181346403B198685
:10347000203A907400207047E896FF1F70B5060050
:103480001BD10E4C0025214640310D744D740D7634
:10349000606D002802D0FCF7A3FE65655C20002566
:1034A00046433419E80020184068002801D0FCF792
:1034B00097FE6D1CEDB20A2DF4D370BD7497FF1FFB
:1034C00070B50A880C460546072A07D0052A05D09C
:1034D000042A03D0062A01D0022070BD012104F085
:1034E000D3F9002804D02146284603F0F9FC70BD2A
:1034F000142070BD10B5001D80B2FCF777FE0028C7
:1035000003D00321C943FCF777FE10BD38B50C4644
:10351000050014D0002C12D00321684605F012F8E3
:103520006946887840218006800E08436946887085
:103530002246284605F07AFD050002D006E002206A
:1035400038BD03226946E01CFCF772FD284638BDF1
:10355000F7B58EB00E9815460E4600282DD0002DDA
:103560002BD0301DC0B20190FCF7BCFD040039D057
:1035700001F094F807463246201D0E99FCF78EFDA7
:10358000F8B20890E0703804000E0B90A07038027A
:10359000000E0A9060703F0E277001F079F8014626
:1035A000102202A8FCF77AFD06AB214602A8019A78
:1035B00005F092FC060003D010E0022011B0F0BD2F
:1035C000089828700B9868700A98A870EF70082205
:1035D00006A9281DFCF762FD01F066F82046FCF7FD
:1035E00087FD00E013263046E8E7000010B5064CE2
:1035F0002070FCF707FE06212078FFF729FF03481B
:1036000004F014F910BD0000107AFF1F9985021113
:10361000F8B50E461F4C0146B5006059002700283A
:1036200007D02422125C022A05D0032A03D0042AE0
:1036300001D01220F8BDC288B24201D00220F8BDEC
:1036400010220C30FCF7F4FC60591021353004F0E6
:1036500079FF615930460B460A46253335320C3125
:1036600005F006FD605902210278002A427807D051
:10367000032A0BD14170304604F02EFF074605E0C7
:10368000042A02D0032A03D000E041703846F8BD76
:103690000521EFE71C7AFF1F70B50C46080419D509
:1036A0000D480078FCF7EEFC05000FD005F094F80B
:1036B000002808D109480078FF2804D02946FCF7E3
:1036C0003BFD002802D02846FCF7E2FC0120C003A5
:1036D000604070BD002070BD107AFF1FD879FF1FB9
:1036E0007CB50C4605001DD0002C1BD00322E11C2C
:1036F0006846FCF79DFC6946887840218006800E6C
:1037000008436946887001AA284605F08FFC002806
:1037100007D10322214601A8FCF796FC012803D01B
:1037200001207CBD02207CBD00207CBD10B5054879
:103730000078400701D5044800E0002005F000F9BA
:10374000002010BD4B79FF1F047AFF1FFFB581B029
:103750000020274C9500009060591E46174600280F
:1037600002D0112005B0F0BD002E0BD02120FEF7B5
:103770008FFA317E884205D82220FEF789FA317E01
:10378000884201D20220EDE77820FCF7ABFC6051C3
:1037900000282AD078220021FCF762FC6159002021
:1037A0004870625901991170625902999170625979
:1037B000FF21D1706159CF8061598E6061590862D3
:1037C0006159203108710198002803D0384604F06F
:1037D00099FE00906159012048700098002802D09D
:1037E000384604F04BFE0098BCE71320BAE700000F
:1037F0001C7AFF1FFFB58DB00F98169C0E4600284F
:1038000015D0002C13D00D9803F09AFF050011D0AD
:103810006178207809024018A178E278090412063C
:1038200089184718286AB84206D3401C04D00220E1
:1038300011B0F0BD1420FBE7002E04D028798007DA
:1038400001D40120F4E70822002106A8FCF708FCB7
:103850001098001DC0B20190FCF744FC060017D080
:10386000301D109A0F99FCF719FC042221463046AE
:10387000FCF714FC1022A91802A8FCF70FFC06ABF9
:10388000314602A8019A05F027FB050002D013E09B
:103890001320CDE7082206A908A8FCF7FFFB0822A1
:1038A000211D08A8FCF7D0FB012801D0012503E069
:1038B00039460D9801F002FD3046FCF719FC284608
:1038C000B6E70A4610B501460020FCF7A1FC10BD82
:1038D000FFB583B00F4603981B4940001646085AAF
:1038E000FFF708FE04002AD00125601C2670002F77
:1038F00003D00699B847401C85B2300610D5102178
:10390000039803F0C1FF002801D0192613E06219C3
:10391000E9B22046FFF71CFE06000CD10C35ADB213
:103920000421684601800194058169460398FFF7E8
:10393000C7FD060004D02046FCF752FC00E0132629
:10394000304607B0F0BD00004479FF1F10B50446B3
:103950000079BEB0C00716D060880C49FEF7A6FDFE
:10396000C00710D0094800220830418D6846018008
:103970000121418005480838017868460171608856
:103980006946FEF755FF3EB010BD0000D875FF1F19
:1039900070B5049800241546002801D00B2070BD96
:1039A000486802784078000210180E4A80B29042AF
:1039B0000AD10D495F200A785F2A00D908700120DA
:1039C0001880087828700BE0084A904207D102203E
:1039D00018800246C9682846FCF72AFB00E00A2442
:1039E000204670BD192A0000D075FF1F082900006D
:1039F0007CB515464A68069C167852781202B218B1
:103A0000104E92B2F24209D101220192DBB200942F
:103A10002A46FEF7F1FB040003D000E00A2420460A
:103A20007CBD6978287809024018074980B2496846
:103A30000029F4D0002802D001208847EFE70220B7
:103A4000FBE70000FED6FFFFD075FF1F01680A05E7
:103A500008D11031044A016052781203914201D317
:103A6000891A016070470000B473FF1F0FB410B5CE
:103A700003AA0448029903F057FF10BC08BC04B025
:103A800018470000C338021138B5034B00240FCB90
:103A90000094FCF7C3FB38BDF899021110B50C4631
:103AA00003F062FE002804D040882146FCF74AFB60
:103AB00010BD122010BD0000F0B5504E504C9BB010
:103AC0007168216071782171FF21A1711021002599
:103AD00061712F460922FF21E01DFCF7C1FA4E2239
:103AE000002106A8FCF7BCFA32E020682903401840
:103AF000102202A900F040F902982168884218D1EA
:103B00006846007B2179884213D16846407B617901
:103B100088420ED168467178807B491E884225DA3A
:103B2000A84201D1022700E0032706A94855A07149
:103B30000CE00298401C19D16846007BFF2815D183
:103B40006846407BFF2811D106A948556D1CEDB28F
:103B50002179A942C9D8042F08D0A0790125FF28CE
:103B600007D0012F05D0002006AA24E020201BB09A
:103B7000F0BD00270DE0A771216838030818102256
:103B80001F4900F00FF9002801D01F20EFE77F1C2C
:103B9000FFB22079401EB842EDDC0020207420796D
:103BA000401E607410206082357025E0135C002B8D
:103BB00003D0401CC0B28142F8D881421CD9401EBB
:103BC0000818FCF731FB6174002035700246694625
:103BD000009000F017F8002802D0212802D004E05D
:103BE000009901E0012109036182C0B2212803D0BC
:103BF000002801D02A20BAE70020B8E7B473FF1FDD
:103C00008090FF1FF7B501248AB000200E4627469A
:103C100005909CE056480179407CC019FCF72CFACD
:103C2000C8B2FF2C03D3FF3CA4B2FF2C33D20A9AB4
:103C3000002A01D14E4A1174000302900598012513
:103C4000002803D000200590601C06E0012C05D957
:103C50002819811EFF2917DA401E85B20298290112
:103C6000081807904248042201680798081804A918
:103C700000F082F80A9800280ED0012829D00228E6
:103C80003CD006200DB0F0BDFF200230401B201AB2
:103C900084B20120059058E004988103890F04D074
:103CA000022902D003294CD10EE00103890F01291A
:103CB00001D0012445E0000D0C21FCF7DDF90029BD
:103CC00000D0012144183CE007980005000D306049
:103CD00047E0049881038A0F04D0022A05D0032A02
:103CE0002FD142E0890F0229DFD1328881B292B20E
:103CF0009142DAD10C990798086032E00498810368
:103D0000890F04D00229D0D003291AD129E0010358
:103D1000890F012903D0306801240C300BE0000D1D
:103D20000C21FCF7A9F9002900D0012144180C202E
:103D300031686043081830600C980C990068401C8A
:103D400008606D1CADB2FF2D80D97F1CFFB2094801
:103D50004078874200D25DE70A98002803D0012806
:103D600003D000208EE721208CE725208AE7000081
:103D70008090FF1FB473FF1F10B5094C6368984211
:103D80000BD364782403E318834206D9002904D0B6
:103D9000002A02D0FCF7FAF910BD222010BD000065
:103DA000B473FF1F70B515460E460446FCF742FA81
:103DB000800601D0292070BD09494868844206D395
:103DC000497809030818A04201D9A00701D0222090
:103DD00070BD2A4631462046FCF732FA70BD00001D
:103DE000B473FF1F0022002913D0002811D001282E
:103DF00006D04A799206920E4A71032805D007E050
:103E00004879C0221043487102E0402002434A71C1
:103E1000012210467047000070B512480025007856
:103E2000052108421BD02020FCF75CF90E4C00282D
:103E3000A06013D020220021FCF712F92020FCF70B
:103E400051F9E060002804D020220021FCF708F995
:103E500005E0A068FCF74CF90020A0601325284677
:103E600070BD00004B79FF1FBC79FF1FF3B5888838
:103E70000D4681005A485A4C40585A4F203C85B054
:103E8000002823D1059800287ED0002D7CD000F09A
:103E9000E5F920740A281CD300260E207043C019AF
:103EA0000622FF21FCF7E2F8002804D1761CF6B2C6
:103EB0000A2EF2D30A2626740A2E07D1607B0A2125
:103EC0000646FCF7D9F82174761C6673207C0A2814
:103ED00061D2A888424E8000305800285ED08268A7
:103EE0000027002A0BD0207C062148432130C0B295
:103EF0001C2103F024FFA888800030588760A88820
:103F0000800030580269002A0BD0207C06214843EB
:103F10002230C0B21C2103F012FFA8888000305864
:103F20000761A888800030584269002A0BD0207CA5
:103F3000062148432330C0B2102103F000FFA888B7
:103F4000800030584761A88880003058C268002A35
:103F500018D0207C062148432430C0B2102103F041
:103F6000EEFEA888062180003058C268207C1032FE
:103F700048432530C0B2042103F0E1FEA888800048
:103F80003058C760A07B00E005E0002801D000F0B9
:103F9000A5FA00F0E7FA012007B0F0BD207C062169
:103FA00048432030C0B20E21059A03F0C8FE10220B
:103FB000FF216846FCF754F8207C6A467030C0B296
:103FC000102103F0BCFE207C0E2148430A46C01994
:103FD0000599FCF72DF8A888800035500020DBE714
:103FE0000874FF1FCC90FF1FF0B589B017460E462E
:103FF0000446202200216846FCF732F86846048017
:10400000394C0225E178017122794271217B0177D7
:1040100006984108E07A4900C307DB0F194306916F
:1040200081070029069901DA294300E0A943069196
:1040300001072E4B069901D5194300E099430691DB
:10404000C1062B4B069901D5194300E0994306910F
:104050008106284B069901D5194300E09943069142
:10406000400704210028069801DA084300E088434D
:104070000690002A05D001A810221F490230FBF744
:10408000D7FF6179002904D0002E02D0069828437A
:1040900006906846807D002900D0012108436946CA
:1040A0008875A178002900D00421084369468875E5
:1040B000A179002900D00821084369468875E17973
:1040C000002900D01021084369468875217A00290B
:1040D00000D0202108436946887539466846FDF7B7
:1040E000C1FC09B0F0BD0000E873FF1F0001000033
:1040F0000002000000040000BC90FF1F70B5002506
:10410000094E2C460E20604380190622FF21FBF742
:10411000ADFF002801D16D1CEDB2641CE4B20A2C85
:10412000F0D3284670BD0000CC90FF1F7FB50C4631
:1041300006214843064615462036F0B26A460E214F
:1041400003F0F2FD002806D10622FF216846FBF7A6
:104150008DFF002802D0002004B070BD6846818920
:10416000002DC8B202D02043C0B200E0A04381427B
:1041700006D069468881F0B26A460E2103F0DFFD61
:104180000120E9E710B50024204600F007F8641C80
:10419000E4B20A2C01D20028F6D010BD70B5054655
:1041A000044606204443264690B02036F0B207AAC3
:1041B0000E2103F0B9FD002806D10622FF2107A831
:1041C000FBF754FF002802D0002010B070BD0E2273
:1041D000FF2107A8FBF744FF1C22FF216846FBF7DD
:1041E0003FFF1022FF210BA8FBF73AFFF0B207AA0E
:1041F0000E2103F0A4FD064620462130C0B26A46D7
:104200001C2103F09CFD064320462230C0B26A46C2
:104210001C2103F094FD064320462330C0B26A46B9
:10422000102103F08CFD064320462430C0B26A46BC
:10423000102103F084FD06432534E0B26A460421D0
:1042400003F07DFD014631430C467035E8B20BAA00
:10425000102103F074FD2043B7E7000070B50A4D4C
:10426000064600240E206043401906223146FBF723
:10427000EBFE002801D0204670BD641CE4B20A2C7D
:10428000F0D30A2070BD0000CC90FF1F00229300E5
:10429000CB5A834202D1900040187047521CD2B2D0
:1042A000042AF4D3002070477FB50C460A280CD2AC
:1042B000002C0AD0062148432030C0B26A460E21A5
:1042C00003F032FD050003D007E0022004B070BD0A
:1042D000062269462046FBF7ABFE2846F6E700219A
:1042E0008A00835A491CDB43835212189378C9B25F
:1042F000DB4393700429F3D37047000070B5144E6C
:1043000000240E20604382192046062148432030B5
:104310001546C0B20E2103F007FD00280BD0284639
:104320000622FF21FBF79CFEA81D0622FF21FBF7BA
:1043300097FE0020A881641CE4B20A2CE1D3054852
:10434000807B002801D000F0C9F800F00BF970BDA7
:10435000CC90FF1FE873FF1F10B503494088097810
:10436000FEF7FCF810BD0000E873FF1F10B50F4901
:104370004A79002A01D0012300E000238A78002A2C
:1043800000D004221A438B79002B00D0082313435A
:10439000CA79002A00D01022097A1A43002900D0D5
:1043A00020211143FDF7F2FD10BD0000E873FF1F4F
:1043B00070B50E4604460621484388B015462030A5
:1043C000C0B204AA0E2103F0AFFC002843D106229C
:1043D000FF2104A8FBF74AFE00283CD17034E0B26C
:1043E0006A46102103F0A0FC002831D16846FFF78F
:1043F00076FF002E06D069463046FFF747FF0028BB
:104400000DD015E0102200216846FBF72FFE002892
:104410001ED1102200216846FBF722FE10E0002D7D
:1044200019D069460020FFF731FF002813D006801D
:104430008178A9420CD08570002D01D10021018026
:104440006846FFF74CFFE0B26A46102103F077FCA4
:10445000012008B070BD0020FBE7000070B51C4CC7
:104460000646606A1B4D86B0002809D120461430EC
:1044700000900223184A29460120FEF701F920E0A6
:1044800004A80222002100900292019103ABA28AAB
:104490003046616AFDF7F8FE00280CD16846017BC2
:1044A000407B000208180204120C04D0606A4189A3
:1044B0003046FDF739F80023A28A2946606AFEF7E4
:1044C00011F960620028DBD1012006B070BD000048
:1044D000E873FF1FFFFF0000709B021170B5FBF730
:1044E000B5FE0A4E00240E206043801905460622C0
:1044F000FF21FBF7BBFD002802D12946FBF7ACFEEC
:10450000641CE4B20A2CEED370BD0000CC90FF1FF7
:1045100070B50B46044611461846FFF7A7FC002865
:104520001DD00F4DA40028598088FFF797FF002861
:1045300015D02E46203EF069002807D04368002B96
:1045400004D0285900228088012198472859002842
:1045500003D0FBF79DFD002028510A20307470BD68
:104560000874FF1F08B5FFF7C9FD012801D9022013
:1045700000E00A20694608706A4601210520FEF71E
:104580005FFA08BD002909D0012807D149798909B6
:104590008901C02902D0402901D0022070470320A0
:1045A0007047FFB500200E4608701AE01C5C401CE6
:1045B000C5B2002C17D02819904214D85F5D6D1C2D
:1045C000EDB2384600F0A3FE002806D0641EE0B22B
:1045D000307000998F4202D1581904B0F0BD4019D3
:1045E000C0B29042E2D30020F7E7000010B5044CBF
:1045F0002068002803D0FBF77BFD0020206010BD61
:10460000A879FF1F70B50E4D84002859002815D0D9
:10461000006A002801D0FBF76BFD2859406A00288A
:1046200001D0FBF765FD2859806A002801D0FBF70F
:104630005FFD2859FBF75CFD0020285170BD00008C
:10464000B479FF1F10B5044C6068002803D0FBF755
:104650004FFD0020606010BDAC79FF1F01000448D1
:1046600005D104498978002901D00248801D70478E
:10467000DC96FF1F4A79FF1F0148807870470000D1
:104680004A79FF1F0148406870470000CC96FF1F21
:104690000148806870470000CC96FF1F0148C06841
:1046A00000687047CC96FF1F10B50748C0680168C6
:1046B000491C016005480078FF2803D001218903C7
:1046C000FBF704FD10BD0000CC96FF1F4A79FF1FC9
:1046D00002484068002800D001207047A479FF1FDD
:1046E000FFB581B00F460D9E0A9D039803F028F890
:1046F000040042D0019800283FD1207910210843BE
:1047000020710499490702D50221084301E0FD21E7
:10471000084020710B99284608430C990843304300
:10472000207902D00421084301E0FB2108402071D8
:10473000002E06D03069102220623146A018FBF707
:1047400077FC002D01D0002F05D00B98002814D045
:10475000012F08D011E0606A002801D0FBF7C8FCE7
:104760001C21284606E0606A002801D0FBF7C0FC47
:104770001C210B98FBF7C2FC60620398224C870057
:10478000E05900283ED0002D0FD0006A002806D145
:104790001C20FBF7A7FCE1590028086205D0E0596E
:1047A0001C22006A2946FBF743FC0C98002810D015
:1047B000E059406A002806D11620FBF793FCE15926
:1047C0000028486205D0E0591622406A0C99FBF790
:1047D0002FFC002E10D0E059806A002806D114204A
:1047E000FBF780FCE1590028886205D0E0591422CB
:1047F000806A3146FBF71CFC0B9B049A03990198D5
:1048000003F0F8FC05B0F0BDB479FF1FF3B581B03B
:10481000019802F095FF050029D00E20FBF7AAFCB5
:10482000040024D02620FDF733FA060000D12E78AC
:10483000D0202070002767700B20A0700622E91D91
:10484000E01CFBF7F5FB019860810298C10701208D
:10485000002901D0207300E027730299890701D550
:10486000607300E06773F0B22146FBF765FCFEBDA4
:1048700010B581881F4B0124CA1A994237D011DC28
:104880001D4BCA1A994219D007DC1C4A8A1810D04D
:10489000022A1ED0032A29D11BE0472A27D0482A02
:1048A00024D124E01300FBF7D5FB0621222222228B
:1048B00022218068007800F0EBFC08E080688278B4
:1048C00041781202891889B2007800F041FD04464F
:1048D0000DE0094A921E914201D1012200E000221E
:1048E00080680178104600F01BFD00E0002420469F
:1048F00010BD0000532000000A200000FADFFFFF77
:1049000070B51A4D1A4A0146002628781268194CCB
:1049100001290CD0002A09D017490978490705D583
:104920000221FBF7CDFB6680FFF760FE70BD61885A
:10493000002903D0114B1B78002B05D0002AF5D09D
:104940001078FDF77BF970BD3C2902D33C396180BA
:1049500070BD0221FBF7B4FB62887D20C00042439A
:1049600002212878FBF7A6FB668070BDD979FF1F6E
:10497000A879FF1FBC79FF1F4B79FF1F4D79FF1FDF
:1049800008B5418900910389C2888188C07800F008
:10499000CBFB08BDF0B504468088A12189004843BF
:1049A000304987B009684018FF30FF300230A179E4
:1049B0004167002C54D02C4D6868002823D006781D
:1049C0002A480068002804D04168002901D000204E
:1049D00088472146E07908310591FFF7D3FDE07162
:1049E0000246277D638A218AE089019002A88AC055
:1049F000A0880090E0783146059B03F071FCE078D8
:104A0000002802D00DE01A48D9E7E079E2896B4628
:104A1000059907C3A379A1880122304602F03EFE22
:104A2000E0706868002811D0FFF70CFE2878002895
:104A30000CD06978FFF732F8002807D0E078A28818
:104A40000346297803F0A0FC00202870A0881721D5
:104A5000FCF758F9A088FEF7E9FCA088FEF70EFDE8
:104A600007B0F0BD3409FF1FAC79FF1FDC79FF1FD1
:104A70004A79FF1F70B504460026808802F060FE68
:104A8000002803D00678A08802F0E2FE144D2878B2
:104A9000002808D0864206D16978FEF7FFFF00287B
:104AA00009D000202870002E05D0A379A288A07814
:104AB000314603F069FCA088094A81000832515848
:104AC000002901D0FFF79EFDA0881721FCF71AF9F5
:104AD000A088FEF7ABFCA088FEF7D0FC70BD0000FC
:104AE000AC79FF1F70B58288294D0124531B2949D9
:104AF000AA4242D019DC284D531BAA4218D00BDC25
:104B0000264BD21826D0254B1033D2181ED0032A9C
:104B100017D0042A39D10BE0012B09D0022B07D082
:104B2000032B21D0042B30D11AE0433B072B2CD888
:104B3000496800292AD00968002927D088470446F7
:104B400024E08068007800F0ADF81FE0806800F095
:104B500001F9F4E78068411C007800F0D9F8EEE72D
:104B600083681B78002B11D0896800290ED00B6850
:104B700008E0014610469847E1E70949096800291D
:104B800004D04B68002BF4D100E00024204670BD17
:104B90000E200000D879FF1F08200000F7EFFFFF6C
:104BA000B879FF1F10B5094CA17800290CD0014637
:104BB0000622A01DFBF73CFAA11DA078FFF712F911
:104BC000A01DFBF74FFB10BD002010BD4A79FF1F51
:104BD0001CB52F49037801240A68912B02D0A22B1F
:104BE0002ED13EE04178052909D00E2904D00F29A5
:104BF00008D03E2924D115E0FFF774FF10E0FFF73D
:104C000039FF3AE001468088224B0124C31801D0C5
:104C1000062B15D1002A30D05268002A2DD090479B
:104C200004462AE081780124032917D004DC0129F5
:104C300011D0022904D105E015291ED016291CD057
:104C400000241AE014498968002916D0496800290F
:104C500013D0884711E0FFF79DFE0EE0FFF790FEAE
:104C60000BE00E490978042909D0002A05D05268C2
:104C7000002A02D001460A48904720461CBD002168
:104C80006A46118001794088FEF750FBF5E7000085
:104C9000B879FF1FF3DFFFFFD879FF1F4B79FF1FA4
:104CA000FFFF0000F8B5164F0646BD1F2878FF2805
:104CB00014D00A20FBF75EFA04000FD0D020207039
:104CC00066700820A070A878E07006223946201D82
:104CD000FBF7AEF921462878FBF72EFAE878012891
:104CE0000DD108480068002803D08068002800D053
:104CF00080470648044A04210078FBF711FAF8BD02
:104D00005079FF1FDC79FF1F60EA0000D979FF1F8F
:104D100070B500240546002805D1002903D00622DD
:104D20000B48FBF785F90A4810380178012907D1AB
:104D30000124002D06D000210170284600F0D0F992
:104D4000204670BD02210170FBF792FAF8E70000DF
:104D5000DC96FF1F10B50024002813D002780B4901
:104D6000002A03D14288CA8202790A760A78022A86
:104D700008D102780124002A06D000220A700078A7
:104D800000F0AEF9204610BD0322F7E7CC96FF1FD6
:104D90000149486070470000D879FF1FF8B57A4C88
:104DA00087780146002507266079A2793B00FBF74A
:104DB00051F90805361A37375F9ACD3648780028FA
:104DC0005CD1714806223C30C91CFBF731F9012047
:104DD000A0716D4B0146423362786079FDF784F92A
:104DE00000284BD1A8E00F464978002946D1F97830
:104DF000002906D0654BA2780021FDF775F978707F
:104E00000AE0022A0BD00121FBF766F9002803D142
:104E100001216079FBF75AF9787800282ED1F8BD86
:104E2000497800292AD1032F09D0A289002A0CD061
:104E3000217800290AD00121FBF73CF906E0052A78
:104E400001D0022012E0062010E02570A07906288B
:104E500002D0042802D008E0052007E001202070DD
:104E600001466079FBF732F966E00320A07163E048
:104E700048780F46002803D0312832D0A6715BE075
:104E800041480622391D3630FBF7D2F87889E08197
:104E9000B8892082F88960820520A071A28A002A40
:104EA00003D002216079FBF705F9B889E083F8891E
:104EB0002084388A6084E07801280AD11F20FCF71A
:104EC000E7FE7D21C9004843024604216079FBF7D3
:104ED000F1F87A89F8780423391DFBF7C1FF2570B2
:104EE0002AE02570C1E728480E4606220021363008
:104EF000FBF7B6F8E5832584658404216079FBF728
:104F0000DFF808216079FBF7DBF8B079082808D0D2
:104F10000320A0712078002805D06079FCF78EFE70
:104F200007E00420F5E70120207001466079FBF7D7
:104F3000CDF80020C043E081606A002800D16EE710
:104F400001680029FBD0A0798847F8BD0D460821EB
:104F5000FBF7B6F8687829460028F6D1E888E083A0
:104F6000288920844889608404216079FBF7B4F89B
:104F70000028EAD1A06A0028E7D00368628C218C5F
:104F8000E08B9847F8BD00009474FF1F7891FF1FD5
:104F900010B50178224C912906D0A22926D0D0291B
:104FA00001D1FFF7FBFE10BD41780E29FBD18188AE
:104FB0001C4A91420FD1816803200856A179052926
:104FC000F1D17F28EFD0616A0029ECD0496800292F
:104FD000E9D0884710BD144A9142FBD1806883789C
:104FE0004278017811A0FEF741FD10BD41791329E7
:104FF000FBD10089012802D12079022808D00520A0
:10500000FCF746FE024608216079FBF753F810BD15
:1050100008216079FBF754F8FCF714FD10BD00007F
:105020009474FF1F05140000222000005B484349D0
:1050300020444C455D25642025642025640A000039
:105040007CB5154C0546E08BE18A88420AD3218B5A
:10505000884207D8208C618B884203D1608CA18B59
:10506000884217D00520FCF713FE0646E18A684601
:105070000180218B4180618B8180A18BC18062790D
:105080006946E089FEF75EF92571324608216079AC
:10509000FBF710F87CBD00009474FF1FF8B50746BD
:1050A0000E46084602F04CFB040018D02620FCF700
:1050B000EFFD050000D125780620FBF75BF8040022
:1050C0000DD006220021FAF7CBFFD02020706770A8
:1050D0000E20A070A680E8B22146FBF72DF8F8BD9F
:1050E00070B50F4D06462878FF2818D00E20FBF724
:1050F00041F8040013D0D020207066700020A0700A
:1051000006220849E01CFAF793FF06481038C18AC6
:105110006181007E207321462878FBF70DF870BD71
:105120004A79FF1FDC96FF1FFFB581B01E46174668
:105130000D460C20FBF71EF8040013D0284602F0A1
:10514000FFFA002810D00078D021217001996170F9
:105150000721A170A580E78026810A9961812146F7
:10516000FAF7EAFF05B0F0BD0048ECE74A79FF1F07
:1051700070B50D4D044628680E46002812D0062052
:10518000FAF7F8FF010009D0D02008704C70032016
:1051900088708E8028680078FAF7CEFF002C01D046
:1051A000FFF724FA70BD0000A879FF1FFFB581B09A
:1051B0001F460E46084602F0C3FA050022D0102012
:1051C000FAF7D8FF04001DD010220021FAF748FF9B
:1051D0002620FCF75DFD002800D12878D021217021
:1051E000019961700F21A170A680039921726772E5
:1051F0000A99A1720B99E1720C99E160C0B2214643
:10520000FAF79AFF05B0F0BDF0B51F4D85B02868DC
:10521000002837D08778FCF7B7FD002805D00A2092
:10522000FCF736FD04900B200EE001F011FE002883
:1052300005D00620FCF72CFD0490072004E0082090
:10524000FCF726FD04900920FCF722FD04460F48D8
:105250000078002814D001262968C878091DFEF7B7
:10526000C1FD29686D46CA7A8B7A091D0BC5039268
:1052700033463A4621460498FBF700F805B0F0BDE6
:105280000026E9E70120F9E7A879FF1F4C79FF1F05
:1052900010B50949096800290CD0002805D1012062
:1052A0004870FAF731FF002802D00021FFF760FFB5
:1052B000012010BD002010BDA879FF1FF8B50C46D5
:1052C00002F03EFA020021D026201462FCF7E0FC36
:1052D00005062D0E00D115789679D01D009010206E
:1052E000176AFAF747FF040010D0D0202070002082
:1052F00060700920A070E6700622201D0099FAF760
:1053000097FE21462846E760FAF716FFF8BD411ED2
:10531000152903D9FF2801D00020704701207047CC
:1053200070B50A4E054630780C46FF280DD0042093
:10533000FAF720FF010008D0D02008704C7002203E
:105340008870CD703078FAF7F7FE70BDBC79FF1F1A
:10535000F3B5284D81B0286800284AD04078264E01
:10536000012803D03078002831D041E001F070FDF1
:10537000224F002813D00120FCF78AFC0446412864
:1053800008D91F4A02213878FAF7CAFE1D483C3C6A
:1053900044800EE07D20C0002246424303E000200E
:1053A000FCF776FC0246002A03D002213878FAF78F
:1053B00081FE2968022048703078002802D0002041
:1053C000307015E002990198FFF7D2FE10E003203B
:1053D000019CFAF7CFFE010008D0D02008704C7075
:1053E0000420887028680078FAF7A6FEFFF7FEF818
:1053F0000120FEBDA879FF1F4D79FF1FD979FF1F3E
:1054000060EA0000BC79FF1F074A00218B00D35AD5
:10541000834202D1880080187047491CC9B2022912
:10542000F4D3002070470000EC79FF1F10B50C4644
:10543000FFF7EAFF00280DD0002C00D02060807814
:10544000FE2803D0FF2803D0162010BD172010BD62
:10545000002010BD022010BDFFB581B0FF201E4608
:10546000174605300A9DFAF785FE04001BD0B020D0
:1054700020706770029860802671002D06D020464B
:10548000FC2229460830FAF7D3FD05E02046FC222D
:1054900000210830FAF7E4FD21460198FAF74CFEA6
:1054A000002005B0F0BD1320FBE7000005481722DF
:1054B00002800988172901D204207047018000204A
:1054C000704700004679FF1F0020704708B50A4664
:1054D0000888498888420BD8002809D00023009307
:1054E0001379521DFDF7CCF8002803D0002008BD29
:1054F000012008BD0A2008BDF3B50D46088849887B
:10550000002687B0814215D3002813D000276946B2
:105510000F710097002369881A46FDF7B1F804005F
:105520004FD068460079002807D06946497901299B
:1055300025D008E0012009B0F0BD217802291BD058
:1055400002216A4651711222504301AA61898018D2
:105550004180684600791223584380181022001DAC
:105560006168FAF765FD68460079401C0106090E7E
:10557000684601711FD11AE001216A4651712178F4
:1055800002291ED1820001A86189121851806A4641
:1055900012796168920010180222001DFAF748FD86
:1055A0006A461079401CC0B21071052803D2618987
:1055B0000A48814200D101266089401C80B2002E39
:1055C000A7D068460079002805D001A90798FBF705
:1055D000F7F90020AFE70A20ADE70000FFFF000069
:1055E00038B50C4608884988884215D8002813D059
:1055F0002379621D02210B48FBF767F900280DD0C3
:1056000000200090237961882088621DFDF738F81A
:10561000002805D0002038BD012038BD102038BD3D
:105620000A2038BD649B021108B50A4608884988DB
:1056300088420BD8002809D0002300931379521D0B
:10564000FDF71EF8002803D0002008BD012008BD8A
:105650000A2008BDF8B500250F4606460C46E0377F
:1056600017E06800205A0021FCF7E4FF002809D069
:10567000017A3046FDF7A0F9002808D06900615A88
:105680002180F8BD6800205A20800120F8BD6D1CE3
:10569000EDB2B87DA842E4D80020F8BD10B50446AC
:1056A00008880021FCF7C6FF002804D0017A2046B4
:1056B000FDF782F910BD012010BD000030B585B0A6
:1056C00005466946FBF7FAF9040026D1684680785A
:1056D000C1071E4809D08268002A04D0688869463C
:1056E0009047044619E0062417E04268002A05D0D6
:1056F000688869469047040001D10EE00624684698
:105700004078002809D16846817801730021C18161
:105710000474688803A9FBF713F9A868002801D06E
:10572000FAF75EFD002C05D168468078122807D074
:105730001B2803D068880121FDF714FE05B030BD99
:10574000684640780128F5D1F8E70000F479FF1F9A
:1057500070B505460C4608880021FCF76BFF002851
:1057600005D0017A22462846FDF739F970BD01209F
:1057700070BD00000149486070470000F479FF1FC8
:1057800010B50446801C00F046FDFF20E07010BDFF
:1057900010B500F025F8002800D0806810BD002268
:1057A0009300CB5A834202D1900040187047521C9C
:1057B000D2B2022AF4D3002070470000074A002129
:1057C000CB00D35A834202D1C80080187047491CCD
:1057D0000906090EF4D00020704700000875FF1F6D
:1057E0000649896805E08A88824201D18868704745
:1057F00009680029F7D1002070470000F874FF1FE6
:10580000F8B50746012906D0022924D1012102F06A
:105810003BF800281FD13846FFF7D0FF050015D010
:1058200000240D4E0CE0F8206968604308180188D8
:10583000002908D0F8220021FAF712FC641CE4B217
:1058400070788442EFD30020C04328800249384654
:105850001831FCF7B9FCF8BDF874FF1FF3B5064624
:1058600083B008300190002000907088FFF7A6FFF9
:1058700007002FD0002523E0F820796868430C1832
:105880002188002920D00198007801280FD1608854
:105890000090A3887088A21DFCF77EFE009000286F
:1058A00005D0019900200870049821880180F82211
:1058B00000212046FAF7D4FB00206D1C2080EDB2B9
:1058C000074840788542D7D30020C04338800098ED
:1058D000002802D17088FBF75DF8009805B0F0BD94
:1058E000F874FF1FF3B50546374C064685B00835FA
:1058F000F62200212046FAF7B3FB03A800902B798B
:10590000698828886A1DFCF7BBFE074645E0708859
:105910002E4A4100515C2E4BC91FC9B20093002290
:1059200002910192284B69468A89F63B3946FCF779
:10593000ABFC002812D126482989001F8288914299
:105940000CD121492846F6390A30FAF77DFB0028A8
:1059500004D02178788989000919488068468289AD
:10596000698804AB3846FCF7BDFE07462078810005
:1059700009194A88002A10D0002F05D06A46128AD9
:10598000401C20708A800AE002060021920DC94363
:105990001219401C2070918006E0002F04D00D48A1
:1059A000217800888142B2D32078002806D0708800
:1059B0002146FAF7F7FF002007B0F0BD06982988C6
:1059C00001800A20F8E70000A693FF1F4479FF1F1B
:1059D000FC74FF1F4079FF1FF0B585B0044600201E
:1059E0006946888120790E2869D00FDC082823D0E9
:1059F00004DC022813D0062818D118E02546083503
:105A0000484F0A281DD00C2810D138E010285BD050
:105A100012285ED0162861D0182877D163E0434859
:105A20004149008808806088FAF794FF6EE003A976
:105A30002046FFF757FF5AE003A9204600F076F909
:105A400055E0288804A9FCF7F5FD010015D0608811
:105A5000354E4200BA5C0023521ED2B2019302922C
:105A600000966A46B31C128AFCF70EFC00281DD172
:105A700060883146FBF726F948E0012016E02888C7
:105A800004A9FCF7D7FD0100F7D060886B884200BD
:105A9000BA5C254E521ED2B20193029200966A461B
:105AA000B31C128AFCF7F0FB002803D029886A4651
:105AB00091811CE060883146FBF7D4F826E003A909
:105AC000204600F0D3F912E003A9204600F082F846
:105AD0000DE003A9204600F039FA08E003A92046AA
