:020000041102E7
:1000000003B40148019001BDADAE000003B4014846
:10001000019001BD456B010003B40148019001BD91
:100020000189000003B40148019001BDC53F0000F3
:1000300003B40148019001BDE94C010003B401483B
:10004000019001BDC95C010003B40148019001BDEC
:10005000CD4C010003B40148019001BD618900004D
:1000600003B40148019001BD154D010003B40148DE
:10007000019001BD1D4B010003B40148019001BD79
:10008000090E000003B40148019001BDF54E0100C6
:1000900003B40148019001BD434D010003B4014880
:1000A000019001BD4551010003B40148019001BD1B
:1000B0002526000003B40148019001BD8B520100C8
:1000C00003B40148019001BDB352010003B40148DB
:1000D000019001BD0D52010003B40148019001BD22
:1000E000C94A010003B40148019001BD3D4B010024
:1000F00003B40148019001BD014C010003B4014863
:10010000019001BDF94C010003B40148019001BD0B
:10011000691F000003B40148019001BD5D17000094
:1001200003B40148019001BD5952010003B40148D4
:10013000019001BD5125000003B40148019001BDAB
:10014000594F010003B40148019001BD8D12000018
:1001500003B40148019001BD4D1F000003B40148E4
:10016000019001BD5522000003B40148019001BD7A
:10017000DD52010003B40148019001BD1D4D010095
:1001800003B40148019001BD810E000003B4014891
:10019000019001BD3D4BFF1F03B40148019001BD1B
:1001A0003554000003B40148019001BD017F0000F7
:1001B00003B40148019001BDE117000003B40148F8
:1001C000019001BD7918000003B40148019001BD00
:1001D000D949010003B40148019001BDE92800009C
:1001E00003B40148019001BD5549010003B4014821
:1001F000019001BDC926000003B40148019001BD72
:10020000350E000003B40148019001BDCB3AFF1F39
:1002100003B40148019001BDED4BFF1F03B4014839
:10022000019001BD3519000003B40148019001BDE2
:10023000BD18000003B40148019001BDC5210000B4
:1002400003B40148019001BD291C000003B401481A
:10025000019001BD851F000003B40148019001BD5C
:10026000A946010003B40148019001BD11470100F6
:1002700003B40148019001BD854AFF1F03B4014842
:10028000019001BD9157FF1F03B40148019001BDCA
:10029000052EFF1F03B40148019001BD1D2BFF1F58
:1002A00003B40148019001BD0328FF1F03B40148B6
:1002B000019001BDDD27FF1F03B40148019001BD7E
:1002C000B13E000003B40148019001BD353AFF1F63
:1002D00003B40148019001BD753AFF1F03B4014802
:1002E000019001BDC90E000003B40148019001BD99
:1002F000055E000003B40148019001BDE54800001F
:1003000003B40148019001BD2951010003B4014823
:10031000019001BDD91B000003B40148019001BD4B
:100320008528FF1F03B40148019001BDAD28FF1FC0
:1003300003B40148019001BD51470100F8B5D3490C
:10034000D14A002004464A608300401CD450FF2854
:10035000FADD4868CE4A014680318A606E22C26268
:10036000CC4A1278002A01D07F22C2620A2202659A
:10037000C94A13788363C94BC36115781023022DD2
:1003800008D01578012D05D01578032D02D01578E9
:10039000042D00D10362C24D45611925AD0185616F
:1003A0003725CD6036272826C763082546640564AF
:1003B0004F6032270F603B27CF634127CF64392737
:1003C0004031E0C132274F6002274F614227083198
:1003D000E0C11E274F60CE608D6005264E6142262B
:1003E0000E615A2660390E614D613C258D61AF2545
:1003F000ED000560AB4D05631578022D09D0157829
:10040000012D08D01578032D07D01578042D06D0BE
:1004100007E0152504E0436003E00E2500E00C250D
:100420004560FF252D358560C560FF25F5350561E3
:100430009D4D85647D25ED009C4ECD67C66445626B
:100440009B4D85627325C565062545658565C51D7A
:100450000826F93502272E6047664B27FF0087667E
:100460000927C766934F07674667BE108467C6674C
:10047000914F8E4E3E601678022E09D01678012ECE
:100480000AD01678032E0BD01278042A0CD00EE076
:100490001A22CA61212205E01422CA61182201E051
:1004A0001322CB610A6202E00E220B62CA617E4A0D
:1004B0008A627D22D2008A6764224A620522CA6269
:1004C00002220A63C8228C634A63382169607B492F
:1004D00029647B49A9614B21C900E9617349FF3057
:1004E000643929627D2109016962EC661E212C674D
:1004F000A9667049A965E965891029666964696713
:100500007049A9677049714A8130E9670260826069
:100510004160FF21F531C16001616E486C495A4A62
:1005200081606D49803A11616A496C4A80318A6202
:100530006B4ACA626B4A82616B4AC2626B4A02634F
:100540006B4A64484038C2636A4ACA616A49816337
:1005500060496A48403188616A49694888605D48F5
:10056000694A80384260694A4263694A0A62694955
:10057000816058496848C039C860FFF741FD0120D3
:10058000FFF744FDF8BDF3B50746644881B0C16983
:10059000634A1140FF310931C161002613E0002593
:1005A0002C461120FFF738FD5C48406A8007800F19
:1005B000610088402843641CE4B20546102CF0D347
:1005C00001C7761CF6B202988642E8D3FEBD10B58C
:1005D0002E4C607800280AD104215248FFF7D3FF3F
:1005E000504804211030FFF7CEFF0120607010BD8D
:1005F000F0B500248BB00D460646102902D9012023
:100600000BB0F0BDFFF7E3FF464900200A5C401C39
:100610001419C0B21028F9D3002C03D0102D03D91F
:100620000B20EDE70E20EBE73F483E4C002300682F
:1006300002A91034E25CC75C7A40CA545B1CDBB28E
:10064000102BF7D306AA3748FFF7ECFC102D00D982
:1006500010252A4606A93046FFF7EAFCFFF7EEFC14
:10066000216840182060FFF7E9FC6168401860606D
:10067000FFF7E4FCA1684018A060FFF7DFFCE16829
:100680004018E0600020BBE70004FF1F1472FF1F4A
:100690001895FF1F906CFF1F4A0AFF1F3A070000C2
:1006A00080C3C9019A02000050C30000280A00005C
:1006B0006A180000204E0000F009FF1F00400011E2
:1006C00068100000DC05000040420F001027000009
:1006D000415CFF1F0001FF1F4935FF1F6560FF1FC1
:1006E0003D63FF1FB131FF1F4533FF1FCD31FF1F9A
:1006F0001D42FF1FA969FF1FCD67FF1F5D28FF1F58
:100700000139FF1F0002FF1FB958FF1F955AFF1F35
:10071000D959FF1F7558FF1F3139FF1F40F00040A6
:1007200000FEFEFF9C8FFF1F3872FF1F0A780270C9
:100730008A7842704A88120A82700979C17004204E
:1007400070470A7802700988090A417002207047D0
:1007500010B500220EE093005B189C7804705C8852
:10076000521C240A44701C7984709B88D2B21B0AE4
:10077000C370001D0B789342EDD81806800D10BD94
:10078000F8B50D4606464978012031700024761CE4
:1007900016E06978012917D01221614349198A7836
:1007A00032704A88871C120A7270B61C10223046BA
:1007B000091DFFF73DFC1037B8B21036641CE4B2D7
:1007C0002978A142E5D8F8BDA10049198A7832708C
:1007D0004A88871C120A7270B61C02223046091D14
:1007E000FFF726FCBF1CB8B2B61CE7E710B50C46F5
:1007F000097801702188090A41706288211D801CD6
:10080000FFF716FC6088801C80B210BD10B50C4646
:10081000097801702188090A4170A1788170618886
:10082000090AC170A288A11D001DFFF701FCA08864
:10083000001D80B210BD10B50C460A88891CFFF758
:10084000F7FB208810BD10B50B788A7802705343EF
:10085000DCB22246401C091DFFF7EAFB601C10BDFC
:1008600010B50B788A7802705343DCB22246401CE4
:10087000091DFFF7DDFB601C10BD10B50C460A8892
:10088000891CFFF7D5FB208810BD10B50C460A88DF
:10089000891CFFF7CDFB208810BD7FB515460446A7
:1008A000022901D0102903D1022B04D0102B02D031
:1008B000002004B070BD994202D10A46294607E0E3
:1008C0001029694607D000F00DF810226946284625
:1008D000FFF7BAFBEDE7104600F004F81022694676
:1008E0002046F5E770B50C4605000CD0002C0AD068
:1008F000102206492046FFF79BFB28782073687872
:100900006073012070BD002070BD00007492021160
:1009100010B50B460122024902F010FF10BD000085
:100920002D07021170B5064608880C46172812D309
:100930000B4603220949304602F000FF050008D1AA
:10094000074920880988884200D20146304600F0D5
:10095000ABF9284670BD022070BD000043070211AC
:100960004672FF1F10B500231922194602F0E6FE59
:1009700010BD000010B50A78002A05D00B460722EA
:10098000024902F0DBFE10BD022010BD510702112A
:1009900010B54A78012A01D0022A08D10A78002A23
:1009A00005D00B460522034902F0C8FE10BD022007
:1009B00010BD00008107021101494000085A70472C
:1009C0004472FF1F10B50B461D22024902F0B6FE0D
:1009D00010BD0000ED07021110B50B461B220249A5
:1009E00002F0ACFE10BD0000ED0702110149172016
:1009F000088070474472FF1F0098022B01D004202A
:100A000070471178527812028918018000207047CF
:100A10000098012B01D0042070471178017000204C
:100A2000704770B5049C1E461546062B1BD369788B
:100A30002878090240182080E978A878090240182F
:100A4000608002222271291D601DFFF7F1FAB61F96
:100A5000B2B22281F02A06D82046A91D0A30FFF73B
:100A6000E7FA002070BD042070BD0098042B01D06F
:100A700004207047537811781B02C91801809178BF
:100A8000D27812028918418000207047F8B5848915
:100A90000D460646002C26D0B2681778380620D5B9
:100AA0000C2C20D90C3CA4B21019009001217088A4
:100AB000234602F0DBFD002811D0022028707806C2
:100AC000C00F6870B806800EA870641E2004000C69
:100AD000A88001D0B068401CA8600020F8BD0120AB
:100AE000ECE70020EAE70120F8BD10B502981146B6
:100AF000042B14D34C780A78240212190280CC7883
:100B00008A782402121942801B1F9AB28280F22A2C
:100B100005D8801D091DFFF78BFA002010BD0420A9
:100B200010BD0098042B01D0042070475378117831
:100B30001B02C91801809178D2781202891841806D
:100B40000020704710B502981146062B03D0142BD5
:100B500003D0042010BD022200E0102202714B7865
:100B60000A781B02D2180280CB788A781B02D2182E
:100B700042800279401D091DFFF75AFA002010BD7E
:100B800030B5039CD80718D1D805010E022914D31B
:100B90000B488088814210D8F6200155002008E0DB
:100BA000557813782D025B194500401C6353C0B281
:100BB000921C8842F4D3002030BD042030BD0000D8
:100BC0003E72FF1F0098022B01D00420704711785D
:100BD00052781202891801800020704770B51446BF
:100BE00002460498022B18D3667825783602AD1990
:100BF00005800546E0352A766976002A0BD0E82183
:100C00009B1E9AB242808A4207D8A11C001DFFF7A2
:100C10000FFA002070BDF421F2E7042070BD00003F
:100C200010B50B461722024902F088FD10BD0000E6
:100C30000D08021110B50B460D22024902F07EFD8F
:100C400010BD00003708021110B50A78002A05D03F
:100C50000B461122024902F071FD10BD022010BDA9
:100C60004708021110B50A78002A05D00B46092260
:100C7000024902F063FD10BD022010BD610802119F
:100C800010B50B460F22024902F058FD10BD0000BE
:100C90007B08021110B50B460B22024902F04EFDF3
:100CA00010BD00008B080211044A1288914203D83B
:100CB000024A4000921D1152704700003E72FF1F11
:100CC00010B500231322194602F038FD10BD0000B4
:100CD00010B50549054801F0DFF90348044A05212C
:100CE000083001F059FB10BDD46EFF1FFFFF00005C
:100CF00018920211034610B50020104A002B08D0AC
:100D0000012B08D01032022B08D0032B09D002206F
:100D100010BD127800E052780A7010BD52890A8026
:100D200010BD064B9B1C1C780C715B784B71538D6E
:100D30000B80528F4A8001228A7110BDCC6EFF1F3A
:100D400010B505495F200A785F2A03D90870034867
:100D500006F0B4FB002010BDCC6EFF1FB9370211A6
:100D60000149486070470000CC6EFF1F70B50C460B
:100D70000146012080020A1A00251C481300FFF7D3
:100D800069F90F32090B0D1012181A1C2A1F2123A2
:100D900025272A00408A23E0807800E0C078207070
:100DA00021E00079FBE7102211492046FFF740F9C6
:100DB00019E04079F3E7C07AF1E78069206012E03A
:100DC000407AECE7807AEAE7007BE8E7807BE6E7B9
:100DD00003F0B2F8E3E7272904D2084600F0C0FE8A
:100DE000208000E00225284670BD0000E46CFF1F53
:100DF000BC89FF1F10B50249087003F09DF910BDB2
:100E0000E46CFF1FFFB599B000261F46079607AA9E
:100E1000089600F0CFF9054603F08EF80A2D7AD235
:100E20002C460620444320462030C0B26A460E219C
:100E300006F0B0FB002802D168468089C6B21B9834
:100E40000990082F14D000201790082F12D02046A8
:100E50002130C0B218901C2200216846FFF700F92B
:100E60006A461C21189806F095FB002805D010E072
:100E70000120E9E720462230EBE76846807EC01F6C
:100E8000092806D8F107C90F6A46179B099800F090
:100E9000D9FD1422002110A8FFF7E2F820462430E3
:100EA000C0B210AA102106F075FB002812D1102242
:100EB000FF2110A8FFF7DAF800280BD12534E0B2A3
:100EC00014AA042106F066FBF107C90F10AA1B98AB
:100ED00000F0FCFF7035E8B20BAA102106F05AFBB7
:100EE000002811D10BA803F018F900240BADA000C5
:100EF00040190188002903D082781B9801F0A8FAD4
:100F0000641CE4B2042CF2D3B00704D5094801787C
:100F10001B9801F08BFA042F08D106491B98491C35
:100F2000085C022802D11B9803F03EF900201DB096
:100F3000F0BD0000E46CFF1F70B5002405460029D9
:100F40000BD108491046FFF797F80846294600F0EC
:100F5000A3FE040003D00121284600F0DDFF204657
:100F600070BD000040420F0070B50C46080428D543
:100F700015480078FFF786F805001ED00178B029E3
:100F800008D0B1290ED0D02914D100F01FF80028C4
:100F900010D112E001791E290CD16888002100F0DF
:100FA00065F907E00179002904D10289C1886888C0
:100FB00000F048FA2846FFF76BF80120C0036040B4
:100FC00070BD002070BD0000E46CFF1F7FB582780B
:100FD0006E4C921FE1691300FFF73CF80AB2D6D6B7
:100FE000681B06D6D65F7AD60546002908D00E685B
:100FF000002E05D06B7B2A7B6989E81CB047C3E0D3
:101000006989A06900F048FE0028F8D068890121AC
:1010100090E00546407800282DD1A879C0072AD055
:10102000A8885A49800020310858002823D10E2270
:1010300000216846FFF714F86969002903D00622E9
:101040006846103107E0A88806F0D8F900283ED09D
:10105000C11D06226846FEF7EBFF69468889A9791B
:101060004907C90F0843694688812946684602F046
:101070001BFE002809D0E069002828D04368002B17
:1010800025D06A78A888012151E0A8882A466946B7
:1010900003F05CF9002004B070BD002974D04B68E7
:1010A000002B71D042788088022140E00446C0784D
:1010B0000022211D00F07EF80A2865D2062148434F
:1010C00025302246C0B20C32042106F06EFA5BE0F5
:1010D0000546607A0028A88801D0A17A2AE02B4929
:1010E000491C095C002924D006F088F90646A87A34
:1010F000C0070DD0002E47D0B079002808D0A989AC
:10110000890505D46A46F11D00F054F8002814D072
:101110002A46B179A888083202F084FEE0690028E6
:1011200032D04368002B2FD00022A8881146984760
:101130002AE0052100F0F0FE26E0A8880321F9E767
:1011400000F08AFD00281FD1E07B0025012805D092
:101150000F4E0024305D012809D00CE002F030FF72
:10116000E5730A2200210A48FEF77AFF07E02046CD
:1011700002F032FF3555641CE4B20A2CEAD3502049
:1011800006F006FA02F0D8FF012084E7E46CFF1FA6
:10119000588AFF1F10B5064CE0612178FF2905D061
:1011A000262000F083FE207801F0F0F810BD00004A
:1011B000E46CFF1FF0B50A2485B016460F460028E0
:1011C00007D0012805D00A25022810D0032847D1CE
:1011D0001FE0084602F060FF04460A2840D2002EB5
:1011E0003ED0062239463046FEF722FF38E01E4F39
:1011F000002400910E206043C0190622801D009932
:10120000FEF722FF002823D1641CE4B20A2CF1D39C
:101210001CE000242046062148432330C0B26A4621
:10122000102106F0B7F900280CD11022FF216846E2
:10123000FEF71CFF002805D13946684600F0EAFD9C
:10124000002805D0641CE4B20A2CE3D32C4607E046
:101250000A2C05D2002E03D03146204602F042FF70
:10126000204605B0F0BD0000CC89FF1F70B50E46CA
:1012700017491525884212D1002432460221204602
:1012800002F072FE002800D00025641CE4B20A2C93
:10129000F3D3002E1AD00F4806F010F916E006F02E
:1012A000ADF8040011D0A0790022E11DFFF782FF04
:1012B0000A2804D23246022102F056FE0025002EF2
:1012C00004D0204602F066FF00E01425284670BDD9
:1012D000FFFF000095410211FEB515460122920262
:1012E000821A00240127544E1300FEF7B3FE110AA0
:1012F000151A21282F373E434B767E858D9B9B56B2
:101300009B00012970D1297802297FD84A480122FF
:10131000401CFEF7A5FE8DE0022977D12888708257
:1013200088E0012972D1287801286FD8B07081E057
:1013300001296BD12878042868D8F0707AE0012957
:1013400064D12878012861D8307173E010295DD10B
:10135000102229463948FEF76BFE6BE0012955D172
:101360002878012852D8707164E001294ED128787C
:10137000F0725FE0042949D131492868884245D894
:10138000B06157E0002941D100F066FC002801D08F
:10139000F7734FE002F014FE19E0072936D1062258
:1013A000691C6846FEF77AFE287800226946FFF736
:1013B00001FF05460A280ED200F04EFC002803D09B
:1013C0001E489C30475535E0284602F005FE502067
:1013D00006F0DEF823E002242CE0012916D128785B
:1013E000012813D8707225E010E001290ED1287869
:1013F00009280BD8B0721DE0012907D12878C11F38
:10140000092903D8307315E0012901D0182411E00F
:10141000B07B2978B17300280CD101290AD102F0E0
:101420008BFE07E02728D6D20229D4D1298800F0E4
:101430003DFD04462046FEBDE46CFF1FBC89FF1F36
:101440003F420F00F8B50F4613491525164688424E
:101450000DD1002432463946204602F0C7FE00284E
:1014600000D00025641CE4B20A2CF3D312E005F08E
:10147000C5FF00280DD08379C11D00221846FFF753
:1014800099FE0A2806D23246394602F0AFFE002500
:1014900000E014252846F8BDFFFF000070B50C469B
:1014A0000146032000020A1A002534481300FEF703
:1014B000D1FD1D1012151C1F2326282C3032343864
:1014C0003A3C3E40424446484A4E50525A5456587E
:1014D0005A00C07911E01022294902E0284910225F
:1014E00010312046FEF7A4FD45E0C06A206042E0CE
:1014F000224906223C31F4E7007820703BE08089E5
:1015000036E01E4942784231EBE71D4982781F39A7
:10151000E7E7007AF1E7407AEFE718490622303131
:10152000DFE7807AE9E7C07AE7E7C08920E0808AD0
:101530001EE0C0781CE0C08A1AE0008B18E0408BE7
:1015400016E0808B14E00D4906223631C9E7C08BC6
:101550000EE0008C0CE0408C0AE08079CDE7008A38
:1015600006E0408A04E0272904D2084600F0F8FA91
:10157000208000E00225284670BD0000906DFF1F0E
:10158000978AFF1F70B50E4C00256071A571691E0A
:10159000E18100F039FC0420E071102200210948AB
:1015A000FEF75EFD0748102200211030FEF758FDBF
:1015B000E562257265720720A072E57270BD0000B9
:1015C000906DFF1F978AFF1FFEB53B4D0C46080428
:1015D0000CD56879FEF756FD050004D003F0F6FB44
:1015E0002846FEF755FD0120C00360E0600403D5E6
:1015F000012080034840FEBD2F48E1070126807985
:1016000000292AD02978002920D0052821D0297A3C
:1016100068460170697A4170274906223031801C82
:10162000FEF706FDA97A68460172E97A41726946B9
:10163000687900F0B1FA002808D00720A871696A1B
:10164000002903D00968002900D08847204670404F
:10165000FEBD032069460870E4E7A1070DD5052803
:1016600009D1E889FEF720FDAA8A002A03D00221C9
:101670006879FEF71FFD022019E0600704D50020FD
:1016800003F0E4FB042012E0200712D5287901289A
:1016900002D002280AD107E00096AB8B6A8B298B17
:1016A000E88A00F00BF801E000F05AF908206040E9
:1016B000FEBD0020FEBD0000906DFF1FF8B5134C6D
:1016C000069EA579052D01D01420F8BD104F851F69
:1016D000BD4219D2062917D3BD1DA94214D2FF2736
:1016E000F537BA4210D20A2B0ED3AB420CD2E082AD
:1016F00021836283A383304603F0A8FB0421607931
:10170000FEF7DEFC0020F8BD1820F8BD906DFF1F2D
:101710007A0C0000F7B50D4680490098164642182D
:101720007F4F00247879B9791300FEF793FC190EE6
:10173000141BE92040455970777E888FE996A2A94D
:10174000B4BFC8E9E9E9E9D3E900102D76D1102248
:10175000314674486FE0102D70D172481022314626
:10176000103068E0042D69D13068F862CEE0012DB8
:1017700064D13B7832783A70002B0AD0002A07D126
:10178000022903D0062901D0042901D100F0BEF9B5
:10179000BCE0002A0AD0012905D0032903D005297D
:1017A00001D0042902D10121FEF790FCAEE0022D08
:1017B00044D13088B881A9E01F2D3FD858481F2256
:1017C00000214230FEF74CFC55482A463146423053
:1017D000FEF72EFC524B7D7042332A46012112E067
:1017E0001F2D7CD84F481F2200211F38FEF738FCE0
:1017F0004C482A4631461F38FEF71AFC494B2A4608
:101800001F3BBD700021787900F0D6FB83E0012DED
:1018100065D13078042862D8387277E0012D5ED126
:10182000307803285BD8787270E0062D57D13C4899
:10183000062231463030FEF7FBFB67E04FE0012D1A
:101840004DD1307807284AD8B8725FE0012D46D1D3
:101850003078032843D8F87258E0022D3FD13288FF
:10186000BA82002A52D0052950D10221FEF722FC6B
:101870004CE0012D33D13078012830D8F87045E0A4
:101880003088022D2BD1062829D31921C90188427D
:1018900025D8F8823AE03088022D20D106281ED3C0
:1018A0001921C90188421AD838832FE03088022DC7
:1018B00015D1FF21F531884211D2788326E0308896
:1018C000022D0CD10A280AD31921C901884206D851
:1018D000B8831BE03178012D01D1012901D01824F2
:1018E00014E00821FEF7F8FB002801D016240DE0D3
:1018F000002003F0ABFA04217879FEF7E1FB05E064
:101900000098272801D2022D02D002242046FEBDD5
:10191000318800F0CBFA0446F8E70000FFFCFFFF37
:10192000906DFF1F978AFF1F1CB50B4CA1790029F2
:1019300001D011201CBD002800D060620649074874
:101940002C31034601910090103B0022E17960792F
:1019500000F0BCF800201CBD906DFF1FA78AFF1F80
:1019600010B506488179052901D0122010BDC18922
:101970001322407900F0E0FA10BD0000906DFF1FC7
:10198000F8B504462C480F460078022805D00128F7
:1019900003D0082803D1002F01D01220F8BD002C5D
:1019A00007D02088254D81006958002903D01120D7
:1019B000F8BD0220F8BD05F021FD060036D02C2030
:1019C000FEF790FB218889006850002830D02C2237
:1019D0000021FEF745FB20881C22810069584880C1
:1019E0002088211D80002858001DFEF721FB21883A
:1019F0000220890069580870228890002B5870795D
:101A00001B1D002816D000200D49097801F0DAFDD1
:101A10000546002F03D03946304606F0F9FA002D6E
:101A200002D0208802F00CFD2846F8BD1420F8BD35
:101A30001320F8BD0120E7E74B72FF1FB472FF1FB0
:101A4000D972FF1FFFB5204D81B028781E4617467A
:101A5000022823D0012821D0002F22D0019805F0A0
:101A6000CDFC04001FD0606A002801D0FEF740FBC7
:101A70001C213846FEF742FB6062010015D0287831
:101A8000000714D5002E12D0887E00900B4612332A
:101A90000A8A019806F086FD014609E0122005B089
:101AA000F0BD0220FBE71420F9E71320F7E700213F
:101AB0002079042210432071029A002A02D00222C7
:101AC000104320710846EAE74B72FF1FF8B51D4628
:101AD0000224069F079E0B00FEF7BCFA0D150815A1
:101AE00015081515151515151508150000F0B8F889
:101AF000040008D132463946284600F08FF900F03C
:101B0000EFF801F04FFD2046F8BD000070B5104C15
:101B10002168002904D00978814203D0032070BDD8
:101B2000122070BD0B4D02212878FEF7C9FA0A4831
:101B30000026468004212878FEF7C2FA074806806E
:101B40002168032048700020FEF7DEFA70BD000017
:101B5000A872FF1FD972FF1FBC72FF1F4E72FF1FBA
:101B6000272803D202494000085A704701487047AD
:101B70005672FF1FFFFF000010B5064C607005F0A5
:101B80006DFC6078FEF7C6FA0521607801F09CFBD9
:101B900010BD0000D872FF1F70B5284E0546306892
:101BA0000C46002801D0112070BD25480178052081
:101BB000014216D023488068002805D0007800280C
:101BC00002D0C80706D101E0102070BD00F044F833
:101BD000002808D02078032805D0022803D0002848
:101BE00001D0122070BD0C20FEF77CFA3060002876
:101BF00020D00570002141700A222146801CFEF78A
:101C000017FA03F007FA040002D002F00DFC12E00C
:101C10000D48007803280ED11D20FFF7A1FF0B49C6
:101C20000028088007D00B48094A04210078FEF7F5
:101C300077FA00E01324204670BD0000A872FF1F51
:101C40004B72FF1FBC72FF1F4C72FF1F4E72FF1FB3
:101C500060EA0000D972FF1F10B505F01DFC10BD31
:101C600070B50C4605461C2200210948FEF7F8F91C
:101C7000084805704470FEF759FA0549002803D05A
:101C800000200870122070BD01220A7070BD000093
:101C9000CC8FFF1F4A72FF1F7FB504460D460846D2
:101CA00005F0ACFB002805D00C48844204D9022082
:101CB00004B070BD1220FBE7102200216846FEF739
:101CC000CFF968460470210A4170210C8170210E01
:101CD000C170294601F0D8FBEAE700003F420F003F
:101CE00070B50F4C0025A068002802D0FEF700FA5E
:101CF000A560E068002802D0FEF7FAF9E56009481F
:101D000005210078084206D00548103002F05EFF39
:101D100001F0A0FF70BD002002F058FF002070BD50
:101D2000BC72FF1F4B72FF1FFEB5344D0C460804FA
:101D300019D56878FEF7A6F90121C9034C4006467B
:101D400000280ED002F062FE002807D12878FF2874
:101D500004D03146FEF7F0F9002802D03046FEF7F5
:101D600097F92046FEBDE007012700280AD0A868A1
:101D7000002804D04168002901D00020884720466F
:101D80007840FEBDA00709D56868002804D04168E6
:101D9000002901D00120884702202AE060072AD5C7
:101DA000174E308800281FD0401E0004000C3080E1
:101DB0001ED102F0ABFB002809D0124807706868FA
:101DC000002804D04168002901D00120884702F092
:101DD00077FB694601F0D6FA684602F001FE1D2045
:101DE000FFF7BEFE308003E004216878FEF768F953
:101DF00004206040FEBD0020FEBD0000D872FF1F21
:101E00004E72FF1F4D72FF1F01490870704700009E
:101E1000D872FF1F10B501F09FFB10BD70B50E4CBE
:101E20000B46261D07C60546102200211846FEF760
:101E30001DF9012803D11021A06805F055FF1022DB
:101E400000212846FEF712F9012803D1102160680D
:101E500005F04AFF70BD0000CC8FFF1F38B5054666
:101E60000F480C460078400701D4122038BD2846A0
:101E700005F0C4FA002811D00A48A90040580028EB
:101E800001D0817D00E02146684606F0E1FB064B6B
:101E90006A460221284606F041FB38BD142038BDB1
:101EA0004B72FF1FB472FF1F5D8B0211272807D2F0
:101EB000044A914204D0044A400011520020704765
:101EC00002207047FFFF00005672FF1F70B50E46DC
:101ED000104915460978022916D0012914D0002D81
:101EE00014D005F08BFA040012D0002E03D0207914
:101EF00002210843207110222946A018FEF798F805
:101F000028692062002070BD122070BD022070BDC3
:101F1000142070BD4B72FF1F38B50C46054605F006
:101F20006DFA002806D0684604706946284606F017
:101F3000E3FA38BD142038BDF8B50D4617461D49E3
:101F400006461B4A1224C868954208D100282DD0A5
:101F50000268002A2AD029463046904723E0144AD6
:101F6000521C954213D1002807D00268002A04D0E1
:101F7000294630469047040005D03946304601F0E6
:101F8000ABFC040012D10B48067047700EE02846E7
:101F900005F034FA002809D00078B04205D139465E
:101FA0002846FEF7CFF8044600E003242046F8BD9B
:101FB000FEFF0000AC72FF1FF8B50E46014619483F
:101FC0001546007805221F46104028D0304326D001
:101FD0001548012E1BD0C468002C20D01F2D18D806
:101FE000002D01D0002F14D001701F220021601C91
:101FF000FEF736F82A463946601CFEF719F82846DF
:102000002570002E07D0611CFEF7A2F8F8BD846889
:10201000E2E70220F8BD611CFEF7A0F8F8BD12202F
:10202000F8BD00004B72FF1FBC72FF1F014610B5C8
:102030000020C90704D0034A0421034800F0ACF98A
:1020400010BD0000B8910211146EFF1F70B50F4D46
:102050000F4CA87029461831204600F01DF80021C9
:1020600028460B461030CA0084521218491C090633
:102070005360090EF7D0012003F0ACFEA87800F001
:1020800071FB044805F030FA70BD0000F46DFF1FCD
:10209000FFFF00000D56021170B50A4C0025A0424A
:1020A00009D1002082008C525218401CC0B2957099
:1020B0000228F7D370BD03F078FA0028FAD0048024
:1020C000857070BDFFFF0000F8B50E460746069903
:1020D00000240798002902D00B242046F8BD022BCB
:1020E00001D00D24F9E711785278120289188DB2C7
:1020F0002946814301D08024EFE73846F16800F09B
:102100003DF9A842E9D02A463846F16800F0CCF9FA
:102110000400E2D171892A46384600F06BF9DCE709
:1021200070B50C46080412D50A488078FDF7AAFF5E
:10213000050008D02878B02802D1284603F052FBC9
:102140002846FDF7A5FF0120C003604070BD0020B8
:1021500070BD0000F46DFF1FFFB587B0087A002541
:10216000109E1C460F46C0060DD5099803F016FABE
:10217000030006D00A22394607989847050035D152
:1021800001E00E2532E0387802281DD17868292236
:102190000178407812020002081880B2811A904239
:1021A0007ED009DC7249401A23D0012821D00228B0
:1021B00051D0032808D125E0012972D0022971D01D
:1021C00003296DD004296ED0099803F00FFA002876
:1021D000D7D00568002DD4D01299119801910090A4
:1021E0003346224639460798A847054628460BB08D
:1021F000F0BD1198002873D1F86801783180027819
:10220000416897E0119800286AD101203080F86871
:102210000021007820707889401C80B200F072F9AB
:1022200000280FD0318802788918891C3180817A82
:1022300061704189090AA17002784168E01CFDF7CC
:10224000F7FED3E730880422001D30800021601C97
:10225000FDF706FFCAE71198002872D1F86804A9B3
:102260000088009004203080009820700098000AB8
:102270006070009800F046F9070028D0F8680590D3
:102280006846028A03AB3B49384600F093F90028C0
:102290000FD13B78022138487A68FEF7FEFA03E056
:1022A00027E031E01DE049E0002802D1401E6946E8
:1022B00088810598007802280CD10598022241688F
:1022C000201DFDF7B5FE3088801C308002E0694695
:1022D0000098888168468089A070000AE07085E7D0
:1022E0002FE0119800282CD1F968079800F046F8E3
:1022F00004E01198002824D1F86800880221318078
:102300002070000A607071E7F868FDF72DFF1199E1
:10231000C0B2814210D8814201D1002206E0129A57
:102320008918814202D31199401AC2B23280F968E9
:1023300011980918204682E7072557E711980028C9
:1023400001D00B2552E70721F86831800178217010
:10235000417861708178A1704188090AE170017942
:10236000217181796171C088000AA0713EE7000087
:1023700000280000FFFF0000EA92021110B503F0F0
:1023800014F9002800D0807810BD000001490870C1
:1023900070470000F46DFF1F7CB51446050019D08E
:1023A00068460195018000F0E3F903001DD1002C7F
:1023B0001BD06D89002D0DD00C20FDF793FE002859
:1023C0000AD0002303608580094A8460916800294F
:1023D00004D006E0022308E0132306E0906004E046
:1023E00011460A68002AFBD1086018467CBD00002F
:1023F000F46DFF1FF8B50C4C0746207815460E46C5
:10240000FF280FD00A20FDF7B5FE01000AD0B12049
:1024100008700020487008714F80CE800D812078B0
:10242000FDF78AFEF8BD0000F46DFF1F70B50C4685
:1024300005460649FFF7A2FF800704D52146284636
:1024400000F0EAF970BD012070BD00000C6EFF1FA6
:102450001CB56B461A71120A5A71002200920223AF
:1024600001AA00F001F81CBDFFB583B008461F4665
:1024700001A90C9E00F046F8050012D0684680883D
:1024800003F0B4F800280AD04468002C07D0009666
:102490003B462946059A0398A04707B0F0BD0E2099
:1024A000FBE70120F9E7000070B514460E4605462B
:1024B00003F07BF8002806D13146054803F075F893
:1024C000002803D005808470002070BD112070BDED
:1024D000FFFF000010B50178B0290BD14178002929
:1024E00008D10179122906D01B2903D14088012186
:1024F00000F074FE10BDFF210231095C0129F5D006
:1025000010BD0000F0B58C4610494B6819E09F687B
:102510007C89A04214D39E883119814210D90022AF
:102520000CE011017D186989814205D160460028BF
:1025300000D004802846F0BD521C92B29642F0D8DA
:102540001B68002BE3D10020F0BD0000E472FF1FE8
:10255000FFB5174881B00A9F446824E000251EE0BB
:10256000A0682901461870890199884215D30299FB
:10257000884212D80498002807D031787068049BEC
:10258000039AFEF78AF9002807D0002F02D0A0682E
:1025900040893880304605B0F0BD6D1CADB2A088D2
:1025A000A842DDD82468002CD8D10020F3E7000031
:1025B000E472FF1FFEB5174600256A469580044663
:1025C00040891D4A1E46904208D001AA0092401C34
:1025D000237880B26268FFF7BBFF054623780221AB
:1025E00016486268FEF759F9002807D123780221BE
:1025F00013486268FEF751F9002801D060890EE0A7
:10260000237802210F486268FEF747F900280DD0B1
:10261000002D03D068468088B84203D0384603F0C6
:10262000EDFC04E06889401E80B200E06089002E65
:1026300000D030802846FEBDFFFF0000E892021166
:10264000EA920211EE920211FFB581B00F461E46CA
:1026500014466946019802F0EFFD050018D1002CE0
:1026600006D001221021019804F0A2FE05000FD12E
:1026700039460198FEF7A6F9050009D1009CFF2E06
:1026800006D021461E22A31C034803F0C3FCE670BB
:10269000284605B0F0BD0000015F021110B50549E4
:1026A0000870042100F010FE00F006F8FEF79EF915
:1026B00010BD0000F472FF1F70B50E4C00200C4BD3
:1026C000651CFF228100C91800280ED00D80401C17
:1026D000CA70C0B28A700228F4D3074802F050FFD3
:1026E000064804F001FF002070BD0C80EFE70000F9
:1026F000EC72FF1FFEFF00002D5F0211815E0211D0
:10270000F8B50D4614460646694602F095FD1728B1
:102710000CD0002C06D001221021304604F048FED7
:10272000002803D129463046FEF756F9F8BD0000CF
:1027300070B50C46080411D509480078FDF7A2FCD5
:10274000050007D00178A02901D102F0BDFE28467E
:10275000FDF79EFC0120C003604070BD002070BDED
:10276000F472FF1F0149087070470000E472FF1FF8
:1027700070B50546008800281DD0686802210378DE
:1027800042682248FEF789F8002808D168680221CB
:10279000037842681E48FEF780F800280BD01D4CD5
:1027A0006088002805D0012229881204101A81426D
:1027B00003D9012070BD022070BD0C20FDF792FCF2
:1027C000060001D000200AE0132070BD02016B68F2
:1027D00061880A329952491C401C618080B2298864
:1027E0008142F3D80020306008222946301DFDF7D1
:1027F0001FFC6068002802D1666004E0084601689A
:102800000029FBD10660002070BD0000E892021193
:10281000EA920211E472FF1F70B5BEB00D46064683
:10282000002402230E4A0F4901200094FFF790FE76
:10283000002812D040896A46108004205080012070
:1028400010715471FF209071D0712B46002269469F
:102850003046FFF7F9FE3EB070BD0120FBE70000F7
:1028600006930211FFFF00000649496806E08A68E6
:102870005289824201D18888704709680029F6D1BF
:1028800000207047E472FF1F10B51422114201D0DE
:10289000012202E04A0604D50022102104F088FD3E
:1028A00010BDC80701D0002010BD022010BD10B51A
:1028B00014468A0604D50122102104F079FD10BDCA
:1028C000882211420ED008220A40102104F070FD27
:1028D00000280BD0E034617E0029F0D0217E012950
:1028E000EDD103E0880701D4032010BD002010BD06
:1028F000014610B50020C90704D0034A0721034848
:10290000FFF74AFD10BD0000A49102111C6DFF1FCE
:1029100070B50D46164600241D490300FDF79AFBCD
:1029200008051234341934222934152D23D81622DF
:1029300000211848FDF794FB2A4631461548FDF75B
:1029400077FB22E0022D16D111491088103908803A
:102950001BE0082D0FD10E48082231460838FDF73C
:102960000FFC12E0012D06D1CA69094930782831DF
:1029700007E0012D01D0182407E0CA6B0449307824
:10298000483103F008FC00E00224204670BD00003E
:102990001C6DFF1F628AFF1F10B501220549002030
:1029A000FFF782FD0349012208310020FFF77CFD7B
:1029B00010BD0000DC6FFF1F38B50E4C6946E0719A
:1029C0000120087001466A460B48FEF785FC002589
:1029D000ED432846FFF78CFF2846FFF727FBFEF75D
:1029E00077F90020FEF7BCF90121E079FDF76EFBD5
:1029F00038BD0000A46FFF1F0D0400007CB54A4DD8
:102A00000C46080409D5E879FDF73CFB002801D005
:102A1000FDF73EFB0120C0037FE0E0070126002810
:102A200009D041481C30FEF77FFF4048FEF7B2FB5B
:102A3000204670407CBD3C486107007808D50528D9
:102A400004D1A878002801D004F01AF8042064E02A
:102A5000A1070AD5052806D1FEF772F9344A0221EA
:102A6000E879FDF727FB022057E0210721D5697897
:102A7000082026464640002917D06879A97988425F
:102A80000FD00B21401CFDF7F7FA69710B20414371
:102A900028480B1805D09A7859781878DB1C03F071
:102AA0009FFF6879A979884201D130467CBD2046D4
:102AB0007CBDE10611D569460E700E7105280AD15C
:102AC000312001AA01210001FEF724FE6A460121FE
:102AD0001948FEF71FFE10201FE0A00609D5684622
:102AE000067015486A4601211438FEF713FE2020AF
:102AF00013E0E00515D50020FDF75EFFC0B20F4DD5
:102B0000B9280CD09E280AD04D2808D0002068751E
:102B1000FFF742FFFF202E74013060407CBD6E75D0
:102B2000F6E700207CBD0000A46FFF1F2492021175
:102B3000983A00000A8FFF1F190300002071FF1F41
:102B4000FFB583B00020009048680E4601784078B9
:102B50001D4600020818534A5249524B0C9F84B23A
:102B60002B391B3B901E002F04D0844225D00B2014
:102B700007B0F0BD944207D08C4205D09C4203D0F0
:102B800048491A398C4216D1708903F00FFF00288A
:102B90000ED0059900950191434A41795269007917
:102BA000156801232246A8470090002876D077E0D8
:102BB0000020288072E084424ED13C480088874241
:102BC00002D3072000906BE0374C7D225201102188
:102BD000E079FDF76FFA7D22FF21D2000131E07923
:102BE000FDF768FA0020FDF7E7FEC0B2B92806D06D
:102BF0009E2804D04D2802D0002F07D00AE0002FD5
:102C000008D12B4901204875002002E02849002006
:102C10004875608125480D990088C01B884200DDF9
:102C2000084682B22A80F068C1190598FDF700FABB
:102C300028886189401880B21C49608109888842CF
:102C40002CD11B48407D002828D1FF21642201316E
:102C5000E079FDF72FFA21E01248C01E844204D12A
:102C6000042028800246F16815E0124902208C42B7
:102C70000ED00C49491C8C4206D101202880F068F6
:102C800001780598017009E00A49491E8C4205D176
:102C90002880F16802220598FDF7CAF903F0F0FEDA
:102CA000009865E74D2A0000A46FFF1FC86FFF1F43
:102CB0002071FF1F08290000014A5161906170478F
:102CC000A46FFF1F014A116110727047A46FFF1FAC
:102CD000F8B507460D480E4601781C4615460529ED
:102CE00012D14178002909D041798079814205D1FA
:102CF0003146384603F074FE002805D023462A46A4
:102D00003146384603F050FDF8BD0000A46FFF1FA8
:102D1000FFB583B00C9B002415460F468446002B5C
:102D200002D00B2007B0F0BD78680178407800022F
:102D3000081886B23E48864203D03D481B3886427A
:102D400012D1788903F032FE00286AD006A90195D5
:102D50000091384A4179526900791468002332465B
:102D6000A04704005DD05EE03248314A41696846C0
:102D7000521E008B96420AD1012841D128780028A2
:102D800001D0012843D1002849D0012047E02A4A38
:102D900096422FD1012100930191C3B22A463946B0
:102DA0006046FFF791F904003DD16978287809025F
:102DB0004018204982B208697B89097A15E0478862
:102DC0009F420FD100282CD006A901950091012A1D
:102DD0000ED00323174A41795269007915683246AB
:102DE000A8471EE0491EC9B208300029E7D118E003
:102DF0000223EFE70E4A521C964212D1012801D05D
:102E00000D2410E02878002803D0012801D0802468
:102E100009E0FA6810702878002806D00320496875
:102E2000884703F02DFE20467CE70220F7E70000EC
:102E30004D2A0000A46FFF1F0229000010B51E4C90
:102E40001C492046FFF728F91A4920460831FFF7A8
:102E500023F91848194A13211030FFF79DFA044648
:102E600014481030C1690220FDF744FF14490320C3
:102E7000FDF740FF0F481249C01E02780A734078E0
:102E8000104A487350890881508B48810120FF3ACD
:102E90008873163A13780B7552784A75094A403A86
:102EA00053890B82528B4A8288750320FFF70AFFF1
:102EB000204610BDDC6FFF1FFFFF0000689202116B
:102EC000848FFF1FEC70FF1F70B50C4C049816190F
:102ED0000B4A0124002E0FD000251B2E03D10229FE
:102EE00003D0032903D01D8004E0117800E091781D
:102EF00001701C80002070BD5178F9E7CED5FFFF2E
:102F0000D46FFF1FF0B55B4E8BB0707006211F2091
:102F1000FEF7CCFF00246846047304820125057582
:102F2000182101833021818304210184FF21913103
:102F300081840222F11C5048FDF728F90422711DFA
:102F40001003FDF723F9F11C084606221530FDF7A2
:102F50006FF803AA01214948FEF7DCFB474804AAA1
:102F60000221401CFEF7D6FB444832463332192179
:102F7000801CFEF7CFFB3246612014321F21C000B7
:102F8000FEF7C8FB312005AA01210001FEF7C2FBB4
:102F90003A4806AA02210C30FEF7BCFB374807AAC4
:102FA00002210D30FEF7B6FB344808AA02210E308C
:102FB000FEF7B0FBC52009AA02218000FEF7AAFB9C
:102FC000C021684601720327477202AA022101202C
:102FD000FFF79EFC32464C3215210020FFF798FC8B
:102FE000684607940573047407750576812007AA5F
:102FF0000421C000FEF770F9012103AA8802FEF740
:103000006BF91E4804AA0121FD30FEF765F91B4843
:1030100005AA0121FE30FEF75FF906AA0121184832
:10302000FEF75AF9A02421460620FEF73FFF21466D
:103030000720FEF73BFF21460820FEF737FF214619
:103040000920FEF733FFFFF7F9FE314664310846E9
:103050005838FFF731FE0BA103C901910090694672
:10306000082004F0FDFA01217078FDF72FF80BB06D
:10307000F0BD0000306FFF1F04400000050300009A
:10308000060400004C454E5A455A5051F8B50C46BE
:10309000080424D51E4D6878FCF7F4FF06001BD009
:1030A0003078B02815D0B22813D1A878401CC1B20E
:1030B000A970F278B3781002184340BAC82803D92F
:1030C000012901D1FEF74CFCA878C82801D9C820F5
:1030D000A8703046FCF7DCFF0120C00313E0E007D6
:1030E0000AD00125684605706A4629460948FEF758
:1030F00011FB20466840F8BD600406D50020FDF7AE
:103100004BF8012080036040F8BD0020F8BD0000AE
:10311000306FFF1F0503000030B50F4D002055191B
:10312000039C0E4A13D01B2D04D1022903D003297E
:1031300008D00A2030BD012B02D12178117030BD9A
:103140000D2030BD012BFBD12178917030BD012BBA
:10315000F6D12178517030BDCED5FFFFD46FFF1F5F
:103160000B7803700B8802221B0A43700B88801CAB
:10317000012B02D0022B07D011E08A780270498817
:10318000090A417004220AE08A7802704A88120A09
:1031900042700A7982708988090AC1700622104635
:1031A0007047000008B5044B009313460A460121FE
:1031B00004F04EF808BD0000613102111CB5032374
:1031C000019200930A46024B122104F071F81CBDD3
:1031D000716B021110B5FCF7E5FF10BD13B5044883
:1031E0000078012803D101AA6946FCF7E1FF1CBD64
:1031F0000073FF1F70B50F490F4A087000210B467E
:103200008C00491CC9B213530429F9D30A4C00217C
:103210001034FF260A460A256A4315196B80491C9B
:10322000A354C9B26E720329F4D3FCF7C7FF03F0AD
:10323000E3FF70BD0173FF1FE88FFF1F082A01D055
:10324000012070474B780A781B02D2180280CB7895
:103250008A781B02D21842804B790A791B02D21855
:1032600082808A79C97909025118C180002070478B
:1032700070B50C46080411D509480078FCF702FF28
:10328000050007D00178902901D103F017FF2846E7
:10329000FCF7FEFE0120C003604070BD002070BD41
:1032A0000173FF1F70B500280AD1064C0025258048
:1032B000A581A580A068002802D0FCF785FFA56045
:1032C00070BD00006490FF1F072907D0052905D0B5
:1032D000042903D0062901D002207047044A8B003C
:1032E0009A181346403B1986203A90740020704784
:1032F000E88FFF1F70B506001BD10E4C002521463C
:1033000040310D744D740D76606D002802D0FCF7CD
:103310005BFF65655C20002546433419E8002018F2
:103320004068002801D0FCF74FFF6D1CEDB20A2D5C
:10333000F4D370BD7490FF1F70B50A880C46054623
:10334000072A07D0052A05D0042A03D0062A01D06F
:10335000022070BD012104F0F5F8002804D02146B8
:10336000284603F01BFC70BD142070BD10B5001D75
:1033700080B2FCF72FFF002803D00321C943FCF7DC
:103380002FFF10BD38B50C46050014D0002C12D00C
:103390000321684604F0A8FC69468878402180062D
:1033A000800E0843694688702246284605F010FAC8
:1033B000050002D006E0022038BD03226946E01C69
:1033C000FCF736FE284638BDF7B58EB00E98154688
:1033D0000E4600282DD0002D2BD0301DC0B20190FC
:1033E000FCF780FE040039D001F076F8074632463B
:1033F000201D0E99FCF752FEF8B20890E0703804D8
:10340000000E0B90A0703802000E0A9060703F0E04
:10341000277001F05BF80146102202A8FCF73EFE7F
:1034200006AB214602A8019A05F028F9060003D050
:1034300010E0022011B0F0BD089828700B98687059
:103440000A98A870EF70082206A9281DFCF726FE2E
:1034500001F048F82046FCF74BFE00E0132630460A
:10346000E8E7000010B5064C2070FCF7BFFE06210F
:103470002078FFF729FF034804F036F810BD00005C
:103480001073FF1F3D7D0211F8B50E461F4C01461B
:10349000B50060590027002807D02422125C022AB8
:1034A00005D0032A03D0042A01D01220F8BDC28817
:1034B000B24201D00220F8BD10220C30FCF7B8FD5A
:1034C00060591021353004F00FFC615930460B462D
:1034D0000A46253335320C3105F09CF9605902213A
:1034E0000278002A427807D0032A0BD14170304677
:1034F00004F0C4FB074605E0042A02D0032A03D0E7
:1035000000E041703846F8BD0521EFE71C73FF1F4E
:1035100070B50C46080419D50D480078FCF7B2FDCB
:1035200005000FD004F02AFD002808D109480078D2
:10353000FF2804D02946FCF7FFFD002802D02846CA
:10354000FCF7A6FD0120C003604070BD002070BDE7
:103550001073FF1FD872FF1F7CB50C4605001DD0ED
:10356000002C1BD00322E11C6846FCF761FD694674
:10357000887840218006800E08436946887001AA39
:10358000284605F025F9002807D10322214601A885
:10359000FCF75AFD012803D001207CBD02207CBD30
:1035A00000207CBD10B505480078400701D50448CF
:1035B00000E0002004F096FD002010BD4B72FF1FBC
:1035C0000473FF1FFFB581B00020274C95000090C9
:1035D00060591E461746002802D0112005B0F0BDE4
:1035E000002E0BD02120FEF7BBFA317E884205D891
:1035F0002220FEF7B5FA317E884201D20220EDE7A3
:103600007820FCF76FFD605100282AD07822002135
:10361000FCF726FD6159002048706259019911702C
:103620006259029991706259FF21D1706159CF801E
:1036300061598E60615908626159203108710198A1
:10364000002803D0384604F02FFB00906159012078
:1036500048700098002802D0384604F0E1FA00983B
:10366000BCE71320BAE700001C73FF1FFFB58DB045
:103670000F98169C0E46002815D0002C13D00D98DC
:1036800003F0BCFE050011D06178207809024018D3
:10369000A178E2780904120689184718286AB84206
:1036A00006D3401C04D0022011B0F0BD1420FBE76B
:1036B000002E04D02879800701D40120F4E70822E5
:1036C000002106A8FCF7CCFC1098001DC0B20190A8
:1036D000FCF708FD060017D0301D109A0F99FCF773
:1036E000DDFC042221463046FCF7D8FC1022A91844
:1036F00002A8FCF7D3FC06AB314602A8019A04F0FD
:10370000BDFF050002D013E01320CDE7082206A973
:1037100008A8FCF7C3FC0822211D08A8FCF794FCAC
:10372000012801D0012503E039460D9801F0CCFCB9
:103730003046FCF7DDFC2846B6E70000FFB583B055
:103740000F4603981B4940001646085AFFF70EFE25
:1037500004002AD00125601C2670002F03D0069992
:10376000B847401C85B2300610D51021039803F0ED
:10377000E9FE002801D0192613E06219E9B22046BB
:10378000FFF722FE06000CD10C35ADB204216846CD
:1037900001800194058169460398FFF7CDFD06007D
:1037A00004D02046FCF710FD00E01326304607B099
:1037B000F0BD00004472FF1F10B504460079BEB092
:1037C000C00716D060880C49FEF7D8FDC00710D09E
:1037D000094800220830418D68460180012141805E
:1037E0000548083801786846017160886946FEF727
:1037F00087FF3EB010BD0000D46EFF1F70B5049867
:1038000000241546002801D00B2070BD48680278BE
:103810004078000210180E4A80B290420AD10D4939
:103820005F200A785F2A00D9087001201880087884
:1038300028700BE0084A904207D102201880024607
:10384000C9682846FCF7F4FB00E00A24204670BD56
:10385000192A0000CC6EFF1F082900007CB5154610
:103860004A68069C167852781202B218104E92B22C
:10387000F24209D101220192DBB200942A46FEF7FE
:1038800023FC040003D000E00A2420467CBD6978B4
:10389000287809024018074980B249680029F4D005
:1038A000002802D001208847EFE70220FBE7000054
:1038B000FED6FFFFCC6EFF1F01680A0508D110314C
:1038C000044A016052781203914201D3891A0160BF
:1038D00070470000B06CFF1F10B50C4603F0A2FD4E
:1038E000002804D040882146FCF72CFC10BD122093
:1038F00010BD0000F0B5504E504C9BB07168216077
:1039000071782171FF21A1711021002561712F466D
:103910000922FF21E01DFCF7A3FB4E22002106A88F
:10392000FCF79EFB32E0206829034018102202A910
:1039300000F040F902982168884218D16846007B5F
:103940002179884213D16846407B617988420ED143
:1039500068467178807B491E884225DAA84201D1E9
:10396000022700E0032706A94855A0710CE0029841
:10397000401C19D16846007BFF2815D16846407B62
:10398000FF2811D106A948556D1CEDB22179A94235
:10399000C9D8042F08D0A0790125FF2807D0012F0E
:1039A00005D0002006AA24E020201BB0F0BD00278F
:1039B0000DE0A77121683803081810221F4900F094
:1039C0000FF9002801D01F20EFE77F1CFFB22079FC
:1039D000401EB842EDDC002020742079401E607447
:1039E00010206082357025E0135C002B03D0401C52
:1039F000C0B28142F8D881421CD9401E0818FCF799
:103A0000FBFB61740020357002466946009000F0AF
:103A100017F8002802D0212802D004E0009901E024
:103A2000012109036182C0B2212803D0002801D0FE
:103A30002A20BAE70020B8E7B06CFF1F8089FF1F7B
:103A4000F7B501248AB000200E46274605909CE079
:103A500056480179407CC019FCF70EFBC8B2FF2C18
:103A600003D3FF3CA4B2FF2C33D20A9A002A01D11F
:103A70004E4A11740003029005980125002803D0D6
:103A800000200590601C06E0012C05D92819811E34
:103A9000FF2917DA401E85B20298290108180790FD
:103AA0004248042201680798081804A900F082F827
:103AB0000A9800280ED0012829D002283CD00620E0
:103AC0000DB0F0BDFF200230401B201A84B201204F
:103AD000059058E004988103890F04D0022902D090
:103AE00003294CD10EE00103890F012901D00124E3
:103AF00045E0000D0C21FCF7BFFA002900D00121A0
:103B000044183CE007980005000D306047E0049839
:103B100081038A0F04D0022A05D0032A2FD142E064
:103B2000890F0229DFD1328881B292B29142DAD173
:103B30000C990798086032E004988103890F04D03B
:103B40000229D0D003291AD129E00103890F0129C4
:103B500003D0306801240C300BE0000D0C21FCF781
:103B60008BFA002900D0012144180C2031686043F1
:103B7000081830600C980C990068401C08606D1C97
:103B8000ADB2FF2D80D97F1CFFB209484078874233
:103B900000D25DE70A98002803D0012803D0002056
:103BA0008EE721208CE725208AE700008089FF1F0F
:103BB000B06CFF1F10B5094C636898420BD3647852
:103BC0002403E318834206D9002904D0002A02D036
:103BD000FCF7DCFA10BD222010BD0000B06CFF1F06
:103BE00070B515460E460446FCF70CFB800601D066
:103BF000292070BD09494868844206D349780903E1
:103C00000818A04201D9A00701D0222070BD2A4681
:103C100031462046FCF7FCFA70BD0000B06CFF1F77
:103C20000022002913D0002811D0012806D04A799B
:103C30009206920E4A71032805D007E04879C02207
:103C40001043487102E0402002434A7101221046AD
:103C50007047000070B51248002500780521084221
:103C60001BD02020FCF73EFA0E4C0028A06013D099
:103C700020220021FCF7F4F92020FCF733FAE06061
:103C8000002804D020220021FCF7EAF905E0A06812
:103C9000FCF72EFA0020A0601325284670BD000016
:103CA0004B72FF1FBC72FF1FF3B588880D46810061
:103CB0005A485A4C40585A4F203C85B0002823D1CE
:103CC000059800287ED0002D7CD000F0E5F9207406
:103CD0000A281CD300260E207043C0190622FF219B
:103CE000FCF7C4F9002804D1761CF6B20A2EF2D3F0
:103CF0000A2626740A2E07D1607B0A210646FCF7A5
:103D0000BBF92174761C6673207C0A2861D2A888CE
:103D1000424E8000305800285ED082680027002A7A
:103D20000BD0207C062148432130C0B21C2103F077
:103D30003CFCA888800030588760A88880003058F4
:103D40000269002A0BD0207C062148432230C0B2F1
:103D50001C2103F02AFCA888800030580761A8883D
:103D6000800030584269002A0BD0207C062148434D
:103D70002330C0B2102103F018FCA888800030580E
:103D80004761A88880003058C268002A18D0207C7B
:103D9000062148432430C0B2102103F006FCA88855
:103DA000062180003058C268207C103248432530FC
:103DB000C0B2042103F0F9FBA88880003058C76026
:103DC000A07B00E005E0002801D000F0A5FA00F09B
:103DD000E7FA012007B0F0BD207C062148432030DF
:103DE000C0B20E21059A03F0E0FB1022FF216846C5
:103DF000FCF736F9207C6A467030C0B2102103F01F
:103E0000D4FB207C0E2148430A46C0190599FCF7D3
:103E10000FF9A888800035500020DBE7046DFF1FF4
:103E2000CC89FF1FF0B589B017460E460446202204
:103E300000216846FCF714F968460480394C0225D5
:103E4000E178017122794271217B0177069841085E
:103E5000E07A4900C307DB0F194306918107002967
:103E6000069901DA294300E0A943069101072E4B88
:103E7000069901D5194300E099430691C1062B4BE1
:103E8000069901D5194300E0994306918106284B14
:103E9000069901D5194300E0994306914007042192
:103EA0000028069801DA084300E088430690002ABB
:103EB00005D001A810221F490230FCF7B9F861793A
:103EC000002904D0002E02D00698284306906846A8
:103ED000807D002900D00121084369468875A178BA
:103EE000002900D00421084369468875A17900297A
:103EF00000D00821084369468875E179002900D07F
:103F00001021084369468875217A002900D02021B4
:103F100008436946887539466846FDF731FD09B0A2
:103F2000F0BD0000E46CFF1F000100000002000073
:103F300000040000BC89FF1F70B50025094E2C4607
:103F40000E20604380190622FF21FCF78FF800281D
:103F500001D16D1CEDB2641CE4B20A2CF0D32846EA
:103F600070BD0000CC89FF1F7FB50C460621484379
:103F7000064615462036F0B26A460E2103F00AFBCB
:103F8000002806D10622FF216846FCF76FF80028BA
:103F900002D0002004B070BD68468189002DC8B2EF
:103FA00002D02043C0B200E0A043814206D069465F
:103FB0008881F0B26A460E2103F0F7FA0120E9E7A2
:103FC00010B50024204600F007F8641CE4B20A2C67
:103FD00001D20028F6D010BD70B505460446062073
:103FE0004443264690B02036F0B207AA0E2103F0D3
:103FF000D1FA002806D10622FF2107A8FCF736F8DF
:10400000002802D0002010B070BD0E22FF2107A8AA
:10401000FCF726F81C22FF216846FCF721F8102245
:10402000FF210BA8FCF71CF8F0B207AA0E2103F041
:10403000BCFA064620462130C0B26A461C2103F075
:10404000B4FA064320462230C0B26A461C2103F06F
:10405000ACFA064320462330C0B26A46102103F072
:10406000A4FA064320462430C0B26A46102103F069
:104070009CFA06432534E0B26A46042103F095FA1F
:10408000014631430C467035E8B20BAA102103F00B
:104090008CFA2043B7E7000070B50A4D06460024AD
:1040A0000E206043401906223146FBF7CDFF002861
:1040B00001D0204670BD641CE4B20A2CF0D30A2063
:1040C00070BD0000CC89FF1F00229300CB5A8342B1
:1040D00002D1900040187047521CD2B2042AF4D387
:1040E000002070477FB50C460A280CD2002C0AD05D
:1040F000062148432030C0B26A460E2103F04AFA36
:10410000050003D007E0022004B070BD0622694616
:104110002046FBF78DFF2846F6E700218A00835AE8
:10412000491CDB43835212189378C9B2DB43937066
:104130000429F3D37047000070B5144E00240E20FC
:104140006043821920460621484320301546C0B2FC
:104150000E2103F01FFA00280BD028460622FF216B
:10416000FBF77EFFA81D0622FF21FBF779FF002049
:10417000A881641CE4B20A2CE1D30548807B0028A6
:1041800001D000F0C9F800F00BF970BDCC89FF1F19
:10419000E46CFF1F10B5034940880978FEF746F923
:1041A00010BD0000E46CFF1F10B50F494A79002ACA
:1041B00001D0012300E000238A78002A00D00422E5
:1041C0001A438B79002B00D008231343CA79002AA5
:1041D00000D01022097A1A43002900D0202111436F
:1041E000FDF73CFE10BD0000E46CFF1F70B50E46ED
:1041F00004460621484388B015462030C0B204AAC0
:104200000E2103F0C7F9002843D10622FF2104A89C
:10421000FBF72CFF00283CD17034E0B26A46102135
:1042200003F0B8F9002831D16846FFF776FF002E79
:1042300006D069463046FFF747FF00280DD015E04D
:10424000102200216846FBF711FF00281ED1102222
:1042500000216846FBF704FF10E0002D19D06946E5
:104260000020FFF731FF002813D006808178A94293
:104270000CD08570002D01D1002101806846FFF728
:104280004CFFE0B26A46102103F08FF9012008B01C
:1042900070BD0020FBE7000070B51C4C0646606A4C
:1042A0001B4D86B0002809D120461430009002230F
:1042B000184A29460120FEF74BF920E004A8022203
:1042C000002100900292019103ABA28A3046616AFC
:1042D000FDF742FF00280CD16846017B407B0002BD
:1042E00008180204120C04D0606A41893046FDF7B8
:1042F000A9F80023A28A2946606AFEF75BF960628A
:104300000028DBD1012006B070BD0000E46CFF1F67
:10431000FFFF0000F492021170B5FBF77FFF0A4E19
:1043200000240E206043801905460622FF21FBF77A
:104330009DFE002802D12946FBF776FF641CE4B2FB
:104340000A2CEED370BD0000CC89FF1F70B50B4660
:10435000044611461846FFF7A7FC00281DD00F4D54
:10436000A40028598088FFF797FF002815D02E4613
:10437000203EF069002807D04368002B04D028595C
:1043800000228088012198472859002803D0FBF794
:104390007FFE002028510A20307470BD046DFF1F7D
:1043A00008B5FFF7C9FD012801D9022000E00A2065
:1043B000694608706A4601210520FEF7A9FA08BD82
:1043C000002909D0012807D1497989098901C02923
:1043D00002D0402901D00220704703207047FFB56A
:1043E00000200E4608701AE01C5C401CC5B2002C70
:1043F00017D02819904214D85F5D6D1CEDB2384675
:1044000000F08BFE002806D0641EE0B230700099E8
:104410008F4202D1581904B0F0BD4019C0B2904289
:10442000E2D30020F7E7000010B5044C2068002814
:1044300003D0FBF75DFE0020206010BDA872FF1FB7
:1044400070B50E4D84002859002815D0006A002848
:1044500001D0FBF74DFE2859406A002801D0FBF738
:1044600047FE2859806A002801D0FBF741FE2859F1
:10447000FBF73EFE0020285170BD0000B472FF1F04
:1044800010B5044C6068002803D0FBF731FE002013
:10449000606010BDAC72FF1F0100044805D10449E3
:1044A0008978002901D00248801D7047DC8FFF1FEA
:1044B0004A72FF1F01488078704700004A72FF1F50
:1044C0000148406870470000CC8FFF1F014880689A
:1044D00070470000CC8FFF1F0148C068006870471C
:1044E000CC8FFF1F10B50748C0680168491C0160E8
:1044F00005480078FF2803D001218903FBF7E6FD7A
:1045000010BD0000CC8FFF1F4A72FF1F0248406899
:10451000002800D001207047A472FF1FFFB581B0B2
:104520000F460D9E0A9D039802F068FF040042D0DA
:10453000019800283FD12079102108432071049967
:10454000490702D50221084301E0FD2108402071FE
:104550000B99284608430C9908433043207902D030
:104560000421084301E0FB2108402071002E06D001
:104570003069102220623146A018FBF759FD002D4A
:1045800001D0002F05D00B98002814D0012F08D09F
:1045900011E0606A002801D0FBF7AAFD1C21284623
:1045A00006E0606A002801D0FBF7A2FD1C210B98F1
:1045B000FBF7A4FD60620398224C8700E0590028B5
:1045C0003ED0002D0FD0006A002806D11C20FBF73A
:1045D00089FDE1590028086205D0E0591C22006AD3
:1045E0002946FBF725FD0C98002810D0E059406AB9
:1045F000002806D11620FBF775FDE1590028486216
:1046000005D0E0591622406A0C99FBF711FD002EE7
:1046100010D0E059806A002806D11420FBF762FD13
:10462000E1590028886205D0E0591422806A314699
:10463000FBF7FEFC0B9B049A0399019803F0BCF96D
:1046400005B0F0BDB472FF1FF3B581B0019802F060
:10465000D5FE050029D00E20FBF78CFD040024D0E8
:104660002620FDF77DFA060000D12E78D02020709C
:10467000002767700B20A0700622E91DE01CFBF7E5
:10468000D7FC019860810298C1070120002901D060
:10469000207300E027730299890701D5607300E059
:1046A0006773F0B22146FBF747FDFEBD10B5818868
:1046B0001F4B0124CA1A994237D011DC1D4BCA1A6C
:1046C000994219D007DC1C4A8A1810D0022A1ED041
:1046D000032A29D11BE0472A27D0482A24D124E0E5
:1046E0001300FBF7B7FC0621222222222221806838
:1046F000007800F0D3FC08E08068827841781202EC
:10470000891889B2007800F029FD04460DE0094AB5
:10471000921E914201D1012200E0002280680178BE
:10472000104600F003FD00E00024204610BD00000C
:10473000532000000A200000FADFFFFF70B51A4D79
:104740001A4A0146002628781268194C01290CD013
:10475000002A09D017490978490705D50221FBF736
:10476000AFFC6680FFF760FE70BD6188002903D052
:10477000114B1B78002B05D0002AF5D01078FDF7DF
:10478000C5F970BD3C2902D33C39618070BD02215E
:10479000FBF796FC62887D20C00042430221287806
:1047A000FBF788FC668070BDD972FF1FA872FF1FDF
:1047B000BC72FF1F4B72FF1F4D72FF1F08B541896E
:1047C00000910389C2888188C07800F0B3FB08BDDE
:1047D000F0B504468088A12189004843304987B05C
:1047E00009684018FF30FF300230A1794167002C82
:1047F00054D02C4D6868002823D006782A480068D9
:10480000002804D04168002901D0002088472146B3
:10481000E07908310591FFF7D3FDE0710246277D6D
:10482000638A218AE089019002A88AC0A08800904A
:10483000E0783146059B03F035F9E078002802D096
:104840000DE01A48D9E7E079E2896B46059907C37C
:10485000A379A1880122304602F07EFDE0706868ED
:10486000002811D0FFF70CFE287800280CD06978BA
:10487000FFF732F8002807D0E078A28803462978AD
:1048800003F064F900202870A0881721FCF70CFAC7
:10489000A088FEF707FDA088FEF72CFD07B0F0BD4D
:1048A0003409FF1FAC72FF1FDC72FF1F4A72FF1F2B
:1048B00070B504460026808802F0A0FD002803D0D1
:1048C0000678A08802F022FE144D2878002808D02F
:1048D000864206D16978FEF7FFFF002809D0002044
:1048E0002870002E05D0A379A288A078314603F065
:1048F0002DF9A088094A810008325158002901D0B9
:10490000FFF79EFDA0881721FCF7CEF9A088FEF7DF
:10491000C9FCA088FEF7EEFC70BD0000AC72FF1F62
:1049200070B58288294D0124531B2949AA4242D0DF
:1049300019DC284D531BAA4218D00BDC264BD21889
:1049400026D0254B1033D2181ED0032A17D0042AA4
:1049500039D10BE0012B09D0022B07D0032B21D03A
:10496000042B30D11AE0433B072B2CD8496800298F
:104970002AD00968002927D08847044624E08068A7
:10498000007800F0ADF81FE0806800F001F9F4E76E
:104990008068411C007800F0D9F8EEE783681B7846
:1049A000002B11D0896800290ED00B6808E0014661
:1049B00010469847E1E709490968002904D04B6887
:1049C000002BF4D100E00024204670BD0E20000032
:1049D000D872FF1F08200000F7EFFFFFB872FF1F1B
:1049E00010B5094CA17800290CD001460622A01D63
:1049F000FBF71EFBA11DA078FFF712F9A01DFBF726
:104A000019FC10BD002010BD4A72FF1F1CB52F49B4
:104A1000037801240A68912B02D0A22B2ED13EE00C
:104A20004178052909D00E2904D00F2908D03E2944
:104A300024D115E0FFF774FF10E0FFF739FF3AE0EB
:104A400001468088224B0124C31801D0062B15D1C2
:104A5000002A30D05268002A2DD0904704462AE020
:104A600081780124032917D004DC012911D00229FF
:104A700004D105E015291ED016291CD000241AE007
:104A800014498968002916D04968002913D088473D
:104A900011E0FFF79DFE0EE0FFF790FE0BE00E49E0
:104AA0000978042909D0002A05D05268002A02D0CA
:104AB00001460A48904720461CBD00216A461180E5
:104AC00001794088FEF76EFBF5E70000B872FF1F22
:104AD000F3DFFFFFD872FF1F4B72FF1FFFFF0000C5
:104AE000F8B5164F0646BD1F2878FF2814D00A20B7
:104AF000FBF740FB04000FD0D02020706670082028
:104B0000A070A878E07006223946201DFBF790FAC5
:104B100021462878FBF710FBE87801280DD10848DA
:104B20000068002803D08068002800D0804706482D
:104B3000044A04210078FBF7F3FAF8BD5072FF1F16
:104B4000DC72FF1F60EA0000D972FF1F70B50024FD
:104B50000546002805D1002903D006220B48FBF7A3
:104B600067FA0A4810380178012907D10124002D7D
:104B700006D000210170284600F0B8F9204670BD2B
:104B800002210170FBF75CFBF8E70000DC8FFF1FE0
:104B900010B50024002813D002780B49002A03D155
:104BA0004288CA8202790A760A78022A08D10278F3
:104BB0000124002A06D000220A70007800F096F93D
:104BC000204610BD0322F7E7CC8FFF1F0149486044
:104BD00070470000D872FF1FF8B57A4C87780146FD
:104BE000002507266079A2793B00FBF733FA080518
:104BF000361A37375F9ACD36487800285CD171482D
:104C000006223C30C91CFBF713FA0120A0716D4B42
:104C10000146423362786079FDF7CEF900284BD126
:104C2000A8E00F464978002946D1F978002906D036
:104C3000654BA2780021FDF7BFF978700AE0022ADF
:104C40000BD00121FBF748FA002803D1012160793C
:104C5000FBF73CFA787800282ED1F8BD4978002976
:104C60002AD1032F09D0A289002A0CD0217800294B
:104C70000AD00121FBF71EFA06E0052A01D0022026
:104C800012E0062010E02570A079062802D0042842
:104C900002D008E0052007E001202070014660797D
:104CA000FBF714FA66E00320A07163E048780F4632
:104CB000002803D0312832D0A6715BE0414806229B
:104CC000391D3630FBF7B4F97889E081B889208244
:104CD000F88960820520A071A28A002A03D00221EF
:104CE0006079FBF7E7F9B889E083F8892084388A8E
:104CF0006084E07801280AD11F20FCF731FF7D2174
:104D0000C9004843024604216079FBF7D3F97A8948
:104D1000F8780423391DFCF775F825702AE0257012
:104D2000C1E728480E46062200213630FBF798F9E5
:104D3000E5832584658404216079FBF7C1F90821A6
:104D40006079FBF7BDF9B079082808D00320A0717D
:104D50002078002805D06079FCF7D8FE07E0042011
:104D6000F5E70120207001466079FBF7AFF90020DC
:104D7000C043E081606A002800D16EE70168002925
:104D8000FBD0A0798847F8BD0D460821FBF798F9BC
:104D9000687829460028F6D1E888E08328892084AD
:104DA0004889608404216079FBF796F90028EAD1EC
:104DB000A06A0028E7D00368628C218CE08B9847BA
:104DC000F8BD0000906DFF1F788AFF1F10B50178B5
:104DD0001C4C912906D0A2291BD0D02901D1FFF764
:104DE000FBFE10BD41780E29FBD18188164A914205
:104DF000F7D1816803200856A1790529F1D17F28D0
:104E0000EFD0616A0029ECD049680029E9D08847D1
:104E100010BD41791329FBD10089012802D12079E5
:104E2000022808D00520FCF79BFE02460821607985
:104E3000FBF740F910BD08216079FBF741F9FCF759
:104E40008FFD10BD906DFF1F051400007CB5154C43
:104E50000546E08BE18A88420AD3218B884207D835
:104E6000208C618B884203D1608CA18B884217D043
:104E70000520FCF775FE0646E18A68460180218B15
:104E80004180618B8180A18BC18062796946E08914
:104E9000FEF794F92571324608216079FBF70AF98B
:104EA0007CBD0000906DFF1FF8B507460E46084612
:104EB00002F0A4FA040018D02620FCF751FE0500E9
:104EC00000D125780620FBF755F904000DD0062205
:104ED0000021FBF7C5F8D020207067700E20A0706D
:104EE000A680E8B22146FBF727F9F8BD70B50F4D53
:104EF00006462878FF2818D00E20FBF73BF904005F
:104F000013D0D020207066700020A07006220849BF
:104F1000E01CFBF78DF806481038C18A6181007EDD
:104F2000207321462878FBF707F970BD4A72FF1FEE
:104F3000DC8FFF1FFFB581B01E4617460D460C20C3
:104F4000FBF718F9040013D0284602F057FA00289E
:104F500010D00078D0212170019961700721A170D3
:104F6000A580E78026810A9961812146FBF7E4F854
:104F700005B0F0BD0048ECE74A72FF1F70B50D4D5B
:104F8000044628680E46002812D00620FBF7F2F8E7
:104F9000010009D0D02008704C70032088708E80EA
:104FA00028680078FBF7C8F8002C01D0FFF73CFA1E
:104FB00070BD0000A872FF1FFFB581B01F460E46EE
:104FC000084602F01BFA050022D01020FBF7D2F8A9
:104FD00004001DD010220021FBF742F82620FCF728
:104FE000BFFD002800D12878D0212170019961707F
:104FF0000F21A170A6800399217267720A99A1728C
:105000000B99E1720C99E160C0B22146FBF794F86C
:1050100005B0F0BDF0B51F4D85B02868002837D029
:105020008778FCF719FE002805D00A20FCF798FDC8
:1050300004900B200EE001F069FD002805D0062049
:10504000FCF78EFD0490072004E00820FCF788FDA3
:1050500004900920FCF784FD04460F4800780028DE
:1050600014D001262968C878091DFEF7D9FD2968E2
:105070006D46CA7A8B7A091D0BC5039233463A46B0
:1050800021460498FBF7E2F805B0F0BD0026E9E7F9
:105090000120F9E7A872FF1F4C72FF1F10B50949E4
:1050A000096800290CD0002805D101204870FBF7C1
:1050B0002BF8002802D00021FFF760FF012010BD6F
:1050C000002010BDA872FF1FF8B50C4602F096F93B
:1050D000020021D026201462FCF742FD05062D0EA9
:1050E00000D115789679D01D00901020176AFBF733
:1050F00041F8040010D0D0202070002060700920FA
:10510000A070E6700622201D0099FAF791FF214653
:105110002846E760FBF710F8F8BD411E152903D9B2
:10512000FF2801D0002070470120704770B50A4E5B
:10513000054630780C46FF280DD00420FBF71AF8FE
:10514000010008D0D02008704C7002208870CD700B
:105150003078FAF7F1FF70BDBC72FF1FF3B5284D30
:1051600081B0286800284AD04078264E012803D014
:105170003078002831D041E001F0C8FC224F0028EF
:1051800013D00120FCF7ECFC0446412808D91F4A43
:1051900002213878FAF7C4FF1D483C3C44800EE0F9
:1051A0007D20C0002246424303E00020FCF7D8FCEB
:1051B0000246002A03D002213878FAF77BFF2968DB
:1051C000022048703078002802D00020307015E0AE
:1051D00002990198FFF7D2FE10E00320019CFAF734
:1051E000C9FF010008D0D02008704C7004208870DE
:1051F00028680078FAF7A0FFFFF716F90120FEBD36
:10520000A872FF1F4D72FF1FD972FF1F60EA0000D6
:10521000BC72FF1F074A00218B00D35A834202D180
:10522000880080187047491CC9B20229F4D30020B5
:1052300070470000EC72FF1F10B50C46FFF7EAFF45
:1052400000280DD0002C00D020608078FE2803D0EC
:10525000FF2803D0162010BD172010BD002010BD60
:10526000022010BDFFB581B0FF201E461746053055
:105270000A9DFAF77FFF04001BD0B02020706770F2
:10528000029860802671002D06D02046FC22294617
:105290000830FAF7CDFE05E02046FC220021083058
:1052A000FAF7DEFE21460198FAF746FF002005B026
:1052B000F0BD1320FBE70000054817220280098893
:1052C000172901D204207047018000207047000098
:1052D0004672FF1F0020704708B50A4608884988B3
:1052E00088420BD8002809D0002300931379521D5F
:1052F000FDF72EF9002803D0002008BD012008BDCD
:105300000A2008BDF3B50D4608884988002687B0F5
:10531000814215D3002813D0002769460F710097EA
:10532000002369881A46FDF713F904004FD0684638
:105330000079002807D069464979012925D008E07D
:10534000012009B0F0BD217802291BD002216A4654
:1053500051711222504301AA618980184180684628
:1053600000791223584380181022001D6168FAF753
:105370005FFE68460079401C0106090E684601710F
:105380001FD11AE001216A465171217802291ED1EC
:10539000820001A86189121851806A4612796168F9
:1053A000920010180222001DFAF742FE6A46107998
:1053B000401CC0B21071052803D261890A4881429D
:1053C00000D101266089401C80B2002EA7D068461B
:1053D0000079002805D001A90798FBF7D9FA002029
:1053E000AFE70A20ADE70000FFFF000038B50C462C
:1053F00008884988884215D8002813D02379621D6F
:1054000002210B48FBF749FA00280DD0002000903C
:10541000237961882088621DFDF79AF8002805D05D
:10542000002038BD012038BD102038BD0A2038BD0D
:10543000E892021108B50A460888498888420BD8C4
:10544000002809D0002300931379521DFDF780F83E
:10545000002803D0002008BD012008BD0A2008BD97
:10546000F8B500250F4606460C46E03717E0680001
:10547000205A0021FDF746F8002809D0017A30466D
:10548000FDF702FA002808D06900615A2180F8BDB2
:105490006800205A20800120F8BD6D1CEDB2B87D57
:1054A000A842E4D80020F8BD10B5044608880021C1
:1054B000FDF728F8002804D0017A2046FDF7E4F92A
:1054C00010BD012010BD000030B585B0054669460D
:1054D000FBF7DCFA040026D168468078C1071E4835
:1054E00009D08268002A04D068886946904704463B
:1054F00019E0062417E04268002A05D0688869464A
:105500009047040001D10EE0062468464078002848
:1055100009D16846817801730021C18104746888CB
:1055200003A9FBF7F5F9A868002801D0FAF74CFEAB
:10553000002C05D168468078122807D01B2803D09C
:1055400068880121FDF74AFE05B030BD6846407805
:105550000128F5D1F8E70000F472FF1F70B5054689
:105560000C4608880021FCF7CDFF002805D0017A01
:1055700022462846FDF79BF970BD012070BD000052
:105580000149486070470000F472FF1F10B50446DF
:10559000801C00F046FDFF20E07010BD10B500F04B
:1055A00025F8002800D0806810BD00229300CB5A57
:1055B000834202D1900040187047521CD2B2022A96
:1055C000F4D3002070470000074A0021CB00D35AD3
:1055D000834202D1C80080187047491C0906090E91
:1055E000F4D0002070470000046EFF1F0649896850
:1055F00005E08A88824201D18868704709680029DD
:10560000F7D1002070470000F46DFF1FF8B5074682
:10561000012906D0022924D1012101F093FF00289D
:105620001FD13846FFF7D0FF050015D000240D4EDE
:105630000CE0F8206968604308180188002908D048
:10564000F8220021FAF70CFD641CE4B27078844261
:10565000EFD30020C0432880024938461831FCF7B8
:105660001BFDF8BDF46DFF1FF3B5064683B008308F
:105670000190002000907088FFF7A6FF07002FD050
:10568000002523E0F820796868430C182188002958
:1056900020D00198007801280FD160880090A3885D
:1056A0007088A21DFCF7E0FE0090002805D001994B
:1056B00000200870049821880180F82200212046EB
:1056C000FAF7CEFC00206D1C2080EDB20748407830
:1056D0008542D7D30020C04338800098002802D1EB
:1056E0007088FBF73FF9009805B0F0BDF46DFF1F1F
:1056F000F3B50546374C064685B00835F62200213D
:105700002046FAF7ADFC03A800902B796988288819
:105710006A1DFCF71DFF074645E070882E4A4100D0
:10572000515C2E4BC91FC9B2009300220291019215
:10573000284B69468A89F63B3946FCF70DFD00285F
:1057400012D126482989001F828891420CD1214913
:105750002846F6390A30FAF777FC002804D0217879
:10576000788989000919488068468289698804AB6C
:105770003846FCF71FFF07462078810009194A8840
:10578000002A10D0002F05D06A46128A401C2070D3
:105790008A800AE002060021920DC9431219401CBA
:1057A0002070918006E0002F04D00D4821780088F9
:1057B0008142B2D32078002806D070882146FBF7BA
:1057C000D9F8002007B0F0BD0698298801800A208A
:1057D000F8E70000A68CFF1F4472FF1FF86DFF1F43
:1057E0004072FF1FF0B585B00446002069468881ED
:1057F00020790E2869D00FDC082823D004DC022889
:1058000013D0062818D118E025460835484F0A2835
:105810001DD00C2810D138E010285BD012285ED0A3
:10582000162861D0182877D163E0434841490088A1
:1058300008806088FBF776F86EE003A92046FFF742
:1058400057FF5AE003A9204600F076F955E0288872
:1058500004A9FCF757FE010015D06088354E4200C0
:10586000BA5C0023521ED2B20193029200966A469D
:10587000B31C128AFCF770FC00281DD160883146E9
:10588000FBF708FA48E0012016E0288804A9FCF795
:1058900039FE0100F7D060886B884200BA5C254E63
:1058A000521ED2B20193029200966A46B31C128A2B
:1058B000FCF752FC002803D029886A4691811CE03D
:1058C00060883146FBF7B6F926E003A9204600F0D0
:1058D000D3F912E003A9204600F082F80DE003A9F5
:1058E000204600F039FA08E003A9204600F028F825
:1058F00003E003A92046FFF7B7FE00280CD061782B
:10590000142909D00B4922790A706A4692894A8083
:1059100008716088FAF7FCFF2046FCF7DBFD0748BA
:10592000C168002901D02046884705B0F0BD0000BD
:105930004472FF1FA68CFF1F3E72FF1FF46DFF1FF6
:10594000F8B504460F460546083400896946FCF759
:10595000D9FD06003AD0307A80060ED56846008818
:10596000FFF71CFE030006D06888122231469847D4
:10597000060002D02BE00E2629E06E883046FFF7A5
:1059800023FE010005D11448FFF71EFE01000ED0D2
:105990000E80124A0020527807E0F8264B684643F2
:1059A0009B5B002B05D0401CC0B29042F5D309266A
:1059B0000DE04968F822504308182146FAF738FBF1
:1059C000002668882146FBF72BF902E00126208893
:1059D00038803046F8BD0000FFFF0000F46DFF1F67
:1059E000F3B58BB000200B9E0746039004A80090EF
:1059F0003246337B718930894C4C0D320836FCF7C6
:105A0000A7FD054678E00B98297A4088FCF73CFF13
:105A1000070003D00C98698901806FE00B98444916
:105A20004088444B4200895C0093891FC9B2002220
:105A3000029101923D4B69460A8AF63B2946FCF7E2
:105A40008BFB0700E6D10398002833D039486188E2
:105A5000001F8088021D914253D1039909180B98A9
:105A6000408842003248805A801F814249DC0399B5
:105A7000A87A6118087103986989401C80B22218BD
:105A8000090A401C117180B203906846028A71882D
:105A900007AB2846FCF78EFD050011D00398694638
:105AA000898B2018017103986946401C898B80B24C
:105AB000090A0CE01F48001F8088001D6080D6E79F
:105AC0000398FF21201801710398401C80B222180E
:105AD0001171401C80B217490390091F8A8813492D
