:020000041102E7
:1000000003B40148019001BDADAE000003B4014846
:10001000019001BD456B010003B40148019001BD91
:100020000189000003B40148019001BDC53F0000F3
:1000300003B40148019001BDE94C010003B401483B
:10004000019001BDC95C010003B40148019001BDEC
:10005000CD4C010003B40148019001BD618900004D
:1000600003B40148019001BD154D010003B40148DE
:10007000019001BD1D4B010003B40148019001BD79
:10008000090E000003B40148019001BDF54E0100C6
:1000900003B40148019001BD434D010003B4014880
:1000A000019001BD4551010003B40148019001BD1B
:1000B0002526000003B40148019001BD8B520100C8
:1000C00003B40148019001BDB352010003B40148DB
:1000D000019001BD0D52010003B40148019001BD22
:1000E000C94A010003B40148019001BD3D4B010024
:1000F00003B40148019001BD014C010003B4014863
:10010000019001BDF94C010003B40148019001BD0B
:10011000691F000003B40148019001BD5D17000094
:1001200003B40148019001BD5952010003B40148D4
:10013000019001BD5125000003B40148019001BDAB
:10014000594F010003B40148019001BD8D12000018
:1001500003B40148019001BD4D1F000003B40148E4
:10016000019001BD5522000003B40148019001BD7A
:10017000DD52010003B40148019001BD1D4D010095
:1001800003B40148019001BD810E000003B4014891
:10019000019001BDDD48FF1F03B40148019001BD7E
:1001A0008D2BFF1F03B40148019001BD35540000A1
:1001B00003B40148019001BD017F000003B4014870
:1001C000019001BDE117000003B40148019001BD99
:1001D0007918000003B40148019001BDD94901001C
:1001E00003B40148019001BDE928000003B40148AF
:1001F000019001BD5549010003B40148019001BDC2
:10020000C926000003B40148019001BD350E00006D
:1002100003B40148019001BD433AFF1F03B40148F4
:10022000019001BD8D49FF1F03B40148019001BD3C
:100230003519000003B40148019001BDBD1800004C
:1002400003B40148019001BDC521000003B4014879
:10025000019001BD291C000003B40148019001BDBB
:10026000851F000003B40148019001BDA9460100AB
:1002700003B40148019001BD1147010003B40148D6
:10028000019001BD2548FF1F03B40148019001BD45
:10029000012EFF1F03B40148019001BD452EFF1F31
:1002A00003B40148019001BDF92AFF1F03B40148BE
:1002B000019001BD0328FF1F03B40148019001BD57
:1002C000DD27FF1F03B40148019001BDE548000090
:1002D00003B40148019001BD2951010003B4014854
:1002E000019001BDD91B000003B40148019001BD7C
:1002F0008528FF1F03B40148019001BDAD28FF1FF1
:1003000003B40148019001BD51470100F8B5D3493C
:10031000D14A002004464A608300401CD450FF2884
:10032000FADD4868CE4A014680318A606E22C26298
:10033000CC4A1278002A01D07F22C2620A220265CA
:10034000C94A13788363C94BC36115781023022D02
:1003500008D01578012D05D01578032D02D0157819
:10036000042D00D10362C24D45611925AD0185619F
:100370003725CD6036272826C763082546640564DF
:100380004F6032270F603B27CF634127CF64392767
:100390004031E0C132274F6002274F6142270831C8
:1003A000E0C11E274F60CE608D6005264E6142265B
:1003B0000E615A2660390E614D613C258D61AF2575
:1003C000ED000560AB4D05631578022D09D0157859
:1003D000012D08D01578032D07D01578042D06D0EF
:1003E00007E0152504E0436003E00E2500E00C253E
:1003F0004560FF252D358560C560FF25F535056114
:100400009D4D85647D25ED009C4ECD67C66445629B
:100410009B4D85627325C565062545658565C51DAA
:100420000826F93502272E6047664B27FF008766AE
:100430000927C766934F07674667BE108467C6677C
:10044000914F8E4E3E601678022E09D01678012EFE
:100450000AD01678032E0BD01278042A0CD00EE0A6
:100460001A22CA61212205E01422CA61182201E081
:100470001322CB610A6202E00E220B62CA617E4A3D
:100480008A627D22D2008A6764224A620522CA6299
:1004900002220A63C8228C634A63382169607B495F
:1004A00029647B49A9614B21C900E9617349FF3087
:1004B000643929627D2109016962EC661E212C677D
:1004C000A9667049A965E965891029666964696743
:1004D0007049A9677049714A8130E967026082609A
:1004E0004160FF21F531C16001616E486C495A4A93
:1004F00081606D49803A11616A496C4A80318A6233
:100500006B4ACA626B4A82616B4AC2626B4A02637F
:100510006B4A64484038C2636A4ACA616A49816367
:1005200060496A48403188616A49694888605D4825
:10053000694A80384260694A4263694A0A62694985
:10054000816058496848C039C860FFF759FD0120EB
:10055000FFF75CFDF8BDF3B50746644881B0C1699B
:10056000634A1140FF310931C161002613E00025C3
:100570002C461120FFF750FD5C48406A8007800F31
:10058000610088402843641CE4B20546102CF0D377
:1005900001C7761CF6B202988642E8D3FEBD10B5BC
:1005A0002E4C607800280AD104215248FFF7D3FF6F
:1005B000504804211030FFF7CEFF0120607010BDBD
:1005C000F0B500248BB00D460646102902D9012053
:1005D0000BB0F0BDFFF7E3FF464900200A5C401C6A
:1005E0001419C0B21028F9D3002C03D0102D03D950
:1005F0000B20EDE70E20EBE73F483E4C0023006860
:1006000002A91034E25CC75C7A40CA545B1CDBB2BE
:10061000102BF7D306AA3748FFF704FD102D00D999
:1006200010252A4606A93046FFF702FDFFF706FD12
:10063000216840182060FFF701FD61684018606084
:10064000FFF7FCFCA1684018A060FFF7F7FCE16829
:100650004018E0600020BBE70004FF1F246FFF1F6D
:10066000B891FF1F1C6AFF1F4A0AFF1F3A070000CC
:1006700080C3C9019A02000050C30000280A00008C
:100680006A180000204E0000F009FF1F0040001112
:1006900068100000DC05000040420F001027000039
:1006A000CD59FF1F0001FF1FE934FF1FF15DFF1F40
:1006B000C960FF1F5131FF1FE532FF1F6D31FF1F62
:1006C000BD3FFF1F3567FF1F5965FF1F5D28FF1FD7
:1006D000A138FF1F0002FF1F4556FF1F2158FF1FB3
:1006E0006557FF1F0156FF1FD138FF1F40F0004024
:1006F00000FEFEFF3C8CFF1F486FFF1F0A78027050
:100700008A7842704A88120A82700979C17004207E
:1007100070470A7802700988090A41700220704700
:1007200010B500220EE093005B189C7804705C8882
:10073000521C240A44701C7984709B88D2B21B0A14
:10074000C370001D0B789342EDD81806800D10BDC4
:10075000F8B50D4606464978012031700024761C14
:1007600016E06978012917D01221614349198A7866
:1007700032704A88871C120A7270B61C10223046EA
:10078000091DFFF755FC1037B8B21036641CE4B2EF
:100790002978A142E5D8F8BDA10049198A783270BC
:1007A0004A88871C120A7270B61C02223046091D44
:1007B000FFF73EFCBF1CB8B2B61CE7E710B50C460D
:1007C000097801702188090A41706288211D801C06
:1007D000FFF72EFC6088801C80B210BD10B50C465F
:1007E000097801702188090A4170A17881706188B7
:1007F000090AC170A288A11D001DFFF719FCA0887D
:10080000001D80B210BD10B50C460A88891CFFF788
:100810000FFC208810BD10B50B788A780270534306
:10082000DCB22246401C091DFFF702FC601C10BD13
:1008300010B50B788A7802705343DCB22246401C14
:10084000091DFFF7F5FB601C10BD10B50C460A88AA
:10085000891CFFF7EDFB208810BD10B50C460A88F7
:10086000891CFFF7E5FB208810BD7FB515460446BF
:10087000022901D0102903D1022B04D0102B02D061
:10088000002004B070BD994202D10A46294607E013
:100890001029694607D000F00DF810226946284655
:1008A000FFF7D2FBEDE7104600F004F8102269468E
:1008B0002046F5E770B50C4605000CD0002C0AD098
:1008C000102206492046FFF7B3FB2878207368788A
:1008D0006073012070BD002070BD00000C8B021100
:1008E00010B50B460122024902F0CEFE10BD0000F9
:1008F000FD06021170B5064608880C46172812D36B
:100900000B4603220949304602F0BEFE050008D11D
:10091000074920880988884200D20146304600F005
:10092000ABF9284670BD022070BD0000130702110C
:10093000566FFF1F10B500231922194602F0A4FEBE
:1009400010BD000010B50A78002A05D00B4607221A
:10095000024902F099FE10BD022010BD21070211CC
:1009600010B54A78012A01D0022A08D10A78002A53
:1009700005D00B460522034902F086FE10BD022079
:1009800010BD00005107021101494000085A70478C
:10099000546FFF1F10B50B461D22024902F074FE72
:1009A00010BD0000BD07021110B50B461B22024905
:1009B00002F06AFE10BD0000BD07021101491720B8
:1009C00008807047546FFF1F0098022B01D004204D
:1009D0007047117852781202891801800020704700
:1009E0000098012B01D0042070471178017000207D
:1009F000704770B5049C1E461546062B1BD36978BC
:100A00002878090240182080E978A878090240185F
:100A1000608002222271291D601DFFF709FBB61FAD
:100A2000B2B22281F02A06D82046A91D0A30FFF76B
:100A3000FFFA002070BD042070BD0098042B01D087
:100A400004207047537811781B02C91801809178EF
:100A5000D27812028918418000207047F8B5848945
:100A60000D460646002C26D0B2681778380620D5E9
:100A70000C2C20D90C3CA4B21019009001217088D4
:100A8000234602F099FD002811D002202870780634
:100A9000C00F6870B806800EA870641E2004000C99
:100AA000A88001D0B068401CA8600020F8BD0120DB
:100AB000ECE70020EAE70120F8BD10B502981146E6
:100AC000042B14D34C780A78240212190280CC78B3
:100AD0008A782402121942801B1F9AB28280F22A5D
:100AE00005D8801D091DFFF7A3FA002010BD0420C2
:100AF00010BD0098042B01D0042070475378117862
:100B00001B02C91801809178D2781202891841809D
:100B10000020704710B502981146062B03D0142B05
:100B200003D0042010BD022200E0102202714B7895
:100B30000A781B02D2180280CB788A781B02D2185E
:100B400042800279401D091DFFF772FA002010BD96
:100B500030B5039CD80718D1D805010E022914D34B
:100B60000B488088814210D8F6200155002008E00B
:100B7000557813782D025B194500401C6353C0B2B1
:100B8000921C8842F4D3002030BD042030BD000008
:100B90004E6FFF1F0098022B01D004207047117880
:100BA00052781202891801800020704770B51446EF
:100BB00002460498022B18D3667825783602AD19C0
:100BC00005800546E0352A766976002A0BD0E821B3
:100BD0009B1E9AB242808A4207D8A11C001DFFF7D3
:100BE00027FA002070BDF421F2E7042070BD000058
:100BF00010B50B461722024902F046FD10BD000059
:100C0000DD07021110B50B460D22024902F03CFD32
:100C100010BD00000708021110B50A78002A05D09F
:100C20000B461122024902F02FFD10BD022010BD1B
:100C30001708021110B50A78002A05D00B460922C0
:100C4000024902F021FD10BD022010BD3108021141
:100C500010B50B460F22024902F016FD10BD000030
:100C60004B08021110B50B460B22024902F00CFD95
:100C700010BD00005B080211044A1288914203D89B
:100C8000024A4000921D1152704700004E6FFF1F34
:100C900010B500231322194602F0F6FC10BD000027
:100CA00010B50549054801F0CFF90348044A05216C
:100CB000083001F049FB10BDEC6BFF1FFFFF000087
:100CC000B08A0211034610B50020104A002B08D04C
:100CD000012B08D01032022B08D0032B09D00220A0
:100CE00010BD127800E052780A7010BD52890A8057
:100CF00010BD064B9B1C1C780C715B784B71538D9F
:100D00000B80528F4A8001228A7110BDE46BFF1F55
:100D100010B505495F200A785F2A03D90870034897
:100D200006F068FA002010BDE46BFF1F05370211C2
:100D30000149486070470000E46BFF1F70B50C4626
:100D40000146012080020A1A00251C481300FFF703
:100D500081F90F32090B0D1012181A1C2A1F2123BA
:100D600025272A00408A23E0807800E0C0782070A0
:100D700021E00079FBE7102211492046FFF758F9DE
:100D800019E04079F3E7C07AF1E78069206012E06A
:100D9000407AECE7807AEAE7007BE8E7807BE6E7E9
:100DA00003F070F8E3E7272904D2084600F0C0FEFC
:100DB000208000E00225284670BD0000706AFF1FF9
:100DC000CC86FF1F10B50249087003F05BF910BD17
:100DD000706AFF1FFFB599B000261F46079607AA45
:100DE000089600F0CFF9054603F04CF80A2D7AD2A8
:100DF0002C460620444320462030C0B26A460E21CD
:100E000006F050FA002802D168468089C6B21B98C5
:100E10000990082F14D000201790082F12D02046D8
:100E20002130C0B218901C2200216846FFF718F943
:100E30006A461C21189806F035FA002805D010E003
:100E40000120E9E720462230EBE76846807EC01F9C
:100E5000092806D8F107C90F6A46179B099800F0C0
:100E6000D9FD1422002110A8FFF7FAF820462430FB
:100E7000C0B210AA102106F015FA002812D11022D3
:100E8000FF2110A8FFF7F2F800280BD12534E0B2BB
:100E900014AA042106F006FAF107C90F10AA1B983C
:100EA00000F0FCFF7035E8B20BAA102106F0FAF949
:100EB000002811D10BA803F0D6F800240BADA00038
:100EC00040190188002903D082781B9801F098FA14
:100ED000641CE4B2042CF2D3B00704D509480178AD
:100EE0001B9801F07BFA042F08D106491B98491C76
:100EF000085C022802D11B9803F0FCF800201DB00A
:100F0000F0BD0000706AFF1F70B50024054600297F
:100F10000BD108491046FFF7AFF80846294600F004
:100F2000A3FE040003D00121284600F0DDFF204687
:100F300070BD000040420F0070B50C46080428D573
:100F400015480078FFF79EF805001ED00178B029FB
:100F500008D0B1290ED0D02914D100F01FF80028F4
:100F600010D112E001791E290CD16888002100F00F
:100F700065F907E00179002904D10289C1886888F0
:100F800000F048FA2846FFF783F80120C0036040CC
:100F900070BD002070BD0000706AFF1F7FB58278B1
:100FA0006E4C921FE1691300FFF754F80AB2D6D6CF
:100FB000681B06D6D65F7AD60546002908D00E688B
:100FC000002E05D06B7B2A7B6989E81CB047C3E003
:100FD0006989A06900F048FE0028F8D068890121DD
:100FE00090E00546407800282DD1A879C0072AD086
:100FF000A8885A49800020310858002823D10E22A1
:1010000000216846FFF72CF86969002903D0062201
:101010006846103107E0A88806F08CF800283ED01A
:10102000C11D06226846FFF703F869468889A97939
:101030004907C90F0843694688812946684602F076
:10104000D9FD002809D0E069002828D04368002B8A
:1010500025D06A78A888012151E0A8882A466946E7
:1010600003F01AF9002004B070BD002974D04B6859
:10107000002B71D042788088022140E00446C0787D
:101080000022211D00F07EF80A2865D2062148437F
:1010900025302246C0B20C32042106F00EF95BE086
:1010A0000546607A0028A88801D0A17A2AE02B4959
:1010B000491C095C002924D006F03CF80646A87AB1
:1010C000C0070DD0002E47D0B079002808D0A989DC
:1010D000890505D46A46F11D00F054F8002814D0A3
:1010E0002A46B179A888083202F042FEE069002859
:1010F00032D04368002B2FD00022A8881146984791
:101100002AE0052100F0F0FE26E0A8880321F9E797
:1011100000F08AFD00281FD1E07B0025012805D0C2
:101120000F4E0024305D012809D00CE002F0EEFEE5
:10113000E5730A2200210A48FEF792FF07E02046E5
:1011400002F0F0FE3555641CE4B20A2CEAD35020BC
:1011500006F0A6F802F096FF012084E7706AFF1FF0
:101160006887FF1F10B5064CE0612178FF2905D084
:10117000262000F083FE207801F0E0F810BD00008A
:10118000706AFF1FF0B50A2485B016460F46002886
:1011900007D0012805D00A25022810D0032847D1FE
:1011A0001FE0084602F01EFF04460A2840D2002E27
:1011B0003ED0062239463046FEF73AFF38E01E4F51
:1011C000002400910E206043C0190622801D009962
:1011D000FEF73AFF002823D1641CE4B20A2CF1D3B5
:1011E0001CE000242046062148432330C0B26A4652
:1011F000102106F057F800280CD11022FF21684674
:10120000FEF734FF002805D13946684600F0EAFDB4
:10121000002805D0641CE4B20A2CE3D32C4607E076
:101220000A2C05D2002E03D03146204602F000FFE2
:10123000204605B0F0BD0000DC86FF1F70B50E46ED
:1012400017491525884212D1002432460221204632
:1012500002F030FE002800D00025641CE4B20A2C05
:10126000F3D3002E1AD00F4805F0C4FF16E005F0A6
:1012700061FF040011D0A0790022E11DFFF782FF79
:101280000A2804D23246022102F014FE0025002E64
:1012900004D0204602F024FF00E01425284670BD4B
:1012A000FFFF0000E1400211FEB515460122920247
:1012B000821A00240127544E1300FEF7CBFE110AB8
:1012C000151A21282F373E434B767E858D9B9B56E2
:1012D0009B00012970D1297802297FD84A48012230
:1012E000401CFEF7BDFE8DE0022977D12888708270
:1012F00088E0012972D1287801286FD8B07081E088
:1013000001296BD12878042868D8F0707AE0012987
:1013100064D12878012861D8307173E010295DD13B
:10132000102229463948FEF783FE6BE0012955D18A
:101330002878012852D8707164E001294ED12878AC
:10134000F0725FE0042949D131492868884245D8C4
:10135000B06157E0002941D100F066FC002801D0BF
:10136000F7734FE002F0D2FD19E0072936D10622CB
:10137000691C6846FEF792FE287800226946FFF74E
:1013800001FF05460A280ED200F04EFC002803D0CB
:101390001E489C30475535E0284602F0C3FD5020DA
:1013A00005F07EFF23E002242CE0012916D12878E5
:1013B000012813D8707225E010E001290ED1287899
:1013C00009280BD8B0721DE0012907D12878C11F68
:1013D000092903D8307315E0012901D0182411E040
:1013E000B07B2978B17300280CD101290AD102F011
:1013F00049FE07E02728D6D20229D4D1298800F057
:101400003DFD04462046FEBD706AFF1FCC86FF1FCF
:101410003F420F00F8B50F4613491525164688427E
:101420000DD1002432463946204602F085FE0028C0
:1014300000D00025641CE4B20A2CF3D312E005F0BE
:1014400079FE00280DD08379C11D00221846FFF7D0
:1014500099FE0A2806D23246394602F06DFE002572
:1014600000E014252846F8BDFFFF000070B50C46CB
:101470000146032000020A1A002534481300FEF733
:10148000E9FD1D1012151C1F2326282C303234387C
:101490003A3C3E40424446484A4E50525A545658AE
:1014A0005A00C07911E01022294902E0284910228F
:1014B00010312046FEF7BCFD45E0C06A206042E0E6
:1014C000224906223C31F4E7007820703BE0808915
:1014D00036E01E4942784231EBE71D4982781F39D8
:1014E000E7E7007AF1E7407AEFE718490622303162
:1014F000DFE7807AE9E7C07AE7E7C08920E0808A01
:101500001EE0C0781CE0C08A1AE0008B18E0408B17
:1015100016E0808B14E00D4906223631C9E7C08BF6
:101520000EE0008C0CE0408C0AE08079CDE7008A68
:1015300006E0408A04E0272904D2084600F0F8FAC1
:10154000208000E00225284670BD00001C6BFF1FB4
:10155000A787FF1F70B50E4C00256071A571691E2D
:10156000E18100F039FC0420E071102200210948DB
:10157000FEF776FD0748102200211030FEF770FDBF
:10158000E562257265720720A072E57270BD0000E9
:101590001C6BFF1FA787FF1FFEB53B4D0C460804C1
:1015A0000CD56879FEF76EFD050004D003F0B4FB9E
:1015B0002846FEF76DFD0120C00360E0600403D5FE
:1015C000012080034840FEBD2F48E10701268079B5
:1015D00000292AD02978002920D0052821D0297A6D
:1015E00068460170697A4170274906223031801CB3
:1015F000FEF71EFDA97A68460172E97A41726946D2
:10160000687900F0B1FA002808D00720A871696A4B
:10161000002903D00968002900D08847204670407F
:10162000FEBD032069460870E4E7A1070DD5052833
:1016300009D1E889FEF738FDAA8A002A03D00221E1
:101640006879FEF737FD022019E0600704D5002015
:1016500003F0A2FB042012E0200712D5287901280C
:1016600002D002280AD107E00096AB8B6A8B298B47
:10167000E88A00F00BF801E000F05AF90820604019
:10168000FEBD0020FEBD00001C6BFF1FF8B5134C13
:10169000069EA579052D01D01420F8BD104F851F99
:1016A000BD4219D2062917D3BD1DA94214D2FF2766
:1016B000F537BA4210D20A2B0ED3AB420CD2E082DD
:1016C00021836283A383304603F066FB04216079A3
:1016D000FEF7F6FC0020F8BD1820F8BD1C6BFF1FBC
:1016E0007A0C0000F7B50D4680490098164642185E
:1016F0007F4F00247879B9791300FEF7ABFC190EFF
:10170000141BE92040455970777E888FE996A2A97D
:10171000B4BFC8E9E9E9E9D3E900102D76D1102278
:10172000314674486FE0102D70D172481022314656
:10173000103068E0042D69D13068F862CEE0012DE8
:1017400064D13B7832783A70002B0AD0002A07D156
:10175000022903D0062901D0042901D100F0BEF9E5
:10176000BCE0002A0AD0012905D0032903D00529AD
:1017700001D0042902D10121FEF7A8FCAEE0022D20
:1017800044D13088B881A9E01F2D3FD858481F2286
:1017900000214230FEF764FC55482A46314642306B
:1017A000FEF746FC524B7D7042332A46012112E07F
:1017B0001F2D7CD84F481F2200211F38FEF750FCF8
:1017C0004C482A4631461F38FEF732FC494B2A4620
:1017D0001F3BBD700021787900F0D6FB83E0012D1E
:1017E00065D13078042862D8387277E0012D5ED157
:1017F000307803285BD8787270E0062D57D13C48CA
:10180000062231463030FEF713FC67E04FE0012D31
:101810004DD1307807284AD8B8725FE0012D46D103
:101820003078032843D8F87258E0022D3FD132882F
:10183000BA82002A52D0052950D10221FEF73AFC83
:101840004CE0012D33D13078012830D8F87045E0D4
:101850003088022D2BD1062829D31921C9018842AD
:1018600025D8F8823AE03088022D20D106281ED3F0
:101870001921C90188421AD838832FE03088022DF7
:1018800015D1FF21F531884211D2788326E03088C6
:10189000022D0CD10A280AD31921C901884206D881
:1018A000B8831BE03178012D01D1012901D0182422
:1018B00014E00821FEF710FC002801D016240DE0EA
:1018C000002003F069FA04217879FEF7F9FB05E0BE
:1018D0000098272801D2022D02D002242046FEBD06
:1018E000318800F0CBFA0446F8E70000FFFCFFFF68
:1018F0001C6BFF1FA787FF1F1CB50B4CA17900298C
:1019000001D011201CBD002800D0606206490748A4
:101910002C31034601910090103B0022E17960795F
:1019200000F0BCF800201CBD1C6BFF1FB787FF1F19
:1019300010B506488179052901D0122010BDC18952
:101940001322407900F0E0FA10BD00001C6BFF1F6D
:10195000F8B504462C480F460078022805D0012827
:1019600003D0082803D1002F01D01220F8BD002C8D
:1019700007D02088254D81006958002903D0112007
:10198000F8BD0220F8BD05F0D5FB060036D02C20AE
:10199000FEF7A8FB218889006850002830D02C224F
:1019A0000021FEF75DFB20881C22810069584880D9
:1019B0002088211D80002858001DFEF739FB218852
:1019C0000220890069580870228890002B5870798D
:1019D0001B1D002816D000200D49097801F098FD44
:1019E0000546002F03D03946304605F08DFF002D07
:1019F00002D0208802F0CAFC2846F8BD1420F8BDA9
:101A00001320F8BD0120E7E75B6FFF1FC46FFF1FC6
:101A1000E96FFF1FFFB5204D81B028781E4617469D
:101A2000022823D0012821D0002F22D0019805F0D0
:101A300081FB04001FD0606A002801D0FEF758FB2C
:101A40001C213846FEF75AFB6062010015D0287849
:101A5000000714D5002E12D0887E00900B4612335A
:101A60000A8A019806F01AFA014609E0122005B028
:101A7000F0BD0220FBE71420F9E71320F7E700216F
:101A80002079042210432071029A002A02D00222F7
:101A9000104320710846EAE75B6FFF1FF8B51D464B
:101AA0000224069F079E0B00FEF7D4FA0D150815B9
:101AB00015081515151515151508150000F0B8F8B9
:101AC000040008D132463946284600F08FF900F06C
:101AD000EFF801F00DFD2046F8BD000070B5104C88
:101AE0002168002904D00978814203D0032070BD09
:101AF000122070BD0B4D02212878FEF7E1FA0A484A
:101B00000026468004212878FEF7DAFA0748068086
:101B10002168032048700020FEF7F6FA70BD00002F
:101B2000B86FFF1FE96FFF1FCC6FFF1F5E6FFF1FB6
:101B3000272803D202494000085A704701487047DD
:101B4000666FFF1FFFFF000010B5064C607005F0C8
:101B500021FB6078FEF7DEFA0521607801F05AFB80
:101B600010BD0000E86FFF1F70B5284E05463068B5
:101B70000C46002801D0112070BD254801780520B1
:101B8000014216D023488068002805D0007800283C
:101B900002D0C80706D101E0102070BD00F044F863
:101BA000002808D02078032805D0022803D0002878
:101BB00001D0122070BD0C20FEF794FA306000288E
:101BC00020D00570002141700A222146801CFEF7BA
:101BD0002FFA03F0C5F9040002D002F0CBFB12E0AB
:101BE0000D48007803280ED11D20FFF7A1FF0B49F7
:101BF0000028088007D00B48094A04210078FEF726
:101C00008FFA00E01324204670BD0000B86FFF1F5C
:101C10005B6FFF1FCC6FFF1F5C6FFF1F5E6FFF1FAF
:101C200060EA0000E96FFF1F10B505F0D1FA10BDA2
:101C300070B50C4605461C2200210948FEF710FA33
:101C4000084805704470FEF771FA0549002803D072
:101C500000200870122070BD01220A7070BD0000C3
:101C60006C8CFF1F5A6FFF1F7FB504460D46084658
:101C700005F060FA002805D00C48844204D90220FF
:101C800004B070BD1220FBE7102200216846FEF769
:101C9000E7F968460470210A4170210C8170210E19
:101CA000C170294601F096FBEAE700003F420F00B1
:101CB00070B50F4C0025A068002802D0FEF718FA76
:101CC000A560E068002802D0FEF712FAE560094836
:101CD00005210078084206D00548103002F01CFFAC
:101CE00001F05EFF70BD002002F016FF002070BD05
:101CF000CC6FFF1F5B6FFF1FFEB5344D0C46080411
:101D000019D56878FEF7BEF90121C9034C40064693
:101D100000280ED002F020FE002807D12878FF28E6
:101D200004D03146FEF708FA002802D03046FEF70C
:101D3000AFF92046FEBDE007012700280AD0A868B9
:101D4000002804D04168002901D00020884720469F
:101D50007840FEBDA00709D56868002804D0416816
:101D6000002901D00120884702202AE060072AD5F7
:101D7000174E308800281FD0401E0004000C308011
:101D80001ED102F069FB002809D01248077068686C
:101D9000002804D04168002901D00120884702F0C2
:101DA00035FB694601F094FA684602F0BFFD1D203C
:101DB000FFF7BEFE308003E004216878FEF780F96B
:101DC00004206040FEBD0020FEBD0000E86FFF1F44
:101DD0005E6FFF1F5D6FFF1F0149087070470000B5
:101DE000E86FFF1F10B501F05DFB10BD70B50E4C24
:101DF0000B46261D07C60546102200211846FEF791
:101E000035F9012803D11021A06805F0E9FB102263
:101E100000212846FEF72AF9012803D11021606825
:101E200005F0DEFB70BD00006C8CFF1F38B5054669
:101E30000F480C460078400701D4122038BD2846D0
:101E400005F078F9002811D00A48A9004058002868
:101E500001D0817D00E02146684606F075F8064B0A
:101E60006A460221284605F0D5FF38BD142038BD4A
:101E70005B6FFF1FC46FFF1F55840211272807D215
:101E8000044A914204D0044A400011520020704795
:101E900002207047FFFF0000666FFF1F70B50E46FF
:101EA000104915460978022916D0012914D0002DB1
:101EB00014D005F03FF9040012D0002E03D0207991
:101EC00002210843207110222946A018FEF7B0F81D
:101ED00028692062002070BD122070BD022070BDF4
:101EE000142070BD5B6FFF1F38B50C46054605F02A
:101EF00021F9002806D0684604706946284605F096
:101F000077FF38BD142038BDF8B50D4617461D497A
:101F100006461B4A1224C868954208D100282DD0D5
:101F20000268002A2AD029463046904723E0144A06
:101F3000521C954213D1002807D00268002A04D011
:101F4000294630469047040005D03946304601F016
:101F500069FC040012D10B48067047700EE0284659
:101F600005F0E8F8002809D00078B04205D13946DC
:101F70002846FEF7E7F8044600E003242046F8BDB3
:101F8000FEFF0000BC6FFF1FF8B50E460146194862
:101F90001546007805221F46104028D0304326D031
:101FA0001548012E1BD0C468002C20D01F2D18D836
:101FB000002D01D0002F14D001701F220021601CC1
:101FC000FEF74EF82A463946601CFEF731F82846DF
:101FD0002570002E07D0611CFEF7BAF8F8BD8468A2
:101FE000E2E70220F8BD611CFEF7B8F8F8BD122048
:101FF000F8BD00005B6FFF1FCC6FFF1F70B50F4D6A
:102000000F4CA87029461831204600F01DF8002119
:1020100028460B461030CA0084521218491C090683
:102020005360090EF7D0012003F07AFEA87800F083
:1020300071FB044805F0F4F870BD0000806BFF1FD1
:10204000FFFF00005955021170B50A4C0025A0424F
:1020500009D1002082008C525218401CC0B29570E9
:102060000228F7D370BD03F046FA0028FAD00480A6
:10207000857070BDFFFF0000F8B50E460746069953
:1020800000240798002902D00B242046F8BD022B1B
:1020900001D00D24F9E711785278120289188DB217
:1020A0002946814301D08024EFE73846F16800F0EB
:1020B0003DF9A842E9D02A463846F16800F0CCF94B
:1020C0000400E2D171892A46384600F06BF9DCE75A
:1020D00070B50C46080412D50A488078FDF7D2FF87
:1020E000050008D02878B02802D1284603F020FB4C
:1020F0002846FDF7CDFF0120C003604070BD0020E1
:1021000070BD0000806BFF1FFFB587B0087A002507
:10211000109E1C460F46C0060DD5099803F0E4F941
:10212000030006D00A22394607989847050035D1A2
:1021300001E00E2532E0387802281DD17868292286
:102140000178407812020002081880B2811A904289
:102150007ED009DC7249401A23D0012821D0022800
:1021600051D0032808D125E0012972D0022971D06D
:1021700003296DD004296ED0099803F0DDF90028F9
:10218000D7D00568002DD4D01299119801910090F4
:102190003346224639460798A847054628460BB0DD
:1021A000F0BD1198002873D1F86801783180027869
:1021B000416897E0119800286AD101203080F868C2
:1021C0000021007820707889401C80B200F072F9FC
:1021D00000280FD0318802788918891C3180817AD3
:1021E00061704189090AA17002784168E01CFDF71D
:1021F0001FFFD3E730880422001D30800021601CBF
:10220000FDF72EFFCAE71198002872D1F86804A9DB
:102210000088009004203080009820700098000A08
:102220006070009800F046F9070028D0F868059023
:102230006846028A03AB3B49384600F093F9002810
:102240000FD13B78022138487A68FEF70EFB03E095
:1022500027E031E01DE049E0002802D1401E694638
:1022600088810598007802280CD1059802224168DF
:10227000201DFDF7DDFE3088801C308002E06946BD
:102280000098888168468089A070000AE07085E720
:102290002FE0119800282CD1F968079800F046F833
:1022A00004E01198002824D1F868008802213180C8
:1022B0002070000A607071E7F868FDF755FF11990A
:1022C000C0B2814210D8814201D1002206E0129AA8
:1022D0008918814202D31199401AC2B23280F9683A
:1022E00011980918204682E7072557E7119800281A
:1022F00001D00B2552E70721F86831800178217061
:10230000417861708178A1704188090AE170017992
:10231000217181796171C088000AA0713EE70000D7
:1023200000280000FFFF0000828B021110B503F0AF
:10233000E2F8002800D0807810BD00000149087044
:1023400070470000806BFF1F7CB51446050019D054
:1023500068460195018000F0E3F903001DD1002CCF
:102360001BD06D89002D0DD00C20FDF7BBFE002881
:102370000AD0002303608580094A8460916800299F
:1023800004D006E0022308E0132306E0906004E096
:1023900011460A68002AFBD1086018467CBD00007F
:1023A000806BFF1FF8B50C4C0746207815460E468B
:1023B000FF280FD00A20FDF7DDFE01000AD0B12072
:1023C00008700020487008714F80CE800D81207801
:1023D000FDF7B2FEF8BD0000806BFF1F70B50C4624
:1023E00005460649FFF7A2FF800704D52146284687
:1023F00000F0EAF970BD012070BD0000986BFF1F6E
:102400001CB56B461A71120A5A71002200920223FF
:1024100001AA00F001F81CBDFFB583B008461F46B5
:1024200001A90C9E00F046F8050012D0684680888D
:1024300003F082F800280AD04468002C07D00096E8
:102440003B462946059A0398A04707B0F0BD0E20E9
:10245000FBE70120F9E7000070B514460E4605467B
:1024600003F049F8002806D13146054803F043F847
:10247000002803D005808470002070BD112070BD3D
:10248000FFFF000010B50178B0290BD14178002979
:1024900008D10179122906D01B2903D140880121D6
:1024A00000F042FE10BDFF210231095C0129F5D088
:1024B00010BD0000F0B58C4610494B6819E09F68CC
:1024C0007C89A04214D39E883119814210D9002200
:1024D0000CE011017D186989814205D16046002810
:1024E00000D004802846F0BD521C92B29642F0D82B
:1024F0001B68002BE3D10020F0BD0000F46FFF1F2C
:10250000FFB5174881B00A9F446824E000251EE00B
:10251000A0682901461870890199884215D302994B
:10252000884212D80498002807D031787068049B3C
:10253000039AFEF79AF9002807D0002F02D0A0686E
:1025400040893880304605B0F0BD6D1CADB2A08822
:10255000A842DDD82468002CD8D10020F3E7000081
:10256000F46FFF1FFEB5174600256A4695800446A6
:1025700040891D4A1E46904208D001AA0092401C84
:10258000237880B26268FFF7BBFF054623780221FB
:1025900016486268FEF769F9002807D123780221FE
:1025A00013486268FEF761F9002801D060890EE0E7
:1025B000237802210F486268FEF757F900280DD0F2
:1025C000002D03D068468088B84203D0384603F017
:1025D000A1FC04E06889401E80B200E06089002E02
:1025E00000D030802846FEBDFFFF0000808B021126
:1025F000828B0211868B0211FFB581B00F461E46F9
:1026000014466946019802F0BDFD050018D1002C62
:1026100006D001221021019804F066FD05000FD1BB
:1026200039460198FEF7B6F9050009D1009CFF2E46
:1026300006D021461E22A31C034803F077FCE67057
:10264000284605B0F0BD0000195E021110B505491D
:102650000870042100F0DEFD00F006F8FEF7AEF988
:1026600010BD00000470FF1F70B50E4C00200C4B15
:10267000651CFF228100C91800280ED00D80401C67
:10268000CA70C0B28A700228F4D3074802F01EFF55
:10269000064804F0C5FD002070BD0C80EFE7000087
:1026A000FC6FFF1FFEFF0000455E0211995D0211E5
:1026B000F8B50D4614460646694602F063FD172834
:1026C0000CD0002C06D001221021304604F00CFD65
:1026D000002803D129463046FEF766F9F8BD000010
:1026E00070B50C46080411D509480078FDF7CAFCFE
:1026F000050007D00178A02901D102F08BFE284601
:10270000FDF7C6FC0120C003604070BD002070BD15
:102710000470FF1F0149087070470000F46FFF1F2D
:1027200070B50546008800281DD06868022103782E
:1027300042682248FEF799F8002808D1686802210B
:10274000037842681E48FEF790F800280BD01D4C15
:102750006088002805D0012229881204101A8142BD
:1027600003D9012070BD022070BD0C20FDF7BAFC1A
:10277000060001D000200AE0132070BD02016B6842
:1027800061880A329952491C401C618080B22988B4
:102790008142F3D80020306008222946301DFDF721
:1027A00047FC6068002802D1666004E008460168C2
:1027B0000029FBD10660002070BD0000808B021153
:1027C000828B0211F46FFF1F70B5BEB00D46064636
:1027D000002402230E4A0F4901200094FFF790FEC7
:1027E000002812D040896A461080042050800120C1
:1027F00010715471FF209071D0712B4600226946F0
:102800003046FFF7F9FE3EB070BD0120FBE7000047
:102810009E8B0211FFFF00000649496806E08A68A6
:102820005289824201D18888704709680029F6D10F
:1028300000207047F46FFF1F10B51422114201D021
:10284000012202E04A0604D50022102104F04CFCCB
:1028500010BDC80701D0002010BD022010BD10B56A
:1028600014468A0604D50122102104F03DFC10BD57
:10287000882211420ED008220A40102104F034FCB4
:1028800000280BD0E034617E0029F0D0217E0129A0
:10289000EDD103E0880701D4032010BD002010BD56
:1028A00070B50D46164600241D490300FDF7D2FB06
:1028B00008051234341934222934152D23D8162250
:1028C00000211848FDF7CCFB2A4631461548FDF794
:1028D000AFFB22E0022D16D1114910881039088073
:1028E0001BE0082D0FD10E48082231460838FDF7AD
:1028F00047FC12E0012D06D1CA6909493078283118
:1029000007E0012D01D0182407E0CA6B0449307894
:10291000483103F06BFB00E00224204670BD00004C
:10292000A86AFF1F7287FF1F10B50122054900200A
:10293000FFF792FD0349012208310020FFF78CFDCB
:1029400010BD0000F46CFF1F38B50A4C6946E071F9
:102950000120087001466A460748FEF7A5FCFEF70D
:102960009FF90020FEF7E4F90121E079FDF7AEFBC5
:1029700038BD0000BC6CFF1F0D0400007CB5434D4A
:102980000C46080409D5E879FDF77CFB002801D046
:10299000FDF77EFB0120C00371E0E007012600285F
:1029A00009D03A481C30FEF7A7FF3948FEF7DAFB9A
:1029B000204670407CBD35486107007808D5052861
:1029C00004D1A878002801D003F0F6FE042056E0D8
:1029D000A1070AD5052806D1FEF79AF92D4A02214A
:1029E000E879FDF767FB022049E0210721D56978E6
:1029F000082026464640002917D06879A9798842E0
:102A00000FD00B21401CFDF737FB69710B204143B0
:102A100021480B1805D09A7859781878DB1C03F0F8
:102A20007BFE6879A979884201D130467CBD204679
:102A30007CBDE10611D569460E700E7105280AD1DC
:102A4000312001AA01210001FEF74CFE6A46012156
:102A50001248FEF747FE102011E0A00613D5002013
:102A6000FDF792FFC0B20E49B9280AD09E2808D0BF
:102A70004D2806D000200874FFF756FF2020604044
:102A80007CBD0E74F8E700207CBD0000BC6CFF1F0D
:102A9000BC8A0211983A0000A88BFF1F190300009E
:102AA000386EFF1FFFB583B00020009048680E46C7
:102AB000017840781D4600020818524A5149514B8E
:102AC0000C9F84B22B391B3B901E002F04D08442F4
:102AD00025D00B2007B0F0BD944207D08C4205D022
:102AE0009C4203D047491A398C4216D1708903F0B1
:102AF000F9FD00280ED0059900950191424A4179CF
:102B000052690079156801232246A84700900028E1
:102B100074D075E00020288070E084424CD13B489E
:102B20000088874202D30720009069E0364C7D225E
:102B300052011021E079FDF7BDFA7D22D20020215B
:102B4000E079FDF7B7FA0020FDF71EFFC0B2B92803
:102B500006D09E2804D04D2802D0002F07D00AE0CE
:102B6000002F08D12A4901200874002002E02849DA
:102B700000200874608125480D990088C01B884298
:102B800000DD084682B22A80F068C1190598FDF779
:102B90004FFA28886189401880B21C4960810988F1
:102BA00088422BD11A48007C002827D1642220219A
:102BB000E079FDF77FFA21E01248C01E844204D17B
:102BC000042028800246F16815E0124902208C4258
:102BD0000ED00C49491C8C4206D101202880F06897
:102BE00001780598017009E00A49491E8C4205D117
:102BF0002880F16802220598FDF71AFA03F0DCFD3F
:102C0000009867E74D2A0000BC6CFF1FE06CFF1FB7
:102C1000386EFF1F08290000014A5161906170471A
:102C2000BC6CFF1F014A116110727047BC6CFF1F22
:102C3000F8B507460D480E4601781C46154605298D
:102C400012D14178002909D041798079814205D19A
:102C50003146384603F060FD002805D023462A4659
:102C60003146384603F036FCF8BD0000BC6CFF1F4F
:102C7000FFB583B00C9B002415460F468446002BFD
:102C800002D00B2007B0F0BD7868017840780002D0
:102C9000081886B23E48864203D03D481B3886421B
:102CA00012D1788903F01EFD00286AD006A901958B
:102CB0000091384A417952690079146800233246FC
:102CC000A04704005DD05EE03248314A4169684661
:102CD000521E008B96420AD1012841D12878002843
:102CE00001D0012843D1002849D0012047E02A4AD9
:102CF00096422FD1012100930191C3B22A46394651
:102D00006046FFF7B9F904003DD1697828780902D7
:102D10004018204982B208697B89097A15E0478802
:102D20009F420FD100282CD006A901950091012ABD
:102D30000ED00323174A417952690079156832464B
:102D4000A8471EE0491EC9B208300029E7D118E0A3
:102D50000223EFE70E4A521C964212D1012801D0FD
:102D60000D2410E02878002803D0012801D0802409
:102D700009E0FA6810702878002806D00320496816
:102D8000884703F019FD20467CE70220F7E70000A2
:102D90004D2A0000BC6CFF1F0229000010B51E4C1C
:102DA0001C492046FFF750F91A4920460831FFF721
:102DB0004BF91848194A13211030FFF7C5FA044699
:102DC00014481030C1690220FDF77CFF144903202C
:102DD000FDF778FF0F481249C01E02780A73407849
:102DE000104A487350890881508B48810120FF3A6E
:102DF0008873163A13780B7552784A75094A403A27
:102E000053890B82528B4A8288750320FFF70AFF91
:102E1000204610BDF46CFF1FFFFF0000008B021165
:102E2000228CFF1F046EFF1F70B50C4C04981619FE
:102E30000B4A0124002E0FD000251B2E03D102299E
:102E400003D0032903D01D8004E0117800E09178BD
:102E500001701C80002070BD5178F9E7CED5FFFFCE
:102E6000EC6CFF1FF0B5584E89B0707006211F2022
:102E7000FFF704F8002468460471048101250573F6
:102E8000182101823021818204210183FF219131A7
:102E900081830222F11C4D48FDF778F90422711D4F
:102EA0001003FDF773F9F11C084606221530FDF7F3
:102EB000BFF801AA01214648FEF714FC444802AAC3
:102EC0000221401CFEF70EFC4148324633321921E4
:102ED000801CFEF707FC3246612014321F21C0001F
:102EE000FEF700FC312003AA01210001FEF7FAFBE6
:102EF000374804AA02210C30FEF7F4FB344805AA37
:102F000002210D30FEF7EEFB314806AA02210E30F9
:102F1000FEF7E8FBC52007AA02218000FEF7E2FBCE
:102F2000C02168460170032747706A4602210120CC
:102F3000FFF7B6FC32464C3215210020FFF7B0FCFB
:102F4000684601940572047307740575812001AA0F
:102F50000421C000FEF7A8F9012102AA8802FEF7A9
:102F6000A3F91B4803AA0121FD30FEF79DF918487B
:102F700004AA0121FE30FEF797F905AA01211548A0
:102F8000FEF792F9A02421460620FEF777FF21469E
:102F90000720FEF773FF21460820FEF76FFF21464A
:102FA0000920FEF76BFFFFF7F9FE31466431084652
:102FB0005838FFF731FEFDF7EFF801217078FDF783
:102FC00085F809B0F0BD0000486CFF1F0440000008
:102FD0000503000006040000F8B50C46080424D5DB
:102FE0001E4D6878FDF74EF806001BD03078B028EB
:102FF00015D0B22813D1A878401CC1B2A970F278BC
:10300000B3781002184340BAC82803D9012901D166
:10301000FEF78EFCA878C82801D9C820A8703046D1
:10302000FDF736F80120C00313E0E0070AD00125C0
:10303000684605706A4629460948FEF753FB204654
:103040006840F8BD600406D50020FDF7ABF801200C
:1030500080036040F8BD0020F8BD0000486CFF1FF1
:103060000503000030B50F4D00205519039C0E4A92
:1030700013D01B2D04D1022903D0032908D00A2024
:1030800030BD012B02D12178117030BD0D2030BD33
:10309000012BFBD12178917030BD012BF6D1217825
:1030A000517030BDCED5FFFFEC6CFF1F0B78037065
:1030B0000B8802221B0A43700B88801C012B02D054
:1030C000022B07D011E08A7802704988090A417002
:1030D00004220AE08A7802704A88120A42700A7949
:1030E00082708988090AC170062210467047000064
:1030F00008B5044B009313460A46012103F044FF30
:1031000008BD0000AD3002111CB5032301920093ED
:103110000A46024B122103F067FF1CBDA968021189
:1031200010B5FDF745F810BD13B504480078012827
:1031300003D101AA6946FDF741F81CBD1070FF1FBD
:1031400070B50F490F4A087000210B468C00491CCE
:10315000C9B213530429F9D30A4C00211034FF26B5
:103160000A460A256A4315196B80491CA354C9B243
:103170006E720329F4D3FDF727F803F0D9FE70BD72
:103180001170FF1F888CFF1F082A01D00120704793
:103190004B780A781B02D2180280CB788A781B02FF
:1031A000D21842804B790A791B02D21882808A7920
:1031B000C97909025118C1800020704770B50C46CA
:1031C000080411D509480078FCF75CFF050007D01A
:1031D0000178902901D103F00DFE2846FCF758FF35
:1031E0000120C003604070BD002070BD1170FF1F42
:1031F00070B500280AD1064C00252580A581A58040
:10320000A068002802D0FCF7E5FFA56070BD0000B3
:10321000048DFF1F072907D0052905D0042903D0F5
:10322000062901D002207047044A8B009A181346E1
:10323000403B1986203A907400207047888CFF1F0D
:1032400070B506001BD10E4C0025214640310D748F
:103250004D740D76606D002802D0FCF7BBFF6565EC
:103260005C20002546433419E800201840680028F7
:1032700001D0FCF7AFFF6D1CEDB20A2DF4D370BD89
:10328000148DFF1F70B50A880C460546072A07D023
:10329000052A05D0042A03D0062A01D0022070BDD9
:1032A000012103F0EBFF002804D02146284603F05B
:1032B00011FB70BD142070BD10B5001D80B2FCF76D
:1032C0008FFF002803D00321C943FCF78FFF10BDF7
:1032D00038B50C46050014D0002C12D003216846E6
:1032E00004F07EF96946887840218006800E084304
:1032F000694688702246284604F0E6FE050002D0A2
:1033000006E0022038BD03226946E01CFCF790FE6F
:10331000284638BDF7B58EB00E9815460E460028E3
:103320002DD0002D2BD0301DC0B20190FCF7DAFE5D
:10333000040039D001F076F807463246201D0E9978
:10334000FCF7ACFEF8B20890E0703804000E0B9069
:10335000A0703802000E0A9060703F0E277001F0D6
:103360005BF80146102202A8FCF798FE06AB214646
:1033700002A8019A04F0FEFD060003D010E002202E
:1033800011B0F0BD089828700B9868700A98A87062
:10339000EF70082206A9281DFCF780FE01F048F80E
:1033A0002046FCF7A5FE00E013263046E8E70000C3
:1033B00010B5064C2070FCF71FFF06212078FFF7A0
:1033C00029FF034803F02CFF10BD00002070FF1FF1
:1033D00035760211F8B50E461F4C0146B50060590E
:1033E0000027002807D02422125C022A05D0032AD5
:1033F00003D0042A01D01220F8BDC288B24201D005
:103400000220F8BD10220C30FCF712FE605910218A
:10341000353004F0E5F8615930460B460A4625334D
:1034200035320C3104F072FE605902210278002A14
:10343000427807D0032A0BD14170304604F09AF845
:10344000074605E0042A02D0032A03D000E04170B9
:103450003846F8BD0521EFE72C70FF1F70B50C460C
:10346000080419D50D480078FCF70CFE05000FD0B4
:1034700004F000FA002808D109480078FF2804D099
:103480002946FCF759FE002802D02846FCF700FE2A
:103490000120C003604070BD002070BD2070FF1F80
:1034A000E86FFF1F7CB50C4605001DD0002C1BD01B
:1034B0000322E11C6846FCF7BBFD69468878402181
:1034C0008006800E08436946887001AA284604F0E9
:1034D000FBFD002807D10322214601A8FCF7B4FD1B
:1034E000012803D001207CBD02207CBD00207CBDD2
:1034F00010B505480078400701D5044800E00020D9
:1035000004F06CFA002010BD5B6FFF1F1470FF1FEA
:10351000FFB581B00020274C9500009060591E46F1
:103520001746002802D0112005B0F0BD002E0BD0A8
:103530002120FEF7FDFA317E884205D82220FEF7D1
:10354000F7FA317E884201D20220EDE77820FCF7BD
:10355000C9FD605100282AD078220021FCF780FDA7
:10356000615900204870625901991170625902999D
:1035700091706259FF21D1706159CF8061598E607D
:10358000615908626159203108710198002803D0FF
:10359000384604F005F80090615901204870009801
:1035A000002802D0384603F0B7FF0098BCE713208C
:1035B000BAE700002C70FF1FFFB58DB00F98169C66
:1035C0000E46002815D0002C13D00D9803F0B2FD44
:1035D000050011D06178207809024018A178E278BE
:1035E0000904120689184718286AB84206D3401CF5
:1035F00004D0022011B0F0BD1420FBE7002E04D04F
:103600002879800701D40120F4E70822002106A8C8
:10361000FCF726FD1098001DC0B20190FCF762FD7A
:10362000060017D0301D109A0F99FCF737FD0422C1
:1036300021463046FCF732FD1022A91802A8FCF7FB
:103640002DFD06AB314602A8019A04F093FC05005B
:1036500002D013E01320CDE7082206A908A8FCF742
:103660001DFD0822211D08A8FCF7EEFC012801D051
:10367000012503E039460D9801F0CCFC3046FCF7FB
:1036800037FD2846B6E70000FFB583B00F46039824
:103690001B4940001646085AFFF70EFE04002AD0C8
:1036A0000125601C2670002F03D00699B847401CE6
:1036B00085B2300610D51021039803F0DFFD0028F5
:1036C00001D0192613E06219E9B22046FFF722FE65
:1036D00006000CD10C35ADB204216846018001947E
:1036E000058169460398FFF7CDFD060004D020460A
:1036F000FCF770FD00E01326304607B0F0BD000077
:10370000546FFF1F10B504460079BEB0C00716D035
:1037100060880C49FEF70AFEC00710D00948002255
:103720000830418D684601800121418005480838F4
:1037300001786846017160886946FEF7B9FF3EB0BE
:1037400010BD0000EC6BFF1F70B5049800241546F7
:10375000002801D00B2070BD486802784078000234
:1037600010180E4A80B290420AD10D495F200A78A3
:103770005F2A00D9087001201880087828700BE0B3
:10378000084A904207D1022018800246C96828469C
:10379000FCF74EFC00E00A24204670BD192A000008
:1037A000E46BFF1F082900007CB515464A68069C9B
:1037B000167852781202B218104E92B2F24209D123
:1037C00001220192DBB200942A46FEF755FC040068
:1037D00003D000E00A2420467CBD697828780902DD
:1037E0004018074980B249680029F4D0002802D067
:1037F00001208847EFE70220FBE70000FED6FFFF2D
:10380000E46BFF1F01680A0508D11031044A01600A
:1038100052781203914201D3891A01607047000067
:103820003C6AFF1F10B50C4603F098FC002804D03A
:1038300040882146FCF786FC10BD122010BD000018
:10384000F0B5504E504C9BB0716821607178217179
:10385000FF21A1711021002561712F460922FF214E
:10386000E01DFCF7FDFB4E22002106A8FCF7F8FB4B
:1038700032E0206829034018102202A900F040F924
:1038800002982168884218D16846007B21798842D5
:1038900013D16846407B617988420ED168467178C1
:1038A000807B491E884225DAA84201D1022700E028
:1038B000032706A94855A0710CE00298401C19D1B5
:1038C0006846007BFF2815D16846407BFF2811D150
:1038D00006A948556D1CEDB22179A942C9D8042F1B
:1038E00008D0A0790125FF2807D0012F05D000209E
:1038F00006AA24E020201BB0F0BD00270DE0A77130
:1039000021683803081810221F4900F00FF9002819
:1039100001D01F20EFE77F1CFFB22079401EB84284
:10392000EDDC002020742079401E6074102060823D
:10393000357025E0135C002B03D0401CC0B28142DF
:10394000F8D881421CD9401E0818FCF75BFC617452
:103950000020357002466946009000F017F80028F4
:1039600002D0212802D004E0009901E001210903DE
:103970006182C0B2212803D0002801D02A20BAE7F2
:103980000020B8E73C6AFF1F9086FF1FF7B50124AF
:103990008AB000200E46274605909CE056480179E3
:1039A000407CC019FCF768FBC8B2FF2C03D3FF3C76
:1039B000A4B2FF2C33D20A9A002A01D14E4A1174C4
:1039C0000003029005980125002803D000200590EF
:1039D000601C06E0012C05D92819811EFF2917DA81
:1039E000401E85B202982901081807904248042217
:1039F00001680798081804A900F082F80A980028BE
:103A00000ED0012829D002283CD006200DB0F0BDF0
:103A1000FF200230401B201A84B20120059058E09C
:103A200004988103890F04D0022902D003294CD1C4
:103A30000EE00103890F012901D0012445E0000DAA
:103A40000C21FCF719FB002900D0012144183CE0AF
:103A500007980005000D306047E0049881038A0F45
:103A600004D0022A05D0032A2FD142E0890F02296F
:103A7000DFD1328881B292B29142DAD10C990798A3
:103A8000086032E004988103890F04D00229D0D065
:103A900003291AD129E00103890F012903D03068D5
:103AA00001240C300BE0000D0C21FCF7E5FA002995
:103AB00000D0012144180C203168604308183060A0
:103AC0000C980C990068401C08606D1CADB2FF2D6D
:103AD00080D97F1CFFB209484078874200D25DE759
:103AE0000A98002803D0012803D000208EE7212067
:103AF0008CE725208AE700009086FF1F3C6AFF1FA5
:103B000010B5094C636898420BD364782403E3181A
:103B1000834206D9002904D0002A02D0FCF736FBE4
:103B200010BD222010BD00003C6AFF1F70B5154675
:103B30000E460446FCF76CFB800601D0292070BDC0
:103B400009494868844206D3497809030818A04205
:103B500001D9A00701D0222070BD2A463146204657
:103B6000FCF75CFB70BD00003C6AFF1F00220029CF
:103B700013D0002811D0012806D04A799206920E5F
:103B80004A71032805D007E04879C02210434871E4
:103B900002E0402002434A710122104670470000B3
:103BA00070B5124800250078052108421BD020205E
:103BB000FCF798FA0E4C0028A06013D020220021B8
:103BC000FCF74EFA2020FCF78DFAE060002804D0C4
:103BD00020220021FCF744FA05E0A068FCF788FAEF
:103BE0000020A0601325284670BD00005B6FFF1FFA
:103BF000CC6FFF1FF3B588880D4681005A485A4C98
:103C000040585A4F203C85B0002823D10598002801
:103C10007ED0002D7CD000F0E5F920740A281CD35A
:103C200000260E207043C0190622FF21FCF71EFA61
:103C3000002804D1761CF6B20A2EF2D30A26267486
:103C40000A2E07D1607B0A210646FCF715FA21747B
:103C5000761C6673207C0A2861D2A888424E8000B8
:103C6000305800285ED082680027002A0BD0207CC4
:103C7000062148432130C0B21C2103F01EFBA88856
:103C8000800030588760A888800030580269002A78
:103C90000BD0207C062148432230C0B21C2103F007
:103CA0000CFBA888800030580761A8888000305835
:103CB0004269002A0BD0207C062148432330C0B241
:103CC000102103F0FAFAA888800030584761A888CC
:103CD00080003058C268002A18D0207C0621484352
:103CE0002430C0B2102103F0E8FAA8880621800031
:103CF0003058C268207C103248432530C0B20421BD
:103D000003F0DBFAA88880003058C760A07B00E091
:103D100005E0002801D000F0A5FA00F0E7FA012044
:103D200007B0F0BD207C062148432030C0B20E21F0
:103D3000059A03F0C2FA1022FF216846FCF790F9B9
:103D4000207C6A467030C0B2102103F0B6FA207CA5
:103D50000E2148430A46C0190599FCF769F9A8885D
:103D6000800035500020DBE7906AFF1FDC86FF1FD4
:103D7000F0B589B017460E46044620220021684659
:103D8000FCF76EF968460480394C0225E178017130
:103D900022794271217B017706984108E07A490037
:103DA000C307DB0F1943069181070029069901DA41
:103DB000294300E0A943069101072E4B069901D53E
:103DC000194300E099430691C1062B4B069901D592
:103DD000194300E0994306918106284B069901D5C5
:103DE000194300E0994306914007042100280698F2
:103DF00001DA084300E088430690002A05D001A8B4
:103E000010221F490230FCF713F96179002904D010
:103E1000002E02D00698284306906846807D00292F
:103E200000D00121084369468875A178002900D097
:103E30000421084369468875A179002900D008212A
:103E4000084369468875E179002900D010210843AC
:103E500069468875217A002900D0202108436946E7
:103E6000887539466846FDF773FD09B0F0BD00005E
:103E7000706AFF1F00010000000200000004000043
:103E8000CC86FF1F70B50025094E2C460E206043DE
:103E900080190622FF21FCF7E9F8002801D16D1CEA
:103EA000EDB2641CE4B20A2CF0D3284670BD0000C9
:103EB000DC86FF1F7FB50C460621484306461546A3
:103EC0002036F0B26A460E2103F0ECF9002806D144
:103ED0000622FF216846FCF7C9F8002802D000201E
:103EE00004B070BD68468189002DC8B202D020435D
:103EF000C0B200E0A043814206D069468881F0B29A
:103F00006A460E2103F0D9F90120E9E710B5002433
:103F1000204600F007F8641CE4B20A2C01D2002805
:103F2000F6D010BD70B5054604460620444326462B
:103F300090B02036F0B207AA0E2103F0B3F90028A2
:103F400006D10622FF2107A8FCF790F8002802D02E
:103F5000002010B070BD0E22FF2107A8FCF780F8EA
:103F60001C22FF216846FCF77BF81022FF210BA8DA
:103F7000FCF776F8F0B207AA0E2103F09EF9064688
:103F800020462130C0B26A461C2103F096F9064350
:103F900020462230C0B26A461C2103F08EF9064347
:103FA00020462330C0B26A46102103F086F906434A
:103FB00020462430C0B26A46102103F07EF9064341
:103FC0002534E0B26A46042103F077F90146314313
:103FD0000C467035E8B20BAA102103F06EF92043AD
:103FE000B7E7000070B50A4D064600240E20604376
:103FF000401906223146FCF727F8002801D0204658
:1040000070BD641CE4B20A2CF0D30A2070BD00001D
:10401000DC86FF1F00229300CB5A834202D190001E
:1040200040187047521CD2B2042AF4D300207047C3
:104030007FB50C460A280CD2002C0AD00621484332
:104040002030C0B26A460E2103F02CF9050003D0DF
:1040500007E0022004B070BD062269462046FBF747
:10406000E7FF2846F6E700218A00835A491CDB4314
:10407000835212189378C9B2DB4393700429F3D3A7
:104080007047000070B5144E00240E206043821962
:1040900020460621484320301546C0B20E2103F0C9
:1040A00001F900280BD028460622FF21FBF7D8FF94
:1040B000A81D0622FF21FBF7D3FF0020A881641C66
:1040C000E4B20A2CE1D30548807B002801D000F03F
:1040D000C9F800F00BF970BDDC86FF1F706AFF1F86
:1040E00010B5034940880978FEF778F910BD000043
:1040F000706AFF1F10B50F494A79002A01D00123C9
:1041000000E000238A78002A00D004221A438B7929
:10411000002B00D008231343CA79002A00D01022B4
:10412000097A1A43002900D020211143FDF77EFEB1
:1041300010BD0000706AFF1F70B50E4604460621D0
:10414000484388B015462030C0B204AA0E2103F0BF
:10415000A9F8002843D10622FF2104A8FBF786FF17
:1041600000283CD17034E0B26A46102103F09AF87E
:10417000002831D16846FFF776FF002E06D0694649
:104180003046FFF747FF00280DD015E01022002130
:104190006846FBF76BFF00281ED1102200216846FD
:1041A000FBF75EFF10E0002D19D069460020FFF7F5
:1041B00031FF002813D006808178A9420CD0857089
:1041C000002D01D1002101806846FFF74CFFE0B2CD
:1041D0006A46102103F071F8012008B070BD00207C
:1041E000FBE7000070B51C4C0646606A1B4D86B0AC
:1041F000002809D12046143000900223184A29468D
:104200000120FEF77DF920E004A8022200210090A1
:104210000292019103ABA28A3046616AFDF774FFF6
:1042200000280CD16846017B407B0002081802047C
:10423000120C04D0606A41893046FDF7EBF8002388
:10424000A28A2946606AFEF78DF960620028DBD1F8
:10425000012006B070BD0000706AFF1FFFFF000064
:104260008C8B021170B5FBF7DFFF0A4E00240E2085
:104270006043801905460622FF21FBF7F7FE002860
:1042800002D12946FBF7D6FF641CE4B20A2CEED318
:1042900070BD0000DC86FF1F70B50B46044611465A
:1042A0001846FFF7A7FC00281DD00F4DA400285981
:1042B0008088FFF797FF002815D02E46203EF06932
:1042C000002807D04368002B04D02859002280889A
:1042D000012198472859002803D0FBF7D9FE002078
:1042E00028510A20307470BD906AFF1F08B5FFF78F
:1042F000C9FD012801D9022000E00A2069460870A2
:104300006A4601210520FEF7CBFA08BD002909D035
:10431000012807D1497989098901C02902D040299A
:1043200001D00220704703207047FFB500200E46E1
:1043300008701AE01C5C401CC5B2002C17D028196C
:10434000904214D85F5D6D1CEDB2384600F08BFED4
:10435000002806D0641EE0B2307000998F4202D16E
:10436000581904B0F0BD4019C0B29042E2D3002009
:10437000F7E7000010B5044C2068002803D0FBF7D5
:10438000B7FE0020206010BDB86FFF1F70B50E4D46
:1043900084002859002815D0006A002801D0FBF7B6
:1043A000A7FE2859406A002801D0FBF7A1FE285932
:1043B000806A002801D0FBF79BFE2859FBF798FE86
:1043C0000020285170BD0000C46FFF1F10B5044CC1
:1043D0006068002803D0FBF78BFE0020606010BDF2
:1043E000BC6FFF1F0100044805D1044989780029EA
:1043F00001D00248801D70477C8CFF1F5A6FFF1F41
:1044000001488078704700005A6FFF1F01484068DC
:10441000704700006C8CFF1F0148806870470000E7
:104420006C8CFF1F0148C068006870476C8CFF1FD0
:1044300010B50748C0680168491C0160054800784C
:10444000FF2803D001218903FBF740FE10BD0000C7
:104450006C8CFF1F5A6FFF1F02484068002800D075
:1044600001207047B46FFF1FFFB581B00F460D9E4E
:104470000A9D039802F05EFE040042D001980028D5
:104480003FD120791021084320710499490702D5B2
:104490000221084301E0FD21084020710B992846C4
:1044A00008430C9908433043207902D00421084383
:1044B00001E0FB2108402071002E06D03069102257
:1044C00020623146A018FBF7B3FD002D01D0002F6C
:1044D00005D00B98002814D0012F08D011E0606A95
:1044E000002801D0FBF704FE1C21284606E0606A84
:1044F000002801D0FBF7FCFD1C210B98FBF7FEFD0B
:1045000060620398224C8700E05900283ED0002DBD
:104510000FD0006A002806D11C20FBF7E3FDE1590B
:104520000028086205D0E0591C22006A2946FBF7E2
:104530007FFD0C98002810D0E059406A002806D171
:104540001620FBF7CFFDE1590028486205D0E0595D
:104550001622406A0C99FBF76BFD002E10D0E05933
:10456000806A002806D11420FBF7BCFDE159002821
:10457000886205D0E0591422806A3146FBF758FD65
:104580000B9B049A0399019802F0C6FE05B0F0BD9A
:10459000C46FFF1FF3B581B0019802F0CBFD050099
:1045A00029D00E20FBF7E6FD040024D02620FDF7DD
:1045B000BFFA060000D12E78D02020700027677047
:1045C0000B20A0700622E91DE01CFBF731FD0198CD
:1045D00060810298C1070120002901D0207300E00A
:1045E00027730299890701D5607300E06773F0B201
:1045F0002146FBF7A1FDFEBD10B581881F4B0124AC
:10460000CA1A994237D011DC1D4BCA1A994219D0E7
:1046100007DC1C4A8A1810D0022A1ED0032A29D18E
:104620001BE0472A27D0482A24D124E01300FBF7B7
:1046300011FD06212222222222218068007800F02A
:10464000D3FC08E08068827841781202891889B228
:10465000007800F029FD04460DE0094A921E9142BF
:1046600001D1012200E0002280680178104600F0AC
:1046700003FD00E00024204610BD00005320000090
:104680000A200000FADFFFFF70B51A4D1A4A0146F2
:10469000002628781268194C01290CD0002A09D06C
:1046A00017490978490705D50221FBF709FD6680FE
:1046B000FFF760FE70BD6188002903D0114B1B78A5
:1046C000002B05D0002AF5D01078FDF707FA70BD51
:1046D0003C2902D33C39618070BD0221FBF7F0FC1C
:1046E00062887D20C000424302212878FBF7E2FC6B
:1046F000668070BDE96FFF1FB86FFF1FCC6FFF1F93
:104700005B6FFF1F5D6FFF1F08B541890091038933
:10471000C2888188C07800F0B3FB08BDF0B50446BC
:104720008088A12189004843304987B00968401832
:10473000FF30FF300230A1794167002C54D02C4D5E
:104740006868002823D006782A480068002804D02A
:104750004168002901D0002088472146E0790831CE
:104760000591FFF7D3FDE0710246277D638A218A18
:10477000E089019002A88AC0A0880090E0783146C4
:10478000059B02F03FFEE078002802D00DE01A48B9
:10479000D9E7E079E2896B46059907C3A379A18837
:1047A0000122304602F074FCE0706868002811D0E5
:1047B000FFF70CFE287800280CD06978FFF732F854
:1047C000002807D0E078A2880346297802F047FE47
:1047D00000202870A0881721FCF74EFAA088FEF769
:1047E00007FDA088FEF72CFD07B0F0BD3409FF1FC0
:1047F000BC6FFF1FEC6FFF1F5A6FFF1F70B50446A1
:104800000026808802F096FC002803D00678A08855
:1048100002F018FD144D2878002808D0864206D1F1
:104820006978FEF7FFFF002809D000202870002ECD
:1048300005D0A379A288A078314602F010FEA088A6
:10484000094A810008325158002901D0FFF79EFD26
:10485000A0881721FCF710FAA088FEF7C9FCA088F1
:10486000FEF7EEFC70BD0000BC6FFF1F70B58288C4
:10487000294D0124531B2949AA4242D019DC284D55
:10488000531BAA4218D00BDC264BD21826D0254B3E
:104890001033D2181ED0032A17D0042A39D10BE0C6
:1048A000012B09D0022B07D0032B21D0042B30D1B0
:1048B0001AE0433B072B2CD8496800292AD0096805
:1048C000002927D08847044624E08068007800F05B
:1048D000ADF81FE0806800F001F9F4E78068411C42
:1048E000007800F0D9F8EEE783681B78002B11D030
:1048F000896800290ED00B6808E0014610469847E9
:10490000E1E709490968002904D04B68002BF4D17C
:1049100000E00024204670BD0E200000E86FFF1F5D
:1049200008200000F7EFFFFFC86FFF1F10B5094C0C
:10493000A17800290CD001460622A01DFBF778FBC8
:10494000A11DA078FFF712F9A01DFBF779FC10BD9F
:10495000002010BD5A6FFF1F1CB52F49037801249A
:104960000A68912B02D0A22B2ED13EE04178052976
:1049700009D00E2904D00F2908D03E2924D115E0F2
:10498000FFF774FF10E0FFF739FF3AE00146808837
:10499000224B0124C31801D0062B15D1002A30D098
:1049A0005268002A2DD0904704462AE081780124DD
:1049B000032917D004DC012911D0022904D105E014
:1049C00015291ED016291CD000241AE01449896824
:1049D000002916D04968002913D0884711E0FFF755
:1049E0009DFE0EE0FFF790FE0BE00E4909780429CA
:1049F00009D0002A05D05268002A02D001460A4890
:104A0000904720461CBD00216A46118001794088EC
:104A1000FEF76EFBF5E70000C86FFF1FF3DFFFFF37
:104A2000E86FFF1F5B6FFF1FFFFF0000F8B5164F19
:104A30000646BD1F2878FF2814D00A20FBF79AFBF2
:104A400004000FD0D020207066700820A070A878D5
:104A5000E07006223946201DFBF7EAFA2146287845
:104A6000FBF76AFBE87801280DD1084800680028A8
:104A700003D08068002800D080470648044A0421FB
:104A80000078FBF74DFBF8BD606FFF1FEC6FFF1F59
:104A900060EA0000E96FFF1F70B50024054600289A
:104AA00005D1002903D006220B48FBF7C1FA0A48BA
:104AB00010380178012907D10124002D06D00021EA
:104AC0000170284600F0B8F9204670BD022101703F
:104AD000FBF7BCFBF8E700007C8CFF1F10B500243F
:104AE000002813D002780B49002A03D14288CA82D9
:104AF00002790A760A78022A08D102780124002A6B
:104B000006D000220A70007800F096F9204610BD09
:104B10000322F7E76C8CFF1F0149486070470000D3
:104B2000E86FFF1FF8B57A4C877801460025072605
:104B30006079A2793B00FBF78DFA0805361A373702
:104B40005F9ACD36487800285CD1714806223C3007
:104B5000C91CFBF76DFA0120A0716D4B0146423371
:104B600062786079FDF710FA00284BD1A8E00F4673
:104B70004978002946D1F978002906D0654BA278FA
:104B80000021FDF701FA78700AE0022A0BD001211A
:104B9000FBF7A2FA002803D101216079FBF796FA0E
:104BA000787800282ED1F8BD497800292AD1032F22
:104BB00009D0A289002A0CD0217800290AD001212D
:104BC000FBF778FA06E0052A01D0022012E0062061
:104BD00010E02570A079062802D0042802D008E051
:104BE000052007E00120207001466079FBF76EFA8E
:104BF00066E00320A07163E048780F46002803D0E8
:104C0000312832D0A6715BE041480622391D36308A
:104C1000FBF70EFA7889E081B8892082F8896082F2
:104C20000520A071A28A002A03D002216079FBF737
:104C300041FAB889E083F8892084388A6084E07872
:104C400001280AD11F20FCF773FF7D21C9004843CA
:104C5000024604216079FBF72DFA7A89F87804235B
:104C6000391DFCF7B7F825702AE02570C1E7284800
:104C70000E46062200213630FBF7F2F9E583258443
:104C8000658404216079FBF71BFA08216079FBF742
:104C900017FAB079082808D00320A07120780028DE
:104CA00005D06079FCF71AFF07E00420F5E7012042
:104CB000207001466079FBF709FA0020C043E081CB
:104CC000606A002800D16EE701680029FBD0A07956
:104CD0008847F8BD0D460821FBF7F2F968782946A8
:104CE0000028F6D1E888E0832889208448896084F8
:104CF00004216079FBF7F0F90028EAD1A06A0028C6
:104D0000E7D00368628C218CE08B9847F8BD0000E7
:104D10001C6BFF1F8887FF1F10B501781C4C912961
:104D200006D0A2291BD0D02901D1FFF7FBFE10BD70
:104D300041780E29FBD18188164A9142F7D18168CA
:104D400003200856A1790529F1D17F28EFD0616AA7
:104D50000029ECD049680029E9D0884710BD417985
:104D60001329FBD10089012802D12079022808D01B
:104D70000520FCF7DDFE024608216079FBF79AF971
:104D800010BD08216079FBF79BF9FCF7D1FD10BD40
:104D90001C6BFF1F051400007CB5154C0546E08B0D
:104DA000E18A88420AD3218B884207D8208C618B04
:104DB000884203D1608CA18B884217D00520FCF774
:104DC000B7FE0646E18A68460180218B4180618BEF
:104DD0008180A18BC18062796946E089FEF794F9F0
:104DE0002571324608216079FBF764F97CBD00002B
:104DF0001C6BFF1FF8B507460E46084602F09AF9ED
:104E0000040018D02620FCF793FE050000D1257879
:104E10000620FBF7AFF904000DD006220021FBF7B6
:104E20001FF9D020207067700E20A070A680E8B215
:104E30002146FBF781F9F8BD70B50F4D064628787D
:104E4000FF2818D00E20FBF795F9040013D0D020CE
:104E5000207066700020A07006220849E01CFBF755
:104E6000E7F806481038C18A6181007E2073214628
:104E70002878FBF761F970BD5A6FFF1F7C8CFF1F0C
:104E8000FFB581B01E4617460D460C20FBF772F9A0
:104E9000040013D0284602F04DF9002810D0007805
:104EA000D0212170019961700721A170A580E78050
:104EB00026810A9961812146FBF73EF905B0F0BDD4
:104EC0000048ECE75A6FFF1F70B50D4D0446286887
:104ED0000E46002812D00620FBF74CF9010009D03D
:104EE000D02008704C70032088708E80286800786D
:104EF000FBF722F9002C01D0FFF73CFA70BD00004F
:104F0000B86FFF1FFFB581B01F460E46084602F07E
:104F100011F9050022D01020FBF72CF904001DD058
:104F200010220021FBF79CF82620FCF701FE002848
:104F300000D12878D0212170019961700F21A170D2
:104F4000A6800399217267720A99A1720B99E17286
:104F50000C99E160C0B22146FBF7EEF805B0F0BD58
:104F6000F0B51F4D85B02868002837D08778FCF74A
:104F70005BFE002805D00A20FCF7DAFD04900B2028
:104F80000EE001F05FFC002805D00620FCF7D0FD04
:104F90000490072004E00820FCF7CAFD04900920D3
:104FA000FCF7C6FD04460F480078002814D00126FF
:104FB0002968C878091DFEF7D9FD29686D46CA7AA7
:104FC0008B7A091D0BC5039233463A462146049855
:104FD000FBF742F905B0F0BD0026E9E70120F9E74B
:104FE000B86FFF1F5C6FFF1F10B5094909680029E2
:104FF0000CD0002805D101204870FBF785F8002867
:1050000002D00021FFF760FF012010BD002010BD7D
:10501000B86FFF1FF8B50C4602F08CF8020021D0E3
:1050200026201462FCF784FD05062D0E00D11578AC
:105030009679D01D00901020176AFBF79BF80400AA
:1050400010D0D0202070002060700920A070E67081
:105050000622201D0099FAF7EBFF21462846E7605B
:10506000FBF76AF8F8BD411E152903D9FF2801D0C6
:10507000002070470120704770B50A4E0546307811
:105080000C46FF280DD00420FBF774F8010008D06F
:10509000D02008704C7002208870CD703078FBF7FB
:1050A0004BF870BDCC6FFF1FF3B5284D81B0286859
:1050B00000284AD04078264E012803D030780028B6
:1050C00031D041E001F0BEFB224F002813D0012077
:1050D000FCF72EFD0446412808D91F4A02213878E2
:1050E000FBF71EF81D483C3C44800EE07D20C000CC
:1050F0002246424303E00020FCF71AFD0246002A44
:1051000003D002213878FAF7D5FF296802204870C9
:105110003078002802D00020307015E00299019804
:10512000FFF7D2FE10E00320019CFBF723F80100FB
:1051300008D0D02008704C7004208870286800784F
:10514000FAF7FAFFFFF716F90120FEBDB86FFF1F4F
:105150005D6FFF1FE96FFF1F60EA0000CC6FFF1F4C
:10516000074A00218B00D35A834202D1880080185D
:105170007047491CC9B20229F4D3002070470000CF
:10518000FC6FFF1F10B50C46FFF7EAFF00280DD09B
:10519000002C00D020608078FE2803D0FF2803D0A8
:1051A000162010BD172010BD002010BD022010BD1C
:1051B000FFB581B0FF201E46174605300A9DFAF75D
:1051C000D9FF04001BD0B020207067700298608067
:1051D0002671002D06D02046FC2229460830FAF719
:1051E00027FF05E02046FC2200210830FAF738FFAF
:1051F00021460198FAF7A0FF002005B0F0BD13206A
:10520000FBE700000548172202800988172901D210
:10521000042070470180002070470000566FFF1F78
:105220000020704708B50A460888498888420BD88C
:10523000002809D0002300931379521DFDF760F96F
:10524000002803D0002008BD012008BD0A2008BDA9
:10525000F3B50D4608884988002687B0814215D3EA
:10526000002813D0002769460F7100970023698832
:105270001A46FDF745F904004FD06846007900282A
:1052800007D069464979012925D008E0012009B0F5
:10529000F0BD217802291BD002216A4651711222E9
:1052A000504301AA61898018418068460079122321
:1052B000584380181022001D6168FAF7B9FE68464D
:1052C0000079401C0106090E684601711FD11AE0E1
:1052D00001216A465171217802291ED1820001A85C
:1052E0006189121851806A4612796168920010181B
:1052F0000222001DFAF79CFE6A461079401CC0B2DB
:105300001071052803D261890A48814200D1012623
:105310006089401C80B2002EA7D068460079002822
:1053200005D001A90798FBF71BFB0020AFE70A2077
:10533000ADE70000FFFF000038B50C46088849883B
:10534000884215D8002813D02379621D02210B480A
:10535000FBF78BFA00280DD000200090237961889C
:105360002088621DFDF7CCF8002805D0002038BD4C
:10537000012038BD102038BD0A2038BD808B0211B5
:1053800008B50A460888498888420BD8002809D001
:10539000002300931379521DFDF7B2F8002803D0C3
:1053A000002008BD012008BD0A2008BDF8B5002571
:1053B0000F4606460C46E03717E06800205A0021E9
:1053C000FDF778F8002809D0017A3046FDF734FA65
:1053D000002808D06900615A2180F8BD6800205A71
:1053E00020800120F8BD6D1CEDB2B87DA842E4D844
:1053F0000020F8BD10B5044608880021FDF75AF8D2
:10540000002804D0017A2046FDF716FA10BD0120CD
:1054100010BD000030B585B005466946FBF71EFBA0
:10542000040026D168468078C1071E4809D08268EA
:10543000002A04D0688869469047044619E006248B
:1054400017E04268002A05D0688869469047040042
:1054500001D10EE0062468464078002809D168464C
:10546000817801730021C1810474688803A9FBF766
:1054700037FAA868002801D0FAF7ACFE002C05D155
:1054800068468078122807D01B2803D0688801213D
:10549000FDF74AFE05B030BD684640780128F5D1D9
:1054A000F8E700000470FF1F70B505460C46088839
:1054B0000021FCF7FFFF002805D0017A224628468C
:1054C000FDF7CDF970BD012070BD000001494860B5
:1054D000704700000470FF1F10B50446801C00F0E8
:1054E0002CFDFF20E07010BD10B500F025F800285D
:1054F00000D0806810BD00229300CB5A834202D1B5
:10550000900040187047521CD2B2022AF4D30020F7
:1055100070470000074A0021CB00D35A834202D1D2
:10552000C80080187047491C0906090EF4D00020F5
:1055300070470000906BFF1F0649896805E08A8864
:10554000824201D18868704709680029F7D100209C
:1055500070470000806BFF1FF8B50746012906D091
:10556000022924D1012101F089FE00281FD13846EB
:10557000FFF7D0FF050015D000240D4E0CE0F820F9
:105580006968604308180188002908D0F8220021C2
:10559000FAF766FD641CE4B270788442EFD3002011
:1055A000C0432880024938461831FCF74DFDF8BD4C
:1055B000806BFF1FF3B5064683B0083001900020D2
:1055C00000907088FFF7A6FF07002FD0002523E08A
:1055D000F820796868430C182188002920D00198A8
:1055E000007801280FD160880090A3887088A21DE0
:1055F000FCF712FF0090002805D0019900200870E8
:10560000049821880180F82200212046FAF728FD1D
:1056100000206D1C2080EDB2074840788542D7D32A
:105620000020C04338800098002802D17088FBF722
:1056300081F9009805B0F0BD806BFF1FF3B50546FA
:10564000374C064685B00835F62200212046FAF789
:1056500007FD03A800902B79698828886A1DFCF74C
:105660004FFF074645E070882E4A4100515C2E4BA3
:10567000C91FC9B20093002202910192284B6946CA
:105680008A89F63B3946FCF73FFD002812D12648AF
:105690002989001F828891420CD121492846F63978
:1056A0000A30FAF7D1FC002804D0217878898900E3
:1056B0000919488068468289698804AB3846FCF736
:1056C00051FF07462078810009194A88002A10D026
:1056D000002F05D06A46128A401C20708A800AE09A
:1056E00002060021920DC9431219401C20709180BE
:1056F00006E0002F04D00D48217800888142B2D303
:105700002078002806D070882146FBF71BF900207E
:1057100007B0F0BD0698298801800A20F8E700004C
:10572000B689FF1F546FFF1F846BFF1F506FFF1F51
:10573000F0B585B0044600206946888120790E289E
:1057400069D00FDC082823D004DC022813D00628F7
:1057500018D118E025460835484F0A281DD00C28D6
:1057600010D138E010285BD012285ED0162861D006
:10577000182877D163E04348414900880880608851
:10578000FBF7B8F86EE003A92046FFF757FF5AE091
:1057900003A9204600F076F955E0288804A9FCF713
:1057A00089FE010015D06088354E4200BA5C0023A6
:1057B000521ED2B20193029200966A46B31C128A1C
:1057C000FCF7A2FC00281DD160883146FBF74AFA9D
:1057D00048E0012016E0288804A9FCF76BFE0100D0
:1057E000F7D060886B884200BA5C254E521ED2B258
:1057F0000193029200966A46B31C128AFCF784FC5D
:10580000002803D029886A4691811CE060883146CF
:10581000FBF7F8F926E003A9204600F0D3F912E0DF
:1058200003A9204600F082F80DE003A9204600F00D
:1058300039FA08E003A9204600F028F803E003A99C
:105840002046FFF7B7FE00280CD06178142909D054
:105850000B4922790A706A4692894A8008716088E9
:10586000FBF73EF82046FCF70DFE0748C16800290B
:1058700001D02046884705B0F0BD0000546FFF1FDF
:10588000B689FF1F4E6FFF1F806BFF1FF8B50446E0
:105890000F460546083400896946FCF70BFE0600F2
:1058A0003AD0307A80060ED568460088FFF71CFE95
:1058B000030006D06888122231469847060002D0BD
:1058C0002BE00E2629E06E883046FFF723FE01000C
:1058D00005D11448FFF71EFE01000ED00E80124ABB
:1058E0000020527807E0F8264B6846439B5B002B6C
:1058F00005D0401CC0B29042F5D309260DE049689E
:10590000F822504308182146FAF792FB00266888CF
:105910002146FBF76DF902E00126208838803046E9
:10592000F8BD0000FFFF0000806BFF1FF3B58BB0D8
:1059300000200B9E0746039004A800903246337B5C
:10594000718930894C4C0D320836FCF7D9FD05467B
:1059500078E00B98297A4088FCF76EFF070003D0A7
:105960000C98698901806FE00B9844494088444B4A
:105970004200895C0093891FC9B200220291019202
:105980003D4B69460A8AF63B2946FCF7BDFB0700FA
:10599000E6D10398002833D039486188001F8088F9
:1059A000021D914253D1039909180B984088420077
:1059B0003248805A801F814249DC0399A87A6118D5
:1059C000087103986989401C80B22218090A401C9A
:1059D000117180B203906846028A718807AB28462D
:1059E000FCF7C0FD050011D003986946898B20188B
:1059F000017103986946401C898B80B2090A0CE04A
:105A00001F48001F8088001D6080D6E70398FF2193
:105A1000201801710398401C80B222181171401C9B
:105A200080B217490390091F8A8813492018F63954
:105A3000001DFAF7FDFA12490398091F89884018DA
:105A400080B20390002D84D1039800280CD0618887
:105A50000398FAF711FB20700B9821464088FBF75A
:105A6000DBF800200DB0F0BD002F00D10A270C9804
:105A7000318801803846F5E7B689FF1F546FFF1F54
:105A8000846BFF1FF3B50746044608378BB04948BF
:105A90000490388800252E4605906AE007A80090FB
:105AA0003B7979887A1D0598FCF72AFD0890002833
:105AB00052D0408905900898017A6088FCF7BCFEB6
:105AC00006005DD160883C494200895C3B4B091F60
:105AD000C9B20093002202910192364B69468A8B2B
