:020000041100E9
:10A0000003B40148019001BDADAE000003B40148A6
:10A01000019001BD456B010003B40148019001BDF1
:10A020000189000003B40148019001BDC53F000053
:10A0300003B40148019001BDE94C010003B401489B
:10A04000019001BDC95C010003B40148019001BD4C
:10A05000CD4C010003B40148019001BD61890000AD
:10A0600003B40148019001BD154D010003B401483E
:10A07000019001BDF54E010003B40148019001BDFE
:10A08000434D010003B40148019001BD25260000A5
:10A0900003B40148019001BD8B52010003B4014893
:10A0A000019001BDB352010003B40148019001BD0C
:10A0B0000D52010003B40148019001BDC94A0100DD
:10A0C00003B40148019001BD691F000003B40148B9
:10A0D000019001BD5D17000003B40148019001BD6E
:10A0E0003D4B010003B40148019001BD59520100EC
:10A0F00003B40148019001BD5125000003B401489B
:10A10000019001BD014C010003B40148019001BD63
:10A11000594F010003B40148019001BD1D4B0100DE
:10A1200003B40148019001BD8D12000003B4014841
:10A13000019001BD4D1F000003B40148019001BD15
:10A140005522000003B40148019001BDDD52010019
:10A1500003B40148019001BD1D4D010003B4014845
:10A16000019001BD090E000003B40148019001BD3A
:10A17000810E000003B40148019001BD017F000081
:10A1800003B40148019001BDE117000003B4014888
:10A19000019001BD7918000003B40148019001BD90
:10A1A000D949010003B40148019001BD19280000FC
:10A1B00003B40148019001BDB927FF1F03B4014852
:10A1C000019001BDB117000003B40148019001BD29
:10A1D000E928000003B40148019001BD5549010080
:10A1E00003B40148019001BD4551010003B4014889
:10A1F000019001BDC926000003B40148019001BDD2
:10A20000F94C010003B40148019001BDC5210000D3
:10A2100003B40148019001BD291C000003B40148AA
:10A22000019001BD4D22FF1F03B40148019001BD03
:10A23000851F000003B40148019001BD11470100D2
:10A2400003B40148019001BDB30E000003B40148FE
:10A25000019001BD4135FF1F03B40148019001BDCC
:10A26000CB21FF1F03B40148019001BDA521FF1FB1
:10A2700003B40148019001BDA946010003B401489F
:10A28000019001BDE548000003B40148019001BD03
:10A290002951010003B40148019001BDD91B000000
:10A2A00003B40148019001BD5122FF1F03B40148CE
:10A2B000019001BD7922FF1F03B40148019001BD47
:10A2C00051470100F8B5D449D24A002004464A60FB
:10A2D0008300401CD450FF28FADD4868CF4A01466D
:10A2E00080318A606E22C262CD4A1278002A01D083
:10A2F0007F22C2620A220265CA4A13788363CA4B6C
:10A30000C36115781023022D08D01578012D05D0D2
:10A310001578032D02D01578042D00D10362C34DAA
:10A3200045611925AD0185613725CD603627282681
:10A33000C7630825466405644F6032270F603B27DA
:10A34000CF634127CF6439274031E0C132274F60C6
:10A3500002274F6142270831E0C11E274F60CE60BF
:10A360008D6005264E6142260E615A2660390E61C7
:10A370004D613C258D61AF25ED000560AC4D056359
:10A380001578022D09D01578012D08D01578032DE8
:10A3900007D01578042D06D007E0152504E04360AA
:10A3A00003E00E2500E00C254560FF252D35856076
:10A3B000C560FF25F53505619E4D85647D25ED0061
:10A3C0009D4ECD67C66445629C4D85627325C5650B
:10A3D000062545658565C51D0826F93502272E60C9
:10A3E00047664B27FF0087660927C766944F0767B4
:10A3F0004667BE108467C667924F8F4E3E601678E0
:10A40000022E09D01678012E0AD01678032E0BD012
:10A410001278042A0CD00EE01A22CA61212205E02B
:10A420001422CA61182201E01322CB610A6202E001
:10A430000E220B62CA617F4A8A627D22D2008A673D
:10A4400064224A620522CA6202220A63C8228C631D
:10A450004A63382169607C4929647C49A9614B21A0
:10A46000C900E96174497B4A643929627D21090187
:10A470006962EC661E212C67A9667149A965E965C8
:10A4800089102966696469677149EA67A967724931
:10A49000FF30813006C00160FF21F53141608160ED
:10A4A0006F486E495B4A81606E49803A11616C4920
:10A4B0006D4A80318A626D4ACA626D4A82616D4A14
:10A4C000C2626D4A026366486C4A403842636C4A15
:10A4D000C2636C4ACA616C49816361496B4840310F
:10A4E00088616C496A4888605D486B4A8038426080
:10A4F0006A4A42636A4A0A626A49816058496A48FC
:10A50000C039C860FFF77CFD0120FFF77FFDF8BD73
:10A51000F3B50746654881B0C169654A1140FF310E
:10A520000931C161002613E000252C461120FFF7F8
:10A5300073FD5E48406A8007800F610088402843B1
:10A54000641CE4B20546102CF0D301C7761CF6B2A9
:10A5500002988642E8D3FEBD10B52F4C60780028E3
:10A560000AD104215348FFF7D3FF52480421103089
:10A57000FFF7CEFF0120607010BDF0B500248BB056
:10A580000D460646102902D901200BB0F0BDFFF799
:10A59000E3FF484900200A5C401C1419C0B210288F
:10A5A000F9D3002C03D0102D03D90B20EDE70E209A
:10A5B000EBE741483F4C0023006802A91034E25CFD
:10A5C000C75C7A40CA545B1CDBB2102BF7D306AAD7
:10A5D0003848FFF727FD102D00D910252A4606A977
:10A5E0003046FFF725FDFFF729FD21684018206060
:10A5F000FFF724FD616840186060FFF71FFDA16848
:10A600004018A060FFF71AFDE1684018E0600020E4
:10A61000BBE700000004FF1F145CFF1F00FFFF1FCB
:10A62000B059FF1F4A0AFF1F3A07000080C3C90143
:10A630009A02000050C30000280A00006A180000B7
:10A64000204E0000F009FF1F0040001168100000BC
:10A65000DC05000040420F00102700002D3DFF1FC9
:10A660000001FF1F3926FF1FA54CFF1F914FFF1F41
:10A67000A122FF1F3524FF1FBD22FF1FE530FF1F52
:10A680003D30FF1FAD56FF1FD154FF1F2522FF1F76
:10A690002D2AFF1F0002FF1FA539FF1F813BFF1F4F
:10A6A000C53AFF1F6139FF1F5D2AFF1F40F00040C0
:10A6B00000FEFEFF5492FF1F345CFF1F0A780270F9
:10A6C0008A7842704A88120A82700979C17004201F
:10A6D00070470A7802700988090A417002207047A1
:10A6E00010B500220EE093005B189C7804705C8823
:10A6F000521C240A44701C7984709B88D2B21B0AB5
:10A70000C370001D0B789342EDD81806800D10BD64
:10A71000F8B50D4606464978012031700024761CB4
:10A7200016E06978012917D01221614349198A7806
:10A7300032704A88871C120A7270B61C102230468A
:10A74000091DFFF775FC1037B8B21036641CE4B26F
:10A750002978A142E5D8F8BDA10049198A7832705C
:10A760004A88871C120A7270B61C02223046091DE4
:10A77000FFF75EFCBF1CB8B2B61CE7E710B50C468D
:10A78000097801702188090A41706288211D801CA6
:10A79000FFF74EFC6088801C80B210BD10B50C46DF
:10A7A000097801702188090A4170A1788170618857
:10A7B000090AC170A288A11D001DFFF739FCA088FD
:10A7C000001D80B210BD10B50C460A88891CFFF729
:10A7D0002FFC208810BD10B50B788A780270534387
:10A7E000DCB22246401C091DFFF722FC601C10BD94
:10A7F00010B50B788A7802705343DCB22246401CB5
:10A80000091DFFF715FC601C10BD10B50C460A8829
:10A81000891CFFF70DFC208810BD10B50C460A8876
:10A82000891CFFF705FC208810BD7FB5154604463E
:10A83000022901D0102903D1022B04D0102B02D001
:10A84000002004B070BD994202D10A46294607E0B3
:10A850001029694607D000F00DF8102269462846F5
:10A86000FFF7F2FBEDE7104600F004F8102269460E
:10A870002046F5E770B50C4605000CD0002C0AD038
:10A88000102206492046FFF7D3FB2878207368780A
:10A890006073012070BD002070BD0000060A011128
:10A8A00010B50B460122024901F03EFD10BD00002B
:10A8B000BDA6001170B5064608880C46172812D3AD
:10A8C0000B4603220949304601F02EFD050008D150
:10A8D000074920880988884200D20146304600F0A6
:10A8E000B7F9284670BD022070BD0000D3A6001144
:10A8F000425CFF1F10B500231922194601F014FD18
:10A9000010BD000010B50A78002A05D00B460722BA
:10A91000024901F009FD10BD022010BDE1A60011A1
:10A9200010B54A78012A01D0022A08D10A78002AF3
:10A9300005D00B460522034901F0F6FC10BD0220AC
:10A9400010BD000011A7001101494000085A7047CE
:10A95000405CFF1F10B50B461B22024901F0E4FCCE
:10A9600010BD00007DA70011014917200880704725
:10A97000405CFF1F0098022B01D004207047117823
:10A980005278120289180180002070470098012B2C
:10A9900001D004207047117801700020704770B515
:10A9A000049C1E461546062B1BD36978287809029D
:10A9B00040182080E978A8780902401860800222B7
:10A9C0002271291D601DFFF733FBB61FB2B2228131
:10A9D000F02A06D82046A91D0A30FFF729FB0020DF
:10A9E00070BD042070BD0098042B01D00420704776
:10A9F000537811781B02C91801809178D27812021D
:10AA00008918418000207047F8B584890D460646B4
:10AA1000002C26D0B2681778380620D50C2C20D907
:10AA20000C3CA4B21019009001217088234601F05B
:10AA300013FC002811D0022028707806C00F68701F
:10AA4000B806800EA870641E2004000CA88001D0F7
:10AA5000B068401CA8600020F8BD0120ECE7002091
:10AA6000EAE70120F8BD10B502981146042B14D373
:10AA70004C780A78240212190280CC788A78240251
:10AA8000121942801B1F9AB28280F22A05D8801DBB
:10AA9000091DFFF7CDFA002010BD042010BD00985D
:10AAA000042B01D004207047537811781B02C91879
:10AAB00001809178D2781202891841800020704775
:10AAC00010B502981146062B03D0142B03D0042096
:10AAD00010BD022200E0102202714B780A781B029E
:10AAE000D2180280CB788A781B02D2184280027971
:10AAF000401D091DFFF79CFA002010BD30B5039CD6
:10AB0000D80718D1D805010E022914D30B48808824
:10AB1000814210D8F6200155002008E055781378BE
:10AB20002D025B194500401C6353C0B2921C884241
:10AB3000F4D3002030BD042030BD00003A5CFF1F7C
:10AB40000098022B01D0042070471178527812022D
:10AB5000891801800020704770B514460246049899
:10AB6000022B18D3667825783602AD190580054684
:10AB7000E0352A766976002A0BD0E8219B1E9AB22E
:10AB800042808A4207D8A11C001DFFF751FA00201D
:10AB900070BDF421F2E7042070BD000010B50B4633
:10ABA0001722024901F0C0FB10BD00009DA7001153
:10ABB00010B50B460D22024901F0B6FB10BD000096
:10ABC000C7A7001110B50A78002A05D00B4611223C
:10ABD000024901F0A9FB10BD022010BDD7A700114A
:10ABE00010B50A78002A05D00B460922024901F067
:10ABF0009BFB10BD022010BDF1A7001110B50B4644
:10AC00000F22024901F090FB10BD00000BA80011BB
:10AC100010B50B460B22024901F086FB10BD000067
:10AC20001BA80011F72800D9F720084A0146108018
:10AC3000401EC3179B0F18188003000C5080491E3C
:10AC4000C80F4018C003000C908070473A5CFF1F8B
:10AC5000044A1288914203D8024A4000921D1152C0
:10AC6000704700003A5CFF1F10B5002313221946FD
:10AC700001F05AFB10BD000070B50C4601460320E0
:10AC800000020A1A002534481300FFF7E3F91D10EB
:10AC900012151C1F2326282C303234383A3C3E40F3
:10ACA000424446484A4E50525A5456585A00C07967
:10ACB00011E01022294902E02849102210312046D3
:10ACC000FFF7B6F945E0C06A206042E0224906225B
:10ACD0003C31F4E7007820703BE0808936E01E4983
:10ACE00042784231EBE71D4982781F39E7E7007A65
:10ACF000F1E7407AEFE7184906223031DFE7807A42
:10AD0000E9E7C07AE7E7C08920E0808A1EE0C078E2
:10AD10001CE0C08A1AE0008B18E0408B16E0808BA4
:10AD200014E00D4906223631C9E7C08B0EE0008CD5
:10AD30000CE0408C0AE08079CDE7008A06E0408A8A
:10AD400004E0272904D2084600F052FA208000E0EF
:10AD50000225284670BD00009C5AFF1F4D8DFF1F25
:10AD600070B50E4C00256071A571691EE18100F07F
:10AD70006FFB0420E071102200210948FFF770F9F1
:10AD80000748102200211030FFF76AF9E5622572AA
:10AD900065720720A072E57270BD00009C5AFF1F0B
:10ADA0004D8DFF1FFEB53B4D0C4608040CD5687950
:10ADB000FFF75CF9050004D002F04AF82846FFF7D7
:10ADC0005BF90120C00360E0600403D5012080032B
:10ADD0004840FEBD2F48E1070126807900292AD08E
:10ADE0002978002920D0052821D0297A68460170C9
:10ADF000697A4170274906223031801CFFF718F923
:10AE0000A97A68460172E97A41726946687900F068
:10AE10000BFA002808D00720A871696A002903D01E
:10AE20000968002900D0884720467040FEBD0320F5
:10AE300069460870E4E7A1070DD5052809D1E8891E
:10AE4000FFF720F9AA8A002A03D002216879FFF7C8
:10AE50001FF9022019E0600704D5002002F038F83D
:10AE6000042012E0200712D52879012802D00228F8
:10AE70000AD107E00096AB8B6A8B298BE88A00F039
:10AE80000BF801E000F05AF908206040FEBD0020F8
:10AE9000FEBD00009C5AFF1FF8B5134C069EA57915
:10AEA000052D01D01420F8BD104F851FBD4219D2C9
:10AEB000062917D3BD1DA94214D2FF27F537BA4280
:10AEC00010D20A2B0ED3AB420CD2E08221836283D4
:10AED000A383304601F0FCFF04216079FFF7DEF820
:10AEE0000020F8BD1820F8BD9C5AFF1F7A0C000006
:10AEF000F7B50D4680490098164642187F4F00244A
:10AF00007879B9791300FFF7A5F8190E141BE92019
:10AF100040455970777E888FE996A2A9B4BFC8E9E9
:10AF2000E9E9E9D3E900102D76D1102231467448C1
:10AF30006FE0102D70D1724810223146103068E059
:10AF4000042D69D13068F862CEE0012D64D13B78E0
:10AF500032783A70002B0AD0002A07D1022903D098
:10AF6000062901D0042901D100F018F9BCE0002A1B
:10AF70000AD0012905D0032903D0052901D00429CD
:10AF800002D10121FFF790F8AEE0022D44D13088C4
:10AF9000B881A9E01F2D3FD858481F220021423018
:10AFA000FFF75EF855482A4631464230FFF740F831
:10AFB000524B7D7042332A46012112E01F2D7CD86E
:10AFC0004F481F2200211F38FFF74AF84C482A46F5
:10AFD00031461F38FFF72CF8494B2A461F3BBD70FE
:10AFE0000021787900F0AAFA83E0012D65D130784C
:10AFF000042862D8387277E0012D5ED130780328BA
:10B000005BD8787270E0062D57D13C480622314655
:10B010003030FFF70DF867E04FE0012D4DD130786B
:10B0200007284AD8B8725FE0012D46D1307803284E
:10B0300043D8F87258E0022D3FD13288BA82002AF4
:10B0400052D0052950D10221FFF722F84CE0012D02
:10B0500033D13078012830D8F87045E03088022D9F
:10B060002BD1062829D31921C901884225D8F88275
:10B070003AE03088022D20D106281ED31921C901BB
:10B0800088421AD838832FE03088022D15D1FF214D
:10B09000F531884211D2788326E03088022D0CD118
:10B0A0000A280AD31921C901884206D8B8831BE0AF
:10B0B0003178012D01D1012901D0182414E0082193
:10B0C000FEF7F8FF002801D016240DE0002001F063
:10B0D000FFFE04217879FEF7E1FF05E000982728BC
:10B0E00001D2022D02D002242046FEBD318800F09C
:10B0F000D5F90446F8E70000FFFCFFFF9C5AFF1F4C
:10B100004D8DFF1F1CB50B4CA179002901D01120DA
:10B110001CBD002800D06062064907482C31034658
:10B1200001910090103B0022E179607900F016F85F
:10B1300000201CBD9C5AFF1F5D8DFF1F10B50648E7
:10B140008179052901D0122010BDC18913224079CF
:10B1500000F0B4F910BD00009C5AFF1FF8B51D4661
:10B160000224069F079E0B00FEF774FF0D150815BD
:10B1700015081515151515151508150000F0B8F862
:10B18000040008D132463946284600F067F900F03D
:10B19000CBF801F051F82046F8BD000070B5104C16
:10B1A0002168002904D00978814203D0032070BDB2
:10B1B000122070BD0B4D02212878FEF76FFF0A4860
:10B1C0000026468004212878FEF768FF074806809D
:10B1D0002168032048700020FEF772FF70BD000058
:10B1E0000C5DFF1FCD5CFF1FB05CFF1F4A5CFF1FA3
:10B1F000272803D202494000085A70470148704787
:10B20000525CFF1FFFFF000010B5064C607003F09A
:10B21000ABFF6078FEF75AFF0521607800F0C6FEAC
:10B2200010BD0000CC5CFF1F70B5284E054630688D
:10B230000C46002801D0112070BD2548017805205A
:10B24000014216D023488068002805D000780028E5
:10B2500002D0C80706D101E0102070BD00F044F80C
:10B26000002808D02078032805D0022803D0002821
:10B2700001D0122070BD0C20FEF72EFF3060002898
:10B2800020D00570002141700A222146801CFEF763
:10B29000CFFE01F001FF040002D001F007F912E037
:10B2A0000D48007803280ED11D20FFF7A1FF0B49A0
:10B2B0000028088007D00B48094A04210078FEF7CF
:10B2C00011FF00E01324204670BD00000C5DFF1F3D
:10B2D000475CFF1FB05CFF1F485CFF1F4A5CFF1FFD
:10B2E00060EA0000CD5CFF1F10B503F05BFF10BDEE
:10B2F00070B50C4605461C2200210948FEF7B0FE39
:10B30000084805704470FEF7F3FE0549002803D095
:10B3100000200870122070BD01220A7070BD00006C
:10B320008492FF1F465CFF1F70B50F4C0025A0687C
:10B33000002802D0FEF7E2FEA560E068002802D0F7
:10B34000FEF7DCFEE560094805210078084206D0DA
:10B350000548103001F07CFC01F04AF870BD002077
:10B3600001F076FC002070BDB05CFF1F475CFF1F42
:10B37000FEB5344D0C46080419D56878FEF776FE04
:10B380000121C9034C40064600280ED001F080FB85
:10B39000002807D12878FF2804D03146FEF7B4FEF4
:10B3A000002802D03046FEF767FE2046FEBDE007CB
:10B3B000012700280AD0A868002804D04168002985
:10B3C00001D00020884720467840FEBDA00709D55F
:10B3D0006868002804D04168002901D0012088470E
:10B3E00002202AE060072AD5174E308800281FD097
:10B3F000401E0004000C30801ED101F0C9F8002866
:10B4000009D0124807706868002804D041680029F4
:10B4100001D00120884701F095F8694600F066FEEA
:10B42000684601F01FFB1D20FFF7E2FE308003E0BD
:10B4300004216878FEF732FE04206040FEBD002043
:10B44000FEBD0000CC5CFF1F4A5CFF1F495CFF1F74
:10B450000149087070470000CC5CFF1F70B50E4CAE
:10B460000B46261D07C60546102200211846FEF78A
:10B4700051FE012803D11021A06804F05DF81022CC
:10B4800000212846FEF746FE012803D110216068FE
:10B4900004F052F870BD00008492FF1F272807D2E5
:10B4A000044A914204D0044A4000115200207047DF
:10B4B00002207047FFFF0000525CFF1FF8B50D46E9
:10B4C00017461D4906461B4A1224C868954208D1F2
:10B4D00000282DD00268002A2AD0294630469047FD
:10B4E00023E0144A521C954213D1002807D0026869
:10B4F000002A04D0294630469047040005D039463A
:10B50000304600F04FFF040012D10B480670477020
:10B510000EE0284603F0F8FD002809D00078B0427C
:10B5200005D139462846FEF7FBFD044600E003241A
:10B530002046F8BDFEFF0000A05CFF1FF8B50E46D8
:10B54000014619481546007805221F46104028D0AC
:10B55000304326D01548012E1BD0C468002C20D0C3
:10B560001F2D18D8002D01D0002F14D001701F22DC
:10B570000021601CFEF774FD2A463946601CFEF768
:10B5800057FD28462570002E07D0611CFEF7CEFD22
:10B59000F8BD8468E2E70220F8BD611CFEF7CCFD2F
:10B5A000F8BD1220F8BD0000475CFF1FB05CFF1F14
:10B5B000014610B50020C90704D0034A04210348FE
:10B5C00000F0A6F910BD00005C090111D459FF1F5D
:10B5D00070B50F4D0F4CA87029461831204600F069
:10B5E0001DF8002128460B461030CA00845212185C
:10B5F000491C09065360090EF7D0012002F032FC05
:10B60000A87800F023FB044803F0DEFD70BD0000C5
:10B61000B459FF1FFFFF000091D6001170B50A4C0E
:10B620000025A04209D1002082008C525218401CF3
:10B63000C0B295700228F7D370BD01F0F8FF002862
:10B64000FAD00480857070BDFFFF0000F8B50E468B
:10B650000746069900240798002902D00B242046AB
:10B66000F8BD022B01D00D24F9E7117852781202AF
:10B6700089188DB22946814301D08024EFE73846EE
:10B68000F16800F03DF9A842E9D02A463846F16851
:10B6900000F0A8F90400E2D171892A46384600F08A
:10B6A00065F9DCE770B50C46080412D50A488078C5
:10B6B000FEF7DCFC050008D02878B02802D1284627
:10B6C00002F0D2F82846FEF7D7FC0120C003604004
:10B6D00070BD002070BD0000B459FF1FFFB587B0DA
:10B6E000087A0025109E1C460F46C0060DD5099805
:10B6F00001F096FF030006D00A22394607989847C2
:10B70000050035D101E00E2532E0387802281DD140
:10B71000786829220178407812020002081880B265
:10B72000811A90427ED009DC7249401A23D0012848
:10B7300021D0022851D0032808D125E0012972D058
:10B74000022971D003296DD004296ED0099801F027
:10B750008FFF0028D7D00568002DD4D012991198FA
:10B76000019100903346224639460798A84705467E
:10B7700028460BB0F0BD1198002873D1F868017805
:10B7800031800278416897E0119800286AD1012041
:10B790003080F8680021007820707889401C80B2E1
:10B7A00000F04EF900280FD0318802788918891CE2
:10B7B0003180817A61704189090AA17002784168FB
:10B7C000E01CFEF735FCD3E730880422001D3080F2
:10B7D0000021601CFEF744FCCAE71198002872D1D2
:10B7E000F86804A900880090042030800098207038
:10B7F0000098000A6070009800F022F9070028D035
:10B80000F86805906846028A03AB3B49384600F069
:10B810006FF900280FD13B78022138487A68FFF78A
:10B8200004F803E027E031E01DE049E0002802D100
:10B83000401E694688810598007802280CD1059839
:10B8400002224168201DFEF7F3FB3088801C308007
:10B8500002E069460098888168468089A070000AE5
:10B86000E07085E72FE0119800282CD1F96807983F
:10B8700000F046F804E01198002824D1F868008808
:10B88000022131802070000A607071E7F868FEF7CD
:10B8900059FC1199C0B2814210D8814201D10022D5
:10B8A00006E0129A8918814202D31199401AC2B255
:10B8B0003280F96811980918204682E7072557E772
:10B8C0001198002801D00B2552E70721F868318034
:10B8D00001782170417861708178A1704188090AEE
:10B8E000E1700179217181796171C088000AA071CC
:10B8F0003EE7000000280000FFFF00007E0A011163
:10B9000010B501F094FE002800D0807810BD000032
:10B910007CB51446050019D068460195018000F0F9
:10B920009BF903001DD1002C1BD06D89002D0DD07B
:10B930000C20FEF7D1FB00280AD00023036085808D
:10B94000094A84609168002904D006E0022308E0D7
:10B95000132306E0906004E011460A68002AFBD138
:10B96000086018467CBD0000B459FF1FF8B50C4CA8
:10B970000746207815460E46FF280FD00A20FEF70E
:10B98000E7FB01000AD0B120087000204870087160
:10B990004F80CE800D812078FEF7B6FBF8BD000009
:10B9A000B459FF1FFFB583B008461F4601A90C9E7E
:10B9B00000F046F8050012D06846808801F058FE75
:10B9C00000280AD04468002C07D000963B46294640
:10B9D000059A0398A04707B0F0BD0E20FBE70120B1
:10B9E000F9E7000070B514460E46054601F01FFE4B
:10B9F000002806D13146054801F019FE002803D081
:10BA000005808470002070BD112070BDFFFF000014
:10BA100010B50178B0290BD14178002908D10179FE
:10BA2000122906D01B2903D14088012100F048FAD1
:10BA300010BDFF210231095C0129F5D010BD0000C5
:10BA4000F0B58C4610494B6819E09F687C89A0428C
:10BA500014D39E883119814210D900220CE01101C3
:10BA60007D186989814205D16046002800D0048094
:10BA70002846F0BD521C92B29642F0D81B68002BAB
:10BA8000E3D10020F0BD0000D85CFF1FFFB51748D0
:10BA900081B00A9F446824E000251EE0A0682901C7
:10BAA000461870890199884215D30299884212D8A4
:10BAB0000498002807D031787068049B039AFEF739
:10BAC000B4FE002807D0002F02D0A068408938803B
:10BAD000304605B0F0BD6D1CADB2A088A842DDD8DF
:10BAE0002468002CD8D10020F3E70000D85CFF1FA9
:10BAF000FEB5174600256A469580044640891D4AD2
:10BB00001E46904208D001AA0092401C237880B2C1
:10BB10006268FFF7BBFF054623780221164862687A
:10BB2000FEF783FE002807D12378022113486268BC
:10BB3000FEF77BFE002801D060890EE02378022109
:10BB40000F486268FEF771FE00280DD0002D03D06B
:10BB500068468088B84203D0384602F081FA04E093
:10BB60006889401E80B200E06089002E00D03080DD
:10BB70002846FEBDFFFF00007C0A01117E0A01116C
:10BB8000820A011110B505490870042100F00EFA6F
:10BB900000F006F8FEF7E8FE10BD0000E85CFF1FAD
:10BBA00070B50E4C00200C4B651CFF228100C9189B
:10BBB00000280ED00D80401CCA70C0B28A700228C6
:10BBC000F4D3074801F01EFD064803F0FDFA0020FB
:10BBD00070BD0C80EFE70000E05CFF1FFEFF00007F
:10BBE00091DF001111DF0011F8B50D46144606462D
:10BBF000694601F063FB17280CD0002C06D0012207
:10BC00001021304603F05AFA002803D12946304665
:10BC1000FEF7A0FEF8BD000070B50C46080411D573
:10BC200009480078FEF722FA050007D00178A0291C
:10BC300001D101F08BFC2846FEF71EFA0120C0035B
:10BC4000604070BD002070BDE85CFF1F01490870B6
:10BC500070470000D85CFF1F70B5054600880028BB
:10BC60001DD068680221037842682248FEF7DDFD96
:10BC7000002808D168680221037842681E48FEF750
:10BC8000D4FD00280BD01D4C6088002805D001226F
:10BC900029881204101A814203D9012070BD0220A4
:10BCA00070BD0C20FEF718FA060001D000200AE053
:10BCB000132070BD02016B6861880A329952491CD9
:10BCC000401C618080B229888142F3D80020306016
:10BCD00008222946301DFEF7ABF96068002802D122
:10BCE000666004E0084601680029FBD10660002078
:10BCF00070BD00007C0A01117E0A0111D85CFF1F93
:10BD00000649496806E08A685289824201D18888DA
:10BD1000704709680029F6D100207047D85CFF1FE2
:10BD200010B50C460321FEF719FA214600F090F9F0
:10BD300010BD10B51422114201D0012202E04A06C2
:10BD400004D50022102103F0B9F910BDC80701D0B5
:10BD5000002010BD022010BD10B514468A0604D57F
:10BD60000122102103F0AAF910BD882211420ED041
:10BD700008220A40102103F0A1F900280BD0E0347A
:10BD8000617E0029F0D0217E0129EDD103E08807F2
:10BD900001D4032010BD002010BD0000014610B5E5
:10BDA0000020C90704D0034A07210348FFF7B0FD6C
:10BDB00010BD000070090111285AFF1F70B50D4613
:10BDC000164600241D490300FEF744F90805123405
:10BDD000341934222934152D23D81622002118486D
:10BDE000FEF73EF92A4631461548FEF721F922E0D2
:10BDF000022D16D111491088103908801BE0082D3A
:10BE00000FD10E48082231460838FEF7ADF912E08E
:10BE1000012D06D1CA6909493078283107E0012D82
:10BE200001D0182407E0CA6B04493078483102F089
:10BE3000DEF900E00224204670BD0000285AFF1FF2
:10BE4000188DFF1F0B7803700B8802221B0A4370AA
:10BE50000B88801C012B02D0022B07D011E08A78BE
:10BE600002704988090A417004220AE08A78027047
:10BE70004A88120A42700A7982708988090AC17058
:10BE8000062210467047000008B5044B0093134685
:10BE90000A46012103F062F808BD000045BE00110A
:10BEA0001CB50323019200930A46024B122103F0B2
:10BEB00085F81CBD7DE8001110B5FEF75BF910BDDB
:10BEC00013B504480078012803D101AA6946FEF79A
:10BED00057F91CBDF45CFF1F70B50F490F4A08707D
:10BEE00000210B468C00491CC9B213530429F9D315
:10BEF0000A4C00211034FF260A460A256A43151908
:10BF00006B80491CA354C9B26E720329F4D3FEF7A7
:10BF10003DF902F0F7FF70BDF55CFF1FA092FF1F17
:10BF2000082A01D0012070474B780A781B02D218EA
:10BF30000280CB788A781B02D21842804B790A792A
:10BF40001B02D21882808A79C97909025118C180EE
:10BF50000020704770B50C46080411D509480078D8
:10BF6000FEF784F8050007D00178902901D102F08E
:10BF70002BFF2846FEF780F80120C003604070BD0B
:10BF8000002070BDF55CFF1F70B500280AD1064C7B
:10BF900000252580A581A580A068002802D0FEF795
:10BFA000FBF8A56070BD00001C93FF1F072907D098
:10BFB000052905D0042903D0062901D002207047A5
:10BFC000044A8B009A181346403B1986203A907415
:10BFD00000207047A092FF1F70B506001BD10E4CC9
:10BFE0000025214640310D744D740D76606D00289A
:10BFF00002D0FEF7D1F865655C2000254643341970
:10C00000E80020184068002801D0FEF7C5F86D1C34
:10C01000EDB20A2DF4D370BD2C93FF1F70B50A88C2
:10C020000C460546072A07D0052A05D0042A03D066
:10C03000062A01D0022070BD012103F0F3F8002888
:10C0400004D02146284602F02FFC70BD142070BD9C
:10C050001CB504460D480129017003D00020FEF7ED
:10C06000A1F81CBD69460020FEF7A2F86846818849
:10C070002046FEF773F804460120FEF793F80023EC
:10C08000224619461846FEF799F81CBDF45CFF1FBE
:10C0900010B5001D80B2FEF797F8002803D00321E9
:10C0A000C943FEF797F810BD8307FF22DB0E9A40C5
:10C0B0008907090E994000280BDA0007000F08389D
:10C0C000830808489B001818C36993430B43C36156
:10C0D0007047830804489B001B1818689043084366
:10C0E0001860704700ED00E000E400E038B50C4651
:10C0F000050014D0002C12D00321684603F01CFA6E
:10C100006946887840218006800E08436946887019
:10C110002246284603F048FF050002D006E0022030
:10C1200038BD03226946E01CFDF782FF284638BD72
:10C13000F7B58EB00E9815460E4600282DD0002D6E
:10C140002BD0301DC0B20190FDF7C6FF040039D0DE
:10C1500000F004FA07463246201D0E99FEF740F81B
:10C16000F8B20890E0703804000E0B90A07038020E
:10C17000000E0A9060703F0E277000F0E9F901464A
:10C18000102202A8FEF72CF806AB214602A8019A5D
:10C1900003F060FE060003D010E0022011B0F0BDF5
:10C1A000089828700B9868700A98A870EF70082299
:10C1B00006A9281DFEF714F800F0D6F92046FDF771
:10C1C0009DFF00E013263046E8E7000010B5064C5E
:10C1D0002070FEF70BF806212078FFF7E7FE0348F2
:10C1E00002F0F2FF10BD0000045DFF1F8DF500118D
:10C1F00070B50C46080419D50D480078FDF736FFD8
:10C2000005000FD003F0E2FA002808D109480078B1
:10C21000FF2804D02946FDF777FF002802D02846E2
:10C22000FDF72AFF0120C003604070BD002070BDF3
:10C23000045DFF1FCC5CFF1F10B505480078400768
:10C2400001D5044800E0002003F048FB002010BDA9
:10C25000475CFF1FF85CFF1FFFB58DB00F98169C61
:10C260000E46002815D0002C13D00D9802F04CFF7C
:10C27000050011D06178207809024018A178E27891
:10C280000904120689184718286AB84206D3401CC8
:10C2900004D0022011B0F0BD1420FBE7002E04D022
:10C2A0002879800701D40120F4E70822002106A89C
:10C2B000FDF7D6FE1098001DC0B20190FDF70CFFEF
:10C2C000060017D0301D109A0F99FDF789FF042240
:10C2D00021463046FDF784FF1022A91802A8FDF779
:10C2E0007FFF06AB314602A8019A03F0B3FD0500BB
:10C2F00002D013E01320CDE7082206A908A8FDF715
:10C300006FFF0822211D08A8FDF79EFE012801D01D
:10C31000012503E039460D9800F018FF3046FDF77F
:10C32000EDFE2846B6E70000FFB583B00F46039840
:10C330001B4940001646085AFFF7AAFE04002AD0FF
:10C340000125601C2670002F03D00699B847401CB9
:10C3500085B2300610D51021039802F063FF002843
:10C3600001D0192613E06219E9B22046FFF7E0FE7A
:10C3700006000CD10C35ADB2042168460180019451
:10C38000058169460398FFF749FE060004D0204660
:10C39000FDF702FF00E01326304607B0F0BD0000B5
:10C3A000405CFF1F10B50C4602F0C2FE002804D00E
:10C3B00040882146FDF7B4FE10BD122010BD0022BA
:10C3C000002913D0002811D0012806D04A799206FE
:10C3D000920E4A71032805D007E04879C022104325
:10C3E000487102E0402002434A7101221046704722
:10C3F00070B5124800250078052108421BD0202086
:10C40000FDF76AFE0E4C0028A06013D02022002108
:10C41000FDF726FE2020FDF75FFEE060002804D037
:10C4200020220021FDF71CFE05E0A068FDF766FE56
:10C430000020A0601325284670BD0000475CFF1F48
:10C44000B05CFF1F002909D0012807D1497989096B
:10C450008901C02902D0402901D002207047032061
:10C460007047FFB500200E4608701AE01C5C401CA7
:10C47000C5B2002C17D02819904214D85F5D6D1CEE
:10C48000EDB2384600F08BFE002806D0641EE0B204
:10C49000307000998F4202D1581904B0F0BD401994
:10C4A000C0B29042E2D30020F7E7000010B5044C80
:10C4B0002068002803D0FDF721FE0020206010BD79
:10C4C0000C5DFF1F70B50E4D84002859002815D053
:10C4D000006A002801D0FDF711FE2859406A0028A3
:10C4E00001D0FDF70BFE2859806A002801D0FDF726
:10C4F00005FE2859FDF702FE0020285170BD0000FE
:10C50000A85CFF1F10B5044C6068002803D0FDF73D
:10C51000F5FD0020606010BDA05CFF1F0100044815
:10C5200005D104498978002901D00248801D70474F
:10C530009492FF1F465CFF1F0148807870470000FF
:10C54000465CFF1F01484068704700008492FF1F4F
:10C5500001488068704700008492FF1F0148C0684E
:10C56000006870478492FF1F10B50748C0680168D3
:10C57000491C016005480078FF2803D00121890388
:10C58000FDF792FD10BD00008492FF1F465CFF1F67
:10C5900002484068002800D001207047085DFF1F56
:10C5A000FFB581B00F460D9E0A9D039802F0ACFDC9
:10C5B000040042D0019800283FD12079102108437F
:10C5C00020710499490702D50221084301E0FD21A9
:10C5D000084020710B99284608430C9908433043C2
:10C5E000207902D00421084301E0FB21084020719A
:10C5F000002E06D03069102220623146A018FDF7C7
:10C6000017FD002D01D0002F05D00B98002814D065
:10C61000012F08D011E0606A002801D0FDF76EFDFF
:10C620001C21284606E0606A002801D0FDF766FD5F
:10C630001C210B98FDF7E0FD60620398224C8700F7
:10C64000E05900283ED0002D0FD0006A002806D106
:10C650001C20FDF741FDE1590028086205D0E05992
:10C660001C22006A2946FDF7E3FC0C98002810D034
:10C67000E059406A002806D11620FDF72DFDE1594A
:10C680000028486205D0E0591622406A0C99FDF74F
:10C69000CFFC002E10D0E059806A002806D114206B
:10C6A000FDF71AFDE1590028886205D0E0591422EF
:10C6B000806A3146FDF7BCFC0B9B049A03990198F4
:10C6C00002F0D6FD05B0F0BDA85CFF1FF3B581B048
:10C6D000019802F019FD050029D00E20FDF738FD64
:10C6E000040024D02620FEF783FD060000D12E781A
:10C6F000D0202070002767700B20A0700622E91D53
:10C70000E01CFDF795FC019860810298C1070120AB
:10C71000002901D0207300E027730299890701D511
:10C72000607300E06773F0B22146FDF7EDFCFEBDDB
:10C7300010B581881F4B0124CA1A994237D011DCE9
:10C740001D4BCA1A994219D007DC1C4A8A1810D00E
:10C75000022A1ED0032A29D11BE0472A27D0482AC3
:10C7600024D124E01300FDF775FC062122222222A9
:10C7700022218068007800F0D3FC08E0806882788D
:10C7800041781202891889B2007800F029FD044628
:10C790000DE0094A921E914201D1012200E00022DF
:10C7A00080680178104600F003FD00E00024204678
:10C7B00010BD0000532000000A200000FADFFFFF38
:10C7C00070B51A4D1A4A0146002628781268194C8D
:10C7D00001290CD0002A09D017490978490705D545
:10C7E0000221FDF75BFC6680FFF760FE70BD61888B
:10C7F000002903D0114B1B78002B05D0002AF5D05F
:10C800001078FEF7CBFC70BD3C2902D33C39618027
:10C8100070BD0221FDF742FC62887D20C0004243CA
:10C8200002212878FDF734FC668070BDCD5CFF1FC7
:10C830000C5DFF1FB05CFF1F475CFF1F495CFF1FC3
:10C8400008B5418900910389C2888188C07800F0C9
:10C85000B3FB08BDF0B504468088A1218900484398
:10C86000304987B009684018FF30FF300230A179A5
:10C870004167002C54D02C4D6868002823D00678DE
:10C880002A480068002804D04168002901D000200F
:10C8900088472146E07908310591FFF7D3FDE07123
:10C8A0000246277D638A218AE089019002A88AC016
:10C8B000A0880090E0783146059B02F04FFDE078BB
:10C8C000002802D00DE01A48D9E7E079E2896B46EA
:10C8D000059907C3A379A1880122304602F0C2FB63
:10C8E000E0706868002811D0FFF70CFE2878002857
:10C8F0000CD06978FFF756FD002807D0E078A288B1
:10C900000346297802F057FD00202870A0881721DF
:10C91000FEF79EF9A088FFF737FBA088FFF75CFBC6
:10C9200007B0F0BD3409FF1FA05CFF1FD05CFF1FE4
:10C93000465CFF1F70B504460026808802F0E4FBC9
:10C94000002803D00678A08802F050FC144D287807
:10C95000002808D0864206D16978FFF723FD002819
:10C9600009D000202870002E05D0A379A288A078D5
:10C97000314602F020FDA088094A81000832515852
:10C98000002901D0FFF79EFDA0881721FEF760F96E
:10C99000A088FFF7F9FAA088FFF71EFB70BD000022
:10C9A000A05CFF1F70B58288294D0124531B2949C3
:10C9B000AA4242D019DC284D531BAA4218D00BDCE6
:10C9C000264BD21826D0254B1033D2181ED0032A5E
:10C9D00017D0042A39D10BE0012B09D0022B07D044
:10C9E000032B21D0042B30D11AE0433B072B2CD84A
:10C9F000496800292AD00968002927D088470446B9
:10CA000024E08068007800F0ADF81FE0806800F056
:10CA100001F9F4E78068411C007800F0D9F8EEE7EE
:10CA200083681B78002B11D0896800290ED00B6811
:10CA300008E0014610469847E1E7094909680029DE
:10CA400004D04B68002BF4D100E00024204670BDD8
:10CA50000E200000CC5CFF1F08200000F7EFFFFF56
:10CA6000AC5CFF1F10B5094CA17800290CD0014621
:10CA70000622A01DFDF7DCFAA11DA078FFF79FFCA0
:10CA8000A01DFDF7BFFB10BD002010BD465CFF1FC1
:10CA90001CB52F49037801240A68912B02D0A22BE0
:10CAA0002ED13EE04178052909D00E2904D00F2966
:10CAB00008D03E2924D115E0FFF774FF10E0FFF7FE
:10CAC00039FF3AE001468088224B0124C31801D087
:10CAD000062B15D1002A30D05268002A2DD090475D
:10CAE00004462AE081780124032917D004DC0129B7
:10CAF00011D0022904D105E015291ED016291CD019
:10CB000000241AE014498968002916D049680029D0
:10CB100013D0884711E0FFF79DFE0EE0FFF790FE6F
:10CB20000BE00E490978042909D0002A05D0526883
:10CB3000002A02D001460A48904720461CBD002129
:10CB40006A46118001794088FFF79EF9F5E70000F9
:10CB5000AC5CFF1FF3DFFFFFCC5CFF1F475CFF1FD8
:10CB6000FFFF0000F8B5164F0646BD1F2878FF28C6
:10CB700014D00A20FDF7ECFA04000FD0D02020706A
:10CB800066700820A070A878E07006223946201D43
:10CB9000FDF74EFA21462878FDF7B6FAE878012825
:10CBA0000DD108480068002803D08068002800D014
:10CBB00080470648044A04210078FDF793FAF8BD3F
:10CBC0004C5CFF1FD05CFF1F60EA0000CD5CFF1FC4
:10CBD00070B500240546002805D1002903D006229F
:10CBE0000B48FDF725FA0A4810380178012907D1CA
:10CBF0000124002D06D000210170284600F0B8F96C
:10CC0000204670BD02210170FDF702FBF8E700002D
:10CC10009492FF1F10B50024002813D002780B490E
:10CC2000002A03D14288CA8202790A760A78022A47
:10CC300008D102780124002A06D000220A70007868
:10CC400000F096F9204610BD0322F7E78492FF1FFB
:10CC50000149486070470000CC5CFF1FF8B57A4C72
:10CC600087780146002507266079A2793B00FDF709
:10CC7000F1F90805361A37375F9ACD36487800281B
:10CC80005CD1714806223C30C91CFDF7D1F9012066
:10CC9000A0716D4B0146423362786079FEF74EFC1D
:10CCA00000284BD1A8E00F464978002946D1F978F1
:10CCB000002906D0654BA2780021FEF73FFC787072
:10CCC0000AE0022A0BD00121FDF7F4F9002803D174
:10CCD00001216079FDF7E8F9787800282ED1F8BDB8
:10CCE000497800292AD1032F09D0A289002A0CD023
:10CCF000217800290AD00121FDF7CAF906E0052AAA
:10CD000001D0022012E0062010E02570A07906284C
:10CD100002D0042802D008E0052007E0012020709E
:10CD200001466079FDF7C0F966E00320A07163E079
:10CD300048780F46002803D0312832D0A6715BE036
:10CD400041480622391D3630FDF772F97889E081B5
:10CD5000B8892082F88960820520A071A28A002A01
:10CD600003D002216079FDF793F9B889E083F8894F
:10CD70002084388A6084E07801280AD11F20FEF7D9
:10CD800037FA7D21C9004843024604216079FDF746
:10CD90007FF97A89F8780423391DFDF73FFA257069
:10CDA0002AE02570C1E728480E46062200213630C9
:10CDB000FDF756F9E5832584658404216079FDF744
:10CDC0006DF908216079FDF769F9B079082808D074
:10CDD0000320A0712078002805D06079FEF7DEF9E5
:10CDE00007E00420F5E70120207001466079FDF797
:10CDF0005BF90020C043E081606A002800D16EE743
:10CE000001680029FBD0A0798847F8BD0D460821AC
:10CE1000FDF744F9687829460028F6D1E888E083D0
:10CE2000288920844889608404216079FDF742F9CB
:10CE30000028EAD1A06A0028E7D00368628C218C20
:10CE4000E08B9847F8BD00009C5AFF1F2E8DFF1FF6
:10CE500010B501781C4C912906D0A2291BD0D029ED
:10CE600001D1FFF7FBFE10BD41780E29FBD181886F
:10CE7000164A9142F7D1816803200856A179052905
:10CE8000F1D17F28EFD0616A0029ECD049680029F0
:10CE9000E9D0884710BD41791329FBD100890128C9
:10CEA00002D12079022808D00520FEF7A1F9024618
:10CEB00008216079FDF7ECF810BD08216079FDF7D5
:10CEC000EDF8FEF73BF910BD9C5AFF1F051400005A
:10CED0007CB5154C0546E08BE18A88420AD3218B4C
:10CEE000884207D8208C618B884203D1608CA18B4B
:10CEF000884217D00520FEF77BF90646E18A68468E
:10CF00000180218B4180618B8180A18BC1806279FE
:10CF10006946E089FEF7C4FF257132460821607931
:10CF2000FDF7B6F87CBD00009C5AFF1FF8B5074618
:10CF30000E46084602F0E8F8040018D02620FEF756
:10CF400057F9050000D125780620FDF701F9040006
:10CF50000DD006220021FDF783F8D02020706770E5
:10CF60000E20A070A680E8B22146FDF7CDF8F8BDEE
:10CF700070B50F4D06462878FF2818D00E20FDF713
:10CF8000E7F8040013D0D020207066700020A07055
:10CF900006220849E01CFDF74BF806481038C18A04
:10CFA0006181007E207321462878FDF7ADF870BDC1
:10CFB000465CFF1F9492FF1FFFB581B01E461746C7
:10CFC0000D460C20FDF7C4F8040013D0284602F0EB
:10CFD0009BF8002810D00078D02121700199617051
:10CFE0000721A170A580E78026810A9961812146E9
:10CFF000FDF78AF805B0F0BD0048ECE7465CFF1F7E
:10D0000070B50D4D044628680E46002812D0062043
:10D01000FDF79EF8010009D0D02008704C70032065
:10D0200088708E8028680078FDF76EF8002C01D09B
:10D03000FFF73CFA70BD00000C5DFF1FFFB581B02B
:10D040001F460E46084602F05FF8050022D0102069
:10D05000FDF77EF804001DD010220021FDF700F836
:10D060002620FEF7C5F8002800D12878D0212170AD
:10D07000019961700F21A170A680039921726772D6
:10D080000A99A1720B99E1720C99E160C0B2214634
:10D09000FDF73AF805B0F0BDF0B51F4D85B0286832
:10D0A000002837D08778FEF71FF9002805D00A201E
:10D0B000FEF79EF804900B200EE001F0ADFB002877
:10D0C00005D00620FEF794F80490072004E008201D
:10D0D000FEF78EF804900920FEF78AF804460F4800
:10D0E0000078002814D001262968C878091DFFF7A8
:10D0F00066F929686D46CA7A8B7A091D0BC50392B9
:10D1000033463A4621460498FDF78EF805B0F0BD47
:10D110000026E9E70120F9E70C5DFF1F485CFF1FCF
:10D1200010B50949096800290CD0002805D1012053
:10D130004870FCF7C5FF002802D00021FFF760FF10
:10D14000012010BD002010BD0C5DFF1FF8B50C467E
:10D1500001F0DAFF020021D026201462FEF748F821
:10D1600005062D0E00D115789679D01D009010205F
:10D17000176AFCF7EDFF040010D0D02020700020CB
:10D1800060700920A070E6700622201D0099FCF74F
:10D190004FFF21462846E760FCF7B6FFF8BD411E69
:10D1A000152903D9FF2801D00020704701207047BE
:10D1B00070B50A4E054630780C46FF280DD0042085
:10D1C000FCF7C6FF010008D0D02008704C70022088
:10D1D0008870CD703078FCF797FF70BDB05CFF1F92
:10D1E000F3B5284D81B0286800284AD04078264EF3
:10D1F000012803D03078002831D041E001F00CFB49
:10D20000224F002813D00120FDF7F2FF04464128E9
:10D2100008D91F4A02213878FCF764FF1D483C3CBE
:10D2200044800EE07D20C0002246424303E00020FF
:10D23000FDF7DEFF0246002A03D002213878FCF712
:10D2400027FF2968022048703078002802D000208B
:10D25000307015E002990198FFF7D2FE10E003202C
:10D26000019CFCF775FF010008D0D02008704C70BD
:10D270000420887028680078FCF746FFFFF716F94D
:10D280000120FEBD0C5DFF1F495CFF1FCD5CFF1F31
:10D2900060EA0000B05CFF1F074A00218B00D35AF0
:10D2A000834202D1880080187047491CC9B2022904
:10D2B000F4D3002070470000E05CFF1F10B50C465F
:10D2C000FFF7EAFF00280DD0002C00D02060807806
:10D2D000FE2803D0FF2803D0162010BD172010BD54
:10D2E000002010BD022010BDFFB581B0FF201E46FA
:10D2F000174605300A9DFCF72BFF04001BD0B02019
:10D3000020706770029860802671002D06D020463C
:10D31000FC2229460830FCF78BFE05E02046FC2263
:10D3200000210830FCF79CFE21460198FCF7ECFE3A
:10D33000002005B0F0BD1320FBE7000005481722D0
:10D3400002800988172901D204207047018000203B
:10D3500070470000425CFF1F0020704708B50A4676
:10D360000888498888420BD8002809D000230093F8
:10D370001379521DFEF78AFB002803D0002008BD58
:10D38000012008BD0A2008BDF3B50D46088849886C
:10D39000002687B0814215D3002813D000276946A4
:10D3A0000F710097002369881A46FEF76FFB04008F
:10D3B0004FD068460079002807D06946497901298D
:10D3C00025D008E0012009B0F0BD217802291BD04A
:10D3D00002216A4651711222504301AA61898018C4
:10D3E0004180684600791223584380181022001D9E
:10D3F0006168FCF71DFE68460079401C0106090EB5
:10D40000684601711FD11AE001216A4651712178E5
:10D4100002291ED1820001A86189121851806A4632
:10D4200012796168920010180222001DFCF700FEBC
:10D430006A461079401CC0B21071052803D2618978
:10D440000A48814200D101266089401C80B2002E2A
:10D45000A7D068460079002805D001A90798FDF7F4
:10D460005FFA0020AFE70A20ADE70000FFFF0000F1
:10D4700038B50C4608884988884215D8002813D04A
:10D480002379621D02210B48FDF7CFF900280DD04A
:10D4900000200090237961882088621DFEF7F6FA4B
:10D4A000002805D0002038BD012038BD102038BD2F
:10D4B0000A2038BD7C0A011108B50A460888498847
:10D4C00088420BD8002809D0002300931379521DFD
:10D4D000FEF7DCFA002803D0002008BD012008BDBB
:10D4E0000A2008BDF8B500250F4606460C46E03771
:10D4F00017E06800205A0021FEF7A2FA002809D0A0
:10D50000017A3046FEF715FC002808D06900615A00
:10D510002180F8BD6800205A20800120F8BD6D1CD4
:10D52000EDB2B87DA842E4D80020F8BD10B504469D
:10D5300008880021FEF784FA002804D0017A2046EA
:10D54000FEF7F7FB10BD012010BD000030B585B01F
:10D5500005466946FDF758FA040026D168468078EA
:10D56000C1071E4809D08268002A04D0688869462D
:10D570009047044619E0062417E04268002A05D0C7
:10D58000688869469047040001D10EE00624684689
:10D590004078002809D16846817801730021C18153
:10D5A0000474688803A9FDF77BF9A868002801D0F6
:10D5B000FCF7F2FD002C05D168468078122807D0D0
:10D5C0001B2803D068880121FEF77AFC05B030BD26
:10D5D000684640780128F5D1F8E70000E85CFF1FB5
:10D5E00070B505460C4608880021FEF729FA002888
:10D5F00005D0017A22462846FEF7AEFB70BD012019
:10D6000070BD00000149486070470000E85CFF1FE2
:10D6100010B50446801C00F02FFDFF20E07010BD07
:10D6200010B500F025F8002800D0806810BD002259
:10D630009300CB5A834202D1900040187047521C8D
:10D64000D2B2022AF4D3002070470000074A00211A
:10D65000CB00D35A834202D1C80080187047491CBE
:10D660000906090EF4D0002070470000C459FF1FBE
:10D670000649896805E08A88824201D18868704736
:10D6800009680029F7D1002070470000B459FF1F36
:10D69000F8B50746012906D0022924D1012101F05D
:10D6A000C1FD00281FD13846FFF7D0FF050015D077
:10D6B00000240D4E0CE0F8206968604308180188CA
:10D6C000002908D0F8220021FCF7CAFC641CE4B24F
:10D6D00070788442EFD30020C04328800249384646
:10D6E0001831FDF79BFFF8BDB459FF1FF3B506468F
:10D6F00083B008300190002000907088FFF7A6FFEB
:10D7000007002FD0002523E0F820796868430C1823
:10D710002188002920D00198007801280FD1608845
:10D720000090A3887088A21DFEF73CF900900028A5
:10D7300005D0019900200870049821880180F82202
:10D7400000212046FCF78CFC00206D1C2080EDB2EF
:10D75000074840788542D7D30020C04338800098DE
:10D76000002802D17088FDF7C5F8009805B0F0BD1B
:10D77000B459FF1FF3B50546374C064685B008354A
:10D78000F62200212046FCF76BFC03A800902B79C1
:10D79000698828886A1DFEF779F9074645E0708890
:10D7A0002E4A4100515C2E4BC91FC9B20093002282
:10D7B00002910192284B69468A89F63B3946FDF76A
:10D7C0008DFF002812D126482989001F82889142A6
:10D7D0000CD121492846F6390A30FCF735FC0028DF
:10D7E00004D021787889890009194880684682899F
:10D7F000698804AB3846FEF77BF90746207881003C
:10D8000009194A88002A10D0002F05D06A46128ACA
:10D81000401C20708A800AE002060021920DC94354
:10D820001219401C2070918006E0002F04D00D4892
:10D83000217800888142B2D32078002806D07088F1
:10D840002146FDF75FF8002007B0F0BD0698298853
:10D8500001800A20F8E700001E8CFF1F405CFF1FBC
:10D86000B859FF1F3C5CFF1FF0B585B0044600208F
:10D870006946888120790E2869D00FDC082823D0DA
:10D8800004DC022813D0062818D118E025460835F4
:10D89000484F0A281DD00C2810D138E010285BD042
:10D8A00012285ED0162861D0182877D163E043484B
:10D8B0004149008808806088FCF7FCFF6EE003A9FE
:10D8C0002046FFF757FF5AE003A9204600F076F9FB
:10D8D00055E0288804A9FEF7B3F8010015D0608848
:10D8E000354E4200BA5C0023521ED2B2019302921E
:10D8F00000966A46B31C128AFDF7F0FE00281DD17F
:10D9000060883146FDF784F948E0012016E0288858
:10D9100004A9FEF795F80100F7D060886B884200F3
:10D92000BA5C254E521ED2B20193029200966A460C
:10D93000B31C128AFDF7D2FE002803D029886A465C
:10D9400091811CE060883146FDF732F926E003A999
:10D95000204600F0D3F912E003A9204600F082F837
:10D960000DE003A9204600F039FA08E003A920469B
:10D9700000F028F803E003A92046FFF7B7FE0028CF
:10D980000CD06178142909D00B4922790A706A46B3
:10D9900092894A8008716088FCF782FF2046FEF772
:10D9A00037F80748C168002901D02046884705B0EC
:10D9B000F0BD0000405CFF1F1E8CFF1F3A5CFF1F84
:10D9C000B459FF1FF8B504460F46054608340089D0
:10D9D0006946FEF735F806003AD0307A80060ED553
:10D9E00068460088FFF71CFE030006D068881222F4
:10D9F00031469847060002D02BE00E2629E06E88BB
:10DA00003046FFF723FE010005D11448FFF71EFE44
:10DA100001000ED00E80124A0020527807E0F8264E
:10DA20004B6846439B5B002B05D0401CC0B2904224
:10DA3000F5D309260DE04968F8225043081821461D
:10DA4000FCF7F6FA002668882146FDF7A7F802E001
:10DA50000126208838803046F8BD0000FFFF000016
:10DA6000B459FF1FF3B58BB000200B9E07460390FF
:10DA700004A800903246337B718930894C4C0D32BA
:10DA80000836FEF703F8054678E00B98297A4088B7
:10DA9000FEF74FF9070003D00C98698901806FE009
:10DAA0000B9844494088444B4200895C0093891F8D
:10DAB000C9B20022029101923D4B69460A8AF63BA7
:10DAC0002946FDF70BFE0700E6D10398002833D066
:10DAD00039486188001F8088021D914253D1039903
:10DAE00009180B98408842003248805A801F8142B2
:10DAF00049DC0399A87A6118087103986989401C68
:10DB000080B22218090A401C117180B20390684645
:10DB1000028A718807AB2846FDF7EAFF050011D09D
:10DB200003986946898B2018017103986946401C47
:10DB3000898B80B2090A0CE01F48001F8088001DF5
:10DB40006080D6E70398FF21201801710398401CDC
:10DB500080B222181171401C80B217490390091F2E
:10DB60008A8813492018F639001DFCF761FA12491A
:10DB70000398091F8988401880B20390002D84D132
:10DB8000039800280CD061880398FCF7E7FA20700E
:10DB90000B9821464088FDF715F800200DB0F0BD28
:10DBA000002F00D10A270C98318801803846F5E70C
:10DBB0001E8CFF1F405CFF1FB859FF1FF3B50746BF
:10DBC000044608378BB049480490388800252E4613
:10DBD00005906AE007A800903B7979887A1D05983E
:10DBE000FDF754FF0890002852D04089059008980E
:10DBF000017A6088FEF79DF806005DD160883C4997
:10DC00004200895C3B4B091FC9B20093002202917C
:10DC10000192364B69468A8BF63B0899FDF75EFD0B
:10DC2000060049D1002D36D0049841883148001FA4
:10DC30008088801C814241D12E4B1B1F9888291857
:10DC4000608842002A48805A001F814220DC0898E0
:10DC5000817A04984019017108996D1C4989E8B2CC
:10DC60000A0A049909180A71401CC5B21946049899
:10DC70008A881E494019F639001DFCF7D9F91D485C
:10DC80001D49001F00792818C5B20598884209D19E
:10DC9000002D13D123E017480499001F8088801CB1
:10DCA0004880C9E7401C80B2059060884100104858
:10DCB000405A001FA8428DDA002D0ED004984188EA
:10DCC0002846FCF74BFA01460498017060880499D5
:10DCD000FCF786FF00200DB0F0BD002E00D10A2613
:10DCE0000C99059808803046F5E700001E8CFF1F50
:10DCF000405CFF1FB859FF1FFFFF0000F3B5064649
:10DD00000446002085B0324D009008362880074632
:10DD10003046E030049048E07800305A03A9FDF71F
:10DD20008FFE01001AD060882B4B844642002948A0
:10DD3000805C0093401EC0B2002202900192244BEE
:10DD400068468289F63B6046FDF7C8FC00900028D3
:10DD500007D07800315A0698018035E00120009004
:10DD6000F7E71D492888091F8988421861884B00F8
:10DD70001849C95A4B1E9A4204DD081A1649091F50
:10DD8000401E88802988A81C08181349091F8A8802
:10DD90000F49F639FCF74CF90F482988001F808895
:10DDA000081828807F1C0498FFB2807DB84207D9EC
:10DDB0006088298842000748805A401E8142ABDBB8
:10DDC00060882946FCF71AFF009807B0F0BD0000F4
:10DDD0001E8CFF1F405CFF1FB859FF1FF3B505469F
:10DDE00083B004460835008901A9FDF729FE2746BE
:10DDF000E8370646002822D0307A80060ED56846DD
:10DE00008088FFF70DFC030006D06088122231469F
:10DE10009847060002D013E00E2611E00020009083
:10DE20006B88298860882A1DFDF7BCFD060007D194
:10DE3000787E002807D16088FCF716FF03E00126F2
:10DE4000049829880180787E002802D0002005B03F
:10DE5000F0BD3046FBE700000149C8600020704774
:10DE6000B459FF1FF8B504460246F820424319484A
:10DE700000250746457010377868002807D0002035
:10DE8000C100C919401C00064D60000EF8D0124EAA
:10DE900000213046FCF7E4F8002001466143C9B296
:10DEA000F82251438B190B49C2001031521800213E
:10DEB000536005E0F8274F435368491CDD53C9B24E
:10DEC000A142F7D3401C0006000EE6D00148447082
:10DED0000020F8BDB459FF1F308AFF1F7CB50C78B5
:10DEE000069D022C0FD14C682678647824023419E0
:10DEF000064EA4B2F44206D10224DBB2009501948E
:10DF0000FDF7A4FB7CBD01207CBD0000FED6FFFF19
:10DF1000F8B505461D48854223D0461C002921D06E
:10DF200001292BD002291CD10121284601F07AF9C0
:10DF3000002816D12846FFF7AFF9040011D0A078C9
:10DF4000FF280ED0FE2807D000200090E0781E2386
:10DF500014222946FFF7C8F92046FFF759FBFF2096
:10DF6000A070F8BD2846FFF797F90028F9D1304690
:10DF7000FFF792F90028F4D00580F8BD2846FFF796
:10DF80008BF90400F9D02680D9E70000FEFF0000DD
:10DF9000F3B50C468978C1B01E2914D02E4D2878CF
:10DFA000FF2829D0182927D84808C2002B48121862
:10DFB000803A976F002F1FD0D06F00281CD0207898
:10DFC000002817D113E04198FFF766F905000BD040
:10DFD00000200090A378E87800224199FFF784F9A7
:10DFE00006462846FFF714FB304643B0F0BD627882
:10DFF000012A03D1122901D00620F6E702AE0096CD
:10E00000A3886178A268B8470028EED1A0784008BC
:10E01000C100124808188038C26F02A94198904781
:10E0200000280FD061780029DFD1A27869460A70F4
:10E03000087168460189418069464198FCF730FCC7
:10E040000020D2E7A378042BCFD0009600222878B6
:10E050004199FFF749F9C8E7D85CFF1F180A011179
:10E0600000B50346FDF74CFE002803D0C018401E43
:10E0700080B200BD184600BD10B5040008D020785D
:10E08000FF2805D0FE2803D0FCF7D4F8FF2020702D
:10E0900010BD0000F7B506460F461020FCF71CF82F
:10E0A00005461020FCF718F80446002D3AD0002C45
:10E0B0002DD010220021FBF7D3FF2A4621463046FF
:10E0C00001F0B8F9060023D12878000604D43946B7
:10E0D000284600F0B9FF08E02146284600F0B4FFCA
:10E0E0003A461149204602F029FC3878000604D44B
:10E0F0003846029900F0A8FF0AE02146384600F0B1
:10E10000A3FF09492046029A02F018FC00E01326FA
:10E110002846FBF7F3FF002C02D02046FBF7EEFF6A
:10E120003046FEBD1326F6E7A20A0111F8B506989F
:10E1300000271D4614460E46002801D00B20F8BDCE
:10E1400030780021022801D019804DE070680278F3
:10E15000407800021018152280B25202801A030083
:10E16000FBF778FF0504121F1A254100F068FBF742
:10E17000E9FFC2B20798824200D902462A80F168BC
:10E180002046FBF755FF30E0F06802210088298027
:10E190002070000A607028E0062028800246F1689E
:10E1A000EEE701202880F068007820701DE0F0681C
:10E1B000002816D008212980017821700188090AD9
:10E1C00061708178A1704188090AE170017921713B
:10E1D0008188090A61718179A171C088000AE071A2
:10E1E00003E0298001E0298001273846F8BD10B5F9
:10E1F0000B78840702D50224234301E0FD24234049
:10E200000B7003070B7802D50824234301E0F724A1
:10E2100023400B7083060B7802D52024234301E0B2
:10E22000DF2423400B700A21084201D1810603D567
:10E2300010780C21084304E0002803D11078F32162
:10E240000840107010BD0000FFB581B008780024B0
:10E250000A9E1F460D4602280FD168680178407853
:10E2600000020818152180B24902401A09D001287D
:10E2700029D0022848D003283CD00124204605B0EC
:10E28000F0BDE868FBF75EFFC0B2864205D8F01922
:10E290000090152803D90D24F0E70724EEE7E8687D
:10E2A0003A4680190399FBF7C3FE0098EA6880B2EA
:10E2B000002111541C4840680028DFD00168002963
:10E2C000DCD0002012E0002E12D1022BE3D1039902
:10E2D000E8680A78497809025118018012484068B4
:10E2E0000028CBD001680029C8D001208847C5E7A5
:10E2F0000B24C3E7002EFBD1062BCCD10622E86805
:10E300000399FBF795FEB9E7002EF1D1012BC2D19D
:10E3100003980078002803D0012801D08024ADE7BD
:10E32000E9680870AAE70000185AFF1F10B50448F2
:10E33000C16B034A40321068D06000F027FA10BD6C
:10E340000080004030B5C21F0A2A01D3062030BD2C
:10E350000124074D9440002905D0002100F0A6F8C3
:10E360002868204301E02868A0432860002030BDD1
:10E3700000380040054B01228240D868002901D0B6
:10E38000104300E09043D860704700000038004020
:10E3900010B5114C2078002801D0072010BDFF21B6
:10E3A0002D310D48FBF74CFF012020700B49002058
:10E3B000086348630A490862486202211020FDF799
:10E3C00073FE0120074900040860074A07490D2031
:10E3D000FBF73CFF002010BD7090FF1F0080004045
:10E3E00080F0004000E100E0FDE5001171E5001162
:10E3F00010B5172801D3052010BD0C4B9C6B0122D2
:10E400008240104620439863586B90435863DC6BFE
:10E41000012907D020469043D863186B02431A6342
:10E42000002010BD10462043F6E7000000800040A9
:10E43000054B0122801E82405869002901D01043FB
:10E4400000E09043586170470038004070B50446C2
:10E4500014480E460519002902D16878012808D011
:10E4600000212046FFF786FF022C04D0032C02D0A7
:10E4700005E0072070BD01212046FFF7D9FF0021EC
:10E480002046FFF75FFF08490120A0404A68012E9F
:10E4900005D082434A6002206870002070BD0243AC
:10E4A0004A60FAE77090FF1F0080004070B542009C
:10E4B00083180D4A9C18A5786478D65C641B0122E9
:10E4C000641CA240521EAA40084BA940132806D241
:10E4D000B000C018836893430B43836070BD5869D4
:10E4E00090430843586170BD9309011100F000404A
:10E4F00007494A68012383401A4201D0096802E0B3
:10E50000034940310969C140C807C00F7047000086
:10E510000080004070B5154C45002E197678012317
:10E52000114AB34000290ED0142809D0152807D06D
:10E53000162805D0605780008018816819430DE0C7
:10E54000506918430EE014280AD0152808D0162860
:10E5500006D060578000801881689943816070BD43
:10E5600050699843506170BD00F00040D809011116
:10E5700070B5104D00242E197078012803D1E0B237
:10E580000121FFF7C7FF707802280ED1E0B2FFF734
:10E59000AFFF01214140E0B200F078F8E0B2FFF7B0
:10E5A000A7FF0C21614349194876641C172CE2DB54
:10E5B00070BD00007090FF1F10B50F4C0D4A012375
:10E5C000245C142809D2106A002902D0A340184301
:10E5D00001E0A3409843106210BD506A002903D0A7
:10E5E000203CA340184302E0203CA34098435062E3
:10E5F00010BD000080F000407C09011170B50221BF
:10E600001020FDF751FD01201E4900040860002480
:10E610001D4D07E0022C01D0032C03D1E0B20121F3
:10E62000FFF706FF2819407801280BD1E0B2FFF769
:10E630005FFFE2B20146104600F064F8E0B200214C
:10E64000FFF768FF0C2060434019007E002814D0BB
:10E65000E0B200F069F8E6B23046FFF749FF002863
:10E6600001D0012100E000210C2272435219527E98
:10E67000824202D0304600F0BDF8641C172CC9DB82
:10E6800070BD000000E100E07090FF1FF8B542008F
:10E690008318184AD55C9A189278521ED4B2164A3A
:10E6A00012185278022A21D1144EB76B0122134658
:10E6B00083401F43B763124B13280ED2002906D0A4
:10E6C000A900C9188B68A24093438B600BE0A90096
:10E6D000C9188B68A2401343F7E70029596906D08F
:10E6E000A240914359610121FFF766FFF8BDA240A6
:10E6F0001143F7E7930901117090FF1F008000405C
:10E7000000F00040012200B5064B82400029196844
:10E7100001D0114300E0914319600121FFF796FEFB
:10E7200000BD00000080004070B504461648214638
:10E730000C2251430D186A680026002A02D1AA68EB
:10E74000002A1CD0104B0222183B1B195A700122C0
:10E75000425400212046FFF779FE6868002808D05F
:10E76000A86800280DD02046FFF7C2FE002808D078
:10E77000002631462046FFF73BFE002070BD1220E8
:10E7800070BD0126F5E700008890FF1FF3B5184E15
:10E79000002481B0074601252846A040384223D0F6
:10E7A0000299084000D001200090E0B2009900F0EA
:10E7B00021F80C20604380194168806800290ED040
:10E7C000002807D00098002802D00021E0B203E022
:10E7D0000121FBE7E0B20121FFF70AFE04E0002877
:10E7E00002D0E0B20021F7E7641C172CD4DBFEBD99
:10E7F0008890FF1F074A0C2343439B185A68002A3E
:10E8000001D0012904D09A68002A02D0002900D141
:10E81000104770478890FF1F08B509488368002B90
:10E820000CD01A78694601205B1CFDF71AFE0028FF
:10E8300004D00078C00701D0012008BD002008BD29
:10E84000B05CFF1F10B503460B4A00200A2141436C
:10E8500089184988002905D0401CC0B20328F5D387
:10E86000002010BD0A210024414354540446403482
:10E8700088184480037210BDB092FF1F0A7802709E
:10E880000A88120A42708A7882704A88120AC27014
:10E890000A7902718A88120A42718A798271C9885A
:10E8A000090AC17108207047F8B505460C4648684A
:10E8B0000421FBF78FFC217A017021890346401C5B
:10E8C000090A0170217841702188090A8170207A33
:10E8D000001DC2B2FB2A36D81C48854215D1144609
:10E8E0001E460C20FBF734FC01000CD09020087071
:10E8F000022008714D808E601548CC800078FBF7AF
:10E9000003FC00271DE013271BE05C20114968432E
:10E91000441826464036307E002806D008465C3033
:10E92000416A0727491C41620BE02146284600F056
:10E9300095F90746307E002803D121462846FBF78B
:10E940008BFC3846F8BD0220F8BD0000FEFF000039
:10E95000F55CFF1F2C93FF1F10B50A4A00210A2304
:10E960004B439B185C88002C06D01B79834203D153
:10E970000A204143881810BD491CC9B20329EED3AF
:10E98000002010BDB092FF1F002141800170704730
:10E9900070477CB504000FD0608800280CD000259B
:10E9A000009501951323E188207A172200F028F8BA
:10E9B000FF206072658025707CBDF8B5074615465E
:10E9C0000E461020FBF7C4FB040017D0A0202070D7
:10E9D000002060706680002D05D00C222946201D85
:10E9E000FBF726FB04E00C220021201DFBF738FB7F
:10E9F00021463846FBF788FB0020F8BD0120F8BD12
:10EA0000FFB581B01E46174614200B9DFBF7A0FBF7
:10EA100004001AD0A22020706770029860800A98C3
:10EA200020716671002D06D020460C222946083040
:10EA3000FBF7FEFA05E020460C2200210830FBF728
:10EA40000FFB21460198FBF75FFB05B0F0BD022AE2
:10EA50001CD34B780A781B02D21892B20280012A8A
:10EA600002D0022A06D00FE08A78C978090251182C
:10EA7000418009E0CB788A781B02D21842800A795B
:10EA800049790902511881800020704701207047A0
:10EA9000F8B506464D88002070600A790C46022AB7
:10EAA00012D0290160480091415A002906D0009BEC
:10EAB0001F18BB68002B01D0012A7DD05A486C304A
:10EAC0004169491C4161A9E0E288042A43D3A06856
:10EAD000437801781B02C91889B20091C378817804
:10EAE0001B02C9188FB2017AC079000208184F4979
:10EAF00048800099091D8A4220D1072F13D0052F85
:10EB000011D0042F02D0062F25D10CE04648290150
:10EB1000405A002807D02846FDF736FA42486C30A4
:10EB20000169491C01610098308137800321C94384
:10EB3000A068FBF74FFB70600020F8BD072F18D0CE
:10EB4000052F16D0042F07D0062F12D036486C3070
:10EB5000C168491CC16064E033482901405A00285B
:10EB600007D02846FDF710FA2F486C300169491C80
:10EB700001612D492D01002048536E180098B08185
:10EB8000B7800098FDF784FAB060002818D0032100
:10EB9000C943A068FBF71EFBE2880146224F121F03
:10EBA000B068FBF745FA785BE1884018001F78539E
:10EBB00038466C30016800E008E0491C016030E034
:10EBC00019486C308169491C81612AE0E288891802
:10EBD000009A89B28152BA8991421AD80546B8681A
:10EBE000E2884018801AA168FBF722FA0098295A97
:10EBF000B889814215D13081B8883080B86870609A
:10EC000000990020685208486C304168491C4160F6
:10EC100007E005486C308168491C81602846FDF793
:10EC2000B3F90120F8BD00001C93FF1F105DFF1F0A
:10EC3000022A01D0012070470A7849780902511848
:10EC40000180002070470A7802704A7842708A7802
:10EC5000C97809025118418070470000FFB50C4681
:10EC600007463D49A1208000096878434018FF30DD
:10EC7000C130067E89B015463846FBF765FE001D9B
:10EC8000B04204D23846FBF75FFE001DC6B2B54263
:10EC900007D82A46002138460C9BFBF7E3FA0DB053
:10ECA000F0BD31462846FBF759FA274640373874FD
:10ECB0000C99616501467143691AC9B202910C99B8
:10ECC00004910299002901D0401C3874002523E0EA
:10ECD0000299002904D0401EA84201D1084600E054
:10ECE0003046E900059103916054FDF7E5F803997A
:10ECF0000919486000281BD00599625C0499FBF74C
:10ED000097F90598215C0498081804901348C16984
:10ED1000491C6D1CEDB2C161387CA842D8D8606D29
:10ED2000002803D0FBF738FA002060650020B6E722
:10ED3000002038740646606506E0F000001940685F
:10ED4000FBF72AFA761CF6B2AE42F6D30348C16A44
:10ED5000491CC1621320A2E73409FF1F8893FF1FDB
:10ED6000F7B586B016460D464878FFF7F5FD040066
:10ED700010D0002727712878012802D0132809D144
:10ED800005E06A88314602A8FFF761FE0AE02078B4
:10ED9000032802D0002009B0F0BD6A88314602A8DD
:10EDA000FFF746FF0646204600F046F902A801900C
:10EDB00000972B78207A32460699FFF721FE2046ED
:10EDC000FFF7E2FD3046E6E7FEB504464688014619
:10EDD0006846FFF75DFE0546019800282FD068467B
:10EDE0000088052806D0042809D0062807D007285F
:10EDF00005D026E06946304600F030F821E0810079
:10EE00001548081801464039098E002919D02038C4
:10EE1000807C6A463146FFF7D0FD002811D1684654
:10EE20000088042803D001213046FDF749F8012D60
:10EE300004D1A068002801D0FBF7AEF9FEBD012D7A
:10EE400004D1A068002801D0FBF7A6F901213046C3
:10EE5000FDF736F8FEBD0000A092FF1F30B5054655
:10EE6000088987B00C46042817D302A86168FFF709
:10EE7000EAFE68464089172837D82189001D81425B
:10EE80001ED16846007AC10709D0626802A92846E7
:10EE9000121DFFF765FF002812D107B030BD616871
:10EEA000091D122805D0002069460880497A6A4663
:10EEB00022E06846428903A8FDF732F8002803D013
:10EEC0002846FFF765FDE8E70D4881880029E4D072
:10EED0006946497A03AA0192009169460B7A8079C2
:10EEE00000222946FFF78CFDD7E701216846018003
:10EEF00017214180417A6A462846FCF7C5FFCCE7D6
:10EF0000A092FF1F70B5144C00262680A681A68013
:10EF1000A0683546002802D0FBF73EF9A5600E4CEC
:10EF2000103420464030057445740576606D002825
:10EF300002D0FBF731F965655C20002546433419A2
:10EF4000E80020184068002801D0FBF725F96D1C67
:10EF50000A2DF5DB70BD00001C93FF1FFFB589B0C3
:10EF600015460E461720129FFDF792F8040021D097
:10EF7000684606704570002F03D0201D0C99B847D5
:10EF800000E0002069464880267065704888A070BF
:10EF9000010AE170052269468A82001D0694888371
:10EFA00005A90998FFF780FC050004D02046FBF76F
:10EFB000F3F800E0132528460DB0F0BDFFB581B091
:10EFC0001E46054601210A9F0B9C00F02BF90028E4
:10EFD00011D02046FFF736FC00280AD0C580044631
:10EFE000077012484178491C0A06120E427004D07C
:10EFF00005E015250FE014250DE001224270227175
:10F0000000962846039B0299FFF7A8FF050005D04C
:10F010002046FFF7B9FC284605B0F0BD234621463F
:10F02000034A09330348FBF723F9F4E7105DFF1F98
:10F030003075000093E9001110B50446407AFBF7E3
:10F04000F9F8FF20607210BD10B500240F22835C18
:10F050005B0023438B54835C521EDC0952B2002AAE
:10F06000F5DA10BDFFB581B01E4617460D460846BD
:10F0700000F04AF8002802D0112005B0F0BD0E487B
:10F0800000F042F8040015D00A98A0710622E01D95
:10F090000B99FAF7CDFF6580277166710198207092
:10F0A000002060620C98E0810021284600F0CCF836
:10F0B0000020E2E71520E0E7FFFF000070B51446EE
:10F0C0000D46064600F020F800280BD0416A007972
:10F0D00000290CD0C20611D580070AD4002C08D014
:10F0E000052070BD074886420AD0142070BDC006B6
:10F0F000F6D5887EA84203D20C2070BD0F2070BDCB
:10F10000002070BDFEFF0000084A002128234B4369
:10F110009B185B88834203D128204143881870479D
:10F12000491C0906090EF1D000207047D092FF1F3C
:10F1300030B50B4C0B4B002128224A43D5186D8863
:10F14000A54206D09A5C824203D128204143C818C8
:10F1500030BD491C0906090EEED0002030BD00006C
:10F16000FFFF0000D092FF1F10B500200B4C0C4B8E
:10F17000014628224243D2185480401C11710006D7
:10F180005162000EF5D0064A002028328300401C50
:10F19000C0B2D1500528F9D310BD0000FFFF000018
:10F1A000D092FF1F0020074A014628234B439B189B
:10F1B0001B79002B01D0401CC0B2491C0906090E66
:10F1C000F3D07047D092FF1F074A00218B00D3581D
:10F1D000002B05D0491CC9B20529F7D3132070476D
:10F1E0008900505000207047F892FF1F10B5FFF7BC
:10F1F0008BFF040013D06088012100F025F8606ABD
:10F20000002801D0FAF77AFF282200212046FAF7D9
:10F2100027FF0020C04360800020207110BD022025
:10F2200010BD000010B50C460649884206D0FFF715
:10F230006BFF002804D00079204201D0012010BDCE
:10F24000002010BDFEFF0000F8B5084D0E46074631
:10F250000024A0002A58002A02D0314638469047A0
:10F26000641CE4B2052CF4D3F8BD0000F892FF1F33
:10F27000FFB581B00298FFF747FF040069D00298FC
:10F28000354986008A59002A63D0136A1820002B5A
:10F2900000D03420936A002B00D01430049B002B44
:10F2A00000D01C30516A002900D01630FAF750FF08
:10F2B00005004ED018220021FAF7D2FE2620FBF7D7
:10F2C00097FF070000D12778D02028700198687038
:10F2D0000A20A8700298A8800398A8711E482C469E
:10F2E00080591834006A002808D01B49AC6089593D
:10F2F00020461C34096A1C22FAF79AFE16488059E7
:10F30000806A002808D01449EC60895920461434DA
:10F31000896A1422FAF78CFE0498002806D02C6122
:10F3200020461C341C220499FAF782FE0A488159AF
:10F33000496A002906D06C6180591622416A20462C
:10F34000FAF776FEF8B22946FAF7DEFE0298FDF7E4
:10F35000B9F805B0F0BD0000A85CFF1FFFB581B093
:10F360001D46174614200E9EFAF7F2FE040020D028
:10F37000D0202070019860700520A070E770002DEB
:10F3800005D006222946201DFAF752FE04E0062287
:10F390000021201DFAF764FE0A9860810B98A08175
:10F3A0000C98E0810D982082A67421460298FAF705
:10F3B000ABFE05B0F0BDF8B506461C4615460F4637
:10F3C0000820FAF7C5FE010009D0D02008704E7061
:10F3D000062088708D808C713846FAF795FEF8BD4E
:10F3E000007841078207C90F920F89000006C00EFE
:10F3F0001143C0000843704701468A0008491020A5
:10F40000895800290AD00A6A002A07D08968002989
:10F4100004D0107A097E884200D308467047000065
:10F42000185DFF1F10B50246014620321031FAF771
:10F4300025FF10BD10B5FAF721FF10BD7FB50D46B1
:10F44000044681000948405800280ED00146683122
:10F450004EC903966E460EC6037FC28801782846C1
:10F46000FDF79EF8204600F003F87FBD185DFF1FF2
:10F4700070B5044600F0BEFCA500134C605900288E
:10F4800021D0006A002801D0FAF738FE6059806E5A
:10F49000002801D0FAF732FE6059C06E002801D072
:10F4A000FAF72CFE6059006F002801D0FAF726FE0B
:10F4B0006059406F002801D0FAF720FE6059FAF732
:10F4C0001DFE0020605170BD185DFF1F7FB5084D07
:10F4D00084002959102268462531FAF7A9FD2859D8
:10F4E000044BC0886A46112100F014FC04B070BDC2
:10F4F000185DFF1F390201117FB50C4C8500615961
:10F50000002910D0694600F029FC60590178C088B4
:10F51000002901D0064B00E0064B6A46072100F0A7
:10F52000F9FB04B070BD0120FBE70000185DFF1F70
:10F53000950201112703011170B50D4606460024FE
:10F540000AE0FAF7A1FE010A3155641CE4B2AC42AC
:10F5500002D23055641CE4B2AC42F2D370BD00005C
:10F560007FB5084D84002959102268463531FAF7D5
:10F570005FFD2859044BC0886A46112100F0CAFB80
:10F5800004B070BD185DFF1F7302011110B5064A6B
:10F590008300D258002A06D0D288824203D10129A2
:10F5A00001D1FFF765FF10BD185DFF1F70B50E4C50
:10F5B000064685006059002813D0007821460028AF
:10F5C00010D08868002804D04168002901D0304656
:10F5D000884760594078122803D100213046FFF750
:10F5E0002DFF70BD4868EDE7185DFF1F10B50A4696
:10F5F000024B112100F08EFB10BD0000A101011192
:10F600001CB5044668461346017006221946401C84
:10F61000FAF70EFD034B6A460821204600F07AFBFC
:10F620001CBD0000C301011110B50A46024B112197
:10F6300000F070FB10BD0000E901011110B586B0AB
:10F64000044668461346018008221946801CFAF7D2
:10F65000EFFC044B6A460B21204600F05BFB06B032
:10F6600010BD00000B02011110B50A46024B11211A
:10F6700000F050FB10BD00003503011130B587B01C
:10F680000446002069460875A06805782B00FAF743
:10F69000E1FC0C2C07070F1215181B1E2124272C28
:10F6A00000F0CAFE12281DD106206946087529E01F
:10F6B00000F094FE16E000F0B0FE13E000F09DFEB6
:10F6C00010E000F048FE0DE000F074FE0AE000F0EB
:10F6D00062FE07E000F04EFE04E000F025FF01E0CE
:10F6E00000F014FF002802D008E00720DEE7608861
:10F6F0006A46294600F028FF694608756846007D7D
:10F70000002805D0608805A900F0F2FA07B030BDE6
:10F71000608800F043FBF9E7F8B52B4D06468700FB
:10F72000E8590C46002807D0C188B14204D141787D
:10F73000062904D0112930D0002C36D03EE00278C2
:10F740002149002A25D08368026A5B69DC0704D05E
:10F75000147BE40701D0072105E09C0705D5147B45
:10F76000A40702D5092141702CE05B0704D5127B68
:10F77000520701D50B21F6E78868002822D041689E
:10F7800000291FD030468847E8594078122802D017
:10F7900018E04868F1E7002103E0002C00D0322493
:10F7A00021463046FFF74AFE0CE03046FFF7ACFC3E
:10F7B000002803D0017910221143017131462046FF
:10F7C000FDF7B4FB0120F8BD185DFF1F70B501788F
:10F7D0000124922902D0A02919D130E041780E29C4
:10F7E00002D03E2913D10BE081881A4AD14205D1BB
:10F7F0008068411C007800F033F81EE000201CE017
:10F80000014680780124052803D0082811D000245F
:10F810001DE011480078400719D5104800680028FD
:10F8200015D08368002B12D0CA898888891D984713
:10F8300003E088888979FFF76FFF044607E00546F3
:10F84000FFF71CFFA868002801D0FAF7A5FC2046A6
:10F8500070BD0000E8DFFFFF475CFF1F1C5DFF1F5E
:10F8600070B51D4C05462068002825D0002D06D116
:10F870000278002A21D008220A30FAF7D9FB206842
:10F880002E46002817D01220FAF762FC05000DD092
:10F89000C12028706E7021681022A81C891CFAF7FC
:10F8A000C7FB206829464078FAF72EFC2068FAF753
:10F8B00025FC00202060012070BD0822801CFAF782
:10F8C000B7FBFAF7E7FC002801D00125D7E721684C
:10F8D00001200870EFE70000145DFF1F0149486038
:10F8E00070470000185DFF1FF7B588B01646044644
:10F8F000102200216846FAF7B3FB334DA700E85900
:10F90000002835D0C188A14232D1017800292FD1F9
:10F910004278062A0FD0816E002929D0088A112A40
:10F9200019D0B04224D1082212310998FAF78CFB81
:10F9300001283CD01CE0024601465532353104AB6B
:10F940000C3000F000FC002812D12046FFF754FDD7
:10F95000024604A930E0B04206D1082212310998CB
:10F96000FAF772FB01281BD032212046FFF766FD13
:10F970002046FFF7C9FB05000CD0696A002909D0B1
:10F98000088AB04206D1082212310998FAF75CFBC6
:10F9900001280FD02046FAF783FC01200BB0F0BD00
:10F9A0002046FFF729FDE9590246896E04E0E8592F
:10F9B000816E00E0696A8A7E6846FAF739FB204664
:10F9C0006946FAF773FCE8E7185DFF1FF1B582B0EE
:10F9D0000298694C850060590178002976D14178F8
:10F9E0008768066A062907D0CA1F1300FAF732FB98
:10F9F000050A48525B1872007969CA0706D0327B43
:10FA0000D20703D0806E002813D019E0880702D5F2
:10FA1000307B80073ED4480764D5307B400761D5F2
:10FA2000FCF796FD6159CA8801461046FFF71CFE97
:10FA300058E01C20FAF750FB61590028886653D023
:10FA400060591022866E00213046FAF709FB0298B1
:10FA5000FFF7D2FC01463046FFF76EFDFAF714FCC3
:10FA60003082304608211230FFF766FD0298FFF71A
:10FA7000C3FCB07660593146C088FFF7B7FD33E06C
:10FA8000816E002932D00A461232098AC088FFF7F7
:10FA9000D5FD2BE0FCF756FD6159CA88014610469A
:10FAA000FFF7C2FD3FE001200190FCF745FD00900B
:10FAB00001280CD0002000900198FCF72FFD024691
:10FAC00060590099C088FFF79BFD39E023E00020D2
:10FAD0000190F2E7072907D0082907D0092922D089
