:020000041100E9
:10A0000003B40148019001BDADAE000003B40148A6
:10A01000019001BD456B010003B40148019001BDF1
:10A020000189000003B40148019001BDC53F000053
:10A0300003B40148019001BDE94C010003B401489B
:10A04000019001BDC95C010003B40148019001BD4C
:10A05000CD4C010003B40148019001BD61890000AD
:10A0600003B40148019001BD154D010003B401483E
:10A07000019001BDF54E010003B40148019001BDFE
:10A08000434D010003B40148019001BD25260000A5
:10A0900003B40148019001BD8B52010003B4014893
:10A0A000019001BDB352010003B40148019001BD0C
:10A0B0000D52010003B40148019001BDC94A0100DD
:10A0C00003B40148019001BD691F000003B40148B9
:10A0D000019001BD5D17000003B40148019001BD6E
:10A0E0003D4B010003B40148019001BD59520100EC
:10A0F00003B40148019001BD5125000003B401489B
:10A10000019001BD014C010003B40148019001BD63
:10A11000594F010003B40148019001BD1D4B0100DE
:10A1200003B40148019001BD8D12000003B4014841
:10A13000019001BD4D1F000003B40148019001BD15
:10A140005522000003B40148019001BDDD52010019
:10A1500003B40148019001BD1D4D010003B4014845
:10A16000019001BD090E000003B40148019001BD3A
:10A17000810E000003B40148019001BD017F000081
:10A1800003B40148019001BDE117000003B4014888
:10A19000019001BD7918000003B40148019001BD90
:10A1A000D949010003B40148019001BD19280000FC
:10A1B00003B40148019001BDAD27FF1F03B401485E
:10A1C000019001BDB117000003B40148019001BD29
:10A1D000E928000003B40148019001BD5549010080
:10A1E00003B40148019001BD4551010003B4014889
:10A1F000019001BDC926000003B40148019001BDD2
:10A20000F94C010003B40148019001BDC5210000D3
:10A2100003B40148019001BD291C000003B40148AA
:10A22000019001BD4122FF1F03B40148019001BD0F
:10A23000851F000003B40148019001BD11470100D2
:10A2400003B40148019001BDB30E000003B40148FE
:10A25000019001BD0935FF1F03B40148019001BD04
:10A26000BF21FF1F03B40148019001BD9921FF1FC9
:10A2700003B40148019001BDA946010003B401489F
:10A28000019001BDE548000003B40148019001BD03
:10A290002951010003B40148019001BDD91B000000
:10A2A00003B40148019001BD4522FF1F03B40148DA
:10A2B000019001BD6D22FF1F03B40148019001BD53
:10A2C00051470100F8B5D349D14A002004464A60FD
:10A2D0008300401CD450FF28FADD4868CE4A01466E
:10A2E00080318A606E22C262CC4A1278002A01D084
:10A2F0007F22C2620A220265C94A13788363C94B6E
:10A30000C36115781023022D08D01578012D05D0D2
:10A310001578032D02D01578042D00D10362C24DAB
:10A3200045611925AD0185613725CD603627282681
:10A33000C7630825466405644F6032270F603B27DA
:10A34000CF634127CF6439274031E0C132274F60C6
:10A3500002274F6142270831E0C11E274F60CE60BF
:10A360008D6005264E6142260E615A2660390E61C7
:10A370004D613C258D61AF25ED000560AB4D05635A
:10A380001578022D09D01578012D08D01578032DE8
:10A3900007D01578042D06D007E0152504E04360AA
:10A3A00003E00E2500E00C254560FF252D35856076
:10A3B000C560FF25F53505619D4D85647D25ED0062
:10A3C0009C4ECD67C66445629B4D85627325C5650D
:10A3D000062545658565C51D0826F93502272E60C9
:10A3E00047664B27FF0087660927C766934F0767B5
:10A3F0004667BE108467C667914F8E4E3E601678E2
:10A40000022E09D01678012E0AD01678032E0BD012
:10A410001278042A0CD00EE01A22CA61212205E02B
:10A420001422CA61182201E01322CB610A6202E001
:10A430000E220B62CA617E4A8A627D22D2008A673E
:10A4400064224A620522CA6202220A63C8228C631D
:10A450004A63382169607B4929647B49A9614B21A2
:10A46000C900E9617349FF30643929627D2109011E
:10A470006962EC661E212C67A9667049A965E965C9
:10A4800089102966696469677049A9677049714ACA
:10A490008130E967026082604160FF21F531C1606F
:10A4A00001616E486C495A4A81606D49803A116178
:10A4B0006A496C4A80318A626B4ACA626B4A82611D
:10A4C0006B4AC2626B4A02636B4A64484038C2639B
:10A4D0006A4ACA616A49816360496A484031886151
:10A4E0006A49694888605D48694A80384260694ABB
:10A4F0004263694A0A626949816058496848C039BB
:10A50000C860FFF77DFD0120FFF780FDF8BDF3B5C2
:10A510000746644881B0C169634A1140FF3109317F
:10A52000C161002613E000252C461120FFF774FDC1
:10A530005C48406A8007800F610088402843641CA3
:10A54000E4B20546102CF0D301C7761CF6B202988F
:10A550008642E8D3FEBD10B52E4C607800280AD1A3
:10A5600004215248FFF7D3FF504804211030FFF771
:10A57000CEFF0120607010BDF0B500248BB00D46F9
:10A580000646102902D901200BB0F0BDFFF7E3FF0A
:10A59000464900200A5C401C1419C0B21028F9D3A7
:10A5A000002C03D0102D03D90B20EDE70E20EBE794
:10A5B0003F483E4C0023006802A91034E25CC75CAF
:10A5C0007A40CA545B1CDBB2102BF7D306AA37487B
:10A5D000FFF728FD102D00D910252A4606A9304680
:10A5E000FFF726FDFFF72AFD216840182060FFF7DE
:10A5F00025FD616840186060FFF720FDA1684018E4
:10A60000A060FFF71BFDE1684018E0600020BBE799
:10A610000004FF1F805BFF1F00FFFF1F1C59FF1F6F
:10A620004A0AFF1F3A07000080C3C9019A020000CE
:10A6300050C30000280A00006A180000204E0000E5
:10A64000F009FF1F0040001168100000DC05000049
:10A6500040420F0010270000F53CFF1F0001FF1FC4
:10A660002D26FF1F254CFF1FFD4EFF1F9522FF1FAC
:10A670002924FF1FB122FF1F3130FF1F1956FF1F72
:10A680003D54FF1F1922FF1F1D2AFF1F0002FF1F3D
:10A690006D39FF1F493BFF1F8D3AFF1F2939FF1FEF
:10A6A0004D2AFF1F40F0004000FEFEFFC491FF1F37
:10A6B000A45BFF1F0A7802708A7842704A88120AE7
:10A6C00082700979C170042070470A780270098885
:10A6D000090A41700220704710B500220EE0930075
:10A6E0005B189C7804705C88521C240A44701C79A6
:10A6F00084709B88D2B21B0AC370001D0B789342F2
:10A70000EDD81806800D10BDF8B50D4606464978FF
:10A71000012031700024761C16E06978012917D0D9
:10A720001221614349198A7832704A88871C120ABB
:10A730007270B61C10223046091DFFF779FC1037E5
:10A74000B8B21036641CE4B22978A142E5D8F8BD4D
:10A75000A10049198A7832704A88871C120A7270DF
:10A76000B61C02223046091DFFF762FCBF1CB8B2BE
:10A77000B61CE7E710B50C46097801702188090A74
:10A7800041706288211D801CFFF752FC6088801C8C
:10A7900080B210BD10B50C46097801702188090AF5
:10A7A0004170A17881706188090AC170A288A11DD9
:10A7B000001DFFF73DFCA088001D80B210BD10B544
:10A7C0000C460A88891CFFF733FC208810BD10B5A1
:10A7D0000B788A7802705343DCB22246401C091D74
:10A7E000FFF726FC601C10BD10B50B788A7802704C
:10A7F0005343DCB22246401C091DFFF719FC601CC4
:10A8000010BD10B50C460A88891CFFF711FC208882
:10A8100010BD10B50C460A88891CFFF709FC20887A
:10A8200010BD7FB515460446022901D0102903D179
:10A83000022B04D0102B02D0002004B070BD99422E
:10A8400002D10A46294607E01029694607D000F0E0
:10A850000DF8102269462846FFF7F6FBEDE7104693
:10A8600000F004F8102269462046F5E770B50C4662
:10A8700005000CD0002C0AD0102206492046FFF714
:10A88000D7FB2878207368786073012070BD0020A2
:10A8900070BD0000FE09011110B50B4601220249EE
:10A8A00001F03EFD10BD0000B5A6001170B50646D2
:10A8B00008880C46172812D30B4603220949304654
:10A8C00001F02EFD050008D107492088098888423B
:10A8D00000D20146304600F0B7F9284670BD02208C
:10A8E00070BD0000CBA60011B25BFF1F10B50023A6
:10A8F0001922194601F014FD10BD000010B50A78A8
:10A90000002A05D00B460722024901F009FD10BDBF
:10A91000022010BDD9A6001110B54A78012A01D035
:10A92000022A08D10A78002A05D00B4605220349DD
:10A9300001F0F6FC10BD022010BD000009A70011B7
:10A9400001494000085A7047B05BFF1F10B50B4625
:10A950001B22024901F0E4FC10BD000075A70011A4
:10A960000149172008807047B05BFF1F0098022B39
:10A9700001D00420704711785278120289180180A2
:10A98000002070470098012B01D0042070471178F7
:10A9900001700020704770B5049C1E461546062BBA
:10A9A0001BD369782878090240182080E978A878B4
:10A9B00009024018608002222271291D601DFFF7E4
:10A9C00037FBB61FB2B22281F02A06D82046A91D55
:10A9D0000A30FFF72DFB002070BD042070BD0098E9
:10A9E000042B01D004207047537811781B02C9183A
:10A9F00001809178D2781202891841800020704736
:10AA0000F8B584890D460646002C26D0B268177822
:10AA1000380620D50C2C20D90C3CA4B2101900907B
:10AA200001217088234601F013FC002811D0022078
:10AA300028707806C00F6870B806800EA870641E73
:10AA40002004000CA88001D0B068401CA860002041
:10AA5000F8BD0120ECE70020EAE70120F8BD10B5C1
:10AA600002981146042B14D34C780A782402121948
:10AA70000280CC788A782402121942801B1F9AB275
:10AA80008280F22A05D8801D091DFFF7D1FA002027
:10AA900010BD042010BD0098042B01D00420704785
:10AAA000537811781B02C91801809178D27812026C
:10AAB000891841800020704710B502981146062B76
:10AAC00003D0142B03D0042010BD022200E010227A
:10AAD00002714B780A781B02D2180280CB788A78F0
:10AAE0001B02D21842800279401D091DFFF7A0FA0F
:10AAF000002010BD30B5039CD80718D1D805010E31
:10AB0000022914D30B488088814210D8F6200155C1
:10AB1000002008E0557813782D025B194500401C91
:10AB20006353C0B2921C8842F4D3002030BD04208D
:10AB300030BD0000AA5BFF1F0098022B01D004204B
:10AB400070471178527812028918018000207047EE
:10AB500070B5144602460498022B18D366782578FF
:10AB60003602AD1905800546E0352A766976002A59
:10AB70000BD0E8219B1E9AB242808A4207D8A11CC2
:10AB8000001DFFF755FA002070BDF421F2E7042004
:10AB900070BD000010B50B461722024901F0C0FB42
:10ABA00010BD000095A7001110B50B460D220249FB
:10ABB00001F0B6FB10BD0000BFA7001110B50A7868
:10ABC000002A05D00B461122024901F0A9FB10BD55
:10ABD000022010BDCFA7001110B50A78002A05D0B9
:10ABE0000B460922024901F09BFB10BD022010BD5B
:10ABF000E9A7001110B50B460F22024901F090FBA6
:10AC000010BD000003A8001110B50B460B2202492D
:10AC100001F086FB10BD000013A80011F72800D931
:10AC2000F720084A01461080401EC3179B0F1818D2
:10AC30008003000C5080491EC80F4018C003000C50
:10AC400090807047AA5BFF1F044A1288914203D884
:10AC5000024A4000921D115270470000AA5BFF1F7C
:10AC600010B500231322194601F05AFB10BD000055
:10AC700070B50C460146032000020A1A002534482C
:10AC80001300FFF7E7F91D1012151C1F2326282CAF
:10AC9000303234383A3C3E40424446484A4E5052A4
:10ACA0005A5456585A00C07911E01022294902E03E
:10ACB0002849102210312046FFF7BAF945E0C06A52
:10ACC000206042E0224906223C31F4E700782070FF
:10ACD0003BE0808936E01E4942784231EBE71D496E
:10ACE00082781F39E7E7007AF1E7407AEFE7184901
:10ACF00006223031DFE7807AE9E7C07AE7E7C089EA
:10AD000020E0808A1EE0C0781CE0C08A1AE0008B38
:10AD100018E0408B16E0808B14E00D490622363196
:10AD2000C9E7C08B0EE0008C0CE0408C0AE0807913
:10AD3000CDE7008A06E0408A04E0272904D20846CD
:10AD400000F052FA208000E00225284670BD000085
:10AD5000085AFF1FBD8CFF1F70B50E4C0025607197
:10AD6000A571691EE18100F06FFB0420E0711022E3
:10AD700000210948FFF774F907481022002110301C
:10AD8000FFF76EF9E562257265720720A072E57221
:10AD900070BD0000085AFF1FBD8CFF1FFEB53B4D64
:10ADA0000C4608040CD56879FFF760F9050004D05B
:10ADB00002F04AF82846FFF75FF90120C00360E07F
:10ADC000600403D5012080034840FEBD2F48E10701
:10ADD0000126807900292AD02978002920D0052849
:10ADE00021D0297A68460170697A41702749062284
:10ADF0003031801CFFF71CF9A97A68460172E97AA4
:10AE000041726946687900F00BFA002808D00720E3
:10AE1000A871696A002903D00968002900D0884711
:10AE200020467040FEBD032069460870E4E7A10794
:10AE30000DD5052809D1E889FFF724F9AA8A002A47
:10AE400003D002216879FFF723F9022019E0600797
:10AE500004D5002002F038F8042012E0200712D5B3
:10AE60002879012802D002280AD107E00096AB8B8E
:10AE70006A8B298BE88A00F00BF801E000F05AF9A0
:10AE800008206040FEBD0020FEBD0000085AFF1FE4
:10AE9000F8B5134C069EA579052D01D01420F8BDF8
:10AEA000104F851FBD4219D2062917D3BD1DA942D7
:10AEB00014D2FF27F537BA4210D20A2B0ED3AB4279
:10AEC0000CD2E08221836283A383304601F0FCFF31
:10AED00004216079FFF7E2F80020F8BD1820F8BDE2
:10AEE000085AFF1F7A0C0000F7B50D4680490098FC
:10AEF000164642187F4F00247879B9791300FFF77E
:10AF0000A9F8190E141BE92040455970777E888FE7
:10AF1000E996A2A9B4BFC8E9E9E9E9D3E900102D8F
:10AF200076D11022314674486FE0102D70D17248EE
:10AF300010223146103068E0042D69D13068F86283
:10AF4000CEE0012D64D13B7832783A70002B0AD0E4
:10AF5000002A07D1022903D0062901D0042901D1F2
:10AF600000F018F9BCE0002A0AD0012905D0032915
:10AF700003D0052901D0042902D10121FFF794F85B
:10AF8000AEE0022D44D13088B881A9E01F2D3FD812
:10AF900058481F2200214230FFF762F855482A46E0
:10AFA00031464230FFF744F8524B7D7042332A4617
:10AFB000012112E01F2D7CD84F481F2200211F388D
:10AFC000FFF74EF84C482A4631461F38FFF730F855
:10AFD000494B2A461F3BBD700021787900F0AAFA40
:10AFE00083E0012D65D13078042862D8387277E08B
:10AFF000012D5ED1307803285BD8787270E0062D81
:10B0000057D13C48062231463030FFF711F867E04F
:10B010004FE0012D4DD1307807284AD8B8725FE053
:10B02000012D46D13078032843D8F87258E0022D1C
:10B030003FD13288BA82002A52D0052950D102214C
:10B04000FFF726F84CE0012D33D13078012830D8B5
:10B05000F87045E03088022D2BD1062829D319211C
:10B06000C901884225D8F8823AE03088022D20D1E3
:10B0700006281ED31921C90188421AD838832FE027
:10B080003088022D15D1FF21F531884211D2788305
:10B0900026E03088022D0CD10A280AD31921C901D3
:10B0A000884206D8B8831BE03178012D01D10129EF
:10B0B00001D0182414E00821FEF7FCFF002801D07D
:10B0C00016240DE0002001F0FFFE04217879FEF740
:10B0D000E5FF05E00098272801D2022D02D00224C6
:10B0E0002046FEBD318800F0D5F90446F8E700009F
:10B0F000FFFCFFFF085AFF1FBD8CFF1F1CB50B4C48
:10B10000A179002901D011201CBD002800D0606267
:10B11000064907482C31034601910090103B00225C
:10B12000E179607900F016F800201CBD085AFF1F75
:10B13000CD8CFF1F10B506488179052901D012205A
:10B1400010BDC1891322407900F0B4F910BD000090
:10B15000085AFF1FF8B51D460224069F079E0B00E4
:10B16000FEF778FF0D150815150815151515151599
:10B170001508150000F0B8F8040008D13246394629
:10B18000284600F067F900F0CBF801F051F82046AE
:10B19000F8BD000070B5104C2168002904D0097872
:10B1A000814203D0032070BD122070BD0B4D0221DF
:10B1B0002878FEF773FF0A48002646800421287885
:10B1C000FEF76CFF074806802168032048700020C6
:10B1D000FEF776FF70BD00007C5CFF1F3D5CFF1F2B
:10B1E000205CFF1FBA5BFF1F272803D202494000E3
:10B1F000085A704701487047C25BFF1FFFFF0000FD
:10B2000010B5064C607003F0ABFF6078FEF75EFF90
:10B210000521607800F0C6FE10BD00003C5CFF1FF9
:10B2200070B5284E054630680C46002801D0112024
:10B2300070BD254801780520014216D0234880685A
:10B24000002805D00078002802D0C80706D101E008
:10B25000102070BD00F044F8002808D020780328A2
:10B2600005D0022803D0002801D0122070BD0C2088
:10B27000FEF732FF3060002820D0057000214170B9
:10B280000A222146801CFEF7D3FE01F001FF0400D4
:10B2900002D001F007F912E00D48007803280ED122
:10B2A0001D20FFF7A1FF0B490028088007D00B489D
:10B2B000094A04210078FEF715FF00E01324204618
:10B2C00070BD00007C5CFF1FB75BFF1F205CFF1F91
:10B2D000B85BFF1FBA5BFF1F60EA00003D5CFF1F09
:10B2E00010B503F05BFF10BD70B50C4605461C227F
:10B2F00000210948FEF7B4FE084805704470FEF7C7
:10B30000F7FE0549002803D000200870122070BD08
:10B3100001220A7070BD0000F491FF1FB65BFF1F91
:10B3200070B50F4C0025A068002802D0FEF7E6FE9D
:10B33000A560E068002802D0FEF7E0FEE56009485D
:10B3400005210078084206D00548103001F07CFC49
:10B3500001F04AF870BD002001F076FC002070BDBD
:10B36000205CFF1FB75BFF1FFEB5344D0C46080481
:10B3700019D56878FEF77AFE0121C9034C400646CC
:10B3800000280ED001F080FB002807D12878FF2884
:10B3900004D03146FEF7B8FE002802D03046FEF752
:10B3A0006BFE2046FEBDE007012700280AD0A868F2
:10B3B000002804D04168002901D000208847204699
:10B3C0007840FEBDA00709D56868002804D0416810
:10B3D000002901D00120884702202AE060072AD5F1
:10B3E000174E308800281FD0401E0004000C30800B
:10B3F0001ED101F0C9F8002809D01248077068680A
:10B40000002804D04168002901D00120884701F0BC
:10B4100095F8694600F066FE684601F01FFB1D20A6
:10B42000FFF7E2FE308003E004216878FEF736FE85
:10B4300004206040FEBD0020FEBD00003C5CFF1FFC
:10B44000BA5BFF1FB95BFF1F01490870704700001E
:10B450003C5CFF1F70B50E4C0B46261D07C605460B
:10B46000102200211846FEF755FE012803D11021B5
:10B47000A06804F05DF8102200212846FEF74AFE7D
:10B48000012803D11021606804F052F870BD00005B
:10B49000F491FF1F272807D2044A914204D0044A9E
:10B4A000400011520020704702207047FFFF00004B
:10B4B000C25BFF1FF8B50D4617461D4906461B4ADD
:10B4C0001224C868954208D100282DD00268002AAD
:10B4D0002AD029463046904723E0144A521C954210
:10B4E00013D1002807D00268002A04D0294630462C
:10B4F0009047040005D03946304600F04FFF040065
:10B5000012D10B48067047700EE0284603F0F8FD94
:10B51000002809D00078B04205D139462846FEF708
:10B52000FFFD044600E003242046F8BDFEFF0000B6
:10B53000105CFF1FF8B50E46014619481546007805
:10B5400005221F46104028D0304326D01548012E32
:10B550001BD0C468002C20D01F2D18D8002D01D07E
:10B56000002F14D001701F220021601CFEF778FD0F
:10B570002A463946601CFEF75BFD28462570002EE2
:10B5800007D0611CFEF7D2FDF8BD8468E2E7022017
:10B59000F8BD611CFEF7D0FDF8BD1220F8BD00001B
:10B5A000B75BFF1F205CFF1F014610B50020C907D5
:10B5B00004D0034A0421034800F0A6F910BD00009E
:10B5C000540901114059FF1F70B50F4D0F4CA87061
:10B5D00029461831204600F01DF8002128460B4668
:10B5E0001030CA0084521218491C09065360090E13
:10B5F000F7D0012002F032FCA87800F023FB0448C9
:10B6000003F0DEFD70BD00002059FF1FFFFF0000AA
:10B6100089D6001170B50A4C0025A04209D100203E
:10B6200082008C525218401CC0B295700228F7D389
:10B6300070BD01F0F8FF0028FAD00480857070BD5D
:10B64000FFFF0000F8B50E4607460699002407984C
:10B65000002902D00B242046F8BD022B01D00D2476
:10B66000F9E711785278120289188DB22946814380
:10B6700001D08024EFE73846F16800F03DF9A84298
:10B68000E9D02A463846F16800F0A8F90400E2D172
:10B6900071892A46384600F065F9DCE770B50C463A
:10B6A000080412D50A488078FEF7E0FC050008D0AF
:10B6B0002878B02802D1284602F0D2F82846FEF7B2
:10B6C000DBFC0120C003604070BD002070BD0000A5
:10B6D0002059FF1FFFB587B0087A0025109E1C4631
:10B6E0000F46C0060DD5099801F096FF030006D05D
:10B6F0000A22394607989847050035D101E00E2502
:10B7000032E0387802281DD1786829220178407803
:10B7100012020002081880B2811A90427ED009DC21
:10B720007249401A23D0012821D0022851D0032881
:10B7300008D125E0012972D0022971D003296DD0EA
:10B7400004296ED0099801F08FFF0028D7D0056832
:10B75000002DD4D0129911980191009033462246C1
:10B7600039460798A847054628460BB0F0BD119802
:10B77000002873D1F868017831800278416897E039
:10B78000119800286AD101203080F86800210078E3
:10B7900020707889401C80B200F04EF900280FD04C
:10B7A000318802788918891C3180817A61704189D9
:10B7B000090AA17002784168E01CFEF739FCD3E762
:10B7C00030880422001D30800021601CFEF748FCF8
:10B7D000CAE71198002872D1F86804A9008800907F
:10B7E00004203080009820700098000A6070009853
:10B7F00000F022F9070028D0F86805906846028A10
:10B8000003AB3B49384600F06FF900280FD13B7875
:10B81000022138487A68FFF704F803E027E031E0B6
:10B820001DE049E0002802D1401E69468881059844
:10B83000007802280CD1059802224168201DFEF7ED
:10B84000F7FB3088801C308002E0694600988881D0
:10B8500068468089A070000AE07085E72FE01198A3
:10B8600000282CD1F968079800F046F804E01198F8
:10B87000002824D1F8680088022131802070000A55
:10B88000607071E7F868FEF75DFC1199C0B2814203
:10B8900010D8814201D1002206E0129A8918814213
:10B8A00002D31199401AC2B23280F968119809186E
:10B8B000204682E7072557E71198002801D00B257D
:10B8C00052E70721F8683180017821704178617072
:10B8D0008178A1704188090AE1700179217181792B
:10B8E0006171C088000AA0713EE7000000280000D6
:10B8F000FFFF0000760A011110B501F094FE002848
:10B9000000D0807810BD00007CB51446050019D029
:10B9100068460195018000F09BF903001DD1002CC1
:10B920001BD06D89002D0DD00C20FEF7D5FB002813
:10B930000AD0002303608580094A84609168002949
:10B9400004D006E0022308E0132306E0906004E040
:10B9500011460A68002AFBD1086018467CBD000029
:10B960002059FF1FF8B50C4C0746207815460E46A7
:10B97000FF280FD00A20FEF7EBFB01000AD0B12010
:10B9800008700020487008714F80CE800D812078AB
:10B99000FEF7BAFBF8BD00002059FF1FFFB583B0CA
:10B9A00008461F4601A90C9E00F046F8050012D07B
:10B9B0006846808801F058FE00280AD04468002CB0
:10B9C00007D000963B462946059A0398A04707B042
:10B9D000F0BD0E20FBE70120F9E7000070B514462A
:10B9E0000E46054601F01FFE002806D131460548E7
:10B9F00001F019FE002803D005808470002070BD7E
:10BA0000112070BDFFFF000010B50178B0290BD1E7
:10BA10004178002908D10179122906D01B2903D1C8
:10BA20004088012100F048FA10BDFF210231095C75
:10BA30000129F5D010BD0000F0B58C4610494B68C7
:10BA400019E09F687C89A04214D39E8831198142F5
:10BA500010D900220CE011017D186989814205D1BD
:10BA60006046002800D004802846F0BD521C92B2E7
:10BA70009642F0D81B68002BE3D10020F0BD0000F7
:10BA8000485CFF1FFFB5174881B00A9F446824E057
:10BA900000251EE0A0682901461870890199884296
:10BAA00015D30299884212D80498002807D031781B
:10BAB0007068049B039AFEF7B4FE002807D0002F9D
:10BAC00002D0A06840893880304605B0F0BD6D1CBA
:10BAD000ADB2A088A842DDD82468002CD8D10020BF
:10BAE000F3E70000485CFF1FFEB5174600256A46D5
:10BAF0009580044640891D4A1E46904208D001AAFE
:10BB00000092401C237880B26268FFF7BBFF0546B5
:10BB10002378022116486268FEF783FE002807D1C9
:10BB20002378022113486268FEF77BFE002801D0CB
:10BB300060890EE0237802210F486268FEF771FEEB
:10BB400000280DD0002D03D068468088B84203D06D
:10BB5000384602F081FA04E06889401E80B200E0B5
:10BB60006089002E00D030802846FEBDFFFF000017
:10BB7000740A0111760A01117A0A011110B50549FA
:10BB80000870042100F00EFA00F006F8FEF7E8FE57
:10BB900010BD0000585CFF1F70B50E4C00200C4B10
:10BBA000651CFF228100C91800280ED00D80401CA2
:10BBB000CA70C0B28A700228F4D3074801F01EFD93
:10BBC000064803F0FDFA002070BD0C80EFE700008E
:10BBD000505CFF1FFEFF000089DF001109DF00112C
:10BBE000F8B50D4614460646694601F063FB172872
:10BBF0000CD0002C06D001221021304603F05AFA56
:10BC0000002803D129463046FEF7A0FEF8BD00000B
:10BC100070B50C46080411D509480078FEF726FADD
:10BC2000050007D00178A02901D101F08BFC28463E
:10BC3000FEF722FA0120C003604070BD002070BDF5
:10BC4000585CFF1F0149087070470000485CFF1FE7
:10BC500070B50546008800281DD068680221037869
:10BC600042682248FEF7DDFD002808D168680221FD
:10BC7000037842681E48FEF7D4FD00280BD01D4C07
:10BC80006088002805D0012229881204101A8142F8
:10BC900003D9012070BD022070BD0C20FEF71CFAF4
:10BCA000060001D000200AE0132070BD02016B687D
:10BCB00061880A329952491C401C618080B22988EF
:10BCC0008142F3D80020306008222946301DFEF75B
:10BCD000AFF96068002802D1666004E00846016898
:10BCE0000029FBD10660002070BD0000740A01111C
:10BCF000760A0111485CFF1F0649496806E08A6818
:10BD00005289824201D18888704709680029F6D19A
:10BD100000207047485CFF1F10B50C460321FEF75A
:10BD20001DFA214600F090F910BD10B51422114201
:10BD300001D0012202E04A0604D50022102103F0BE
:10BD4000B9F910BDC80701D0002010BD022010BDF8
:10BD500010B514468A0604D50122102103F0AAF971
:10BD600010BD882211420ED008220A40102103F093
:10BD7000A1F900280BD0E034617E0029F0D0217EAB
:10BD80000129EDD103E0880701D4032010BD002074
:10BD900010BD0000014610B50020C90704D0034AB9
:10BDA00007210348FFF7B0FD10BD0000680901112D
:10BDB0009459FF1F70B50D46164600241D49030017
:10BDC000FEF748F908051234341934222934152DA8
:10BDD00023D8162200211848FEF742F92A46314698
:10BDE0001548FEF725F922E0022D16D111491088D9
:10BDF000103908801BE0082D0FD10E48082231466B
:10BE00000838FEF7B1F912E0012D06D1CA690949D7
:10BE10003078283107E0012D01D0182407E0CA6BE3
:10BE200004493078483102F0DEF900E0022420466F
:10BE300070BD00009459FF1F888CFF1F0B780370A2
:10BE40000B8802221B0A43700B88801C012B02D036
:10BE5000022B07D011E08A7802704988090A4170E4
:10BE600004220AE08A7802704A88120A42700A792B
:10BE700082708988090AC170062210467047000046
:10BE800008B5044B009313460A46012103F062F8FB
:10BE900008BD00003DBE00111CB5032301920093B4
:10BEA0000A46024B122103F085F81CBD75E800110B
:10BEB00010B5FEF75FF910BD13B5044800780128EE
:10BEC00003D101AA6946FEF75BF91CBD645CFF1F44
:10BED00070B50F490F4A087000210B468C00491CB1
:10BEE000C9B213530429F9D30A4C00211034FF2698
:10BEF0000A460A256A4315196B80491CA354C9B226
:10BF00006E720329F4D3FEF741F902F0F7FF70BD1A
:10BF1000655CFF1F1092FF1F082A01D001207047A7
:10BF20004B780A781B02D2180280CB788A781B02E1
:10BF3000D21842804B790A791B02D21882808A7902
:10BF4000C97909025118C1800020704770B50C46AC
:10BF5000080411D509480078FEF788F8050007D0D5
:10BF60000178902901D102F02BFF2846FEF784F8D2
:10BF70000120C003604070BD002070BD655CFF1FE4
:10BF800070B500280AD1064C00252580A581A58022
:10BF9000A068002802D0FEF7FFF8A56070BD000081
:10BFA0008C92FF1F072907D0052905D0042903D04B
:10BFB000062901D002207047044A8B009A181346C4
:10BFC000403B1986203A9074002070471092FF1F62
:10BFD00070B506001BD10E4C0025214640310D7472
:10BFE0004D740D76606D002802D0FEF7D5F86565BA
:10BFF0005C20002546433419E800201840680028DA
:10C0000001D0FEF7C9F86D1CEDB20A2DF4D370BD56
:10C010009C92FF1F70B50A880C460546072A07D078
:10C02000052A05D0042A03D0062A01D0022070BDBB
:10C03000012103F0F3F8002804D02146284602F03D
:10C040002FFC70BD142070BD1CB504460D4801299D
:10C05000017003D00020FEF7A5F81CBD6946002042
:10C06000FEF7A6F8684681882046FEF777F8044672
:10C070000120FEF797F80023224619461846FEF7DE
:10C080009DF81CBD645CFF1F10B5001D80B2FEF75B
:10C090009BF8002803D00321C943FEF79BF810BD8D
:10C0A0008307FF22DB0E9A408907090E994000287A
:10C0B0000BDA0007000F0838830808489B0018189F
:10C0C000C36993430B43C3617047830804489B00D3
:10C0D0001B181868904308431860704700ED00E093
:10C0E00000E400E038B50C46050014D0002C12D056
:10C0F0000321684603F01CFA6946887840218006CF
:10C10000800E0843694688702246284603F048FF9F
:10C11000050002D006E0022038BD03226946E01C7B
:10C12000FDF786FF284638BDF7B58EB00E98154648
:10C130000E4600282DD0002D2BD0301DC0B201900E
:10C14000FDF7CAFF040039D000F004FA0746324672
:10C15000201D0E99FEF744F8F8B20890E0703804FC
:10C16000000E0B90A0703802000E0A9060703F0E17
:10C17000277000F0E9F90146102202A8FEF730F816
:10C1800006AB214602A8019A03F060FE060003D028
:10C1900010E0022011B0F0BD089828700B9868706C
:10C1A0000A98A870EF70082206A9281DFEF718F853
:10C1B00000F0D6F92046FDF7A1FF00E01326304637
:10C1C000E8E7000010B5064C2070FEF70FF80621D6
:10C1D0002078FFF7E7FE034802F0F2FF10BD0000F1
:10C1E000745CFF1F85F5001170B50C46080419D565
:10C1F0000D480078FDF73AFF05000FD003F0E2FA92
:10C20000002808D109480078FF2804D02946FDF706
:10C210007BFF002802D02846FDF72EFF0120C00337
:10C22000604070BD002070BD745CFF1F3C5CFF1F50
:10C2300010B505480078400701D5044800E000200B
:10C2400003F048FB002010BDB75BFF1F685CFF1FB9
:10C25000FFB58DB00F98169C0E46002815D0002C07
:10C2600013D00D9802F04CFF050011D061782078B2
:10C2700009024018A178E2780904120689184718C3
:10C28000286AB84206D3401C04D0022011B0F0BD89
:10C290001420FBE7002E04D02879800701D4012068
:10C2A000F4E70822002106A8FDF7DAFE1098001D29
:10C2B000C0B20190FDF710FF060017D0301D109A94
:10C2C0000F99FDF78DFF042221463046FDF788FFC8
:10C2D0001022A91802A8FDF783FF06AB314602A879
:10C2E000019A03F0B3FD050002D013E01320CDE75F
:10C2F000082206A908A8FDF773FF0822211D08A837
:10C30000FDF7A2FE012801D0012503E039460D9872
:10C3100000F018FF3046FDF7F1FE2846B6E70000B2
:10C32000FFB583B00F4603981B4940001646085AD4
:10C33000FFF7AAFE04002AD00125601C2670002FFA
:10C3400003D00699B847401C85B2300610D510219D
:10C35000039802F063FF002801D0192613E0621948
:10C36000E9B22046FFF7E0FE06000CD10C35ADB275
:10C370000421684601800194058169460398FFF70E
:10C3800049FE060004D02046FDF706FF00E0132614
:10C39000304607B0F0BD0000B05BFF1F10B50C4683
:10C3A00002F0C2FE002804D040882146FDF7B8FE06
:10C3B00010BD122010BD0022002913D0002811D07A
:10C3C000012806D04A799206920E4A71032805D0B8
:10C3D00007E04879C0221043487102E04020024340
:10C3E0004A7101221046704770B512480025007846
:10C3F000052108421BD02020FDF76EFE0E4C0028C0
:10C40000A06013D020220021FDF72AFE2020FDF796
:10C4100063FEE060002804D020220021FDF720FE0A
:10C4200005E0A068FDF76AFE0020A06013252846FD
:10C4300070BD0000B75BFF1F205CFF1F002909D003
:10C44000012807D1497989098901C02902D04029E9
:10C4500001D00220704703207047FFB500200E4630
:10C4600008701AE01C5C401CC5B2002C17D02819BB
:10C47000904214D85F5D6D1CEDB2384600F08BFE23
:10C48000002806D0641EE0B2307000998F4202D1BD
:10C49000581904B0F0BD4019C0B29042E2D3002058
:10C4A000F7E7000010B5044C2068002803D0FDF722
:10C4B00025FE0020206010BD7C5CFF1F70B50E4D76
:10C4C00084002859002815D0006A002801D0FDF703
:10C4D00015FE2859406A002801D0FDF70FFE2859A3
:10C4E000806A002801D0FDF709FE2859FDF706FEF5
:10C4F0000020285170BD0000185CFF1F10B5044CCF
:10C500006068002803D0FDF7F9FD0020606010BDD1
:10C51000105CFF1F0100044805D1044989780029F7
:10C5200001D00248801D70470492FF1FB65BFF1FB9
:10C530000148807870470000B65BFF1F01484068E3
:10C5400070470000F491FF1F0148806870470000A9
:10C55000F491FF1F0148C06800687047F491FF1F05
:10C5600010B50748C0680168491C0160054800789B
:10C57000FF2803D001218903FDF796FD10BD0000BF
:10C58000F491FF1FB65BFF1F02484068002800D0EF
:10C5900001207047785CFF1FFFB581B00F460D9EEC
:10C5A0000A9D039802F0ACFD040042D001980028D7
:10C5B0003FD120791021084320710499490702D501
:10C5C0000221084301E0FD21084020710B99284613
:10C5D00008430C9908433043207902D004210843D2
:10C5E00001E0FB2108402071002E06D030691022A6
:10C5F00020623146A018FDF71BFD002D01D0002F51
:10C6000005D00B98002814D0012F08D011E0606AE3
:10C61000002801D0FDF772FD1C21284606E0606A63
:10C62000002801D0FDF76AFD1C210B98FDF7E4FD01
:10C6300060620398224C8700E05900283ED0002D0C
:10C640000FD0006A002806D11C20FDF745FDE159F6
:10C650000028086205D0E0591C22006A2946FDF72F
:10C66000E7FC0C98002810D0E059406A002806D159
:10C670001620FDF731FDE1590028486205D0E05948
:10C680001622406A0C99FDF7D3FC002E10D0E05919
:10C69000806A002806D11420FDF71EFDE15900280C
:10C6A000886205D0E0591422806A3146FDF7C0FC4B
:10C6B0000B9B049A0399019802F0D6FD05B0F0BDDA
:10C6C000185CFF1FF3B581B0019802F019FD050059
:10C6D00029D00E20FDF73CFD040024D02620FEF7D3
:10C6E00083FD060000D12E78D020207000276770CF
:10C6F0000B20A0700622E91DE01CFDF799FC0198B3
:10C7000060810298C1070120002901D0207300E058
:10C7100027730299890701D5607300E06773F0B24F
:10C720002146FDF7F1FCFEBD10B581881F4B0124A9
:10C73000CA1A994237D011DC1D4BCA1A994219D036
:10C7400007DC1C4A8A1810D0022A1ED0032A29D1DD
:10C750001BE0472A27D0482A24D124E01300FDF704
:10C7600079FC06212222222222218068007800F012
:10C77000D3FC08E08068827841781202891889B277
:10C78000007800F029FD04460DE0094A921E91420E
:10C7900001D1012200E0002280680178104600F0FB
:10C7A00003FD00E00024204610BD000053200000DF
:10C7B0000A200000FADFFFFF70B51A4D1A4A014641
:10C7C000002628781268194C01290CD0002A09D0BB
:10C7D00017490978490705D50221FDF75FFC6680F6
:10C7E000FFF760FE70BD6188002903D0114B1B78F4
:10C7F000002B05D0002AF5D01078FEF7CBFC70BDD9
:10C800003C2902D33C39618070BD0221FDF746FC12
:10C8100062887D20C000424302212878FDF738FC61
:10C82000668070BD3D5CFF1F7C5CFF1F205CFF1FAE
:10C83000B75BFF1FB95BFF1F08B5418900910389F2
:10C84000C2888188C07800F0B3FB08BDF0B504460B
:10C850008088A12189004843304987B00968401881
:10C86000FF30FF300230A1794167002C54D02C4DAD
:10C870006868002823D006782A480068002804D079
:10C880004168002901D0002088472146E07908311D
:10C890000591FFF7D3FDE0710246277D638A218A67
:10C8A000E089019002A88AC0A0880090E078314613
:10C8B000059B02F04FFDE078002802D00DE01A48F9
:10C8C000D9E7E079E2896B46059907C3A379A18886
:10C8D0000122304602F0C2FBE0706868002811D0E7
:10C8E000FFF70CFE287800280CD06978FFF756FD7A
:10C8F000002807D0E078A2880346297802F057FD87
:10C9000000202870A0881721FEF79EF9A088FFF765
:10C9100037FBA088FFF75CFB07B0F0BD3409FF1FB1
:10C92000105CFF1F405CFF1FB65BFF1F70B5044625
:10C930000026808802F0E4FB002803D00678A08857
:10C9400002F050FC144D2878002808D0864206D109
:10C950006978FFF723FD002809D000202870002EF9
:10C9600005D0A379A288A078314602F020FDA088E6
:10C97000094A810008325158002901D0FFF79EFD75
:10C98000A0881721FEF760F9A088FFF7F9FAA088C0
:10C99000FFF71EFB70BD0000105CFF1F70B58288A2
:10C9A000294D0124531B2949AA4242D019DC284DA4
:10C9B000531BAA4218D00BDC264BD21826D0254B8D
:10C9C0001033D2181ED0032A17D0042A39D10BE015
:10C9D000012B09D0022B07D0032B21D0042B30D1FF
:10C9E0001AE0433B072B2CD8496800292AD0096854
:10C9F000002927D08847044624E08068007800F0AA
:10CA0000ADF81FE0806800F001F9F4E78068411C90
:10CA1000007800F0D9F8EEE783681B78002B11D07E
:10CA2000896800290ED00B6808E001461046984737
:10CA3000E1E709490968002904D04B68002BF4D1CB
:10CA400000E00024204670BD0E2000003C5CFF1F6B
:10CA500008200000F7EFFFFF1C5CFF1F10B5094C1A
:10CA6000A17800290CD001460622A01DFDF7E0FAAE
:10CA7000A11DA078FFF79FFCA01DFDF7C3FB10BD13
:10CA8000002010BDB65BFF1F1CB52F4903780124A1
:10CA90000A68912B02D0A22B2ED13EE041780529C5
:10CAA00009D00E2904D00F2908D03E2924D115E041
:10CAB000FFF774FF10E0FFF739FF3AE00146808886
:10CAC000224B0124C31801D0062B15D1002A30D0E7
:10CAD0005268002A2DD0904704462AE0817801242C
:10CAE000032917D004DC012911D0022904D105E063
:10CAF00015291ED016291CD000241AE01449896873
:10CB0000002916D04968002913D0884711E0FFF7A3
:10CB10009DFE0EE0FFF790FE0BE00E490978042918
:10CB200009D0002A05D05268002A02D001460A48DE
:10CB3000904720461CBD00216A461180017940883B
:10CB4000FFF79EF9F5E700001C5CFF1FF3DFFFFF16
:10CB50003C5CFF1FB75BFF1FFFFF0000F8B5164FDF
:10CB60000646BD1F2878FF2814D00A20FDF7F0FAEA
:10CB700004000FD0D020207066700820A070A87824
:10CB8000E07006223946201DFDF752FA214628782A
:10CB9000FDF7BAFAE87801280DD1084800680028A6
:10CBA00003D08068002800D080470648044A04214A
:10CBB0000078FDF797FAF8BDBC5BFF1F405CFF1FD4
:10CBC00060EA00003D5CFF1F70B5002405460028A8
:10CBD00005D1002903D006220B48FDF729FA0A489F
:10CBE00010380178012907D10124002D06D0002139
:10CBF0000170284600F0B8F9204670BD022101708E
:10CC0000FDF706FBF8E700000492FF1F10B50024B3
:10CC1000002813D002780B49002A03D14288CA8227
:10CC200002790A760A78022A08D102780124002AB9
:10CC300006D000220A70007800F096F9204610BD58
:10CC40000322F7E7F491FF1F014948607047000095
:10CC50003C5CFF1FF8B57A4C877801460025072613
:10CC60006079A2793B00FDF7F5F90805361A3737E8
:10CC70005F9ACD36487800285CD1714806223C3056
:10CC8000C91CFDF7D5F90120A0716D4B0146423357
:10CC900062786079FEF74EFC00284BD1A8E00F4681
:10CCA0004978002946D1F978002906D0654BA27849
:10CCB0000021FEF73FFC78700AE0022A0BD0012128
:10CCC000FDF7F8F9002803D101216079FDF7ECF9AF
:10CCD000787800282ED1F8BD497800292AD1032F71
:10CCE00009D0A289002A0CD0217800290AD001217C
:10CCF000FDF7CEF906E0052A01D0022012E0062059
:10CD000010E02570A079062802D0042802D008E09F
:10CD1000052007E00120207001466079FDF7C4F985
:10CD200066E00320A07163E048780F46002803D036
:10CD3000312832D0A6715BE041480622391D3630D9
:10CD4000FDF776F97889E081B8892082F8896082D8
:10CD50000520A071A28A002A03D002216079FDF784
:10CD600097F9B889E083F8892084388A6084E0786C
:10CD700001280AD11F20FEF737FA7D21C900484358
:10CD8000024604216079FDF783F97A89F878042353
:10CD9000391DFDF743FA25702AE02570C1E72848C0
:10CDA0000E46062200213630FDF75AF9E583258428
:10CDB000658404216079FDF771F908216079FDF738
:10CDC0006DF9B079082808D00320A07120780028D8
:10CDD00005D06079FEF7DEF907E00420F5E70120D1
:10CDE000207001466079FDF75FF90020C043E081C3
:10CDF000606A002800D16EE701680029FBD0A079A5
:10CE00008847F8BD0D460821FDF748F9687829469E
:10CE10000028F6D1E888E083288920844889608446
:10CE200004216079FDF746F90028EAD1A06A0028BC
:10CE3000E7D00368628C218CE08B9847F8BD000036
:10CE4000085AFF1F9E8CFF1F10B501781C4C9129BA
:10CE500006D0A2291BD0D02901D1FFF7FBFE10BDBF
:10CE600041780E29FBD18188164A9142F7D1816819
:10CE700003200856A1790529F1D17F28EFD0616AF6
:10CE80000029ECD049680029E9D0884710BD4179D4
:10CE90001329FBD10089012802D12079022808D06A
:10CEA0000520FEF7A1F9024608216079FDF7F0F8A8
:10CEB00010BD08216079FDF7F1F8FEF73BF910BDD0
:10CEC000085AFF1F051400007CB5154C0546E08B81
:10CED000E18A88420AD3218B884207D8208C618B53
:10CEE000884203D1608CA18B884217D00520FEF7C1
:10CEF0007BF90646E18A68460180218B4180618B7F
:10CF00008180A18BC18062796946E089FEF7C4FF08
:10CF10002571324608216079FDF7BAF87CBD000022
:10CF2000085AFF1FF8B507460E46084602F0E8F813
:10CF3000040018D02620FEF757F9050000D1257807
:10CF40000620FDF705F904000DD006220021FDF7AB
:10CF500087F8D020207067700E20A070A680E8B2FD
:10CF60002146FDF7D1F8F8BD70B50F4D064628787B
:10CF7000FF2818D00E20FDF7EBF8040013D0D020C6
:10CF8000207066700020A07006220849E01CFDF7A2
:10CF90004FF806481038C18A6181007E207321460F
:10CFA0002878FDF7B1F870BDB65BFF1F0492FF1F34
:10CFB000FFB581B01E4617460D460C20FDF7C8F898
:10CFC000040013D0284602F09BF8002810D0007807
:10CFD000D0212170019961700721A170A580E7809F
:10CFE00026810A9961812146FDF78EF805B0F0BDD2
:10CFF0000048ECE7B65BFF1F70B50D4D044628688E
:10D000000E46002812D00620FDF7A2F8010009D034
:10D01000D02008704C70032088708E8028680078BB
:10D02000FDF772F8002C01D0FFF73CFA70BD00004C
:10D030007C5CFF1FFFB581B01F460E46084602F01C
:10D040005FF8050022D01020FDF782F804001DD003
:10D0500010220021FDF704F82620FEF7C5F800286D
:10D0600000D12878D0212170019961700F21A17021
:10D07000A6800399217267720A99A1720B99E172D5
:10D080000C99E160C0B22146FDF73EF805B0F0BD55
:10D09000F0B51F4D85B02868002837D08778FEF797
:10D0A0001FF9002805D00A20FEF79EF804900B20F7
:10D0B0000EE001F0ADFB002805D00620FEF794F845
:10D0C0000490072004E00820FEF78EF80490092061
:10D0D000FEF78AF804460F480078002814D001268D
:10D0E0002968C878091DFFF766F929686D46CA7A6C
:10D0F0008B7A091D0BC5039233463A4621460498A4
:10D10000FDF792F805B0F0BD0026E9E70120F9E748
:10D110007C5CFF1FB85BFF1F10B509490968002937
:10D120000CD0002805D101204870FCF7C9FF002869
:10D1300002D00021FFF760FF012010BD002010BDCC
:10D140007C5CFF1FF8B50C4601F0DAFF020021D02D
:10D1500026201462FEF748F805062D0E00D115783A
:10D160009679D01D00901020176AFCF7F1FF04009B
:10D1700010D0D0202070002060700920A070E670D0
:10D180000622201D0099FCF753FF21462846E76040
:10D19000FCF7BAFFF8BD411E152903D9FF2801D0BD
:10D1A000002070470120704770B50A4E0546307860
:10D1B0000C46FF280DD00420FCF7CAFF010008D060
:10D1C000D02008704C7002208870CD703078FCF749
:10D1D0009BFF70BD205CFF1FF3B5284D81B0286810
:10D1E00000284AD04078264E012803D03078002805
:10D1F00031D041E001F00CFB224F002813D0012078
:10D20000FDF7F2FF0446412808D91F4A0221387869
:10D21000FCF768FF1D483C3C44800EE07D20C000C8
:10D220002246424303E00020FDF7DEFF0246002ACB
:10D2300003D002213878FCF72BFF296802204870C0
:10D240003078002802D00020307015E00299019853
:10D25000FFF7D2FE10E00320019CFCF779FF0100EC
:10D2600008D0D02008704C7004208870286800789E
:10D27000FCF74AFFFFF716F90120FEBD7C5CFF1F9B
:10D28000B95BFF1F3D5CFF1F60EA0000205CFF1FD1
:10D29000074A00218B00D35A834202D188008018AC
:10D2A0007047491CC9B20229F4D30020704700001E
:10D2B000505CFF1F10B50C46FFF7EAFF00280DD0A9
:10D2C000002C00D020608078FE2803D0FF2803D0F7
:10D2D000162010BD172010BD002010BD022010BD6B
:10D2E000FFB581B0FF201E46174605300A9DFCF7AA
:10D2F0002FFF04001BD0B020207067700298608060
:10D300002671002D06D02046FC2229460830FCF765
:10D310008FFE05E02046FC2200210830FCF7A0FE2D
:10D3200021460198FCF7F0FE002005B0F0BD132067
:10D33000FBE700000548172202800988172901D25F
:10D34000042070470180002070470000B25BFF1F7F
:10D350000020704708B50A460888498888420BD8DB
:10D36000002809D0002300931379521DFEF78AFB91
:10D37000002803D0002008BD012008BD0A2008BDF8
:10D38000F3B50D4608884988002687B0814215D339
:10D39000002813D0002769460F7100970023698881
:10D3A0001A46FEF76FFB04004FD06846007900284C
:10D3B00007D069464979012925D008E0012009B044
:10D3C000F0BD217802291BD002216A465171122238
:10D3D000504301AA61898018418068460079122370
:10D3E000584380181022001D6168FCF721FE684632
:10D3F0000079401C0106090E684601711FD11AE030
:10D4000001216A465171217802291ED1820001A8AA
:10D410006189121851806A46127961689200101869
:10D420000222001DFCF704FE6A461079401CC0B2BF
:10D430001071052803D261890A48814200D1012672
:10D440006089401C80B2002EA7D068460079002871
:10D4500005D001A90798FDF75FFA0020AFE70A2081
:10D46000ADE70000FFFF000038B50C46088849888A
:10D47000884215D8002813D02379621D02210B4859
:10D48000FDF7CFF900280DD00020009023796188A6
:10D490002088621DFEF7F6FA002805D0002038BD6E
:10D4A000012038BD102038BD0A2038BD740A011192
:10D4B00008B50A460888498888420BD8002809D050
:10D4C000002300931379521DFEF7DCFA002803D0E5
:10D4D000002008BD012008BD0A2008BDF8B50025C0
:10D4E0000F4606460C46E03717E06800205A002138
:10D4F000FEF7A2FA002809D0017A3046FEF715FCA3
:10D50000002808D06900615A2180F8BD6800205ABF
:10D5100020800120F8BD6D1CEDB2B87DA842E4D892
:10D520000020F8BD10B5044608880021FEF784FAF3
:10D53000002804D0017A2046FEF7F7FB10BD012039
:10D5400010BD000030B585B005466946FDF758FAB4
:10D55000040026D168468078C1071E4809D0826839
:10D56000002A04D0688869469047044619E00624DA
:10D5700017E04268002A05D0688869469047040091
:10D5800001D10EE0062468464078002809D168469B
:10D59000817801730021C1810474688803A9FDF7B3
:10D5A0007BF9A868002801D0FCF7F6FD002C05D116
:10D5B00068468078122807D01B2803D0688801218C
:10D5C000FEF77AFC05B030BD684640780128F5D1F9
:10D5D000F8E70000585CFF1F70B505460C46088848
:10D5E0000021FEF729FA002805D0017A22462846B4
:10D5F000FEF7AEFB70BD012070BD00000149486020
:10D6000070470000585CFF1F10B50446801C00F0F6
:10D610002FFDFF20E07010BD10B500F025F80028A8
:10D6200000D0806810BD00229300CB5A834202D103
:10D63000900040187047521CD2B2022AF4D3002046
:10D6400070470000074A0021CB00D35A834202D121
:10D65000C80080187047491C0906090EF4D0002044
:10D66000704700003059FF1F0649896805E08A8825
:10D67000824201D18868704709680029F7D10020EB
:10D68000704700002059FF1FF8B50746012906D052
:10D69000022924D1012101F0C1FD00281FD1384603
:10D6A000FFF7D0FF050015D000240D4E0CE0F82048
:10D6B0006968604308180188002908D0F822002111
:10D6C000FCF7CEFC641CE4B270788442EFD30020F7
:10D6D000C0432880024938461831FDF79BFFF8BD4A
:10D6E0002059FF1FF3B5064683B008300190002093
:10D6F00000907088FFF7A6FF07002FD0002523E0D9
:10D70000F820796868430C182188002920D00198F6
:10D71000007801280FD160880090A3887088A21D2E
:10D72000FEF73CF90090002805D001990020087010
:10D73000049821880180F82200212046FCF790FC03
:10D7400000206D1C2080EDB2074840788542D7D379
:10D750000020C04338800098002802D17088FDF76F
:10D76000C5F8009805B0F0BD2059FF1FF3B5054678
:10D77000374C064685B00835F62200212046FCF7D6
:10D780006FFC03A800902B79698828886A1DFEF732
:10D7900079F9074645E070882E4A4100515C2E4BCE
:10D7A000C91FC9B20093002202910192284B694619
:10D7B0008A89F63B3946FDF78DFF002812D12648AD
:10D7C0002989001F828891420CD121492846F639C7
:10D7D0000A30FCF739FC002804D0217878898900C8
:10D7E0000919488068468289698804AB3846FEF783
:10D7F0007BF907462078810009194A88002A10D051
:10D80000002F05D06A46128A401C20708A800AE0E8
:10D8100002060021920DC9431219401C207091800C
:10D8200006E0002F04D00D48217800888142B2D351
:10D830002078002806D070882146FDF75FF8002088
:10D8400007B0F0BD0698298801800A20F8E700009B
:10D850008E8BFF1FB05BFF1F2459FF1FAC5BFF1FA8
:10D86000F0B585B0044600206946888120790E28ED
:10D8700069D00FDC082823D004DC022813D0062846
:10D8800018D118E025460835484F0A281DD00C2825
:10D8900010D138E010285BD012285ED0162861D055
:10D8A000182877D163E043484149008808806088A0
:10D8B000FCF7FCFF6EE003A92046FFF757FF5AE094
:10D8C00003A9204600F076F955E0288804A9FEF760
:10D8D000B3F8010015D06088354E4200BA5C0023D1
:10D8E000521ED2B20193029200966A46B31C128A6B
:10D8F000FDF7F0FE00281DD160883146FDF784F960
:10D9000048E0012016E0288804A9FEF795F80100F8
:10D91000F7D060886B884200BA5C254E521ED2B2A6
:10D920000193029200966A46B31C128AFDF7D2FE5A
:10D93000002803D029886A4691811CE0608831461E
:10D94000FDF732F926E003A9204600F0D3F912E0F2
:10D9500003A9204600F082F80DE003A9204600F05C
:10D9600039FA08E003A9204600F028F803E003A9EB
:10D970002046FFF7B7FE00280CD06178142909D0A3
:10D980000B4922790A706A4692894A800871608838
:10D99000FCF782FF2046FEF737F80748C1680029E8
:10D9A00001D02046884705B0F0BD0000B05BFF1FE6
:10D9B0008E8BFF1FAA5BFF1F2059FF1FF8B504467F
:10D9C0000F460546083400896946FEF735F806001B
:10D9D0003AD0307A80060ED568460088FFF71CFEE4
:10D9E000030006D06888122231469847060002D00C
:10D9F0002BE00E2629E06E883046FFF723FE01005B
:10DA000005D11448FFF71EFE01000ED00E80124A09
:10DA10000020527807E0F8264B6846439B5B002BBA
:10DA200005D0401CC0B29042F5D309260DE04968EC
:10DA3000F822504308182146FCF7FAFA00266888B5
:10DA40002146FDF7A7F802E00126208838803046FD
:10DA5000F8BD0000FFFF00002059FF1FF3B58BB099
:10DA600000200B9E0746039004A800903246337BAB
:10DA7000718930894C4C0D320836FEF703F80546A3
:10DA800078E00B98297A4088FEF74FF9070003D019
:10DA90000C98698901806FE00B9844494088444B99
:10DAA0004200895C0093891FC9B200220291019251
:10DAB0003D4B69460A8AF63B2946FDF70BFE0700F7
:10DAC000E6D10398002833D039486188001F808848
:10DAD000021D914253D1039909180B9840884200C6
:10DAE0003248805A801F814249DC0399A87A611824
:10DAF000087103986989401C80B22218090A401CE9
:10DB0000117180B203906846028A718807AB28467B
:10DB1000FDF7EAFF050011D003986946898B2018AC
:10DB2000017103986946401C898B80B2090A0CE098
:10DB30001F48001F8088001D6080D6E70398FF21E2
:10DB4000201801710398401C80B222181171401CEA
:10DB500080B217490390091F8A8813492018F639A3
:10DB6000001DFCF765FA12490398091F89884018BF
:10DB700080B20390002D84D1039800280CD06188D6
:10DB80000398FCF7EBFA20700B9821464088FDF7CC
:10DB900015F800200DB0F0BD002F00D10A270C9819
:10DBA000318801803846F5E78E8BFF1FB05BFF1F81
:10DBB0002459FF1FF3B50746044608378BB0494880
:10DBC0000490388800252E4605906AE007A800904A
:10DBD0003B7979887A1D0598FDF754FF0890002855
:10DBE00052D0408905900898017A6088FEF79DF828
:10DBF00006005DD160883C494200895C3B4B091FAF
:10DC0000C9B20093002202910192364B69468A8B79
:10DC1000F63B0899FDF75EFD060049D1002D36D090
:10DC2000049841883148001F8088801C814241D17E
:10DC30002E4B1B1F98882918608842002A48805A5A
:10DC4000001F814220DC0898817A049840190171F4
:10DC500008996D1C4989E8B20A0A049909180A71E1
:10DC6000401CC5B2194604988A881E494019F639E5
:10DC7000001DFCF7DDF91D481D49001F007928181B
:10DC8000C5B20598884209D1002D13D123E0174869
:10DC90000499001F8088801C4880C9E7401C80B21E
:10DCA0000590608841001048405A001FA8428DDA54
:10DCB000002D0ED0049841882846FCF74FFA014603
:10DCC0000498017060880499FCF786FF00200DB06D
:10DCD000F0BD002E00D10A260C9905980880304628
:10DCE000F5E700008E8BFF1FB05BFF1F2459FF1F5D
:10DCF000FFFF0000F3B506460446002085B0324D14
:10DD000000900836288007463046E030049048E00E
:10DD10007800305A03A9FDF78FFE01001AD0608801
:10DD20002B4B844642002948805C0093401EC0B2C1
:10DD3000002202900192244B68468289F63B60469D
:10DD4000FDF7C8FC0090002807D07800315A0698EB
:10DD5000018035E001200090F7E71D492888091F60
:10DD60008988421861884B001849C95A4B1E9A424B
:10DD700004DD081A1649091F401E88802988A81C3E
:10DD800008181349091F8A880F49F639FCF750F91A
:10DD90000F482988001F8088081828807F1C049855
:10DDA000FFB2807DB84207D96088298842000748C1
:10DDB000805A401E8142ABDB60882946FCF71AFF7F
:10DDC000009807B0F0BD00008E8BFF1FB05BFF1FF7
:10DDD0002459FF1FF3B5054683B004460835008972
:10DDE00001A9FDF729FE2746E8370646002822D07C
:10DDF000307A80060ED568468088FFF70DFC030058
:10DE000006D06088122231469847060002D013E0FF
:10DE10000E2611E0002000906B88298860882A1D5A
:10DE2000FDF7BCFD060007D1787E002807D1608889
:10DE3000FCF716FF03E00126049829880180787E0C
:10DE4000002802D0002005B0F0BD3046FBE70000FE
:10DE50000149C860002070472059FF1FF8B50446EB
:10DE60000246F820424319480025074645701037FE
:10DE70007868002807D00020C100C919401C00069E
:10DE80004D60000EF8D0124E00213046FCF7E8F845
:10DE9000002001466143C9B2F82251438B190B4956
:10DEA000C200103152180021536005E0F8274F439B
:10DEB0005368491CDD53C9B2A142F7D3401C000688
:10DEC000000EE6D0014844700020F8BD2059FF1F25
:10DED000A089FF1F7CB50C78069D022C0FD14C68E1
:10DEE0002678647824023419064EA4B2F44206D18E
:10DEF0000224DBB200950194FDF7A4FB7CBD012058
:10DF00007CBD0000FED6FFFFF8B505461D488542E2
:10DF100023D0461C002921D001292BD002291CD155
:10DF20000121284601F07AF9002816D12846FFF78A
:10DF3000AFF9040011D0A078FF280ED0FE2807D03A
:10DF400000200090E0781E2314222946FFF7C8F92C
:10DF50002046FFF759FBFF20A070F8BD2846FFF7C9
:10DF600097F90028F9D13046FFF792F90028F4D04C
:10DF70000580F8BD2846FFF78BF90400F9D026800C
:10DF8000D9E70000FEFF0000F3B50C468978C1B068
:10DF90001E2914D02E4D2878FF2829D0182927D8DB
:10DFA0004808C2002B481218803A976F002F1FD0E4
:10DFB000D06F00281CD02078002817D113E041989A
:10DFC000FFF766F905000BD000200090A378E878F1
:10DFD00000224199FFF784F906462846FFF714FB13
:10DFE000304643B0F0BD6278012A03D1122901D036
:10DFF0000620F6E702AE0096A3886178A268B847CB
:10E000000028EED1A0784008C100124808188038D6
:10E01000C26F02A94198904700280FD0617800296B
:10E02000DFD1A27869460A7008716846018941808B
:10E0300069464198FCF730FC0020D2E7A378042B16
:10E04000CFD00096002228784199FFF749F9C8E718
:10E05000485CFF1F100A011100B50346FDF74CFE96
:10E06000002803D0C018401E80B200BD184600BD75
:10E0700010B5040008D02078FF2805D0FE2803D072
:10E08000FCF7D8F8FF20207010BD0000F7B5064659
:10E090000F461020FCF720F805461020FCF71CF86E
:10E0A0000446002D3AD0002C2DD010220021FBF781
:10E0B000D7FF2A462146304601F0B8F9060023D1A1
:10E0C0002878000604D43946284600F0B9FF08E055
:10E0D0002146284600F0B4FF3A461149204602F096
:10E0E00029FC3878000604D43846029900F0A8FFCD
:10E0F0000AE02146384600F0A3FF09492046029A6B
:10E1000002F018FC00E013262846FBF7F7FF002C6E
:10E1100002D02046FBF7F2FF3046FEBD1326F6E79D
:10E120009A0A0111F8B5069800271D4614460E46B6
:10E13000002801D00B20F8BD30780021022801D042
:10E1400019804DE07068027840780002101815229E
:10E1500080B25202801A0300FBF77CFF0504121FF5
:10E160001A254100F068FBF7EDFFC2B20798824222
:10E1700000D902462A80F1682046FBF759FF30E0BB
:10E18000F0680221008829802070000A607028E071
:10E19000062028800246F168EEE701202880F0681A
:10E1A000007820701DE0F068002816D00821298032
:10E1B000017821700188090A61708178A170418815
:10E1C000090AE170017921718188090A61718179F7
:10E1D000A171C088000AE07103E0298001E0298074
:10E1E00001273846F8BD10B50B78840702D5022404
:10E1F000234301E0FD2423400B7003070B7802D575
:10E200000824234301E0F72423400B7083060B7896
:10E2100002D52024234301E0DF2423400B700A2190
:10E22000084201D1810603D510780C21084304E08F
:10E23000002803D11078F3210840107010BD0000B1
:10E24000FFB581B0087800240A9E1F460D460228BB
:10E250000FD168680178407800020818152180B253
:10E260004902401A09D0012829D0022848D00328A1
:10E270003CD00124204605B0F0BDE868FBF762FF02
:10E28000C0B2864205D8F0190090152803D90D2494
:10E29000F0E70724EEE7E8683A4680190399FBF7B0
:10E2A000C7FE0098EA6880B2002111541C484068FB
:10E2B0000028DFD001680029DCD0002012E0002E09
:10E2C00012D1022BE3D10399E8680A784978090250
:10E2D00051180180124840680028CBD001680029FD
:10E2E000C8D001208847C5E70B24C3E7002EFBD127
:10E2F000062BCCD10622E8680399FBF799FEB9E713
:10E30000002EF1D1012BC2D103980078002803D050
:10E31000012801D08024ADE7E9680870AAE7000071
:10E320008459FF1F10B50448C16B034A403210687E
:10E33000D06000F027FA10BD0080004030B5C21F49
:10E340000A2A01D3062030BD0124074D944000293C
:10E3500005D0002100F0A6F82868204301E02868D5
:10E36000A0432860002030BD00380040054B01224A
:10E370008240D868002901D0104300E09043D86063
:10E38000704700000038004010B5114C207800287C
:10E3900001D0072010BDFF212D310D48FBF750FFA4
:10E3A000012020700B490020086348630A49086275
:10E3B000486202211020FDF773FE01200749000486
:10E3C0000860074A07490D20FBF740FF002010BDF9
:10E3D000E08FFF1F0080004080F0004000E100E07F
:10E3E000F5E5001169E5001110B5172801D30520E6
:10E3F00010BD0C4B9C6B0122824010462043986359
:10E40000586B90435863DC6B012907D0204690433A
:10E41000D863186B02431A63002010BD10462043D6
:10E42000F6E7000000800040054B0122801E82407C
:10E430005869002901D0104300E0904358617047AB
:10E440000038004070B5044614480E4605190029EE
:10E4500002D16878012808D000212046FFF786FF06
:10E46000022C04D0032C02D005E0072070BD01214E
:10E470002046FFF7D9FF00212046FFF75FFF08493C
:10E480000120A0404A68012E05D082434A60022044
:10E490006870002070BD02434A60FAE7E08FFF1FFA
:10E4A0000080004070B5420083180D4A9C18A57882
:10E4B0006478D65C641B0122641CA240521EAA40F0
:10E4C000084BA940132806D2B000C01883689343B4
:10E4D0000B43836070BD586990430843586170BD19
:10E4E0008B09011100F0004007494A68012383406D
:10E4F0001A4201D0096802E0034940310969C1406C
:10E50000C807C00F704700000080004070B5154C70
:10E5100045002E1976780123114AB34000290ED008
:10E52000142809D0152807D0162805D06057800078
:10E530008018816819430DE0506918430EE01428D3
:10E540000AD0152808D0162806D0605780008018F9
:10E5500081689943816070BD50699843506170BD76
:10E5600000F00040D009011170B5104D00242E19A3
:10E570007078012803D1E0B20121FFF7C7FF70785E
:10E5800002280ED1E0B2FFF7AFFF01214140E0B217
:10E5900000F078F8E0B2FFF7A7FF0C2161434919BA
:10E5A0004876641C172CE2DB70BD0000E08FFF1F73
:10E5B00010B50F4C0D4A0123245C142809D2106AAF
:10E5C000002902D0A340184301E0A3409843106201
:10E5D00010BD506A002903D0203CA340184302E03C
:10E5E000203CA3409843506210BD000080F00040E2
:10E5F0007409011170B502211020FDF751FD0120B1
:10E600001E490004086000241D4D07E0022C01D0C3
:10E61000032C03D1E0B20121FFF706FF281940784F
:10E6200001280BD1E0B2FFF75FFFE2B201461046CE
:10E6300000F064F8E0B20021FFF768FF0C206043AF
:10E640004019007E002814D0E0B200F069F8E6B26C
:10E650003046FFF749FF002801D0012100E00021EA
:10E660000C2272435219527E824202D0304600F090
:10E67000BDF8641C172CC9DB70BD000000E100E090
:10E68000E08FFF1FF8B542008318184AD55C9A182E
:10E690009278521ED4B2164A12185278022A21D108
:10E6A000144EB76B0122134683401F43B763124BCE
:10E6B00013280ED2002906D0A900C9188B68A240E1
:10E6C00093438B600BE0A900C9188B68A2401343E9
:10E6D000F7E70029596906D0A24091435961012109
:10E6E000FFF766FFF8BDA2401143F7E78B09011160
:10E6F000E08FFF1F0080004000F00040012200B5C5
:10E70000064B82400029196801D0114300E0914373
:10E7100019600121FFF796FE00BD00000080004057
:10E7200070B50446164821460C2251430D186A68FC
:10E730000026002A02D1AA68002A1CD0104B02220F
:10E74000183B1B195A700122425400212046FFF742
:10E7500079FE6868002808D0A86800280DD02046F7
:10E76000FFF7C2FE002808D0002631462046FFF7FA
:10E770003BFE002070BD122070BD0126F5E70000B1
:10E78000F88FFF1FF3B5184E002481B0074601250E
:10E790002846A040384223D00299084000D00120EA
:10E7A0000090E0B2009900F021F80C20604380193D
:10E7B0004168806800290ED0002807D00098002802
:10E7C00002D00021E0B203E00121FBE7E0B2012129
:10E7D000FFF70AFE04E0002802D0E0B20021F7E7CC
:10E7E000641C172CD4DBFEBDF88FFF1F074A0C23D7
:10E7F00043439B185A68002A01D0012904D09A6823
:10E80000002A02D0002900D110477047F88FFF1F5F
:10E8100008B509488368002B0CD01A786946012096
:10E820005B1CFDF71AFE002804D00078C00701D059
:10E83000012008BD002008BD205CFF1F10B5034665
:10E840000B4A00200A21414389184988002905D034
:10E85000401CC0B20328F5D3002010BD0A210024BB
:10E86000414354540446403488184480037210BD18
:10E870002092FF1F0A7802700A88120A42708A7872
:10E8800082704A88120AC2700A7902718A88120A52
:10E8900042718A798271C988090AC171082070475A
:10E8A000F8B505460C4648680421FBF793FC217A2D
:10E8B000017021890346401C090A017021784170CA
:10E8C0002188090A8170207A001DC2B2FB2A36D83D
:10E8D0001C48854215D114461E460C20FBF738FC17
:10E8E00001000CD090200870022008714D808E60CD
:10E8F0001548CC800078FBF707FC00271DE01327A4
:10E900001BE05C2011496843441826464036307E9F
:10E91000002806D008465C30416A0727491C41623E
:10E920000BE02146284600F095F90746307E002886
:10E9300003D121462846FBF78FFC3846F8BD02205C
:10E94000F8BD0000FEFF0000655CFF1F9C92FF1FEA
:10E9500010B50A4A00210A234B439B185C88002CFF
:10E9600006D01B79834203D10A204143881810BD89
:10E97000491CC9B20329EED3002010BD2092FF1F0D
:10E98000002141800170704770477CB504000FD0B2
:10E99000608800280CD00025009501951323E1889C
:10E9A000207A172200F028F8FF2060726580257019
:10E9B0007CBDF8B5074615460E461020FBF7C8FB90
:10E9C000040017D0A0202070002060706680002D09
:10E9D00005D00C222946201DFBF72AFB04E00C225F
:10E9E0000021201DFBF73CFB21463846FBF78CFB42
:10E9F0000020F8BD0120F8BDFFB581B01E461746C6
:10EA000014200B9DFBF7A4FB04001AD0A220207059
:10EA10006770029860800A9820716671002D06D098
:10EA200020460C2229460830FBF702FB05E0204671
:10EA30000C2200210830FBF713FB21460198FBF75D
:10EA400063FB05B0F0BD022A1CD34B780A781B0289
:10EA5000D21892B20280012A02D0022A06D00FE018
:10EA60008A78C97809025118418009E0CB788A7800
:10EA70001B02D21842800A79497909025118818013
:10EA80000020704701207047F8B506464D880020E9
:10EA900070600A790C46022A12D029016048009160
:10EAA000415A002906D0009B1F18BB68002B01D0DB
:10EAB000012A7DD05A486C304169491C4161A9E066
:10EAC000E288042A43D3A068437801781B02C9185E
:10EAD00089B20091C37881781B02C9188FB2017A7C
:10EAE000C079000208184F4948800099091D8A42E0
:10EAF00020D1072F13D0052F11D0042F02D0062FBD
:10EB000025D10CE046482901405A002807D0284664
:10EB1000FDF736FA42486C300169491C01610098E2
:10EB2000308137800321C943A068FBF753FB706035
:10EB30000020F8BD072F18D0052F16D0042F07D0BE
:10EB4000062F12D036486C30C168491CC16064E0A1
:10EB500033482901405A002807D02846FDF710FA0B
:10EB60002F486C300169491C01612D492D0100209D
:10EB700048536E180098B081B7800098FDF784FA6A
:10EB8000B060002818D00321C943A068FBF722FB1E
:10EB9000E2880146224F121FB068FBF749FA785B02
:10EBA000E1884018001F785338466C30016800E057
:10EBB00008E0491C016030E019486C308169491C4B
:10EBC00081612AE0E2888918009A89B28152BA8963
:10EBD00091421AD80546B868E2884018801AA168A0
:10EBE000FBF726FA0098295AB889814215D130815D
:10EBF000B8883080B8687060009900206852084872
:10EC00006C304168491C416007E005486C30816800
:10EC1000491C81602846FDF7B3F90120F8BD0000CA
:10EC20008C92FF1F805CFF1F022A01D001207047D9
:10EC30000A784978090251180180002070470A7843
:10EC400002704A7842708A78C97809025118418066
:10EC500070470000FFB50C4607463D49A1208000E3
:10EC6000096878434018FF30C130067E89B01546E8
:10EC70003846FBF765FE001DB04204D23846FBF76C
:10EC80005FFE001DC6B2B54207D82A4600213846AD
:10EC90000C9BFBF7E7FA0DB0F0BD31462846FBF7B9
:10ECA0005DFA2746403738740C9961650146714317
:10ECB000691AC9B202910C9904910299002901D0F4
:10ECC000401C3874002523E00299002904D0401E1E
:10ECD000A84201D1084600E03046E90005910391C1
:10ECE0006054FDF7E5F803990919486000281BD026
:10ECF0000599625C0499FBF79BF90598215C0498DF
:10ED0000081804901348C169491C6D1CEDB2C1611B
:10ED1000387CA842D8D8606D002803D0FBF73CFAB5
:10ED2000002060650020B6E7002038740646606564
:10ED300006E0F00000194068FBF72EFA761CF6B2E8
:10ED4000AE42F6D30348C16A491CC1621320A2E750
:10ED50003409FF1FF892FF1FF7B586B016460D461F
:10ED60004878FFF7F5FD040010D0002727712878B8
:10ED7000012802D0132809D105E06A88314602A88B
:10ED8000FFF761FE0AE02078032802D0002009B0D6
:10ED9000F0BD6A88314602A8FFF746FF06462046C6
:10EDA00000F046F902A8019000972B78207A3246AD
:10EDB0000699FFF721FE2046FFF7E2FD3046E6E721
:10EDC000FEB50446468801466846FFF75DFE0546E7
:10EDD000019800282FD068460088052806D004280E
:10EDE00009D0062807D0072805D026E06946304616
:10EDF00000F030F821E0810015480818014640393C
:10EE0000098E002919D02038807C6A463146FFF7E8
:10EE1000D0FD002811D168460088042803D00121C4
:10EE20003046FDF749F8012D04D1A068002801D033
:10EE3000FBF7B2F9FEBD012D04D1A068002801D076
:10EE4000FBF7AAF901213046FDF736F8FEBD0000B8
:10EE50001092FF1F30B50546088987B00C4604287C
:10EE600017D302A86168FFF7EAFE684640891728B1
:10EE700037D82189001D81421ED16846007AC1071A
:10EE800009D0626802A92846121DFFF765FF002815
:10EE900012D107B030BD6168091D122805D00020CD
:10EEA00069460880497A6A4622E06846428903A892
:10EEB000FDF732F8002803D02846FFF765FDE8E7A4
:10EEC0000D4881880029E4D06946497A03AA019255
:10EED000009169460B7A807900222946FFF78CFD64
:10EEE000D7E701216846018017214180417A6A46AF
:10EEF0002846FCF7C5FFCCE71092FF1F70B5144CF5
:10EF000000262680A681A680A0683546002802D06B
:10EF1000FBF742F9A5600E4C1034204640300574D2
:10EF200045740576606D002802D0FBF735F96565FC
:10EF30005C20002546433419E8002018406800286A
:10EF400001D0FBF729F96D1C0A2DF5DB70BD00001F
:10EF50008C92FF1FFFB589B015460E461720129FF1
:10EF6000FDF792F8040021D0684606704570002F26
:10EF700003D0201D0C99B84700E000206946488066
:10EF8000267065704888A070010AE1700522694604
:10EF90008A82001D0694888305A90998FFF780FCE2
:10EFA000050004D02046FBF7F7F800E013252846BB
:10EFB0000DB0F0BDFFB581B01E46054601210A9F88
:10EFC0000B9C00F02BF9002811D02046FFF736FCEF
:10EFD00000280AD0C5800446077012484178491CB1
:10EFE0000A06120E427004D005E015250FE0142524
:10EFF0000DE001224270227100962846039B02997F
:10F00000FFF7A8FF050005D02046FFF7B9FC28460A
:10F0100005B0F0BD23462146034A09330348FBF7F8
:10F0200027F9F4E7805CFF1F307500008BE90011C1
:10F0300010B50446407AFBF7FDF8FF20607210BD62
:10F0400010B500240F22835C5B0023438B54835C48
:10F05000521EDC0952B2002AF5DA10BDFFB581B0AC
:10F060001E4617460D46084600F04AF8002802D012
:10F07000112005B0F0BD0E4800F042F8040015D094
:10F080000A98A0710622E01D0B99FAF7D1FF65805E
:10F090002771667101982070002060620C98E081F1
:10F0A0000021284600F0CCF80020E2E71520E0E738
:10F0B000FFFF000070B514460D46064600F020F82C
:10F0C00000280BD0416A007900290CD0C20611D566
:10F0D00080070AD4002C08D0052070BD074886425E
:10F0E0000AD0142070BDC006F6D5887EA84203D28F
:10F0F0000C2070BD0F2070BD002070BDFEFF000011
:10F10000084A002128234B439B185B88834203D184
:10F110002820414388187047491C0906090EF1D080
:10F12000002070474092FF1F30B50B4C0B4B002165
:10F1300028224A43D5186D88A54206D09A5C82429F
:10F1400003D128204143C81830BD491C0906090EC7
:10F15000EED0002030BD0000FFFF00004092FF1FF6
:10F1600010B500200B4C0C4B014628224243D2180C
:10F170005480401C117100065162000EF5D0064A01
:10F18000002028328300401CC0B2D1500528F9D39A
:10F1900010BD0000FFFF00004092FF1F0020074A43
:10F1A000014628234B439B181B79002B01D0401CA0
:10F1B000C0B2491C0906090EF3D070474092FF1FE8
:10F1C000074A00218B00D358002B05D0491CC9B237
:10F1D0000529F7D31320704789005050002070474D
:10F1E0006892FF1F10B5FFF78BFF040013D06088F3
:10F1F000012100F025F8606A002801D0FAF77EFFAF
:10F20000282200212046FAF72BFF0020C04360800F
:10F210000020207110BD022010BD000010B50C466A
:10F220000649884206D0FFF76BFF002804D000791A
:10F23000204201D0012010BD002010BDFEFF0000C3
:10F24000F8B5084D0E4607460024A0002A58002AAB
:10F2500002D0314638469047641CE4B2052CF4D302
:10F26000F8BD00006892FF1FFFB581B00298FFF75C
:10F2700047FF040069D00298354986008A59002A60
:10F2800063D0136A1820002B00D03420936A002B1F
:10F2900000D01430049B002B00D01C30516A002990
:10F2A00000D01630FAF754FF05004ED01822002186
:10F2B000FAF7D6FE2620FBF797FF070000D1277844
:10F2C000D0202870019868700A20A8700298A88041
:10F2D0000398A8711E482C4680591834006A0028EB
:10F2E00008D01B49AC60895920461C34096A1C228D
:10F2F000FAF79EFE16488059806A002808D0144903
:10F30000EC60895920461434896A1422FAF790FE79
:10F310000498002806D02C6120461C341C22049935
:10F32000FAF786FE0A488159496A002906D06C61BD
:10F3300080591622416A2046FAF77AFEF8B2294629
:10F34000FAF7E2FE0298FDF7B9F805B0F0BD00004B
:10F35000185CFF1FFFB581B01D46174614200E9E96
:10F36000FAF7F6FE040020D0D020207001986070DB
:10F370000520A070E770002D05D006222946201D2B
:10F38000FAF756FE04E006220021201DFAF768FE77
:10F390000A9860810B98A0810C98E0810D982082DA
:10F3A000A67421460298FAF7AFFE05B0F0BDF8B595
:10F3B00006461C4615460F460820FAF7C9FE01000E
:10F3C00009D0D02008704E70062088708D808C7116
:10F3D0003846FAF799FEF8BD007841078207C90F51
:10F3E000920F89000006C00E1143C0000843704709
:10F3F00001468A0008491020895800290AD00A6A63
:10F40000002A07D08968002904D0107A097E884232
:10F4100000D3084670470000885CFF1F10B5024605
:10F42000014620321031FAF729FF10BD10B5FAF766
:10F4300025FF10BD7FB50D460446810009484058A0
:10F4400000280ED0014668314EC903966E460EC69E
:10F45000037FC28801782846FDF79EF8204600F019
:10F4600003F87FBD885CFF1F70B5044600F0BEFC4A
:10F47000A500134C6059002821D0006A002801D053
:10F48000FAF73CFE6059806E002801D0FAF736FE8C
:10F490006059C06E002801D0FAF730FE6059006F45
:10F4A000002801D0FAF72AFE6059406F002801D0E9
:10F4B000FAF724FE6059FAF721FE0020605170BD72
:10F4C000885CFF1F7FB5084D8400295910226846CB
:10F4D0002531FAF7ADFD2859044BC0886A46112141
:10F4E00000F014FC04B070BD885CFF1F31020111F4
:10F4F0007FB50C4C85006159002910D0694600F099
:10F5000029FC60590178C088002901D0064B00E031
:10F51000064B6A46072100F0F9FB04B070BD0120DC
:10F52000FBE70000885CFF1F8D0201111F03011122
:10F5300070B50D46064600240AE0FAF7A5FE010A5A
:10F540003155641CE4B2AC4202D23055641CE4B2C2
:10F55000AC42F2D370BD00007FB5084D840029593C
:10F56000102268463531FAF763FD2859044BC088EC
:10F570006A46112100F0CAFB04B070BD885CFF1F11
:10F580006B02011110B5064A8300D258002A06D03A
:10F59000D288824203D1012901D1FFF765FF10BD56
:10F5A000885CFF1F70B50E4C064685006059002828
:10F5B00013D000782146002810D08868002804D095
:10F5C0004168002901D030468847605940781228A8
:10F5D00003D100213046FFF72DFF70BD4868EDE7ED
:10F5E000885CFF1F10B50A46024B112100F08EFB0C
:10F5F00010BD0000990101111CB504466846134670
:10F60000017006221946401CFAF712FD034B6A46A8
:10F610000821204600F07AFB1CBD0000BB0101114F
:10F6200010B50A46024B112100F070FB10BD00001E
:10F63000E101011110B586B0044668461346018009
:10F6400008221946801CFAF7F3FC044B6A460B218A
:10F65000204600F05BFB06B010BD00000302011164
:10F6600010B50A46024B112100F050FB10BD0000FE
:10F670002D03011130B587B0044600206946087596
:10F68000A06805782B00FAF7E5FC0C2C07070F1291
:10F6900015181B1E2124272C00F0CAFE12281DD18C
:10F6A00006206946087529E000F094FE16E000F097
:10F6B000B0FE13E000F09DFE10E000F048FE0DE00B
:10F6C00000F074FE0AE000F062FE07E000F04EFE7B
:10F6D00004E000F025FF01E000F014FF002802D054
:10F6E00008E00720DEE760886A46294600F028FF28
:10F6F000694608756846007D002805D0608805A920
:10F7000000F0F2FA07B030BD608800F043FBF9E783
:10F71000F8B52B4D06468700E8590C46002807D05F
:10F72000C188B14204D14178062904D0112930D0D2
:10F73000002C36D03EE002782149002A25D083688B
:10F74000026A5B69DC0704D0147BE40701D007215F
:10F7500005E09C0705D5147BA40702D5092141705B
:10F760002CE05B0704D5127B520701D50B21F6E78D
:10F770008868002822D0416800291FD03046884779
:10F78000E8594078122802D018E04868F1E70021D3
:10F7900003E0002C00D0322421463046FFF74AFE19
:10F7A0000CE03046FFF7ACFC002803D001791022B2
:10F7B0001143017131462046FDF7B4FB0120F8BD2D
:10F7C000885CFF1F70B501780124922902D0A0291E
:10F7D00019D130E041780E2902D03E2913D10BE037
:10F7E00081881A4AD14205D18068411C007800F016
:10F7F00033F81EE000201CE0014680780124052833
:10F8000003D0082811D000241DE0114800784007DB
:10F8100019D510480068002815D08368002B12D035
:10F82000CA898888891D984703E088888979FFF705
:10F830006FFF044607E00546FFF71CFFA868002895
:10F8400001D0FAF7A9FC204670BD0000E8DFFFFFF9
:10F85000B75BFF1F8C5CFF1F70B51D4C0546206811
:10F86000002825D0002D06D10278002A21D00822B8
:10F870000A30FAF7DDFB20682E46002817D0122048
:10F88000FAF766FC05000DD0C12028706E70216863
:10F890001022A81C891CFAF7CBFB20682946407867
:10F8A000FAF732FC2068FAF729FC002020600120DA
:10F8B00070BD0822801CFAF7BBFBFAF7EBFC0028AE
:10F8C00001D00125D7E7216801200870EFE700008B
:10F8D000845CFF1F0149486070470000885CFF1F7F
:10F8E000F7B588B016460446102200216846FAF79C
:10F8F000B7FB334DA700E859002835D0C188A14295
:10F9000032D1017800292FD14278062A0FD0816E9A
:10F91000002929D0088A112A19D0B04224D10822FE
:10F9200012310998FAF790FB01283CD01CE00246FE
:10F9300001465532353104AB0C3000F000FC002894
:10F9400012D12046FFF754FD024604A930E0B04230
:10F9500006D1082212310998FAF776FB01281BD04C
:10F9600032212046FFF766FD2046FFF7C9FB050060
:10F970000CD0696A002909D0088AB04206D1082251
:10F9800012310998FAF760FB01280FD02046FAF7E8
:10F9900087FC01200BB0F0BD2046FFF729FDE95997
:10F9A0000246896E04E0E859816E00E0696A8A7E49
:10F9B0006846FAF73DFB20466946FAF777FCE8E728
:10F9C000885CFF1FF1B582B00298694C85006059D0
:10F9D0000178002976D141788768066A062907D020
:10F9E000CA1F1300FAF736FB050A48525B1872006B
:10F9F0007969CA0706D0327BD20703D0806E00280F
:10FA000013D019E0880702D5307B80073ED4480721
:10FA100064D5307B400761D5FCF796FD6159CA88F3
:10FA200001461046FFF71CFE58E01C20FAF754FB75
:10FA300061590028886653D060591022866E0021D3
:10FA40003046FAF70DFB0298FFF7D2FC014630462C
:10FA5000FFF76EFDFAF718FC3082304608211230AD
:10FA6000FFF766FD0298FFF7C3FCB0766059314698
:10FA7000C088FFF7B7FD33E0816E002932D00A4617
:10FA80001232098AC088FFF7D5FD2BE0FCF756FD3E
:10FA90006159CA8801461046FFF7C2FD3FE00120C8
:10FAA0000190FCF745FD009001280CD0002000904B
:10FAB0000198FCF72FFD024660590099C088FFF7B6
:10FAC0009BFD39E023E000200190F2E7072907D0F1
:10FAD000082907D0092922D00A292DD078690EE0FB
